:0A43D40052756E6E696E67210A00D3
:03193D0001260080
:10328E00900223E4F0900224E4F0A3E4F0900226EE
:10329E00120707000000009001CDE0FBA3E0FAA3A7
:1032AE00E0F91207AE7BFF7A4379D4C003C002C0A7
:1032BE0001900078E0FBA3E0FAA3E0F989828A830B
:1032CE00D001D002D0031207B2D293900218E0FBC5
:1032DE00A3E0FAA3E0F91207AE900215E0FBA3E01B
:1032EE00FAA3E0F91207AE900211E0FCA3E0FDA3F1
:1032FE00E0FEA3E0FF12039BEF75F00A84FD90023F
:10330E0001E0FBA3E0FAA3E0F989828A837F011230
:10331E0007B2900211E0FCA3E0FDA3E0FEA3E0FFE4
:10332E0012039BEF75F00A84ADF0900201E0FBA34F
:10333E00E0FAA3E0F989828A837F021207B2900134
:10334E004EE0FBA3E0FAA3E0F989828A837FF47E44
:07335E00011207B20232D98F
:013365002245
:0C43C80057694669204572726F720A0046
:1019400054013A0000000000000000000000000008
:10195000000000000000004F014EFF40B6FF42476C
:09196000FF003FFF43EEFF413898
:104247007BFF7A4379C8C003C002C001900078E0C1
:10425700FBA3E0FAA3E0F989828A83D001D002D0D8
:05426700031207B22262
:04003F0043C7202271
:0343EE00B2B42244
:10413800900255EBF0A3EAF0A3E9F0900258EDF0F5
:10414800900258E0FF7E007D00900255E0FBA3E05E
:10415800FAA3E0F91207B490014EE0FBA3E0FAA33A
:0E416800E0F989828A837F0A7E001207B22264
:0840B600900259EEF0A3EFF0B7
:1040BE0090025BE4F0A3E4F0900259E0FEA3E0FF6F
:1040CE0090025BE0FCA3E0FDC3ED9FEE6480F8EC94
:1040DE0064809850131242C990025CE004F070069E
:0840EE0090025BE004F080D0B9
:0140F60022A7
:1042C90000000075150B7516BE1516AF16EF70F9BF
:0742D9001515AF15EF70F29F
:0142E00022BB
:0F1969004C01B8FF000EFF42F8FF430DFF42E1B3
:10000E0075B10475B21020B304D2B480F930B3F6D2
:05001E00C2B480F222D3
:1042F80075B10475B21420B204D2B480F930B2F6A4
:05430800C2B480F222A6
:10430D0075B10475B21020B204D2B480F930B2F692
:05431D00C2B480F22291
:1042E10075B10475B210D2B320B304D2B480F930E1
:0742F100B3F6C2B480F22213
:104322004E6F74206861766520382042797465A3E7
:04433200A1A3A100A2
:10197800603200320000000000000000000000009B
:10198800000000000000000000000000000000004F
:10199800000000000000000000000000000000003F
:1019A800000000000000603200000000000000009D
:1019B800000000000000000000000000000000001F
:1019C800000000000000000000000000000000000F
:1019D800000000000000000000000000602100641A
:1019E8000003000000010000010032FF34FEFF3F49
:1019F80049FF3873FF367DFF336601FF0026FF423B
:011A0800B02D
:1034FE00900064E0FFEF120788350E0000003513D0
:10350E0075985080037598D090007EE0FFEF1207FB
:10351E0088352C00353101352C020000353753A289
:10352E003F800653A27F43A24075870053890F4305
:10353E008E40538EFE900065E0FFEF120788355CDB
:10354E0000356401356C023574030000357C758BD3
:10355E00C0758DFD801E758BE0758DFE8016758B8A
:10356E0070758DFF800E758BE8758DFF8006758BDF
:10357E00C0758DFDC2ABD28ED29C90006CE0FBA3C9
:10358E00E0FAA3E0F9C003C002C00190015AE0FBCB
:10359E00A3E0FAA3E0F989828A83D001D002D00396
:1035AE007D321207B2900067E4F0900068E4F022DA
:053F490090028DEFF075
:103F4E00900066E0FFEF640160F6900064E0FFEF22
:103F5E00602890028DE0FFEFA2D0920D900064E0F9
:103F6E00FFEF1207883F7D013F840200003F88A2C9
:103F7E000DB3929B8004A20D929B9000667401F08B
:073F8E0090028DE0FF8F9906
:013F95002209
:0B367D0090026DEBF0A3EAF0A3E9F06F
:10368800781E760008760090007EE0FFEFB4010E09
:1036980090007FE0FBA3E0FAA3E0F91207AE9002E6
:1036A8006DE0FBA3E0FAA3E0F9781EE6FE08E6FF6A
:1036B8008F828E83120634FFEF603690026DE0FB36
:1036C800A3E0FAA3E0F9781EE6FE08E6FF8F828EF3
:1036D80083120634FF900072E0FBA3E0FAA3E0F93E
:1036E80089828A831207B2781F06E618700106805D
:1036F800AD900066E0FFEF640160F690007EE0FFA9
:10370800EFB4012490014EE0FBA3E0FAA3E0F989AD
:10371800828A837F017E001207B2900082E0FBA3B9
:08372800E0FAA3E0F91207AE7C
:013730002276
:1038730090025DEBF0A3EAF0A3E9F0900260EDF0B3
:1038830090007EE0FFEFB4010E90007FE0FBA3E029
:10389300FAA3E0F91207AE900260E0FF14F0EF60C4
:1038A3002890025DE0FBA3E475F0011206ABA9F0DA
:1038B300FA12061BFF900072E0FBA3E0FAA3E0F903
:1038C30089828A831207B280CE900066E0FFEF649C
:1038D3000160F690007EE0FFEFB4012490014EE01A
:1038E300FBA3E0FAA3E0F989828A837F017E0012B9
:1038F30007B2900082E0FBA3E0FAA3E0F91207AE5F
:0139030022A1
:10426C0090028EEFF090028EE0FF900072E0FBA3C4
:10427C00E0FAA3E0F989828A831207B290028EE0F9
:02428C00FF220F
:10002600D2A090014EE0FBA3E0FAA3E0F989828A10
:09003600837F027E001207B22252
:1042B00090014EE0FBA3E0FAA3E0F989828A837FB4
:0942C000027E001207B2C2A02226
:10336600D20E900067E0FFEF6401600302343190F3
:10337600006CE0FBA3E0FAA3E0F9AE02AF01EF4E6A
:10338600607178187600087600900068E0FFEFC359
:10339600940850127818E6FE08E6FFC3EF9414EE80
:1033A600940040E5C20E300E257B017A007964C098
:1033B60003C002C0017823860308E6FA08E6F98905
:1033C600828A83D001D002D0031207B280259000F2
:1033D6007FE0FBA3E0FAA3E0F91207AE7BFF7A4396
:1033E6007922120872900082E0FBA3E0FAA3E0F9CA
:1033F6001207AE90006CE0FBA3E0FAA3E0F9C0036D
:10340600C002C001900068E0FD90015AE0FBA3E015
:10341600FAA3E0F989828A83D001D002D003120789
:0B342600B2900067E4F0900068E4F052
:013431002278
:030023000230DCCC
:0B30DC00C0E0C083C082C0D075D008E7
:1030E700309907C299900066E4F02098030231AC4A
:1030F700C29890028FE599F0A29A920990028FE008
:10310700FFEFA2D0920A900068E0FFEFC39432402D
:10311700030231A6900064E0FFEF120788318600B2
:10312700313101315C02000031A6A209B3300A0136
:10313700B3406C90028FE0FF90006CE0FBA3E0FAD5
:10314700A3E0F9900068E0FE04F08E82758300EF3B
:10315700120673804AA20A300901B3404290028FD7
:10316700E0FF90006CE0FBA3E0FAA3E0F9900068B1
:10317700E0FE04F08E82758300EF120673802090C4
:10318700028FE0FF90006CE0FBA3E0FAA3E0F99068
:103197000068E0FE04F08E82758300EF12067390DC
:0531A70000677401F057
:0931AC00D0D0D082D083D0E032F3
:0F1A09004C01C4FF402EFF43ADFF41B3FF373107
:10402E0075930075940C75800075911075920853F8
:10403E0090F775957C75967D53A0FE75B14475B25B
:10404E00B0C2B575C90075CAFFD2CCC2CD90014EB3
:10405E00E0FBA3E0FAA3E0F989828A837F027E0067
:04406E001207B22261
:0E43AD00D2A8D288D2A9D2AC43AF01D2AF229F
:1041B300900290E4F0900290E4F0900290E0FFEF20
:1041C300C394055020B2B490014EE0FBA3E0FAA3E0
:1041D300E0F989828A837F327E001207B2900290CF
:0541E300E004F080D5AE
:0141E80022B4
:1037310090014EE0FBA3E0FAA3E0F989828A837F3E
:10374100647E001207B29001C4E0FBA3E0FAA3E09B
:10375100F91207AE9001CAE0FBA3E0FAA3E0F91267
:1037610007AE9001C7E0FBA3E0FAA3E0F91207AEB0
:10377100781B860308E6FA08E6F91207AE90006F97
:10378100E0FBA3E0FAA3E0F91207AE9000C2E0FB70
:10379100A3E0FAA3E0F91207AE900161E0FBA3E018
:1037A100FAA3E0F91207AE9001FEE0FBA3E0FAA351
:1037B100E0F91207AE9001ACE0FBA3E0FAA3E0F957
:1037C1001207AE90017AE0FBA3E0FAA3E0F9120739
:1037D100AE9001E9E0FBA3E0FAA3E0F91207AE2203
:0A1A180047022A00000000FF2F2003
:102F200090021BEBF0A3EAF0A3E9F090021EEDF093
:102F300090021FE4F0A3E4F0900221E4F09002225A
:102F4000E4F090021F74FFF0A374FFF0900221E4FC
:102F5000F090021EE0FF900221E0FEEEC39F4003CE
:102F6000022FF990021FE0FEA3E0FF90021BE0FB9E
:102F7000A3E0FAA3E0F9900221E0FD8D82758300C1
:102F8000120634FD7C00EE6CFEEF6DFF90021FEE2A
:102F9000F0A3EFF0900222E4F0900222E0FFEFC3F2
:102FA0009408504C90021FE0FEA3E0FFEF30E021B8
:102FB00090021FE0FEA3E0FFEEC313FEEF13FFEE4F
:102FC00064A0FEEF6401FF90021FEEF0A3EFF0801B
:102FD0001790021FE0FEA3E0FFEEC313FEEF13FF06
:102FE00090021FEEF0A3EFF0900222E004F080A91F
:102FF000900221E004F0022F5190021FE0FEA3E0B6
:01300000FFD0
:0130010022AC
:103BA600435243313620436865636B204552524F7A
:103BB60052A3A1A3A100526567697374206164646E
:103BC60072657373206F7574206F662072616E67FD
:103BD60065A3A1A3A1307E390A004F6E6C792072CD
:103BE6006561642074776F20726567697374206FEE
:103BF6006E6365A3A1A3A10A005265676973742069
:103C060061646472657373206F7574206F662072C9
:0E3C1600616E676532A3A1A3A1307E390A005A
:061A2200042201FF215E19
:0B215E0090023FEBF0A3EAF0A3E9F0D1
:1021690090023FE0FBA3E0FAA3E0F9900242EBF012
:10217900A3EAF0A3E9F0900242E0FBA3E0FAA3E0AE
:10218900F975820875830012075812061BFF782219
:10219900E6FEEF6E6003022322900242E0FBA3E019
:1021A900FAA3E0F9758208758300120758C003C0C5
:1021B90002C00190022EE0FBA3E0FAA3E0F98982B4
:1021C9008A83D001D002D0037D061207B290022A79
:1021D900EEF0A3EFF090022AE0FEA3E0FFEEFF7E0F
:1021E9000090022CEFF090022AE0FEA3E0FF90029B
:1021F9002DEFF0900242E0FBA3E0FAA3E0F975822B
:102209000875830012075875820675830012063413
:10221900FF90022DE0FEEFB50627900242E0FBA3F6
:10222900E0FAA3E0F97582087583001207587582F0
:1022390007758300120634FF90022CE0FEEF6E60F2
:1022490051900242E0FBA3E0FAA3E0F97582087518
:102259008300120758758206758300120634FF90B1
:10226900022CE0FEEF6E60030222FD900242E0FBC9
:10227900A3E0FAA3E0F9758208758300120758757F
:102289008207758300120634FF90022DE0FEEF6E7F
:102299007062900242E0FBA3E0FAA3E0F9758208BC
:1022A900758300120758758201758300120634FF81
:1022B900EFB4030F900242E0FBA3E0FAA3E0F912A6
:1022C9000C8A22900242E0FBA3E0FAA3E0F97582AE
:1022D9000875830012075875820175830012063448
:1022E900FFEFB40634900242E0FBA3E0FAA3E0F961
:1022F900121D722290007FE0FBA3E0FAA3E0F9121D
:1023090007AE7BFF7A3B79A6120872900082E0FB48
:09231900A3E0FAA3E0F91207AEFB
:012322002298
:0B0C8A0090019EEBF0A3EAF0A3E9F05C
:100C950090019EE0FBA3E0FAA3E0F99001A1EBF03F
:100CA500A3EAF0A3E9F09001A4E4F0A3E4F0900135
:100CB500A6E4F0A3E4F09001A87403F09001A1E08C
:100CC500FBA3E0FAA3E0F9758208758300120758C3
:100CD500758202758300120634FF7E009001A4E040
:100CE500FCA3E0FDEF2DFFEE3CFEEF7F00FE900143
:100CF500A1E0FBA3E0FAA3E0F97582087583001271
:100D05000758758203758300120634FD7C00EF2DAC
:100D1500FFEE3CFE9001A4EEF0A3EFF09001A1E000
:100D2500FBA3E0FAA3E0F975820875830012075862
:100D3500758204758300120634FF7E009001A6E0DB
:100D4500FCA3E0FDEF2DFFEE3CFEEF7F00FE9001E2
:100D5500A1E0FBA3E0FAA3E0F97582087583001210
:100D65000758758205758300120634FD7C00EF2D4A
:100D7500FFEE3CFE9001A6EEF0A3EFF09001A6E099
:100D8500FEA3E0FF9001A4E0FCA3E0FDED2FFFEC46
:100D95003EFED3EF940AEE940040030210599001F1
:100DA500A6E0FEA3E0FFD3EF9400EE94005003020B
:100DB50010599001A6E0FEA3E0FFC3EF9403EE9463
:100DC5000040030210597822E6FF9001A1E0FBA341
:100DD500E0FAA3E0F9758205758300120758EF1252
:100DE50006619001A1E0FBA3E0FAA3E0F975820595
:100DF5007583001207587582017583007403120606
:100E0500739001A6E0FEA3E0FFEF25E0FF9001A1AE
:100E1500E0FBA3E0FAA3E0F97582057583001207EC
:100E250058758202758300EF1206739001A9E4F0EC
:100E35009001A9E0FF7E009001A6E0FCA3E0FDC3C0
:100E4500EF9DEE9C4003020F7D9001A9E0FF90010C
:100E5500AAEFF09001A9E0FF7E00EF2401FFEE3438
:100E650000FE9001AAE0FD7C00D3ED9FEE6480F8C2
:100E7500EC6480984003020F6D9001A9E0FF90019A
:100E8500AAE0FEEE6F706F9001A9E0FF7E00900171
:100E9500A4E0FCA3E0FDEF2DFFEE3CFEEF25E0FF17
:100EA500EE33FE743A2FF58274013EF583E0FEA31E
:100EB500E0FFEEFF7E009001A1E0FBA3E0FAA3E0D6
:100EC500F9758205758300120758E92403F9EA3498
:100ED50000FA9001A9E0FEEEFD7C00E92DF9EA3C5F
:100EE500FA9001AAE0FEEEFD7C00E92DF9EA3CFA54
:100EF500EF12066180699001A9E0FF7E009001A4D0
:100F0500E0FCA3E0FDEF2DFFEE3CFEEF25E0FFEE5C
:100F150033FE743A2FF58274013EF583E0FEA3E0BB
:100F2500FF9001A1E0FBA3E0FAA3E0F97582057546
:100F35008300120758E92403F9EA3400FA9001A95D
:100F4500E0FEEEFD7C00E92DF9EA3CFA9001AAE00D
:100F5500FEEEFD7C00E92DF9EA3CFAEF1206619000
:100F650001AAE004F0020E589001A8E02402F090D6
:100F750001A9E004F0020E359001A1E0FBA3E0FA1F
:100F8500A3E0F9758205758300120758C003C002F6
:100F9500C0019001A8E0FD90022EE0FBA3E0FAA3BA
:100FA500E0F989828A83D001D002D0031207B2907A
:100FB500022AEEF0A3EFF090022AE0FEA3E0FF90F4
:100FC50001A1E0FBA3E0FAA3E0F9758205758300B2
:100FD5001207589001A8E0FE04F08E82758300EF99
:100FE50012067390022AE0FEA3E0FFEEFF7E00905A
:100FF50001A1E0FBA3E0FAA3E0F975820575830082
:101005001207589001A8E0FE04F08E82758300EF68
:101015001206739001A1E0FBA3E0FAA3E0F9758243
:1010250005758300120758C003C002C0019001A8CE
:10103500E0FD9001A1E0FBA3E0FAA3E0F9758211C0
:1010450075830012075889828A83D001D002D003A4
:101055001207B2229001A6E0FEA3E0FF9001A4E0F2
:10106500FCA3E0FDED2FFFEC3EFED3EF940AEE94DA
:1010750000402690007FE0FBA3E0FAA3E0F9120709
:10108500AE7BFF7A3B79BC120872900082E0FBA32D
:10109500E0FAA3E0F91207AE2290007FE0FBA3E09F
:1010A500FAA3E0F91207AE7BFF7A3B79E0120872EA
:0E10B500900082E0FBA3E0FAA3E0F91207AE80
:0110C300220A
:0B1D72009001DCEBF0A3EAF0A3E9F025
:101D7D009001DCE0FBA3E0FAA3E0F99001DFEBF0CA
:101D8D00A3EAF0A3E9F09001E2E4F0A3E4F09001FE
:101D9D00E4E4F0A3E4F09001E6E4F09001E6E0FF66
:101DAD00EFC39408504C9001DFE0FBA3E0FAA3E0F1
:101DBD00F97582087583001207589001E6E0FF8FD0
:101DCD0082758300120634FF9001DFE0FBA3E0FA79
:101DDD00A3E0F97582057583001207589001E6E0BE
:101DED00FE8E82758300EF1206739001E6E004F01B
:101DFD0080A99001DFE0FBA3E0FAA3E0F97582056D
:101E0D00758300120758C003C002C0019001DFE0C6
:101E1D00FBA3E0FAA3E0F975821175830012075850
:101E2D0089828A83D001D002D0037D081207B29037
:101E3D0001DFE0FBA3E0FAA3E0F9758208758300EA
:101E4D00120758758202758300120634FF7E0090CA
:101E5D0001E2E0FCA3E0FDEF2DFFEE3CFEEF7F0085
:101E6D00FE9001DFE0FBA3E0FAA3E0F975820875AF
:101E7D008300120758758203758300120634FD7CAA
:101E8D0000EF2DFFEE3CFE9001E2EEF0A3EFF0909F
:101E9D0001DFE0FBA3E0FAA3E0F97582087583008A
:101EAD00120758758204758300120634FF7E009068
:101EBD0001E2E0FCA3E0FDEF2DFFEE3CFEEF7F0025
:101ECD00FE9001DFE0FBA3E0FAA3E0F9758208754F
:101EDD008300120758758205758300120634FD7C48
:101EED0000EF2DFFEE3CFE9001E4EEF0A3EFF0903D
:101EFD0001E2E0FEA3E0FFD3EF9409EE940050352C
:101F0D009001E2E0FEA3E0FFC3EE940040279001B4
:101F1D00E4E0FCA3E0FD9001E2E0FEA3E0FFEF258D
:101F2D00E0FFEE33FE743A2FF58274013EF583EC3B
:101F3D00F0A3EDF02290007FE0FBA3E0FAA3E0F91F
:101F4D001207AE7BFF7A3B79FF120872900082E098
:0A1F5D00FBA3E0FAA3E0F91207AEBF
:011F67002257
:091A2800071700000000FF435DF8
:10435D00538E7F5389F0758A00758CEEC28DD28C89
:01436D00222D
:03000B000237E1D8
:1037E100C0E0C0F0C083C082C0D075D000C000C0AE
:1037F10001C002C003C004C005C006C007781AE6B4
:10380100FFEFB4011F781706E6FFEFC3940A4031BA
:1038110078177600900157E0FBA3E0FAA3E0F912D4
:1038210007AE801D781706E6FFEFC394C8401278F3
:10383100177600900157E0FBA3E0FAA3E0F9120725
:10384100AE781906E618700106900160E004F07088
:103851000690015FE004F0D007D006D005D004D077
:1038610003D002D001D000D0D0D082D083D0F0D00C
:02387100E03243
:104336004E6F74206861766520382042797465A3D3
:04434600A1A3A1008E
:101A3100603200D80000000000000000000000003B
:101A41000000000000000000000000000000000095
:101A51000000000000000000000000000000000085
:101A6100000000000000603200850000000000005E
:101A71000000000000000000000000000000000065
:101A81000000000000000000000000000000000055
:101A9100000000000000000000000000602100B70D
:101AA10000030000000100850100D8FF3990FF3CD0
:101AB10024FF3F96FF3D14FF343200FF43F1FF4303
:011AC100F232
:10399000759A50438E0453BAFE900065E0FFEF1213
:1039A000078839B20039BA0139C20239CA030000A6
:1039B00039D275D7C075D6FD801E75D7E075D6FE95
:1039C000801675D77075D6FF800E75D7E875D6FF4F
:1039D000800675D7C075D6FD53AFFB438E10439A52
:1039E000109000BFE0FBA3E0FAA3E0F9C003C0021F
:1039F000C00190015AE0FBA3E0FAA3E0F989828AB2
:103A000083D001D002D0037D321207B29000BAE415
:073A1000F09000BBE4F0227E
:053C2400900279EFF0B1
:103C290090027AE4F09000B9E0FFEF640160F69049
:103C390000B7E0FFEF6054900279E0FFEFA2D0E413
:103C490033FF90027AE0FEEF2EFFEF33333354F85F
:103C5900FF90027AEFF09000B7E0FFEF1207883C7F
:103C690072013C840200003C9490027AE0FFEF70FC
:103C790005439A088015539AF7801090027AE0FF5D
:103C8900EF7005539AF78003439A089000B97401BD
:083C9900F0900279E0FF8F9B1F
:013CA1002200
:0B3D1400900261EBF0A3EAF0A3E9F0DD
:103D1F00900264E4F0900261E0FBA3E0FAA3E0F903
:103D2F00900264E0FF8F82758300120634FFEF600C
:103D3F0033900261E0FBA3E0FAA3E0F9900264E0A4
:103D4F00FF8F82758300120634FF9000C5E0FBA33E
:103D5F00E0FAA3E0F989828A831207B2900264E045
:0E3D6F0004F080B19000B9E0FFEF640160F64F
:013D7D002223
:103F9600900265EBF0A3EAF0A3E9F0900268EDF079
:103FA600900268E0FF14F0EF6028900265E0FBA342
:103FB600E475F0011206ABA9F0FA12061BFF900099
:103FC600C5E0FBA3E0FAA3E0F989828A831207B26F
:0D3FD60080CE9000B9E0FFEF640160F6229C
:10343200D20F9000BAE0FFEF640160030234FD9006
:1034420000BFE0FBA3E0FAA3E0F9AE02AF01EF4E4A
:103452006071781876000876009000BBE0FFEFC339
:10346200940850127818E6FE08E6FFC3EF9414EEB3
:10347200940040E5C20F300F257B017A0079B7C076
:1034820003C002C0017823860308E6FA08E6F98938
:10349200828A83D001D002D0031207B28025900025
:1034A2007FE0FBA3E0FAA3E0F91207AE7BFF7A43C9
:1034B2007936120872900082E0FBA3E0FAA3E0F9E9
:1034C2001207AE9000BFE0FBA3E0FAA3E0F9C0034D
:1034D200C002C0019000BBE0FD90015AE0FBA3E0F6
:1034E200FAA3E0F989828A83D001D002D0031207BD
:0B34F200B29000BBE4F09000BAE4F0E0
:0134FD0022AC
:0143F10022A9
:0143F20022A8
:03004300022D2F5C
:102D2F00C0E0C083C082C0D075D000C000C001C059
:072D3F0002C003C006C0073B
:102D4600E59A30E108539AFD9000B9E4F0E59A203F
:102D5600E003022E17539AFE7827A69BE59A5404A1
:102D6600FFEF1313543FFFEF24FF920B7827E6FF84
:102D7600EFA2D0920C9000BBE0FFEFC39432400369
:102D8600022E119000B7E0FFEF1207882DF2002DFA
:102D96009F012DC90200002E11A20BB3300C01B306
:102DA60040697827E6FF9000BFE0FBA3E0FAA3E0C6
:102DB600F99000BBE0FE04F08E82758300EF1206E8
:102DC600738048A20C300B01B340407827E6FF9091
:102DD60000BFE0FBA3E0FAA3E0F99000BBE0FE042D
:102DE600F08E82758300EF120673801F7827E6FF48
:102DF6009000BFE0FBA3E0FAA3E0F99000BBE0FE81
:102E060004F08E82758300EF1206739000BA740187
:012E1600F0CB
:102E1700D007D006D003D002D001D000D0D0D082C6
:052E2700D083D0E03271
:1026350041540D0A005769466920496E6974207432
:10264500696D656F757421210A004F4B000D0A00F5
:102655004578697420546F75436875616E2D2D2D0D
:102665002D0A002B00415445300D0A0041542B43DF
:10267500574D4F44455F4445463D310D0A00415491
:102685002B43574155544F434F4E4E0D0A0041546D
:102695002B43574A41505F4445463D22B5CEB5CE02
:1026A500B5CE222C227A6E68786B68333039220DCC
:1026B5000A005749464920474F54204950002B2BC3
:1026C5002B0053746174653D2562642C4F4B5F4646
:1026D5006C61673D2562640A0041542B43494653AA
:1026E500520D0A003139322E3136380041542B4310
:1026F500495053544152543D22544350222C2231C7
:1027050039322E3136382E3130312E313034222CBB
:10271500383838380D0A00434F4E4E454354004172
:10272500542B4349504D4F44453D310D0A0041540A
:102735002B43495053454E440D0A0052756E6E6940
:102745006E67210A0054696D654F7574210A00533F
:10275500656E6420646174613D2573004E6F74205D
:10276500415420436F6D6D616E6421213D25730ACF
:1027750000526563656976652054696D654F7574AA
:03278500210A0026
:101AC20055015E000000FF2788FF16B1FF13C3FF18
:101AD20043F3FF43F4FF2C29460173FF1F68FF2ED7
:051AE2002C41015D0034
:10278800C28390014EE0FBA3E0FAA3E0F989828AB4
:10279800837F647E001207B2D283D28278187600D3
:1027A800087600781A76019000BFE0FBA3E0FAA350
:1027B800E0F9C003C002C0019000BBE0FD90015ADF
:1027C800E0FBA3E0FAA3E0F989828A83D001D00272
:1027D800D0031207B29000BBE4F09000BAE4F07B9B
:1027E800FF7A267935C003C002C0019000CBE0FB18
:1027F800A3E0FAA3E0F989828A83D001D002D0034A
:102808001207B290014EE0FBA3E0FAA3E0F9898237
:102818008A837F647E001207B27818E6FE08E6FF16
:10282800D3EF94E8EE940340267BFF7A26793AC0EA
:1028380003C002C001900078E0FBA3E0FAA3E0F92E
:1028480089828A83D001D002D0031207B2804D90CA
:1028580000BFE0FBA3E0FAA3E0F9C003C002C00197
:102868007BFF7A26794F90010DEBF0A3EAF0A3E9FC
:10287800F0D001D002D0031235BEC003C002C0019F
:102888007B007A007900D082D083D0E06B7008E9B1
:1028980065827003EA658370030227AF90014EE0FA
:1028A800FBA3E0FAA3E0F989828A837FE87E03121A
:0728B80007B2781A76002236
:0B23230090018FEBF0A3EAF0A3E9F0BB
:10232E009001977401F090018FE0FBA3E0FAA3E017
:10233E00F9900198EBF0A3EAF0A3E9F0900192E096
:10234E00FBA3E0FAA3E0F990019BEBF0A3EAF0A364
:10235E00E9F09000BFE0FBA3E0FAA3E0F9C003C0F0
:10236E0002C0019000BBE0FD90015AE0FBA3E0FA31
:10237E00A3E0F989828A83D001D002D0031207B27A
:10238E009000BBE4F09000BAE4F0900198E0FBA35B
:10239E00E0FAA3E0F9C003C002C0019000CBE0FB5D
:1023AE00A3E0FAA3E0F989828A83D001D002D00398
:1023BE001207B2781876000876009000BFE0FBA3F3
:1023CE00E0FAA3E0F9C003C002C0017BFF7A2679D0
:1023DE005290010DEBF0A3EAF0A3E9F0D001D00288
:1023EE00D0031235BEC003C002C0017B007A007953
:1023FE0000D082D083D0E06B7008E965827003EA6A
:10240E006583604F9000BFE0FBA3E0FAA3E0F9C044
:10241E0003C002C001900192E0FBA3E0FAA3E0F931
:10242E0090010DEBF0A3EAF0A3E9F0D001D002D0B9
:10243E00031235BEC003C002C0017B007A007900D2
:10244E00D082D083D0E06B7008E965827003EA65B4
:10245E0083702C900195E0FEA3E0FF7818E6FC084F
:10246E00E6FDD3ED9FEC9E50030223C8900151E090
:10247E00FBA3E0FAA3E0F91207AE900197E4F09007
:10248E0000BFE0FBA3E0FAA3E0F9C003C002C00165
:10249E009000BBE0FD90015AE0FBA3E0FAA3E0F947
:1024AE0089828A83D001D002D0031207B29000BB7A
:0C24BE00E4F09000BAE4F0900197E0FF19
:0124CA0022EF
:1016B100900234E0FFEF6401600302193C781A766E
:1016C1000190015EE0FFEF640160030217757BFF8B
:1016D1007A267955C003C002C001900078E0FBA3CF
:1016E100E0FAA3E0F989828A83D001D002D0031203
:1016F10007B27BFF7A267968C003C002C00190005F
:10170100CBE0FBA3E0FAA3E0F989828A83D001D080
:1017110002D0031207B27BFF7A267968C003C002A8
:10172100C0019000CBE0FBA3E0FAA3E0F989828A33
:1017310083D001D002D0031207B27BFF7A267968E9
:10174100C003C002C0019000CBE0FBA3E0FAA3E01C
:10175100F989828A83D001D002D0031207B29001A5
:101761004EE0FBA3E0FAA3E0F989828A837FE87E59
:10177100031207B27BFF7A267935C003C002C0018C
:101781007BFF7A26794F900192EBF0A3EAF0A3E96F
:10179100F0900195E4F0A37414F0D001D002D003CD
:1017A1001223237BFF7A26796AC003C002C0017B22
:1017B100FF7A26794F900192EBF0A3EAF0A3E9F0CA
:1017C100900195E4F0A37414F0D001D002D003127B
:1017D10023237BFF7A267971C003C002C0017BFFFE
:1017E1007A26794F900192EBF0A3EAF0A3E9F09009
:1017F1000195E4F0A37414F0D001D002D0031223B8
:10180100237BFF7A267983C003C002C0017BFF7A64
:1018110026794F900192EBF0A3EAF0A3E9F0900151
:1018210095E4F0A37414F0D001D002D00312232365
:101831007BFF7A267993C003C002C0017BFF7A2621
:10184100794F900192EBF0A3EAF0A3E9F0900195B2
:10185100E4F0A374C8F0D001D002D003122323789E
:101861001876000876007818E6FE08E6FFC3EF94C4
:10187100A0EE948C400302192A9000BFE0FBA3E084
:10188100FAA3E0F9C003C002C0017BFF7A2679B751
:1018910090010DEBF0A3EAF0A3E9F0D001D002D062
:1018A100031235BEC003C002C0017B007A0079007B
:1018B100D082D083D0E06B7008E965827003EA655D
:1018C1008360A37BFF7A2679B7C003C002C0019071
:1018D1000078E0FBA3E0FAA3E0F989828A83D001D2
:1018E100D002D0031207B290014EE0FBA3E0FAA3AD
:1018F100E0F989828A837FE87E031207B290014E64
:10190100E0FBA3E0FAA3E0F989828A837FE87E0302
:101911001207B290014EE0FBA3E0FAA3E0F989823D
:101921008A837FE87E031207B2781A760090015409
:0C193100E0FBA3E0FAA3E0F91207AE22ED
:1013C30090027BE4F090027CE4F07BFF7A2679C301
:1013D300C003C002C0019000CBE0FBA3E0FAA3E08E
:1013E300F989828A83D001D002D0031207B2900117
:1013F3004EE0FBA3E0FAA3E0F989828A837FE87ECB
:10140300031207B278187600087600781A760190EE
:10141300027CE0FFEF64FF70030216A490007FE0FC
:10142300FBA3E0FAA3E0F91207AE7BFF7A2679C7A4
:1014330090027CE0FF90010DEFF090027BE0FF90C3
:10144300010EEFF0120872900082E0FBA3E0FAA312
:10145300E0F91207AE90027CE0FFEF120788147ADE
:101463000014C901151302155D0315AD0416080513
:10147300165706000014127BFF7A267935C003C085
:1014830002C0017BFF7A26794F900192EBF0A3EA29
:10149300F0A3E9F0900195E4F0A37414F0D001D027
:1014A30002D00312232390027BEFF090027BE0FF34
:1014B300EFB4010990027C7401F002141290027CD3
:1014C30074FFF00214127BFF7A26796AC003C0020C
:1014D300C0017BFF7A26794F900192EBF0A3EAF0EB
:1014E300A3E9F0900195E4F0A37414F0D001D002C5
:1014F300D00312232390027BE0FFEFB40109900293
:101503007C7402F002141290027C74FFF002141235
:101513007BFF7A267971C003C002C0017BFF7A2664
:10152300794F900192EBF0A3EAF0A3E9F0900195D3
:10153300E4F0A37414F0D001D002D003122323905B
:10154300027BE0FFEFB4010990027C7403F0021404
:101553001290027C74FFF00214127BFF7A2679DE6C
:10156300C003C002C0017BFF7A2679E9900192EBA8
:10157300F0A3EAF0A3E9F09001957403F0A374E8F3
:10158300F0D001D002D00312232390027BEFF0901E
:10159300027BE0FFEFB4010990027C7404F00214B3
:1015A3001290027C74FFF00214127BFF7A2679F109
:1015B300C003C002C0017BFF7A27791C900192EB24
:1015C300F0A3EAF0A3E9F09001957403F0A374E8A3
:1015D300F0D001D002D00312232390027BEFF090CE
:1015E300027BE0FFEFB4010F90015E7401F0900203
:1015F3007C7405F002141290015EE4F090027C7496
:10160300FFF00214127BFF7A277924C003C002C0C3
:10161300017BFF7A26794F900192EBF0A3EAF0A3C6
:10162300E9F0900195E4F0A37414F0D001D002D056
:101633000312232390027BEFF090027BE0FFEFB4D1
:10164300010990027C7406F002141290027C74FF6C
:10165300F00214127BFF7A277933C003C002C00162
:101663007BFF7A26794F900192EBF0A3EAF0A3E98E
:10167300F0900195E4F0A37414F0D001D002D003EC
:1016830012232390027BEFF090027BE0FFEF6401D3
:10169300600302141290027C74FFF002141202140D
:0D16A30012781A760090015FE4F0A3E4F0E5
:0116B0002217
:0143F30022A7
:0143F40022A6
:102C290090015EE0FFEF64016003022D2E7818E643
:102C3900FE08E6FFD3EF9458EE94025003022D2EBE
:102C49007BFF7A277940C003C002C0019000CBE026
:102C5900FBA3E0FAA3E0F989828A83D001D002D0EC
:102C6900031207B29000BAE0FFEFB401519000BF20
:102C7900E0FBA3E0FAA3E0F9C003C002C0017BFFB7
:102C89007A26794F90010DEBF0A3EAF0A3E9F0D091
:102C990001D002D0031235BEC003C002C0017B00BF
:102CA9007A007900D082D083D0E06B7008E9658220
:102CB9007003EA6583600790015DE4F08016781877
:102CC900E6FE08E6FFD3EF9420EE940340969001C8
:102CD9005DE004F090015DE0FFEFC39404400A90C9
:102CE900015EE4F090015DE4F09000BFE0FBA3E039
:102CF900FAA3E0F9C003C002C00190015AE0FBA3A6
:102D0900E0FAA3E0F989828A83D001D002D0037D59
:102D1900041207B29000BBE4F09000BAE4F078180E
:052D29007600087600B1
:012D2E002282
:101F68009002917401F0900067E0FFEF6401600354
:101F780002215D7818760008760090006CE0FBA3DB
:101F8800E0FAA3E0F9C003C002C0017BFF7A26791A
:101F98005290010DEBF0A3EAF0A3E9F0D001D002D2
:101FA800D0031235BEC003C002C0017B007A00799D
:101FB80000D082D083D0E06B7008E965827003EAB4
:101FC800658370397818E6FE08E6FFD3EF9414EEBF
:101FD800940040A6900291E4F07BFF7A27794AC0EA
:101FE80003C002C001900078E0FBA3E0FAA3E0F987
:101FF80089828A83D001D002D0031207B29002915D
:10200800E0FFEF640160030220B590006CE0FBA3E1
:10201800E0FAA3E0F912061BFFEF64416003022017
:10202800B590006CE0FBA3E0FAA3E0F975820175B6
:102038008300120634FFEF6454707290007FE0FB57
:10204800A3E0FAA3E0F91207AE7BFF7A277954C020
:1020580003C002C00190006CE0FBA3E0FAA3E0F922
:1020680090010DEBF0A3EAF0A3E9F0D001D002D083
:1020780003120872900082E0FBA3E0FAA3E0F912D1
:1020880007AE90006CE0FBA3E0FAA3E0F9C003C040
:1020980002C0019000CBE0FBA3E0FAA3E0F989823B
:1020A8008A83D001D002D0031207B2807090007FDB
:1020B800E0FBA3E0FAA3E0F91207AE7BFF7A2779E9
:1020C80061C003C002C00190006CE0FBA3E0FAA36A
:1020D800E0F990010DEBF0A3EAF0A3E9F0D001D00C
:1020E80002D003120872900082E0FBA3E0FAA3E09A
:1020F800F91207AE90006CE0FBA3E0FAA3E0F9C088
:1021080003C002C0019000CBE0FBA3E0FAA3E0F912
:1021180089828A83D001D002D0031207B290006C62
:10212800E0FBA3E0FAA3E0F9C003C002C0019000FD
:1021380068E0FD90015AE0FBA3E0FAA3E0F9898288
:102148008A83D001D002D0031207B2900068E4F06D
:05215800900067E4F0B7
:01215D00225F
:102E2C009000BAE0FFEF64016003022F1F78187660
:102E3C00000876009000BFE0FBA3E0FAA3E0F9C025
:102E4C0003C002C0017BFF7A26795290010DEBF092
:102E5C00A3EAF0A3E9F0D001D002D0031235BEC032
:102E6C0003C002C0017B007A007900D082D083D0ED
:102E7C00E06B7008E965827003EA6583703478183A
:102E8C00E6FE08E6FFD3EF9414EE940040A67BFF19
:102E9C007A277976C003C002C001900078E0FBA3CA
:102EAC00E0FAA3E0F989828A83D001D002D0031220
:102EBC0007B29000BFE0FBA3E0FAA3E0F9C003C0A7
:102ECC0002C001900078E0FBA3E0FAA3E0F989824C
:102EDC008A83D001D002D0031207B29000BFE0FB6E
:102EEC00A3E0FAA3E0F9C003C002C0019000BBE06C
:102EFC00FD90015AE0FBA3E0FAA3E0F989828A83F2
:102F0C00D001D002D0031207B29000BBE4F09000C5
:042F1C00BAE4F02201
:0A1AE70047023100000000FF3A172B
:103A170090027DE4F0A3E4F030B20A900232E4F0C1
:103A2700900234E4F0900231E0FFEFB401299002F4
:103A370031E4F0C2A820B21F90014EE0FBA3E0FAE8
:103A4700A3E0F989828A837F0A7E001207B220B237
:103A5700069002327401F0900232E0FFEFB40125C4
:103A67009002347401F0781876000876007818E62A
:103A7700FE08E6FFC3EF9458EE9402500830B2ED0B
:103A8700900234E4F0900234E0FFEFB401059002B5
:053A970032E4F0D2A8AA
:013A9C002207
:0300030002434A6B
:10434A00C0E0C083C0829002317401F0D082D08371
:03435A00D0E0327E
:0A43DE003F065B4F666D7D077F6FA1
:0D1AF1004A01FD8AFF3CA2FF4072FF31B5A3
:053DE40090027FEFF0EA
:103DE900900280E4F0C2A690014EE0FBA3E0FAA3A2
:103DF900E0F989828A837F017E001207B2900280EE
:103E0900E4F0900280E0FFEFC39408502BC2A59024
:103E1900027FE0FFEF30E004D2A48002C2A4900246
:103E29007FE0FFEFC313FF90027FEFF000D2A50000
:083E3900900280E004F080CA51
:013E4100225E
:103CA200900292E4F07F02123DE4D2A67F40123DE0
:103CB200E4D2A67FC0123DE4900292E4F090029218
:103CC200E0FFEFC3940C500D7F00123DE49002928E
:103CD200E004F080E8D2A69001FDE0FF123DE4D2BC
:103CE200A67F02123DE4D2A67F44123DE4D2A67F13
:103CF200C0123DE47FFF123DE4D2A67FC2123DE432
:103D02007FFF123DE4D2A69001FDE0FF123DE4D216
:013D1200A60A
:013D1300228D
:10407200900281EFF0900282EDF0900281E0FFEF7A
:10408200120788408F014096020000409B7FC012B9
:104092003DE480057FC2123DE4900282E0FFEF9092
:1040A20043DE93FF123DE4D2A69001FDE0FF123DF4
:0440B200E4D2A6228C
:0531B500900283EFF021
:1031BA00900284E4F0900284E4F0900283E0FF90AD
:1031CA000284E0FEEEC39F400302328D900235E096
:1031DA00FBA3E0FAA3E0F91207AE900234E0FFEF96
:1031EA00B401079001FD7480F022900232E0FFEFF3
:1031FA0064017070900234E0FFEF70689001FDE0A6
:10320A00FFEF120788322E80323588323C893243EA
:10321A008A324A8B32518C32588D325F8E32668FA7
:10322A000000328D9001FD7488F0229001FD7489AE
:10323A00F0229001FD748AF0229001FD748BF02235
:10324A009001FD748CF0229001FD748DF0229001A2
:10325A00FD748EF0229001FD748FF0229001FD74AE
:10326A0088F0222290014EE0FBA3E0FAA3E0F9895C
:10327A00828A837F017E001207B2900284E004F002
:03328A000231C44A
:01328D00221E
:101AFE004D01AB14FF421AFF3E9EFF3A9DFF3B2263
:10421A0053A2DF43A21075D80075D90C75E9007551
:10422A00F90075DA4275F20053F2FD7F007E001242
:0D423A003B229001ABEFF0123E42D2DE229B
:103E9E009001ABE0FFEF1207883EBD003EC5143E19
:103EAE00CD283ED53C3EDD503EE56400003EEC9014
:103EBE0001AB7414F0802D9001AB7428F080259026
:103ECE0001AB743CF0801D9001AB7450F0801590E6
:103EDE0001AB7464F0800D9001ABE4F080069001AC
:083EEE00AB7414F0123E4222F5
:103E42009001ABE0FFEF1207883E61003E66143E30
:103E52006B283E703C3E75503E7A6400003E7F7592
:103E6200FAFF801C75FACC801775FA99801275FAE0
:103E720066800D75FA33800875FA00800375FAFFC3
:103E82009001ABE0FD9001B2E0FBA3E0FAA3E0F900
:0C3E920089828A837F007E001207B22222
:103A9D00900270EEF0A3EFF0900272EDF09001F352
:103AAD00740AF09001F2E4F09001F3E0FF14F0EFEE
:103ABD006062900270E0FEA3E0FF9001FAE0FBA3CC
:103ACD00E0FAA3E0F989828A831207B2900270E0CE
:103ADD00FEA3E0FF900272E0FD9001F7E0FBA3E092
:103AED00FAA3E0F989828A831207B2900270E0FE90
:103AFD00A3E0FF9001F4E0FBA3E0FAA3E0F98982D3
:103B0D008A831207B2900272E0FEEFB5069A900119
:053B1D00F27401F0222A
:083B2200900269EEF0A3EFF040
:103B2A0090026BE4F090026CE4F09001F3740AF0F6
:103B3A009001F3E0FF14F0EF6050900269E0FEA3F9
:103B4A00E0FF9001F4E0FBA3E0FAA3E0F989828A9E
:103B5A00831207B290026BEFF0900269E0FEA3E0D5
:103B6A00FF9001F4E0FBA3E0FAA3E0F989828A83DB
:103B7A001207B290026CEFF090026CE0FF90026BB9
:103B8A00E0FEEEB507AA800280A690026BE0FFEF86
:0B3B9A00B4FF037F002290026BE0FFED
:013BA50022FD
:0E1B0E004B01E70000FF428EFF3EF6FF24CBA6
:10428E00759D10439720C2AD75BCC490014EE0FBE6
:10429E00A3E0FAA3E0F989828A837F027E001207E7
:0242AE00B2223A
:103EF600900285E4F0A3E4F075BD0075BE0053BCE6
:103F0600EF43BC0800000000E5BC30E4FB53BCEF07
:103F1600AFBD7E00900285EEF0A3EFF0900285E043
:103F2600FEA3E0FFEF7F00FEADBE7C00EF2DFFEEAF
:103F36003CFE900285EEF0A3EFF0900285E0FEA332
:023F4600E0FF9A
:013F48002256
:1024CB009001D0E4F0A3E4F09001D2E4F0A3E4F0A7
:1024DB009001DAE4F09001DAE0FFEFC394104003CF
:1024EB0002260E9001D0E4F0A3E4F09001ECE0FBA7
:1024FB00A3E0FAA3E0F91207AE9001D6EEF0FEA32B
:10250B00EFF0FF9001D4EEF0A3EFF09001DBE4F0DD
:10251B009001DBE0FFEFC3940840030225D6900146
:10252B00ECE0FBA3E0FAA3E0F91207AE9001D8EEC2
:10253B00F0A3EFF09001D4E0FEA3E0FF9001D8E010
:10254B00FCA3E0FDC3ED9FEC9E50269001D4E0FE72
:10255B00A3E0FF9001D1E02FF09001D0E03EF0908E
:10256B0001D8E0FEA3E0FF9001D4EEF0A3EFF080E2
:10257B00519001D6E0FEA3E0FF9001D8E0FCA3E070
:10258B00FDD3ED9FEC9E40269001D6E0FEA3E0FF2D
:10259B009001D1E02FF09001D0E03EF09001D8E017
:1025AB00FEA3E0FF9001D6EEF0A3EFF080149001B4
:1025BB00D8E0FEA3E0FF9001D1E02FF09001D0E036
:1025CB003EF09001DBE004F002251B9001D0E0FE11
:1025DB00A3E0FFEF7803CEC313CE13D8F9FF90011E
:1025EB00D0EEF0A3EFF09001D0E0FEA3E0FF90015E
:1025FB00D3E02FF09001D2E03EF09001DAE004F04E
:10260B000224E09001D2E0FEA3E0FFEEC4F854F008
:10261B00C868FEEFC4540F48FF9001D2EEF0A3EF51
:09262B00F09001D2E0FEA3E0FFF3
:012634002283
:0E1B1C004B01F2000AFF40F7FF4176FF41E95E
:10436E0075C70075C50075C60075C3FF75C4FF22FD
:0840F700900273EEF0A3EFF05C
:1040FF00900275E4F075C78375C501900273E0FEF9
:10410F00A3E0FF8FC4900273E0FEA3E0FFEEFF7EFB
:10411F00008FC375C65A75C6A500900275E5C2F02B
:08412F0012436E900275E0FFDF
:014137002265
:10417600900276EEF0A3EFF0900278EDF075C7832B
:1041860075C502900276E0FEA3E0FF8FC49002762A
:10419600E0FEA3E0FFEEFF7E008FC3900278E0FF13
:0D41A6008FC275C65A75C6A50012436E2261
:1041E900900287EEF0A3EFF075C78375C5039002BF
:1041F90087E0FEA3E0FF8FC4900287E0FEA3E0FF03
:10420900EEFF7E008FC375C65A75C6A50012436EB0
:014219002282
:101B2A0056017900FF0006FF439EFF43BBFF3D7E3F
:091B3A00FF3FE3FF437EFF438EF1
:0643E800000000000022AD
:05000600D2A3D2A222EA
:0F439E00D2A2D2A31243E8C2A21243E8C2A322C2
:0D43BB00C2A2D2A31243E8D2A21243E8220C
:053D7E00900289EFF046
:103D830090028AE4F090028AE0FFEFC39408503176
:103D930090028AE0FF900289E0FEEEA80708800205
:103DA300C333D8FCFFEF30E704D2A28002C2A212D1
:103DB30043E8D2A31243E8C2A390028AE004F0804E
:103DC300C4D2A21243E8D2A31243E830A20790015F
:103DD30079E4F080069001797401F0C2A31243E8FC
:013DE30022BD
:103FE30090028BE4F0D2A290028CE4F090028CE079
:103FF300FFEFC394085029C2A31243E8D2A312438C
:10400300E890028BE0FFEF25E0FF90028BEFF030AA
:10401300A20690028BE004F090028CE004F080CCC6
:0A402300C2A31243E890028BE0FFF5
:01402D002270
:10437E00C2A21243E8D2A31243E8C2A31243E82218
:10438E00D2A21243E8D2A31243E8C2A31243E822F8
:091B4300460245FF3002FF2B0BA6
:1030020090024BEBF0A3EAF0A3E9F090024EEDF050
:1030120090024FE4F090017DE0FBA3E0FAA3E0F917
:103022001207AE900183E0FBA3E0FAA3E0F98982E4
:103032008A837FA01207B2900179E0FFEF70037FCD
:103042000022900183E0FBA3E0FAA3E0F989828ADF
:10305200837F001207B2900179E0FFEF70037F00D7
:103062002290024FE4F090024EE0FF90024FE0FE09
:10307200EEC39F503E90024BE0FBA3E0FAA3E0F9BF
:1030820012061BFF900183E0FBA3E0FAA3E0F9899B
:10309200828A831207B2900179E0FFEF70037F000A
:1030A2002290024CE475F00112069590024FE00462
:1030B200F080B3900180E0FBA3E0FAA3E0F91207ED
:1030C200AE90014EE0FBA3E0FAA3E0F989828A8385
:0930D2007F017E001207B27F01AC
:0130DB0022D2
:102B0B00900250EBF0A3EAF0A3E9F0900253EDF042
:102B1B00900254E4F090017DE0FBA3E0FAA3E0F90E
:102B2B001207AE900183E0FBA3E0FAA3E0F98982E0
:102B3B008A837FA01207B2900179E0FFEF70037FC9
:102B4B000022900183E0FBA3E0FAA3E0F989828ADB
:102B5B00837F001207B2900179E0FFEF70037F00D3
:102B6B002290017DE0FBA3E0FAA3E0F91207AE90FF
:102B7B000183E0FBA3E0FAA3E0F989828A837FA1BA
:102B8B001207B2900179E0FFEF70037F00229002F1
:102B9B0054E4F0900253E0FFEF14FF900254E0FE78
:102BAB00EEC39F503D900186E0FBA3E0FAA3E0F952
:102BBB001207AE900250E0FBA3E0FAA3E0F9EF128C
:102BCB000661900189E0FBA3E0FAA3E0F91207AEDE
:102BDB00900251E475F001120695900254E004F056
:102BEB0080B1900186E0FBA3E0FAA3E0F91207AEF7
:102BFB00900250E0FBA3E0FAA3E0F9EF120661901C
:102C0B00018CE0FBA3E0FAA3E0F91207AE90018080
:0D2C1B00E0FBA3E0FAA3E0F91207AE7F0191
:012C28002289
:101B5A0043616C635F526563656E745F54656D7053
:101B6A00757261747572653D252E32660A004144AC
:101B7A00435F56616C75653D252E32660A006D69B4
:101B8A00643D2562750A0054656D7041727261790F
:101B9A005B2562755D5B305D3D2568750A0054659D
:101BAA006D7041727261795B2562755D5B315D3D75
:101BBA002568750A00436865636B5F526563656EE5
:101BCA00745F54656D70757261747572653D252E0A
:101BDA0032660A0003BE03C303BB03BD03B703BADD
:101BEA0003B403B603B003B303AC03AF03A803AB58
:101BFA0003A403A7039F03A3039A039E03950399D0
:101C0A0003900394038B038F0386038A038003855F
:101C1A00037A037F03740379036E03730367036D07
:101C2A00036003660359035F03520358034B0351CE
:101C3A000343034A033B03420333033A032B0332AE
:101C4A000323032A031A03220311031903080310A7
:101C5A0002FF030702F502FE02EC02F402E202EBC3
:101C6A0002D802E102CE02D702C402CD02B902C3EF
:101C7A0002AF02B802A402AE029902A3028E02982F
:101C8A000280028F0277027F026C02760260026B88
:101C9A000255025F024A0254023E02490235023DDF
:101CAA00022A0234021C02290211021B0205021036
:101CBA0001FA020401F001F901E501EF01DB01E497
:101CCA0001D001DA01C501CF01BA01C401B001B9DD
:101CDA0001A501AF019B01A40190019A0186018F20
:101CEA00017C01850172017B01680171015F016755
:101CFA000156015E014C01550143014B013B014272
:101D0A000132013A01290131012101280119012079
:101D1A0001110118010A01100102010900FA010169
:101D2A0000F300F900EC00F200E500EB00DF00E44C
:101D3A0000D800DE00D200D700CC00D100C800CB0A
:101D4A0000C000C700BA00BF00B500B900B000B4B7
:101D5A0000AA00AF00A500A900A100A4009C00A051
:081D6A000097009B0093009616
:0D1B4C004A021100000000FF29E8FF10C44C
:1029E80090020BE4F0A3E4F090020D120707000038
:1029F80000009001EFE0FBA3E0FAA3E0F91207AEB4
:102A080090020BEEF0A3EFF090020BE0FCA3E0FDC8
:102A1800E41203627B007AC0797F78441202477B14
:102A2800337A337953784012013E90020D1206FB37
:102A380090020DE0F8A3E0F9A3E0FAA3E0FB7F33EE
:102A48007E337D537C401200497B007A40791C78A4
:102A580046120247A804A905AA06AB0790020DE092
:102A6800FCA3E0FDA3E0FEA3E0FF120247900207EB
:102A78001206FB7B007A40791C7846900207E0FC3E
:102A8800A3E0FDA3E0FEA3E0FF1202471228F37BB8
:102A98002C7ABB7984783912013E7B0F7ACF795B27
:102AA800783B12004DA804A905AA06AB077F007E53
:102AB800007D807C3F1202477B337A53798878C344
:102AC80012004D9002111206FB90007FE0FBA3E07C
:102AD800FAA3E0F91207AE7BFF7A1B795A9002112C
:102AE800E0FCA3E0FDA3E0FEA3E0FF90010D1206C9
:102AF800FB120872900082E0FBA3E0FAA3E0F9124F
:022B080007AE16
:012B0A0022A8
:1010C4009002381207070000000090023CE4F09000
:1010D400023D7464F090023E7432F09001EFE0FB44
:1010E400A3E0FAA3E0F91207AEAC06AD07E41203DD
:1010F400629002381206FB90023DE0FF90023CE051
:10110400FEEEC39F400302122490023EE0FF75F0FE
:1011140004EFA424DEF582E5F0341BF583E493FCAC
:10112400740193FDE4120362900238E0F8A3E0F93D
:10113400A3E0FAA3E0FB1202E4403790023EE0FF92
:1011440075F004EFA424E0F582E5F0341BF583E4A4
:1011540093FC740193FDE4120362900238E0F8A357
:10116400E0F9A3E0FAA3E0FB1202E46002500302F8
:10117400122490023EE0FF75F004EFA424DEF58211
:10118400E5F0341BF583E493FC740193FDE412034E
:1011940062900238E0F8A3E0F9A3E0FAA3E0FB12BE
:1011A40002E4500F90023EE0FFEF04FF90023CEF98
:1011B400F0804190023EE0FF75F004EFA424E0F5D6
:1011C40082E5F0341BF583E493FC740193FDE4128F
:1011D4000362900238E0F8A3E0F9A3E0FAA3E0FB8D
:1011E4001202E4600F400D90023EE0FFEF14FF9006
:1011F400023DEFF090023CE0FF7E0090023DE0FDF6
:101204007C00C3ED9FFFEC9EFEEEC313FEEF13FFC5
:1012140090023CE0FEEF2EFF90023EEFF00210FB46
:1012240090023EE0FF75F004EFA424DEF582E5F0C1
:10123400341BF583E493FC740193FDE4120362A868
:1012440004A905AA06AB07900238E0FCA3E0FDA3BD
:10125400E0FEA3E0FF120049C004C005C006C007B9
:1012640090023EE0FF75F004EFA424DEF582E5F081
:10127400341BF583E493FE740193FF90023EE0FD7A
:1012840075F004EDA424E0F582E5F0341BF583E465
:1012940093FC740193FDC3ED9FFDEC9EFCE41203EB
:1012A40062A804A905AA06AB07D007D006D005D0CA
:1012B40004120247C004C005C006C00790023EE005
:1012C400FCE4120367A804A905AA06AB07D007D05B
:1012D40006D005D00412004D7B007A0079F078C165
:1012E40012004D9002111206FB90007FE0FBA3E078
:1012F400FAA3E0F91207AE7BFF7A1B7978900238E3
:10130400E0FCA3E0FDA3E0FEA3E0FF90010D1206C4
:10131400FB1208727BFF7A1B798890023EE0FF90F3
:10132400010DEFF01208727BFF7A1B799190023E57
:10133400E0FF90010DEFF090023EE0FF75F004EF46
:10134400A424DEF582E5F0341BF583E493FE7401F6
:1013540093FF90010EEEF0A3EFF01208727BFF7A78
:101364001B79A890023EE0FF90010DEFF090023E41
:10137400E0FF75F004EFA424E0F582E5F0341BF5FA
:1013840083E493FE740193FF90010EEEF0A3EFF05B
:101394001208727BFF7A1B79BF900211E0FCA3E074
:1013A400FDA3E0FEA3E0FF90010D1206FB120872FC
:0E13B400900082E0FBA3E0FAA3E0F91207AE7E
:0113C2002208
:10004600020407E86480F8E933E83360110460F0DD
:10005600ED33EC337009E8FCE9FDEAFEEBFF220420
:1000660060DED3EB9FEA9EE99DE8C2E78CF0C2F71B
:1000760095F0400CE8CCF8E9CDF9EACEFAEBCFFBE7
:100086001203D285D0F05804700320D5B3E804706B
:10009600075002B2D502041192D5EC0460F7E4CC05
:1000A600C0E0C398F8603B94186008400DD0E0FBB0
:1000B6000203E9E4FBFAC9FC8028E830E406E4C957
:1000C600FBE4CAFCE830E305E4C9CACBFCE8540704
:1000D6006010F8C3E913F9EA13FAEB13FBEC13FC0F
:1000E600D8F130F52FC3E49CFCEF9BFFEE9AFEEDB2
:1000F60099FDD0E0FBEF4E4D4C701222DB0302045B
:100106000EEC2CFCEF33FFEE33FEED33FDED30E766
:10011600EB0203E9EF2BFFEE3AFEED39FDD0E0FBF3
:1001260050130BBB0003020411ED13FDEE13FEEF9B
:0801360013FFEC13FC0203E9C6
:10013E00EC4D6011E8497017ED33EC3304600DE4BB
:10014E00FCFFFEFD22E933E8330470F802040712C7
:10015E0003D258046009E4CC2481500628500902C9
:10016E00041128400302040EC0E0EB4A7044B9802B
:10017E0006D0E0FB0203FDEF4E701CBD8008EBFFC6
:10018E00EAFEE9FD80EBE98DF0A4FEE5F002022720
:10019E00E9CDF9EAFEEBFFEF89F0A4FCE5F0CE899C
:1001AE00F0A42EFFE435F0CD89F0A42DFEE435F059
:1001BE008067EF4E7005BD80D780C3EF8BF0A4AC87
:1001CE00F0EE8BF0A42CFCE435F0F8EF8AF0A42CC2
:1001DE00E5F038FCE433CB8DF0A42CFCE5F03BF8D5
:1001EE00EE8AF0A42CFCE5F038F8E433CF89F0A4C5
:1001FE002CFCE5F038CF3400CE89F0A42FFFE5F0CB
:10020E003EFEE433C98DF0A42EFEE5F039CD8AF022
:10021E00A42FFFE5F03EFEE43DFD33D0E0FB50079A
:10022E000BBB000F020411EC2CFCEF33FFEE33FE80
:06023E00ED33FD0203E9AF
:10024400020411EC5D046005E8590470030204071C
:100254001203D2580460F6EC4860F2EC7004FDFE20
:10026400FF22C860DB2481C85009C398600250068D
:1002740002040E9850CAF582E9294B4A7005AB82F4
:100284000203FD75F0007C1A7880C3EF9BEE9AEDB3
:1002940099400DC3EF9BFFEE9AFEED99FDE842F005
:1002A400DC23ACF0D0E0FFD0E0FED0E0FDAB822058
:1002B400E7101BEB60BAEC2CFCEF33FFEE33FEEDE2
:1002C40033FD0203E9E803F830E705C0F075F000F8
:1002D400EF2FFFEE33FEED33FD40B830E7C280AAC6
:1002E40074F8CC6480CCC86480C8F58204604FC3C1
:1002F400EB9FF5F0EA9E42F0E99D42F0E89C45F060
:10030400603C501DE5825FFFE582D313CB5BCBF4E9
:100314002B5582FB50280ABA002409B90020088012
:100324001DE5825BFBE582D313CF5FCFF4C3132FAC
:100334005582FF50090EBE00050DBD00010CC3EB34
:100344009FF5F0EA9E42F0E99D42F0E89C45F0609A
:0903540007CC4820E701B3EC22BC
:10035D0075F020800E75F010800575F0087D007E1B
:10036D00007F003392D530D5031206C1EC33401017
:10037D00EF33FFEE33FEED33FDEC33FCD5F0ED2224
:0E038D00E5F0247EA2D513CC92E7CDCEFF2260
:10039B00EDD2E7CD33EC3392D524814006E4FFFE5A
:1003AB00FDFC22FCE4CFCECDCC24E0501174FF80B9
:1003BB00EDC3CC13CCCD13CDCE13CECF13CF047056
:0703CB00F030D5DE0206C18F
:10080700E510240DF582E43401F583E0051022900C
:10081700010A30070390010DE475F0011207380251
:10082700061B2000E97F2ED2008018EF540F24907A
:10083700D43440D4FF30040BEF24BFB41A00500364
:100847002461FFE511600215110514E51470020516
:100857001330070E90010AE475F001120738EF0212
:10086700066102426C7403D2078003E4C207F510E5
:1008770090010A12074FE4F511F513F514E511601D
:10088700077F2012084A80F57512FFC201C200C215
:1008970002C203C205C206C208120816FF700D3055
:1008A70007057F0012085BAF14AE1322B4255FC2A1
:1008B700D5C204120816FF24D0B40A00501A75F0E6
:1008C7000A781130D50508B6FF0106C6A426F6201A
:1008D700D5047002D20380D924CFB41A00EF500494
:1008E700C2E5D204020B4DD20180C6D20080C0D22D
:1008F7000280BCD2D580BAD20580B47F2012084AC4
:100907002002077401B5110040F1120807FF120811
:100917004A020884D208D2068095120807FB1208FB
:1009270007FA120807F94A4B7006794B7A0C7BFFD6
:1009370020022EE511602A7E008E82758300120642
:100947003460060EEE651270F0C2D5EBC0E0EAC067
:10095700E0E9C0E0EE120BAED0E0F9D0E0FAD0E06B
:10096700FB12061BFF60AAEBC0E0EAC0E0E9C0E0AB
:1009770012084AD0E02401F9D0E03400FAD0E0FBB5
:10098700E5120460DCD512D98087D20280A2120B4F
:100997009060F7E51270010412041CA912600DE5BE
:1009A70012600914F512120C38EF60F3EA30E7020F
:1009B700F404C3995079EAF425120430E701E404FA
:1009C700F512800D120B9060C1EA05122512120470
:1009D7001CEA900139F030E701E4251204D512042E
:1009E70020050114120BAEE4C0E0120C3890013957
:1009F700E0601320E70714F0120832802204F0D0D9
:100A0700E014C0E07F00120832E5126007120829DF
:100A17001512800B300503120829D0E0020884D094
:100A2700E00480C4120B90609EE5120412041C902F
:100A37000139EAF0E5122005026001042404120BD3
:010A4700AE00
:100A480074FF04C0E0120C38120832E512200502C7
:100A58006003120829D0E0B512E87F4512083C90DF
:100A68000139E07F2B30E7047F2DF404C0E0120841
:100A78004AD0E075F00A84C0F0120833D0E01208BA
:100A880033020884791080027908C206C2088008F7
:100A9800D2D5790A8004790AC2D5E512047002F524
:100AA80012E4FAFDFEFF120807FC7B08200113126E
:100AB8000807FD7B1030000A120807FE120807FF1E
:100AC8007B20EC3382D592D55013C3E43000069FC7
:100AD800FFE49EFEE42001039DFDE49CFCE4CBF8CA
:100AE800C201EC700CCFCECDCCE824F8F870F380BE
:100AF80017C3EF33FFEE33FEED33FDEC33FCEB337E
:100B0800FB994002FB0FD8E9EB300105F8D0E0C4AF
:100B180048B201C0E00AEC4D4E4F78207B0070C20D
:100B2800EAB5120040BCC0E0120BB0D0F0D0E02013
:100B38000104C4C0E0C4B201C0F0120833D0F0D53B
:100B4800F0EB0208841207880921530A8C5808F22E
:100B58004C08EE420A904F0A98440A9849090743FC
:100B68000A9E5509CB460A2B450995470C6B500838
:100B7800F62D08FA2E091D2B08FE23091B200C54FC
:100B88002A08B64800000915E512B4FF03751206D5
:100B9800120807FC120807FD120807FE120807FFD3
:100BA800900132020459790AA2D5200314300509AC
:100BB800B910020404B9080104A2D52006025001A4
:100BC800042002689202B511005034C0E07F203042
:100BD80003197F30A20272067205500F120C07C269
:100BE80002C206C205C2087F30800F300503E9C083
:100BF800E012084A300503D0E0F9D0E0B511CC3056
:100C080005177F30B9100C12084A7F583004077F47
:100C1800788003B9080312084A3002057F2D0208BC
:100C28004A7F202008F87F2B2006F322920280CFEB
:100C38007F00B40700500B2432F582E43401F583B9
:100C4800E0FF22286E756C6C2900D201120807306B
:100C580001F8C201781130D50108F60208B62D5006
:100C68004349581208072403B405004001E4900CD6
:100C7800669312083B743A12083BD20375110402BA
:020C88000A8CD4
:1028BF003E9248DA3ECCCCCD3F2AAAAB4000000076
:1028CF003F8000003F9837F03FB504F33FD744FCFB
:1028DF003E3172173EB172173F0515913EDE5BD93F
:1028EF00D2008002C200EDD2E7F8CD33EC33047092
:1028FF000BBD800592D502041102040740FBD314CF
:10290F0060F2F5F07C3FEE7A00C39496C8948B404A
:10291F00230AC89469C8941A401A0AC89468C894BC
:10292F001F40110AC8945AC89425400805F07A0030
:10293F00CDC2E7CDC0F090010A1206FBEA2323C0F7
:10294F00E024CFF582E43428F5831206EB12004D14
:10295F00ECC0E0EDC0E0EEC0E0EFC0E01206CF90BB
:10296F00010A1206DF120049D0E0FBD0E0FAD0E0F6
:10297F00F9D0E0B2E7F812024790010A1206FB9075
:10298F0028BF740312055E90010A1206DF12013E82
:10299F00D0E0600F24DBF582E43428F5831206EBD8
:1029AF0012004D90010A1206FBD0E0C3947FFDE4A4
:1029BF009400FC1203627B187A727931783F12010E
:1029CF003E90010A1206DF12004D30000B7BD97AC0
:0929DF005B79DE783E12013E2214
:1003D200E9D2E7C933E833F892D5EDD2E7CD33EC71
:0703E20033FC5002B2D522EA
:1003E900EC30E7100FBF000C0EBE00080DBD000475
:1003F9000BEB6014A2D5EB13FCED92E7FD2274FF21
:10040900FCFDFEFF22E480F8A2D574FF13FC7D8079
:03041900E480EF8D
:10041C00F920E73624F950037907E4F42402FBE5CC
:10042C0082158270021583DBF6E024FB501BE96019
:10043C0014E4F0E582158270021583E004F0B40A2E
:0D044C0008E4F0D9EE7401F00A22C2D522B6
:10045900ED33EC3392D5FA602AB4FF33EDC2E77B72
:10046900FF60067A04797EE4227A04798720D5042C
:100479007A047982224E614E002B494E46002D495D
:100489004E4600E47A08F0A3DAFC7B00740722C028
:1004990083C082ECC0E0EDC0E0EEC0E0EFC0E0EA6E
:1004A90075F010A4CAABF075F04DA42BFBE435F040
:1004B900FCEA2410FAEB34C5FBEC34D9FCEDC2E7B5
:1004C900FF75F056A4F42411C5F0F434C58FF0A4D7
:1004D9002AE5F03BE43CF020E7141205DBD0E0FF0D
:1004E900D0E0FED0E0FDD0E0FC1202478014F40415
:1004F9001205DBD0E0FFD0E0FED0E0FDD0E0FC1239
:10050900013ED082D083E0FAEDD2E7CD33EC33243B
:1005190082FBE4C3CF33CFCE33CECD33CD33DBF340
:100529007B0775F00A846004F0A31B0AE5F0F0A3C9
:100539008FF0740AA4FFACF08EF0740AA42CFEAC00
:10054900F050010C8DF0740AA42CFDE435F0F0A3F1
:05055900DBDE74072247
:10055E00C0E0EFFBEEFAEDF9ECF812013ED0E0F55B
:10056E00F0EFFBEEFAEDF9ECF81206CFA3A3A3A37E
:10057E00E8C0E0E9C0E0EAC0E0EBC0E0C0F0120184
:10058E003E1206EBA3A3A3A312004DD0F0D0E0FBC6
:0D059E00D0E0FAD0E0F9D0E0F8D5F0D4229A
:1005AB003F8000004120000042C80000447A000058
:1005BB00461C400047C35000497424004B189680DA
:1005CB004CBEBC205A0E1BCA6753C21C749DC5AED1
:1005DB00FB60065407601C2323120609EB5438609A
:1005EB00091205F512060412013EECF8EDF9EEFACC
:1005FB00EFCB22EB12060480F1543803241C900538
:10060B00ABFE93FC0EEE93FD0EEE930ECE93FF22FC
:03000000023904BE
:0C390400787FE4F6D8FD75812702394B6E
:10061B00BB010689828A83E0225002E722BBFE02DD
:09062B00E32289828A83E4932210
:10063400BB010CE58229F582E5833AF583E022507B
:1006440006E92582F8E622BBFE06E92582F8E222C5
:0D065400E58229F582E5833AF583E49322DF
:10066100BB010689828A83F0225002F722BBFE0178
:02067100F32272
:10067300F8BB010DE58229F582E5833AF583E8F0BD
:10068300225006E92582C8F622BBFE05E92582C869
:02069300F22251
:10069500C5F0F8A3E028F0C5F0F8E58215827002F0
:0606A5001583E038F0228D
:1006AB00A3F8E0C5F025F0F0E58215827002158302
:0606BB00E0C838F0E8225F
:0E06C100C3E49FFFE49EFEE49DFDE49CFC224A
:1006CF00E493FC740193FD740293FE740393FF2271
:0C06DF00E0F8A3E0F9A3E0FAA3E0FB229E
:1006EB00E493F8740193F9740293FA740393FB2265
:0C06FB00ECF0A3EDF0A3EEF0A3EFF02272
:10070700A8828583F0D083D08212071E12071E129B
:10071700071E12071EE473E493A3C583C5F0C583C0
:10072700C8C582C8F0A3C583C5F0C583C8C582C83C
:01073700229F
:10073800F8E0FBA3A3E0F925F0F0E582158270024A
:070748001583E0FA38F022EE
:09074F00EBF0A3EAF0A3E9F022AB
:10075800BB010DE58229F582E5833AF5830207E9B5
:100768005007E92582F80207E0BBFE07E92582F871
:100778000207F2E58229F582E5833AF5830207FB51
:10078800D083D082F8E4937012740193700DA3A300
:1007980093F8740193F5828883E473740293686014
:0607A800EFA3A3A380DF14
:0607AE008A838982E473D6
:1035BE0090010AEBF0A3EAF0A3E9F0A3E0FBA3E08D
:1035CE00FAA3E0F912061B700302366A90010AE0B4
:1035DE00FBA3E0FAA3E0F912061B70030236769005
:1035EE00010DE0F9A3E0FAA3E0A3C9F0A3EAF0A36A
:1035FE00E9F090010AA3E0FAA3E0F9900113EBF0D1
:10360E00A3EAF0A3E9F0900110E0FBA3E0FAA3E037
:10361E00F912061BFF6026900113E0FBA3E0FAA34C
:10362E00E0F912061B6F701590011175F00112066C
:10363E0095900114E475F00112069580C990011061
:10364E00E0FBA3E0FAA3E0F912061B7002800D90D6
:10365E00010BE475F0011206950235DA90010AE0CD
:0F366E00FBA3E0FAA3E0F9227B007A00790022A7
:1007B400EF4E6012EF60010EEDBB010B89828A835C
:1007C400F0A3DFFCDEFA2289F05007F709DFFCA969
:0C07D400F022BBFEFCF309DFFCA9F022C0
:1039100002328EE493A3F8E493A34003F68001F20D
:1039200008DFF48029E493A3F85407240CC8C333B8
:10393000C4540F4420C8834004F456800146F6DF87
:10394000E4800B010204081020408090193DE47EC1
:10395000019360BCA3FF543F30E509541FFEE4937C
:10396000A360010ECF54C025E060A840B8E493A343
:10397000FAE493A3F8E493A3C8C582C8CAC583CA6E
:10398000F0A3C8C582C8CAC583CADFE9DEE780BE26
:011B5900008B
:0907E000E6FB08E6FA08E6F9223E
:0907E900E0FBA3E0FAA3E0F92211
:0907F200E2FB08E2FA08E2F92238
:0C07FB00E493FB740193FA740293F9225A
:00000001FF
