:0A2E050052756E6E696E67210A00B7
:03114B000126007A
:101DCF009001F4E4F09001F5E4F09001A2E0FBA3A0
:101DDF00E0FAA3E0F91214527BFF7A2E7905C003C3
:101DEF00C002C001900078E0FBA3E0FAA3E0F989FC
:101DFF00828A83D001D002D0031214569001F4E4EA
:101E0F00F09001F4E0FFEFC3940A50F09001F4E07A
:101E1F00FD9001B4E0FBA3E0FAA3E0F989828A8385
:101E2F007F011214569001F5E4F09001F5E0FFEFF9
:101E3F00C3940A506A9001F5E0FD9001B4E0FBA352
:101E4F00E0FAA3E0F989828A837F02121456900187
:101E5F00B7E0FBA3E0FAA3E0F989828A837F14122B
:101E6F0014569001F4E0FF7E0AEF8EF0A4FFAEF05F
:101E7F009001F5E0FD7C00EF2DFFEE3CFE7C007D38
:101E8F000A121391AF05EF700E9001D4E0FBA3E09F
:101E9F00FAA3E0F91214529001F5E004F0808B9050
:081EAF0001F4E004F0021E1032
:011EB7002208
:0C2DF90057694669204572726F720A002B
:10114E00540132000000000000000000000000000A
:10115E00000000000000004F0146FF2BD5FF2CC5FC
:09116E00FF0006FF003FFF2C16F4
:102CC5007BFF7A2D79F9C003C002C001900078E03E
:102CD500FBA3E0FAA3E0F989828A83D001D002D070
:052CE500031214562249
:0400060043C72022AA
:03003F00B2B42236
:102C16009001DDEBF0A3EAF0A3E9F09001E0EDF01E
:102C26009001E0E0FF7E007D009001DDE0FBA3E087
:102C3600FAA3E0F9121458900146E0FBA3E0FAA3C8
:0E2C4600E0F989828A837F0A7E0012145622EA
:082BD5009001E1EEF0A3EFF026
:102BDD009001E3E4F0A3E4F09001E1E0FEA3E0FF57
:102BED009001E3E0FCA3E0FDC3ED9FEE6480F8EC03
:102BFD006480985013122D469001E4E004F07006A5
:082C0D009001E3E004F080D027
:012C1500229C
:102D460000000075150B7516BE1516AF16EF70F957
:072D56001515AF15EF70F237
:012D5D002253
:0F1177004C018DFF000EFF2D75FF2D8AFF2D5EA1
:10000E0075B10475B21020B304D2B480F930B3F6D2
:05001E00C2B480F222D3
:102D750075B10475B21420B204D2B480F930B2F63C
:052D8500C2B480F2223F
:102D8A0075B10475B21020B204D2B480F930B2F62B
:052D9A00C2B480F2222A
:102D5E0075B10475B210D2B320B304D2B480F93079
:072D6E00B3F6C2B480F222AB
:102D9F004E6F74206861766520382042797465A380
:042DAF00A1A3A1003B
:101186006032003200000000000000000000000095
:101196000000000000000000000000000000000049
:1011A6000000000000000000000000000000000039
:1011B6000000000000006032000000000000000097
:1011C6000000000000000000000000000000000019
:1011D6000000000000000000000000000000000009
:1011E6000000000000000000000000006021006414
:1011F6000003000000010000010032FF22E4FF2A84
:10120600F7FF263DFF2463FF214C01FF0026FF2D3B
:011216002DAA
:1022E400900064E0FFEF12142C22F400000022F9A5
:1022F40075985080037598D090007EE0FFEF12141B
:102304002C2312002317012312020000231D53A2C1
:102314003F800653A27F43A24075870053890F4331
:102324008E40538EFE900065E0FFEF12142C234282
:1023340000234A01235202235A0300002362758BAF
:10234400C0758DFD801E758BE0758DFE8016758BB6
:1023540070758DFF800E758BE8758DFF8006758B0B
:10236400C0758DFDC2ABD28ED29C90006CE0FBA3F5
:10237400E0FAA3E0F9C003C002C001900152E0FBFF
:10238400A3E0FAA3E0F989828A83D001D002D003C2
:102394007D32121456900067E4F0900068E4F02255
:052AF700900202EFF067
:102AFC00900066E0FFEF640160F6900064E0FFEF89
:102B0C006028900202E0FFEFA2D0920D900064E0EA
:102B1C00FFEF12142C2B2B012B320200002B36A2B0
:102B2C000DB3929B8004A20D929B9000667401F0F1
:072B3C00900202E0FF8F99F7
:012B4300226F
:0B2463009001F1EBF0A3EAF0A3E9F018
:10246E00781E760008760090007EE0FFEFB4010E35
:10247E0090007FE0FBA3E0FAA3E0F9121452900162
:10248E00F1E0FBA3E0FAA3E0F9781EE6FE08E6FF12
:10249E008F828E83121330FFEF60369001F1E0FBD6
:1024AE00A3E0FAA3E0F9781EE6FE08E6FF8F828E1F
:1024BE0083121330FF900072E0FBA3E0FAA3E0F961
:1024CE0089828A83121456781F06E61870010680D8
:1024DE00AD900066E0FFEF640160F690007EE0FFD5
:1024EE00EFB40124900146E0FBA3E0FAA3E0F989E2
:1024FE00828A837F017E00121456900082E0FBA335
:08250E00E0FAA3E0F9121452F7
:0125160022A2
:10263D009001E5EBF0A3EAF0A3E9F09001E8EDF0ED
:10264D0090007EE0FFEFB4010E90007FE0FBA3E071
:10265D00FAA3E0F91214529001E8E0FF14F0EF60D4
:10266D00289001E5E0FBA3E475F0011213E6A9F053
:10267D00FA121317FF900072E0FBA3E0FAA3E0F942
:10268D0089828A8312145680CE900066E0FFEF6433
:10269D000160F690007EE0FFEFB40124900146E06A
:1026AD00FBA3E0FAA3E0F989828A837F017E001201
:1026BD001456900082E0FBA3E0FAA3E0F912145245
:0126CD0022EA
:102CEA00900203EFF0900203E0FF900072E0FBA372
:102CFA00E0FAA3E0F989828A83121456900203E06B
:022D0A00FF22A6
:10002600D2A0900146E0FBA3E0FAA3E0F989828A18
:09003600837F027E0012145622A1
:102D2D00900146E0FBA3E0FAA3E0F989828A837F54
:092D3D00027E00121456C2A0220D
:10214C00D20E900067E0FFEF64016003022217904B
:10215C00006CE0FBA3E0FAA3E0F9AE02AF01EF4E96
:10216C00607178187600087600900068E0FFEFC385
:10217C00940850127818E6FE08E6FFC3EF9414EEAC
:10218C00940040E5C20E300E257B017A007964C0C4
:10219C0003C002C0017823860308E6FA08E6F98931
:1021AC00828A83D001D002D003121456802590006D
:1021BC007FE0FBA3E0FAA3E0F91214527BFF7A2D27
:1021CC00799F1204EB900082E0FBA3E0FAA3E0F904
:1021DC0012145290006CE0FBA3E0FAA3E0F9C003E8
:1021EC00C002C001900068E0FD900152E0FBA3E04A
:1021FC00FAA3E0F989828A83D001D002D0031214A9
:0B220C0056900067E4F0900068E4F0DA
:0122170022A4
:03002300021F9A1F
:0B1F9A00C0E0C083C082C0D075D0083A
:101FA500309907C299900066E4F020980302206AF0
:101FB500C298900204E599F0A29A9209900204E071
:101FC500FFEFA2D0920A900068E0FFEFC394324081
:101FD50003022064900064E0FFEF12142C204400FB
:101FE5001FEF01201A0200002064A209B3300A0184
:101FF500B3406C900204E0FF90006CE0FBA3E0FAB4
:10200500A3E0F9900068E0FE04F08E82758300EF8E
:1020150012136F804AA20A300901B34042900204AC
:10202500E0FF90006CE0FBA3E0FAA3E0F990006804
:10203500E0FE04F08E82758300EF12136F8020900E
:102045000204E0FF90006CE0FBA3E0FAA3E0F99046
:102055000068E0FE04F08E82758300EF12136F9026
:0520650000677401F0AA
:09206A00D0D0D082D083D0E03246
:0F1217004C0199FF2C54FF2DEBFF2C8FFF251757
:102C540075930075940C75800075B14475B2B0C25B
:102C6400B575957075967153A0FE75C90075CAFF48
:102C7400D2CCC2CD900146E0FBA3E0FAA3E0F989EF
:0B2C8400828A837F027E001214562219
:0E2DEB00D2A8D288D2A9D2AC43AF01D2AF2277
:102C8F00900205E4F0900205E4F0900205E0FFEFFA
:102C9F00C394055020B2B4900146E0FBA3E0FAA321
:102CAF00E0F989828A837F327E00121456900205E2
:052CBF00E004F080D5E7
:012CC40022ED
:10251700900146E0FBA3E0FAA3E0F989828A837F72
:10252700647E00121456900199E0FBA3E0FAA3E041
:10253700F912145290019FE0FBA3E0FAA3E0F9120D
:10254700145290019CE0FBA3E0FAA3E0F9121452A5
:10255700781B860308E6FA08E6F912145290006F12
:10256700E0FBA3E0FAA3E0F91214529000C2E0FBEB
:10257700A3E0FAA3E0F9121452900159E0FBA3E09B
:10258700FAA3E0F91214529001B1E0FBA3E0FAA319
:10259700E0F91214529001D1E0FBA3E0FAA3E0F9AD
:0425A7001214522296
:0A1226004701C200000000FF1EB8DF
:101EB8009001BAEBF0A3EAF0A3E9F09001BDEDF0D0
:101EC8009001BEE4F0A3E4F09001C0E4F09001C1F9
:101ED800E4F09001BE74FFF0A374FFF09001C0E439
:101EE800F09001BDE0FF9001C0E0FEEEC39F40030B
:101EF800021F919001BEE0FEA3E0FF9001BAE0FB53
:101F0800A3E0FAA3E0F99001C0E0FD8D827583009B
:101F1800121330FD7C00EE6CFEEF6DFF9001BEEEFB
:101F2800F0A3EFF09001C1E4F09001C1E0FFEFC32E
:101F38009408504C9001BEE0FEA3E0FFEF30E02192
:101F48009001BEE0FEA3E0FFEEC313FEEF13FFEE29
:101F580064A0FEEF6401FF9001BEEEF0A3EFF080F5
:101F6800179001BEE0FEA3E0FFEEC313FEEF13FFE0
:101F78009001BEEEF0A3EFF09001C1E004F080A95B
:101F88009001C0E004F0021EE99001BEE0FEA3E06B
:011F9800FF49
:011F99002225
:10286700435243313620436865636B204552524FCC
:1028770052A3A1A3A10052656769737420616464C0
:1028870072657373206F7574206F662072616E674F
:1028970065A3A1A3A1307E390A004F6E6C7920721F
:1028A7006561642074776F20726567697374206F40
:1028B7006E6365A3A1A3A10A0052656769737420BB
:1028C70061646472657373206F7574206F6620721C
:0E28D700616E676532A3A1A3A1307E390A00AD
:06123000042201FF14E19D
:0B14E1009001D7EBF0A3EAF0A3E9F0C4
:1014EC009001D7E0FBA3E0FAA3E0F99001DAEBF06E
:1014FC00A3EAF0A3E9F09001DAE0FBA3E0FAA3E0A1
:10150C00F97582087583001213FC121317FF7822E9
:10151C00E6FEEF6E60030216A59001DAE0FBA3E095
:10152C00FAA3E0F97582087583001213FCC003C09E
:10153C0002C0019001C6E0FBA3E0FAA3E0F98982A6
:10154C008A83D001D002D0037D061214569001C2BA
:10155C00EEF0A3EFF09001C2E0FEA3E0FFEEFF7E01
:10156C00009001C4EFF09001C2E0FEA3E0FF9001F7
:10157C00C5EFF09001DAE0FBA3E0FAA3E0F9758285
:10158C00087583001213FC758206758300121330E4
:10159C00FF9001C5E0FEEFB506279001DAE0FBA352
:1015AC00E0FAA3E0F97582087583001213FC7582CA
:1015BC0007758300121330FF9001C4E0FEEF6E60DC
:1015CC00519001DAE0FBA3E0FAA3E0F9758208750B
:1015DC0083001213FC758206758300121330FF9082
:1015EC0001C4E0FEEF6E60030216809001DAE0FBAE
:1015FC00A3E0FAA3E0F97582087583001213FC7559
:10160C008207758300121330FF9001C5E0FEEF6E68
:10161C0070629001DAE0FBA3E0FAA3E0F9758208AE
:10162C007583001213FC758201758300121330FF51
:10163C00EFB4030F9001DAE0FBA3E0FAA3E0F91298
:10164C000046229001DAE0FBA3E0FAA3E0F97582F0
:10165C00087583001213FC75820175830012133018
:10166C00FFEFB406349001DAE0FBA3E0FAA3E0F953
:10167C00120D5F2290007FE0FBA3E0FAA3E0F912C9
:10168C0014527BFF7A2879671204EB900082E0FBFE
:09169C00A3E0FAA3E0F9121452D4
:0116A5002222
:0B004600900180EBF0A3EAF0A3E9F0CA
:10005100900180E0FBA3E0FAA3E0F9900183EBF0CB
:10006100A3EAF0A3E9F0900186E4F0A3E4F09001A3
:1000710088E4F0A3E4F090018A7403F0900183E036
:10008100FBA3E0FAA3E0F97582087583001213FC63
:10009100758202758300121330FF7E00900186E0A5
:1000A100FCA3E0FDEF2DFFEE3CFEEF7F00FE900193
:1000B10083E0FBA3E0FAA3E0F975820875830012DF
:1000C10013FC758203758300121330FD7C00EF2D44
:1000D100FFEE3CFE900186EEF0A3EFF0900183E08D
:1000E100FBA3E0FAA3E0F97582087583001213FC03
:1000F100758204758300121330FF7E00900188E041
:10010100FCA3E0FDEF2DFFEE3CFEEF7F00FE900132
:1001110083E0FBA3E0FAA3E0F9758208758300127E
:1001210013FC758205758300121330FD7C00EF2DE1
:10013100FFEE3CFE900188EEF0A3EFF0900188E025
:10014100FEA3E0FF900186E0FCA3E0FDED2FFFECB4
:100151003EFED3EF940AEE94004003020415900191
:1001610088E0FEA3E0FFD3EF9400EE940050030279
:100171000415900188E0FEA3E0FFC3EF9403EE9421
:100181000040030204157822E6FF900183E0FBA3FF
:10019100E0FAA3E0F97582057583001213FCEF12F2
:1001A100135D900183E0FBA3E0FAA3E0F9758205FA
:1001B1007583001213FC7582017583007403121399
:1001C1006F900188E0FEA3E0FFEF25E0FF9001833F
:1001D100E0FBA3E0FAA3E0F9758205758300121331
:1001E100FC758202758300EF12136F90018BE4F0AE
:1001F10090018BE0FF7E00900188E0FCA3E0FDC34D
:10020100EF9DEE9C400302033990018BE0FF9001CA
:100211008CEFF090018BE0FF7E00EF2401FFEE34C4
:1002210000FE90018CE0FD7C00D3ED9FEE6480F830
:10023100EC648098400302032990018BE0FF900158
:100241008CE0FEEE6F706F90018BE0FF7E009001FD
:1002510086E0FCA3E0FDEF2DFFEE3CFEEF25E0FF85
:10026100EE33FE74322FF58274013EF583E0FEA376
:10027100E0FFEEFF7E00900183E0FBA3E0FAA3E044
:10028100F97582057583001213FCE92403F9EA3438
:1002910000FA90018BE0FEEEFD7C00E92DF9EA3CCD
:1002A100FA90018CE0FEEEFD7C00E92DF9EA3CFAC2
:1002B100EF12135D806990018BE0FF7E0090018653
:1002C100E0FCA3E0FDEF2DFFEE3CFEEF25E0FFEEAD
:1002D10033FE74322FF58274013EF583E0FEA3E014
:1002E100FF900183E0FBA3E0FAA3E0F975820575B5
:1002F10083001213FCE92403F9EA3400FA90018B1C
:10030100E0FEEEFD7C00E92DF9EA3CFA90018CE07B
:10031100FEEEFD7C00E92DF9EA3CFAEF12135D9047
:10032100018CE004F002021490018AE02402F090B2
:10033100018BE004F00201F1900183E0FBA3E0FAFC
:10034100A3E0F97582057583001213FCC003C00296
:10035100C00190018AE0FD9001C6E0FBA3E0FAA391
:10036100E0F989828A83D001D002D0031214569019
:1003710001C2EEF0A3EFF09001C2E0FEA3E0FF9016
:100381000183E0FBA3E0FAA3E0F975820575830020
:100391001213FC90018AE0FE04F08E82758300EF57
:1003A10012136F9001C2E0FEA3E0FFEEFF7E00900A
:1003B1000183E0FBA3E0FAA3E0F9758205758300F0
:1003C1001213FC90018AE0FE04F08E82758300EF27
:1003D10012136F900183E0FBA3E0FAA3E0F97582A9
:1003E100057583001213FCC003C002C00190018A8D
:1003F100E0FD900183E0FBA3E0FAA3E0F97582112F
:100401007583001213FC89828A83D001D002D00344
:1004110012145622900188E0FEA3E0FF900186E0CD
:10042100FCA3E0FDED2FFFEC3EFED3EF940AEE942A
:1004310000402690007FE0FBA3E0FAA3E0F912144C
:10044100527BFF7A28797D1204EB900082E0FBA3B6
:10045100E0FAA3E0F91214522290007FE0FBA3E03E
:10046100FAA3E0F91214527BFF7A2879A11204EB66
:0E047100900082E0FBA3E0FAA3E0F91214521F
:01047F00225A
:0B0D5F009001A5EBF0A3EAF0A3E9F07F
:100D6A009001A5E0FBA3E0FAA3E0F99001A8EBF05B
:100D7A00A3EAF0A3E9F09001ABE4F0A3E4F0900158
:100D8A00ADE4F0A3E4F09001AFE4F09001AFE0FF2E
:100D9A00EFC39408504C9001A8E0FBA3E0FAA3E04B
:100DAA00F97582087583001213FC9001AFE0FF8F7A
:100DBA0082758300121330FF9001A8E0FBA3E0FACA
:100DCA00A3E0F97582057583001213FC9001AFE068
:100DDA00FE8E82758300EF12136F9001AFE004F06C
:100DEA0080A99001A8E0FBA3E0FAA3E0F9758205C7
:100DFA007583001213FCC003C002C0019001A8E071
:100E0A00FBA3E0FAA3E0F97582117583001213FCC3
:100E1A0089828A83D001D002D0037D0812145690A9
:100E2A0001A8E0FBA3E0FAA3E0F975820875830044
:100E3A001213FC758202758300121330FF7E009034
:100E4A0001ABE0FCA3E0FDEF2DFFEE3CFEEF7F00DF
:100E5A00FE9001A8E0FBA3E0FAA3E0F97582087509
:100E6A0083001213FC758203758300121330FD7C14
:100E7A0000EF2DFFEE3CFE9001ABEEF0A3EFF090F9
:100E8A0001A8E0FBA3E0FAA3E0F9758208758300E4
:100E9A001213FC758204758300121330FF7E0090D2
:100EAA0001ABE0FCA3E0FDEF2DFFEE3CFEEF7F007F
:100EBA00FE9001A8E0FBA3E0FAA3E0F975820875A9
:100ECA0083001213FC758205758300121330FD7CB2
:100EDA0000EF2DFFEE3CFE9001ADEEF0A3EFF09097
:100EEA0001ABE0FEA3E0FFD3EF9409EE9400503586
:100EFA009001ABE0FEA3E0FFC3EE9400402790010F
:100F0A00ADE0FCA3E0FD9001ABE0FEA3E0FFEF251E
:100F1A00E0FFEE33FE74322FF58274013EF583EC66
:100F2A00F0A3EDF02290007FE0FBA3E0FAA3E0F942
:100F3A001214527BFF7A2879C01204EB900082E0E7
:0A0F4A00FBA3E0FAA3E0F912145231
:010F5400227A
:09123600071700000000FF2DDA8B
:102DDA00538E7F5389F0758A00758CEEC28DD28C22
:012DEA0022C6
:03000B000225AB20
:1025AB00C0E0C0F0C083C082C0D075D000C000C0F6
:1025BB0001C002C003C004C005C006C007781AE6FC
:1025CB00FFEFB4011F781706E6FFEFC3940A403103
:1025DB007817760090014FE0FBA3E0FAA3E0F91225
:1025EB001452801D781706E6FFEFC394C84012788B
:1025FB0017760090014FE0FBA3E0FAA3E0F9121469
:10260B0052781906E618700106900158E004F07034
:10261B0006900157E004F0D007D006D005D004D0C7
:10262B0003D002D001D000D0D0D082D083D0F0D054
:02263B00E0328B
:102DB3004E6F74206861766520382042797465A36C
:042DC300A1A3A10027
:10123F00603200D800000000000000000000000035
:10124F00000000000000000000000000000000008F
:10125F00000000000000000000000000000000007F
:10126F000000000000006032008500000000000058
:10127F00000000000000000000000000000000005F
:10128F00000000000000000000000000000000004F
:10129F00000000000000000000000000602100B707
:1012AF0000030000000100850100D8FF275AFF2826
:1012BF00E5FF2B44FF29D5FF221800FF000AFF008E
:0112CF0042DC
:10275A00759A50438E0453BAFE900065E0FFEF125B
:10276A00142C277C00278401278C0227940300005D
:10277A00279C75D7C075D6FD801E75D7E075D6FE25
:10278A00801675D77075D6FF800E75D7E875D6FF97
:10279A00800675D7C075D6FD53AFFB438E10439A9A
:1027AA00109000BFE0FBA3E0FAA3E0F9C003C00267
:1027BA00C001900152E0FBA3E0FAA3E0F989828A02
:1027CA0083D001D002D0037D321214569000BAE4AD
:0727DA00F09000BBE4F022C7
:0528E5009001F6EFF088
:1028EA009001F7E4F09000B9E0FFEF640160F69020
:1028FA0000B7E0FFEF60549001F6E0FFEFA2D0E4EA
:10290A0033FF9001F7E0FEEF2EFFEF33333354F835
:10291A00FF9001F7EFF09000B7E0FFEF12142C29B7
:10292A003301294502000029559001F7E0FFEF70B5
:10293A0005439A088015539AF780109001F7E0FF33
:10294A00EF7005539AF78003439A089000B974010F
:08295A00F09001F6E0FF8F9BF5
:012962002252
:0B29D5009001E9EBF0A3EAF0A3E9F0A9
:1029E0009001ECE4F09001E9E0FBA3E0FAA3E0F948
:1029F0009001ECE0FF8F82758300121330FFEF60CF
:102A0000339001E9E0FBA3E0FAA3E0F99001ECE0E8
:102A1000FF8F82758300121330FF9000C5E0FBA387
:102A2000E0FAA3E0F989828A831214569001ECE05F
:0E2A300004F080B19000B9E0FFEF640160F6A1
:012A3E002275
:102B44009001EDEBF0A3EAF0A3E9F09001F0EDF0D1
:102B54009001F0E0FF14F0EF60289001EDE0FBA39A
:102B6400E475F0011213E6A9F0FA121317FF9000AE
:102B7400C5E0FBA3E0FAA3E0F989828A8312145624
:0D2B840080CE9000B9E0FFEF640160F62202
:10221800D20F9000BAE0FFEF640160030222E3905E
:1022280000BFE0FBA3E0FAA3E0F9AE02AF01EF4E76
:102238006071781876000876009000BBE0FFEFC365
:10224800940850127818E6FE08E6FFC3EF9414EEDF
:10225800940040E5C20F300F257B017A0079B7C0A2
:1022680003C002C0017823860308E6FA08E6F98964
:10227800828A83D001D002D00312145680259000A0
:102288007FE0FBA3E0FAA3E0F91214527BFF7A2D5A
:1022980079B31204EB900082E0FBA3E0FAA3E0F923
:1022A8001214529000BFE0FBA3E0FAA3E0F9C003C8
:1022B800C002C0019000BBE0FD900152E0FBA3E02A
:1022C800FAA3E0F989828A83D001D002D0031214DC
:0B22D800569000BBE4F09000BAE4F068
:0122E30022D8
:01000A0022D3
:01004200229B
:03004300021BDEBF
:101BDE00C0E0C083C082C0D075D000C000C001C0BC
:071BEE0002C003C006C0079E
:101BF500E59A30E108539AFD9000B9E4F0E59A20A2
:101C0500E003021CC6539AFE7827A69BE59A540466
:101C1500FFEF1313543FFFEF24FF920B7827E6FFE6
:101C2500EFA2D0920C9000BBE0FFEFC394324003CB
:101C3500021CC09000B7E0FFEF12142C1CA1001C81
:101C45004E011C780200001CC0A20BB3300C01B37E
:101C550040697827E6FF9000BFE0FBA3E0FAA3E028
:101C6500F99000BBE0FE04F08E82758300EF12133D
:101C75006F8048A20C300B01B340407827E6FF90F7
:101C850000BFE0FBA3E0FAA3E0F99000BBE0FE048F
:101C9500F08E82758300EF12136F801F7827E6FFA1
:101CA5009000BFE0FBA3E0FAA3E0F99000BBE0FEE3
:101CB50004F08E82758300EF12136F9000BA7401E1
:011CC500F02E
:101CC600D007D006D003D002D001D000D0D0D08229
:051CD600D083D0E032D4
:10184E0041540D0A005769466920496E6974207427
:10185E00696D656F757421210A004F4B000D0A00EA
:10186E004578697420546F75436875616E2D2D2D02
:10187E002D0A002B00415445300D0A0041542B43D4
:10188E00574D4F44455F4445463D310D0A00415486
:10189E002B43574155544F434F4E4E0D0A00415462
:1018AE002B43574A41505F4445463D22B5CEB5CEF7
:1018BE00B5CE222C227A6E68786B68333039220DC1
:1018CE000A005749464920474F54204950002B2BB8
:1018DE002B0053746174653D2562642C4F4B5F463B
:1018EE006C61673D2562640A0041542B434946539F
:1018FE00520D0A003139322E3136380041542B4305
:10190E00495053544152543D22544350222C2231BB
:10191E0039322E3136382E3130312E313034222CB0
:10192E00383838380D0A00434F4E4E454354004167
:10193E00542B4349504D4F44453D310D0A004154FF
:10194E002B43495053454E440D0A0052756E6E6935
:10195E006E67210A0054696D654F7574210A005334
:10196E00656E6420646174613D2573004E6F742052
:10197E00415420436F6D6D616E6421213D25730AC4
:10198E0000526563656976652054696D654F75749F
:03199E00210A001B
:1012D000550156000000FF19A1FF0AD3FF07E5FFE3
:1012E0002E19FF2E1AFF1AD846016BFF0F55FF1C4F
:0512F000DB4101550087
:1019A100C283900146E0FBA3E0FAA3E0F989828AB1
:1019B100837F647E00121456D283D2827818760017
:1019C100087600781A76019000BFE0FBA3E0FAA345
:1019D100E0F9C003C002C0019000BBE0FD900152DC
:1019E100E0FBA3E0FAA3E0F989828A83D001D00267
:1019F100D0031214569000BBE4F09000BAE4F07BDF
:101A0100FF7A18794EC003C002C0019000CBE0FB01
:101A1100A3E0FAA3E0F989828A83D001D002D0033E
:101A2100121456900146E0FBA3E0FAA3E0F9898283
:101A31008A837F647E001214567818E6FE08E6FF5A
:101A4100D3EF94E8EE940340267BFF7A187953C0D4
:101A510003C002C001900078E0FBA3E0FAA3E0F923
:101A610089828A83D001D002D003121456804D900E
:101A710000BFE0FBA3E0FAA3E0F9C003C002C0018C
:101A81007BFF7A18796890010DEBF0A3EAF0A3E9E6
:101A9100F0D001D002D0031223A4C003C002C001C0
:101AA1007B007A007900D082D083D0E06B7008E9A6
:101AB10065827003EA658370030219C8900146E0EC
:101AC100FBA3E0FAA3E0F989828A837FE87E03120F
:071AD1001456781A7600227A
:0B16A600900171EBF0A3EAF0A3E9F063
:1016B1009001797401F0900171E0FBA3E0FAA3E0DD
:1016C100F990017AEBF0A3EAF0A3E9F0900174E05C
:1016D100FBA3E0FAA3E0F990017DEBF0A3EAF0A30C
:1016E100E9F09000BFE0FBA3E0FAA3E0F9C003C07A
:1016F10002C0019000BBE0FD900152E0FBA3E0FAC3
:10170100A3E0F989828A83D001D002D00312145652
:101711009000BBE4F09000BAE4F090017AE0FBA302
:10172100E0FAA3E0F9C003C002C0019000CBE0FBE6
:10173100A3E0FAA3E0F989828A83D001D002D00321
:10174100121456781876000876009000BFE0FBA3CB
:10175100E0FAA3E0F9C003C002C0017BFF7A187967
:101761006B90010DEBF0A3EAF0A3E9F0D001D002F8
:10177100D0031223A4C003C002C0017B007A007908
:1017810000D082D083D0E06B7008E965827003EAF3
:101791006583604F9000BFE0FBA3E0FAA3E0F9C0CE
:1017A10003C002C001900174E0FBA3E0FAA3E0F9D9
:1017B10090010DEBF0A3EAF0A3E9F0D001D002D043
:1017C100031223A4C003C002C0017B007A00790088
:1017D100D082D083D0E06B7008E965827003EA653E
:1017E10083702C900177E0FEA3E0FF7818E6FC08F7
:1017F100E6FDD3ED9FEC9E500302174B900149E0AB
:10180100FBA3E0FAA3E0F9121452900179E4F090FD
:1018110000BFE0FBA3E0FAA3E0F9C003C002C001EE
:101821009000BBE0FD900152E0FBA3E0FAA3E0F9D8
:1018310089828A83D001D002D0031214569000BB52
:0C184100E4F09000BAE4F0900179E0FFC0
:01184D002278
:100AD3009001CCE0FFEF64016003020D5E781A76AB
:100AE30001900156E0FFEF64016003020B977BFF67
:100AF3007A18796EC003C002C001900078E0FBA3AE
:100B0300E0FAA3E0F989828A83D001D002D00312EC
:100B130014567BFF7A187981C003C002C00190008C
:100B2300CBE0FBA3E0FAA3E0F989828A83D001D06A
:100B330002D0031214567BFF7A187981C003C002D6
:100B4300C0019000CBE0FBA3E0FAA3E0F989828A1D
:100B530083D001D002D0031214567BFF7A18798117
:100B6300C003C002C0019000CBE0FBA3E0FAA3E006
:100B7300F989828A83D001D002D0031214569001DE
:100B830046E0FBA3E0FAA3E0F989828A837FE87E4B
:100B9300031214567BFF7A18794EC003C002C001BA
:100BA3007BFF7A187968900174EBF0A3EAF0A3E96C
:100BB300F0900177E4F0A37414F0D001D002D003D5
:100BC3001216A67BFF7A187983C003C002C0017B8B
:100BD300FF7A187968900174EBF0A3EAF0A3E9F0C7
:100BE300900177E4F0A37414F0D001D002D0031283
:100BF30016A67BFF7A18798AC003C002C0017BFF67
:100C03007A187968900174EBF0A3EAF0A3E9F09005
:100C13000177E4F0A37414F0D001D002D0031216CC
:100C2300A67BFF7A18799CC003C002C0017BFF7AC0
:100C3300187968900174EBF0A3EAF0A3E9F090014E
:100C430077E4F0A37414F0D001D002D0031216A6F7
:100C53007BFF7A1879ACC003C002C0017BFF7A180E
:100C63007968900174EBF0A3EAF0A3E9F0900177BF
:100C7300E4F0A374C8F0D001D002D0031216A67812
:100C83001876000876007818E6FE08E6FFC3EF94AE
:100C9300A0EE948C4003020D4C9000BFE0FBA3E058
:100CA300FAA3E0F9C003C002C0017BFF7A1879D030
:100CB30090010DEBF0A3EAF0A3E9F0D001D002D04C
:100CC300031223A4C003C002C0017B007A00790091
:100CD300D082D083D0E06B7008E965827003EA6547
:100CE3008360A37BFF7A1879D0C003C002C0019050
:100CF3000078E0FBA3E0FAA3E0F989828A83D001BC
:100D0300D002D003121456900146E0FBA3E0FAA3ED
:100D1300E0F989828A837FE87E03121456900146A4
:100D2300E0FBA3E0FAA3E0F989828A837FE87E03EC
:100D3300121456900146E0FBA3E0FAA3E0F989827E
:100D43008A837FE87E03121456781A760090014C4A
:0C0D5300E0FBA3E0FAA3E0F91214522226
:1007E5009001F8E4F09001F9E4F07BFF7A1879DCE8
:1007F500C003C002C0019000CBE0FBA3E0FAA3E078
:10080500F989828A83D001D002D00312145690014F
:1008150046E0FBA3E0FAA3E0F989828A837FE87EBC
:100825000312145678187600087600781A76019027
:1008350001F9E0FFEF64FF7003020AC690007FE054
:10084500FBA3E0FAA3E0F91214527BFF7A1879E0D2
:100855009001F9E0FF90010DEFF09001F8E0FF90B5
:10086500010EEFF01204EB900082E0FBA3E0FAA387
:10087500E0F91214529001F9E0FFEF12142C089CD4
:100885000008EB01093502097F0309CF040A2A058F
:100895000A7906000008347BFF7A18794EC003C038
:1008A50002C0017BFF7A187968900174EBF0A3EA26
:1008B500F0A3E9F0900177E4F0A37414F0D001D02F
:1008C50002D0031216A69001F8EFF09001F8E0FFB0
:1008D500EFB401099001F97401F00208349001F9AF
:1008E50074FFF00208347BFF7A187983C003C002D5
:1008F500C0017BFF7A187968900174EBF0A3EAF0E8
:10090500A3E9F0900177E4F0A37414F0D001D002CC
:10091500D0031216A69001F8E0FFEFB4010990018B
:10092500F97402F00208349001F974FFF0020834FA
:100935007BFF7A18798AC003C002C0017BFF7A1851
:100945007968900174EBF0A3EAF0A3E9F0900177E0
:10095500E4F0A37414F0D001D002D0031216A690CF
:1009650001F8E0FFEFB401099001F97403F0020802
:10097500349001F974FFF00208347BFF7A1879F797
:10098500C003C002C0017BFF7A197902900174EBA4
:10099500F0A3EAF0A3E9F09001777403F0A374E8FB
:1009A500F0D001D002D0031216A69001F8EFF09016
:1009B50001F8E0FFEFB401099001F97404F00208B1
:1009C500349001F974FFF00208347BFF7A19790A33
:1009D500C003C002C0017BFF7A197935900174EB21
:1009E500F0A3EAF0A3E9F09001777403F0A374E8AB
:1009F500F0D001D002D0031216A69001F8EFF090C6
:100A050001F8E0FFEFB4010F9001567401F0900179
:100A1500F97405F0020834900156E4F09001F97478
:100A2500FFF00208347BFF7A19793DC003C002C08C
:100A3500017BFF7A187968900174EBF0A3EAF0A3C3
:100A4500E9F0900177E4F0A37414F0D001D002D05E
:100A5500031216A69001F8EFF09001F8E0FFEFB44D
:100A650001099001F97406F00208349001F974FF48
:100A7500F00208347BFF7A19794CC003C002C0012B
:100A85007BFF7A187968900174EBF0A3EAF0A3E98B
:100A9500F0900177E4F0A37414F0D001D002D003F4
:100AA5001216A69001F8EFF09001F8E0FFEF64014F
:100AB50060030208349001F974FFF002083402085B
:0D0AC50034781A7600900157E4F0A3E4F0B5
:010AD2002201
:012E19002296
:012E1A002295
:101AD800900156E0FFEF64016003021BDD7818E611
:101AE800FE08E6FFD3EF9458EE94025003021BDD84
:101AF8007BFF7A197959C003C002C0019000CBE07E
:101B0800FBA3E0FAA3E0F989828A83D001D002D04E
:101B1800031214569000BAE0FFEFB401519000BFD1
:101B2800E0FBA3E0FAA3E0F9C003C002C0017BFF19
:101B38007A18796890010DEBF0A3EAF0A3E9F0D0E8
:101B480001D002D0031223A4C003C002C0017B004D
:101B58007A007900D082D083D0E06B7008E9658282
:101B68007003EA65836007900155E4F080167818E1
:101B7800E6FE08E6FFD3EF9420EE9403409690012A
:101B880055E004F0900155E0FFEFC39404400A903B
:101B98000156E4F0900155E4F09000BFE0FBA3E0AB
:101BA800FAA3E0F9C003C002C001900152E0FBA310
:101BB800E0FAA3E0F989828A83D001D002D0037DBC
:101BC800041214569000BBE4F09000BAE4F07818C0
:051BD800760008760014
:011BDD0022E5
:100F55009002067401F0900067E0FFEF6401600302
:100F650002114A7818760008760090006CE0FBA321
:100F7500E0FAA3E0F9C003C002C0017BFF7A18794B
:100F85006B90010DEBF0A3EAF0A3E9F0D001D002DC
:100F9500D0031223A4C003C002C0017B007A0079EC
:100FA50000D082D083D0E06B7008E965827003EAD7
:100FB500658370397818E6FE08E6FFD3EF9414EEE2
:100FC500940040A6900206E4F07BFF7A197963C08D
:100FD50003C002C001900078E0FBA3E0FAA3E0F9AA
:100FE50089828A83D001D002D0031214569002065A
:100FF500E0FFEF640160030210A290006CE0FBA328
:10100500E0FAA3E0F9121317FFEF64416003021041
:10101500A290006CE0FBA3E0FAA3E0F975820175EC
:101025008300121330FFEF6454707290007FE0FB71
:10103500A3E0FAA3E0F91214527BFF7A19796DC087
:1010450003C002C00190006CE0FBA3E0FAA3E0F945
:1010550090010DEBF0A3EAF0A3E9F0D001D002D0A6
:10106500031204EB900082E0FBA3E0FAA3E0F9127F
:10107500145290006CE0FBA3E0FAA3E0F9C003C0B2
:1010850002C0019000CBE0FBA3E0FAA3E0F989825E
:101095008A83D001D002D003121456807090007F4D
:1010A500E0FBA3E0FAA3E0F91214527BFF7A197969
:1010B5007AC003C002C00190006CE0FBA3E0FAA374
:1010C500E0F990010DEBF0A3EAF0A3E9F0D001D02F
:1010D50002D0031204EB900082E0FBA3E0FAA3E048
:1010E500F912145290006CE0FBA3E0FAA3E0F9C0FA
:1010F50003C002C0019000CBE0FBA3E0FAA3E0F936
:1011050089828A83D001D002D00312145690006CD4
:10111500E0FBA3E0FAA3E0F9C003C002C001900020
:1011250068E0FD900152E0FBA3E0FAA3E0F98982B3
:101135008A83D001D002D003121456900068E4F0DF
:05114500900067E4F0DA
:01114A002282
:101CDB009000BAE0FFEF64016003021DCE78187626
:101CEB00000876009000BFE0FBA3E0FAA3E0F9C088
:101CFB0003C002C0017BFF7A18796B90010DEBF0EA
:101D0B00A3EAF0A3E9F0D001D002D0031223A4C0C0
:101D1B0003C002C0017B007A007900D082D083D04F
:101D2B00E06B7008E965827003EA6583703478189C
:101D3B00E6FE08E6FFD3EF9414EE940040A67BFF7B
:101D4B007A19798FC003C002C001900078E0FBA321
:101D5B00E0FAA3E0F989828A83D001D002D0031282
:101D6B0014569000BFE0FBA3E0FAA3E0F9C003C058
:101D7B0002C001900078E0FBA3E0FAA3E0F98982AE
:101D8B008A83D001D002D0031214569000BFE0FB1F
:101D9B00A3E0FAA3E0F9C003C002C0019000BBE0CE
:101DAB00FD900152E0FBA3E0FAA3E0F989828A835C
:101DBB00D001D002D0031214569000BBE4F0900077
:041DCB00BAE4F02264
:0A12F5004701C900000000FF27E1D7
:1027E1009001FAE4F0A3E4F030B20A9001CAE4F0F7
:1027F1009001CCE4F09001C9E0FFEFB40129900110
:10280100C9E4F0C2A820B21F900146E0FBA3E0FAA0
:10281100A3E0F989828A837F0A7E0012145620B2CE
:10282100069001CA7401F09001CAE0FFEFB40125DE
:102831009001CC7401F0781876000876007818E6DB
:10284100FE08E6FFC3EF9458EE9402500830B2ED53
:102851009001CCE4F09001CCE0FFEFB401059001D0
:05286100CAE4F0D2A85A
:01286600224F
:03000300022DC704
:102DC700C0E0C083C0829001C97401F0D082D08373
:032DD700D0E03217
:0A2E0F003F065B4F666D7D077F6F85
:0D12FF004A01B08AFF2963FF2B91FF207385
:052A3F009001FCEFF026
:102A44009001FDE4F0C2A6900146E0FBA3E0FAA3E6
:102A5400E0F989828A837F017E001214569001FD79
:102A6400E4F09001FDE0FFEFC39408502BC2A59061
:102A740001FCE0FFEF30E004D2A48002C2A4900184
:102A8400FCE0FFEFC313FF9001FCEFF000D2A500C0
:082A94009001FDE004F080CA8E
:012A9C002217
:10296300900207E4F07F02122A3FD2A67F40122A88
:102973003FD2A67FC0122A3F900207E4F0900207DD
:10298300E0FFEFC3940C500D7F00122A3F90020723
:10299300E004F080E8D2A69001B0E0FF122A3FD213
:1029A300A67F02122A3FD2A67F44122A3FD2A67FD5
:1029B300C0122A3F7FFF122A3FD2A67FC2122A3FAC
:1029C3007FFF122A3FD2A69001B0E0FF122A3FD226
:0129D300A65D
:0129D40022E0
:102B91009001FEEFF09001FFEDF09001FEE0FFEFFC
:102BA10012142C2BAE012BB50200002BBA7FC012E0
:102BB1002A3F80057FC2122A3F9001FFE0FFEF907C
:102BC1002E0F93FF122A3FD2A69001B0E0FF122AE6
:042BD1003FD2A62227
:05207300900200EFF0F7
:10207800900201E4F0900201E4F0900200E0FF9089
:102088000201E0FEEEC39F400302214B9001CDE028
:10209800FBA3E0FAA3E0F91214529001CCE0FFEFA1
:1020A800B401079001B07480F0229001CAE0FFEFFC
:1020B800640170709001CCE0FFEF70689001B0E0AF
:1020C800FFEF12142C20EC8020F38820FA892101DC
:1020D8008A21088B210F8C21168D211D8E21248F9A
:1020E8000000214B9001B07488F0229001B07489EF
:1020F800F0229001B0748AF0229001B0748BF02223
:102108009001B0748CF0229001B0748DF02290018F
:10211800B0748EF0229001B0748FF0229001B074E8
:1021280088F02222900146E0FBA3E0FAA3E0F989B7
:10213800828A837F017E00121456900201E004F027
:03214800022082F0
:01214B002271
:0A130C004701D014FF2D0CFF2A9DAD
:102D0C0053A2DF43A21075D80075D90C75E9007574
:102D1C00F90075DA4275F20053F2FD75FACCD2DE89
:012D2C002284
:102A9D009001D0E0FFEF12142C2ABC002AC6142A94
:102AAD00D0282ADA3C2AE4502AEE6400002AF69057
:102ABD0001D07414F075FACC229001D07428F07501
:102ACD00FA99229001D0743CF075FA66229001D0EB
:102ADD007450F075FA33229001D07464F075FA00D9
:0A2AED00229001D0E4F075FAFF22F8
:030000000226CE07
:0C26CE00787FE4F6D8FD758127022715FF
:10131700BB010689828A83E0225002E722BBFE02D4
:09132700E32289828A83E4932207
:10133000BB010CE58229F582E5833AF583E0225072
:1013400006E92582F8E622BBFE06E92582F8E222BC
:0D135000E58229F582E5833AF583E49322D6
:10135D00BB010689828A83F0225002F722BBFE016F
:02136D00F32269
:10136F00F8BB010DE58229F582E5833AF583E8F0B4
:10137F00225006E92582C8F622BBFE05E92582C860
:02138F00F22248
:10139100BC000BBE0029EF8DF084FFADF022E4CC40
:1013A100F875F008EF2FFFEE33FEEC33FCEE9DEC09
:1013B100984005FCEE9DFE0FD5F0E9E4CEFD22ED4F
:1013C100F8F5F0EE8420D21CFEADF075F008EF2F99
:1013D100FFED33FD4007985006D5F0F222C398FD8A
:0513E1000FD5F0EA2227
:1013E600A3F8E0C5F025F0F0E582158270021583BA
:0613F600E0C838F0E82217
:1013FC00BB010DE58229F582E5833AF5830214A33E
:10140C005007E92582F802149ABBFE07E92582F8F9
:10141C000214CCE58229F582E5833AF5830214D5D2
:10142C00D083D082F8E4937012740193700DA3A34F
:10143C0093F8740193F5828883E473740293686063
:06144C00EFA3A3A380DF63
:061452008A838982E47325
:10048000E510240DF582E43401F583E00510229097
:10049000010A30070390010DE475F0011214AC025B
:1004A00013172000E97F2ED2008018EF540F2490FC
:1004B000D43440D4FF30040BEF24BFB41A005003EF
:1004C0002461FFE511600215110514E514700205A1
:1004D0001330070E90010AE475F0011214ACEF021C
:1004E000135D022CEA7403D2078003E4C207F510FF
:1004F00090010A1214C3E4F511F513F514E5116027
:10050000077F201204C380F57512FFC201C200C22A
:1005100002C203C205C206C20812048FFF700D306A
:1005200007057F001204D4AF14AE1322B4255FC2B6
:10053000D5C20412048FFF24D0B40A00501A75F0FB
:100540000A781130D50508B6FF0106C6A426F620A4
:10055000D5047002D20380D924CFB41A00EF50041E
:10056000C2E5D2040206D5D20180C6D20080C0D234
:100570000280BCD2D580BAD20580B47F201204C3D9
:100580002002077401B5110040F1120480FF12042B
:10059000C30204FDD208D2068095120480FB120427
:1005A00080FA120480F94A4B700679A67A077BFF1D
:1005B00020022EE511602A7E008E827583001213C0
:1005C0003060060EEE651270F0C2D5EBC0E0EAC0F6
:1005D000E0E9C0E0EE12071CD0E0F9D0E0FAD0E08C
:1005E000FB121317FF60AAEBC0E0EAC0E0E9C0E02D
:1005F0001204C3D0E02401F9D0E03400FAD0E0FBCB
:10060000E5120460DCD512D980877BFF7A07791860
:10061000D202809C791080027908C206C208800844
:10062000D2D5790A8004790AC2D5E512047002F5A0
:1006300012E4FAFDFEFF120480FC7B082001131275
:100640000480FD7B1030000A120480FE120480FF3B
:100650007B20EC3382D592D55013C3E43000069F43
:10066000FFE49EFEE42001039DFDE49CFCE4CBF846
:10067000C201EC700CCFCECDCCE824F8F870F3803A
:1006800017C3EF33FFEE33FEED33FDEC33FCEB33FA
:10069000FB994002FB0FD8E9EB300105F8D0E0C42C
:1006A00048B201C0E00AEC4D4E4F78207B0070C28A
:1006B000EAB5120040BCC0E012071ED0F0D0E02026
:1006C0000104C4C0E0C4B201C0F01204ACD0F0D543
:1006D000F0EB0204FD12142C059A53061458056B16
:1006E0004C05674206184F06204406204905804302
:0806F000062655060A46060A1B
:1006F80045060A4707C650056F2D05732E05962B2C
:1007080005772305942007AF2A052F480000058E9A
:100718003F3F3F00790AA2D5200314300509B910DC
:10072800020404B9080104A2D520060250010420DD
:1007380002689202B511005034C0E07F20300319DE
:100748007F30A20272067205500F120775C202C2EC
:1007580006C205C2087F30800F300503E9C0E012E9
:1007680004C3300503D0E0F9D0E0B511CC3005174B
:100778007F30B9100C1204C37F583004077F78808B
:1007880003B908031204C33002057F2D0204C37F96
:10079800202008F87F2B2006F322920280CF286EB3
:1007A800756C6C2900D2011204803001F8C20178FE
:1007B8001130D50108F602052F2D5043495812046F
:1007C800802403B405004001E49007C1931204B4E7
:0D07D800743A1204B4D20375110402061421
:1023A40090010AEBF0A3EAF0A3E9F0A3E0FBA3E0B9
:1023B400FAA3E0F9121317700302245090010AE003
:1023C400FBA3E0FAA3E0F9121317700302245C9054
:1023D400010DE0F9A3E0FAA3E0A3C9F0A3EAF0A396
:1023E400E9F090010AA3E0FAA3E0F9900113EBF0FD
:1023F400A3EAF0A3E9F0900110E0FBA3E0FAA3E064
:10240400F9121317FF6026900113E0FBA3E0FAA36F
:10241400E0F91213176F701590011175F001121481
:1024240084900114E475F00112148480C9900110A1
:10243400E0FBA3E0FAA3E0F91213177002800D90F9
:10244400010BE475F0011214840223C090010AE028
:0F245400FBA3E0FAA3E0F9227B007A00790022D3
:10145800EF4E6012EF60010EEDBB010B89828A83AB
:10146800F0A3DFFCDEFA2289F05007F709DFFCA9B8
:0C147800F022BBFEFCF309DFFCA9F0220F
:1026DA00021DCFE493A3F8E493A34003F68001F22A
:1026EA0008DFF48029E493A3F85407240CC8C33301
:1026FA00C4540F4420C8834004F456800146F6DFD0
:10270A00E4800B010204081020408090114BE47E03
:10271A00019360BCA3FF543F30E509541FFEE493C4
:10272A00A360010ECF54C025E060A840B8E493A38B
:10273A00FAE493A3F8E493A3C8C582C8CAC583CAB6
:10274A00F0A3C8C582C8CAC583CADFE9DEE780BE6E
:0113160000D6
:10148400C5F0F8A3E028F0C5F0F8E58215827002F3
:061494001583E038F02290
:09149A00E6FB08E6FA08E6F92277
:0914A300E0FBA3E0FAA3E0F9224A
:1014AC00F8E0FBA3A3E0F925F0F0E58215827002C9
:0714BC001583E0FA38F0226D
:0914C300EBF0A3EAF0A3E9F0222A
:0914CC00E2FB08E2FA08E2F92251
:0C14D500E493FB740193FA740293F92273
:00000001FF
