:1006C50050726F6772616D2069732072756E6E6905
:1006D5006E672E0A005033343D3100BFAAB5C625DA
:1006E500730A005033343D3000B9D8B5C625730AB6
:1006F5000073697A656F6628426175645261746535
:10070500293D2562640A426175645F3131353230B5
:07071500303D2562640A007B
:0307710001540030
:10046400AA52A9531203BD7BFF7A0679C58532824D
:100474008531831203C1750BFF750C06750DDAAB5C
:1004840027AA28A929120643E94A6024AA37A938C9
:100494001203BD85270B85280C85290D7BFF7A0661
:1004A40079E0120088AA3AA93B1203BDD2B480387D
:1004B400750BFF750C06750DE8AB27AA28A9291240
:1004C4000643E94A6039AA37A9381203BD85270BC8
:1004D40085280C85290D7BFF7A0679EE120088AAFF
:1004E4003AA93B1203BDC2B4AB27AA28A929120812
:1004F400B67D00AB27AA28A9291203C3E4F526AACE
:1005040037A9381203BD7BFF7A0679F6750B01759E
:100514000C02120088AA3AA93B1203BD851F8285EA
:0C0524001E837F647E001203C102047A73
:0300030002094BA4
:03094B00B2B43211
:05077400031DFF0881D8
:0B0934000000007F0B7EBEDEFEDFFC3B
:01093F002295
:04088100AD07AC060D
:10088500E4FBFAC3EB9DEC6480F8EA648098500AB7
:0A0895001209340BBB00010A80E9D0
:01089F002236
:0E0779000C3CFF08CBFF08DFFF08F3FF08A0D1
:1008CB0075B10475B21020B304D2B480F930B3F60D
:0408DB00C2B480F231
:1008DF0075B10475B21420B204D2B480F930B2F6F7
:0408EF00C2B480F21D
:1008F30075B10475B21020B204D2B480F930B2F6E7
:04090300C2B480F208
:1008A00075B10475B210D2B320B304D2B480F9305C
:0608B000B3F6C2B480F2B1
:100787000A55000000000000000000001A220203C2
:10079700000000000055FF071CFF0809FF07BEFF08
:0807A7000022FF0917FF0907FA
:10071C00E5227008755442759850800675544D75D5
:10072C0098D0E4F58753890F438E40538EFE53A225
:10073C007F43A240E52314600A14600F1460112457
:10074C00038015758BE0758DFE8013758B7080039F
:10075C00758BE8758DFF8006758BC0758DFDC2ABF2
:05076C00D28ED29C2298
:10080900E524640160FAE5226019EFA2D09202E5BD
:100819002224FE600A04700BA202B3929B8004A2F8
:0808290002929B7524018F99D6
:0108310022A4
:1007BE008B088A09890AAA37A9381203BDAB08AA81
:1007CE0009A90A1203826019050AE50A70020509D1
:1007DE0014F9120382FF852F82852E831203C180A6
:1007EE00DCE524640160FA851F82851E837F017E0D
:0B07FE00001203C1AA3AA93B0203BD90
:0E0926008F1C852F82852E831203C1AF1C22E9
:0F091700D2A0851F82851E837F027E000203C14E
:10090700851F82851E837F027E001203C1C2A0223B
:0100220022BB
:030023000205BC17
:1005BC00C0E0C083C082C0D075D000C000C001C0F4
:0705CC0002C003C006C007D6
:1005D300309905C299752400309850C298AF99A2FA
:1005E3009A9200EFA2D09201E526C3940A5039E50E
:1005F30022602224FE600E04702EA200B33001019B
:10060300B340258010A201300001B3401BA200E4D7
:1006130033F5548000AB27AA28A929AE2605268ED8
:0B06230082758300EF12039B75250019
:10062E00D007D006D003D002D001D000D0D0D082D7
:05063E00D083D0E03282
:0E07AF000C48FF085BFF0940FF0006FF083200
:10085B0075B14475B290C2B5E4F59575960153A088
:10086B00FEF5C975CAFFD2CCC2CD851F82851E830A
:06087B007F02FE0203C132
:0B094000D2A8D288D2A9D2ACD2AF223C
:10000600E4F508B2B4851F82851E837F647E0012E4
:0B00160003C10508E508C3940A40E898
:0100210022BC
:10083200851F82851E837F647E001203C1AA49A997
:100842004A1203BDAA4FA9501203BDAA4CA94D12C8
:0908520003BDAA2BA92C0203BD71
:03000000020530C6
:0C053000787FE4F6D8FD75815E02057747
:10038200BB010689828A83E0225002E722BBFE0279
:09039200E32289828A83E49322AC
:10039B00F8BB010DE58229F582E5833AF583E8F098
:1003AB00225006E92582C8F622BBFE05E92582C844
:0203BB00F2222C
:0603BD008A838982E473CB
:10002600E517240BF8E60517227808300902780B45
:10003600E475F00112042E0203822002EB7F2ED219
:10004600028018EF540F2490D43440D4FF30060BAE
:10005600EF24BFB41A0050032461FFE518600215AF
:1000660018051BE51B7002051A30090D7808E475A2
:10007600F00112042EEF02041C0209267403D209B1
:100086008003E4C209F5178B088A09890AE4F51882
:10009600F51AF51BE51860077F2012006180F575DB
:1000A60019FFC203C202C204C205C207C208C20ABD
:1000B60012002FFF700D3009057F00120072AF1B72
:1000C600AE1A22B4255FC2D5C20612002FFF24D075
:1000D600B40A00501A75F00A781830D50508B6FF2C
:1000E6000106C6A426F620D5047002D20580D924BE
:1000F600CFB41A00EF5004C2E5D206020272D20350
:1001060080C6D20280C0D20480BCD2D580BAD207C3
:1001160080B47F201200612004077401B5180040E6
:10012600F1120026FF12006102009AD20AD208805C
:1001360095120026FB120026FA120026F94A4B7089
:100146000679437A037BFF20042EE518602A7E0099
:100156008E827583001203EF60060EEE651970F04D
:10016600C2D5EBC0E0EAC0E0E9C0E0EE1202B9D0C9
:10017600E0F9D0E0FAD0E0FB120382FF60AAEBC000
:10018600E0EAC0E0E9C0E0120061D0E02401F9D065
:10019600E03400FAD0E0FBE5190460DCD519D9801B
:1001A600877BFF7A0279B5D204809C791080027928
:1001B60008C208C20A8008D2D5790A8004790AC220
:1001C600D5E519047002F519E4FAFDFEFF120026C2
:1001D600FC7B08200313120026FD7B1030020A1256
:1001E6000026FE120026FF7B20EC3382D592D550E6
:1001F60013C3E43002069FFFE49EFEE42003039D42
:10020600FDE49CFCE4CBF8C203EC700CCFCECDCC65
:10021600E824F8F870F38017C3EF33FFEE33FEEDF2
:1002260033FDEC33FCEB33FB994002FB0FD8E9EBD3
:10023600300305F8D0E0C448B203C0E00AEC4D4EE6
:100246004F78207B0070C2EAB5190040BCC0E012AE
:1002560002BBD0F0D0E0200304C4C0E0C4B203C0A7
:10026600F012004AD0F0D5F0EB02009A12043E01DB
:10027600375301B15801084C01044201B54F01BD85
:0F0286004401BD49011D4301C35501A74601A70E
:100295004501A747036350010C2D01102E01332B97
:1002A500011423013120034C2A00CC480000012B06
:1002B5003F3F3F00790AA2D5200514300709B91040
:1002C500020404B9080104A2D52008025001042043
:1002D50004689204B518005034C0E07F2030051939
:1002E5007F30A20472087207500F120312C204C2B3
:1002F50008C207C20A7F30800F300703E9C0E01249
:100305000061300703D0E0F9D0E0B518CC3007170D
:100315007F30B9100C1200617F583006077F788056
:1003250003B908031200613004057F2D0200617FC7
:1003350020200AF87F2B2008F322920480CF286E14
:10034500756C6C2900D2031200263003F8C20378BD
:100355001830D50108F60200CC2D5043495812003B
:10036500262403B405004001E490035E9312005275
:0D037500743A120052D2057518040201B14D
:1008B600E4FFFE120382600C0FEF70010E09E9706F
:0508C600F20A80EF22A0
:100643008B088A09890AAB0BAA0CA90D12038260D5
:1006530063AB08AA09A90A120382605F850B0E85A2
:100663000C0F850D108B118A128913AB0EAA0FA9DB
:1006730010120382FF6023AB11AA12A91312038283
:100683006F7017042510F510E4350FF50F7401256D
:1006930013F513E43512F51280D1AB0EAA0FA9108E
:1006A3001203827002800D7401250AF50AE43509EC
:1006B300F509809DAB08AA09A90A227B007A007973
:0206C300002213
:1003C300EF4E6012EF60010EEDBB010B89828A8351
:1003D300F0A3DFFCDEFA2289F05007F709DFFCA95E
:0C03E300F022BBFEFCF309DFFCA9F022B5
:10053C00020464E493A3F8E493A34003F68001F26D
:10054C0008DFF48029E493A3F85407240CC8C333C0
:10055C00C4540F4420C8834004F456800146F6DF8F
:10056C00E4800B0102040810204080900771E47EA7
:10057C00019360BCA3FF543F30E509541FFEE49384
:10058C00A360010ECF54C025E060A840B8E493A34B
:10059C00FAE493A3F8E493A3C8C582C8CAC583CA76
:1005AC00F0A3C8C582C8CAC583CADFE9DEE780BE2E
:0107BD00003B
:1003EF00BB010CE58229F582E5833AF583E02250C3
:1003FF0006E92582F8E622BBFE06E92582F8E2220D
:0D040F00E58229F582E5833AF583E4932226
:10041C00BB010689828A83F0225002F722BBFE01BF
:02042C00F322B9
:10042E00FAE6FB0808E6F925F0F618E6CA3AF622CF
:10043E00D083D082F8E4937012740193700DA3A34D
:10044E0093F8740193F5828883E473740293686061
:06045E00EFA3A3A380DF61
:00000001FF
