:1032F10052756E6E696E67210A0061727261793171
:103301005B2562755D3D25627500010203040506BA
:0A33110007080000000000000000A3
:030FCA00012600FD
:101A7800900187E4F07BFF7A33790BC003C002C082
:101A8800017B017A017988A801AC02AD03D001D0AD
:101A980002D0037E007F08120E2F7BFF7A33791362
:101AA800C003C002C0017B017A017990A801AC0291
:101AB800AD03D001D002D0037E007F08120E2F9014
:101AC80001D6E0FBA3E0FAA3E0F9120F517BFF7AFD
:101AD8003279F1C003C002C001900078E0FBA3E0B6
:101AE800FAA3E0F989828A83D001D002D003120FC9
:101AF800557B017A017990C003C002C00190021899
:101B0800E0FBA3E0FAA3E0F989828A83D001D0023E
:101B1800D0037D08120F5590007FE0FBA3E0FAA3E5
:101B2800E0F9120F51900187E4F0900187E0FFEF90
:101B3800C3940850317BFF7A3279FB900187E0FF2C
:101B480090010DEFF0900187E0FF74902FF582E48B
:101B58003401F583E0FF90010EEFF01204EB9001E1
:101B680087E004F080C4900082E0FBA3E0FAA3E0E1
:101B7800F9120F51900187E4F0900187E0FFEFC35D
:101B88009408501A900187E0FF74882FF582E43496
:101B980001F583E004F0900187E004F080DB900118
:101BA80046E0FBA3E0FAA3E0F989828A837FF47E0A
:071BB80001120F55021AF99A
:011BBF002203
:0C347A0057694669204572726F720A00A3
:100FCD00540132000000000000000000000000008D
:100FDD00000000000000004F0146FF3125FF331BCC
:090FED00FF003FFF3496FF31A71D
:10331B007BFF7A34797AC003C002C001900078E059
:10332B00FBA3E0FAA3E0F989828A83D001D002D013
:05333B0003120F5522F2
:04003F0043C7202271
:03349600B2B422AB
:1031A700900225EBF0A3EAF0A3E9F0900228EDF0F6
:1031B700900228E0FF7E007D00900225E0FBA3E05F
:1031C700FAA3E0F9120F57900146E0FBA3E0FAA338
:0E31D700E0F989828A837F0A7E00120F55225A
:08312500900229EEF0A3EFF087
:10312D0090022BE4F0A3E4F0900229E0FEA3E0FF6F
:10313D0090022BE0FCA3E0FDC3ED9FEE6480F8EC64
:10314D00648098501312337B90022CE004F07006CB
:08315D0090022BE004F080D089
:013165002247
:10337B0000000075150B7516BE1516AF16EF70F91C
:07338B001515AF15EF70F2FC
:013392002218
:0F0FF6004C01C1FF000EFF33AAFF33BFFF33933F
:10000E0075B10475B21020B304D2B480F930B3F6D2
:05001E00C2B480F222D3
:1033AA0075B10475B21420B204D2B480F930B2F601
:0533BA00C2B480F22204
:1033BF0075B10475B21020B204D2B480F930B2F6F0
:0533CF00C2B480F222EF
:1033930075B10475B210D2B320B304D2B480F9303E
:0733A300B3F6C2B480F22270
:1033D4004E6F74206861766520382042797465A345
:0433E400A1A3A10000
:101005006032003200000000000000000000000017
:1010150000000000000000000000000000000000CB
:1010250000000000000000000000000000000000BB
:101035000000000000006032000000000000000019
:10104500000000000000000000000000000000009B
:10105500000000000000000000000000000000008B
:101065000000000000000000000000006021006496
:101075000003000000010000010032FF2612FF2FCF
:10108500FCFF2979FF2791FF247A01FF0026FF3312
:0110950062F8
:10261200900064E0FFEF120F2B2622000000262715
:1026220075985080037598D090007EE0FFEF120FEE
:102632002B2640002645012640020000264B53A2CD
:102642003F800653A27F43A24075870053890F4300
:102652008E40538EFE900065E0FFEF120F2B267026
:102662000026780126800226880300002690758BBA
:10267200C0758DFD801E758BE0758DFE8016758B85
:1026820070758DFF800E758BE8758DFF8006758BDA
:10269200C0758DFDC2ABD28ED29C90006CE0FBA3C4
:1026A200E0FAA3E0F9C003C002C001900152E0FBCE
:1026B200A3E0FAA3E0F989828A83D001D002D00391
:1026C2007D32120F55900067E4F0900068E4F0222A
:052FFC0090025BEFF004
:10300100900066E0FFEF640160F6900064E0FFEF7E
:10301100602890025BE0FFEFA2D0920D900064E087
:10302100FFEF120F2B3030013037020000303BA28E
:103031000DB3929B8004A20D929B9000667401F0E7
:0730410090025BE0FF8F9994
:013048002265
:0B27910090023DEBF0A3EAF0A3E9F09A
:10279C00781E760008760090007EE0FFEFB4010E04
:1027AC0090007FE0FBA3E0FAA3E0F9120F51900236
:1027BC003DE0FBA3E0FAA3E0F9781EE6FE08E6FF95
:1027CC008F828E83120E6EFFEF603690023DE0FB1F
:1027DC00A3E0FAA3E0F9781EE6FE08E6FF8F828EEE
:1027EC0083120E6EFF900072E0FBA3E0FAA3E0F9F7
:1027FC0089828A83120F55781F06E61870010680AD
:10280C00AD900066E0FFEF640160F690007EE0FFA3
:10281C00EFB40124900146E0FBA3E0FAA3E0F989B0
:10282C00828A837F017E00120F55900082E0FBA309
:08283C00E0FAA3E0F9120F51CC
:012844002271
:1029790090022DEBF0A3EAF0A3E9F0900230EDF01C
:1029890090007EE0FFEFB4010E90007FE0FBA3E032
:10299900FAA3E0F9120F51900230E0FF14F0EF6052
:1029A9002890022DE0FBA3E475F001120EE5A9F0D1
:1029B900FA120E55FF900072E0FBA3E0FAA3E0F9CA
:1029C90089828A83120F5580CE900066E0FFEF64FA
:1029D9000160F690007EE0FFEFB40124900146E02B
:1029E900FBA3E0FAA3E0F989828A837F017E0012C2
:1029F9000F55900082E0FBA3E0FAA3E0F9120F5112
:012A090022AA
:1033400090025CEFF090025CE0FF900072E0FBA363
:10335000E0FAA3E0F989828A83120F5590025CE0BB
:02336000FF224A
:10002600D2A0900146E0FBA3E0FAA3E0F989828A18
:09003600837F027E00120F5522A7
:10336200900146E0FBA3E0FAA3E0F989828A837F19
:09337200027E00120F55C2A022D8
:10247A00D20E900067E0FFEF6401600302254590E9
:10248A00006CE0FBA3E0FAA3E0F9AE02AF01EF4E65
:10249A00607178187600087600900068E0FFEFC354
:1024AA00940850127818E6FE08E6FFC3EF9414EE7B
:1024BA00940040E5C20E300E257B017A007964C093
:1024CA0003C002C0017823860308E6FA08E6F98900
:1024DA00828A83D001D002D003120F558025900042
:1024EA007FE0FBA3E0FAA3E0F9120F517BFF7A33F6
:1024FA0079D41204EB900082E0FBA3E0FAA3E0F99E
:10250A00120F5190006CE0FBA3E0FAA3E0F9C003BC
:10251A00C002C001900068E0FD900152E0FBA3E018
:10252A00FAA3E0F989828A83D001D002D003120F7C
:0B253A0055900067E4F0900068E4F0AA
:012545002273
:030023000222C8EE
:0B22C800C0E0C083C082C0D075D00809
:1022D300309907C299900066E4F02098030223988E
:1022E300C29890025DE599F0A29A920990025DE08E
:1022F300FFEFA2D0920A900068E0FFEFC394324050
:1023030003022392900064E0FFEF120F2B2372006D
:10231300231D0123480200002392A209B3300A01BE
:10232300B3406C90025DE0FF90006CE0FBA3E0FA29
:10233300A3E0F9900068E0FE04F08E82758300EF5D
:10234300120EAD804AA20A300901B3404290025DE9
:10235300E0FF90006CE0FBA3E0FAA3E0F9900068D3
:10236300E0FE04F08E82758300EF120EAD802090A4
:10237300025DE0FF90006CE0FBA3E0FAA3E0F990BC
:102383000068E0FE04F08E82758300EF120EAD90BC
:0523930000677401F079
:09239800D0D0D082D083D0E03215
:0F1096004C01CDFF3222FF345FFF325DFF284552
:1032220075930075940C75800075B14475B2B0C287
:10323200B575957C75967D53A0FE75C90075CAFF5C
:10324200D2CCC2CD900146E0FBA3E0FAA3E0F9891B
:0B325200828A837F027E00120F55224B
:0E345F00D2A8D288D2A9D2AC43AF01D2AF22FC
:10325D0090025EE4F090025EE4F090025EE0FFEF1B
:10326D00C394055020B2B4900146E0FBA3E0FAA34D
:10327D00E0F989828A837F327E00120F5590025EBB
:05328D00E004F080D513
:013292002219
:10284500900146E0FBA3E0FAA3E0F989828A837F41
:10285500647E00120F559001CDE0FBA3E0FAA3E0E2
:10286500F9120F519001D3E0FBA3E0FAA3E0F912AE
:102875000F519001D0E0FBA3E0FAA3E0F9120F514C
:10288500781B860308E6FA08E6F9120F5190006FE7
:10289500E0FBA3E0FAA3E0F9120F519000C2E0FBC0
:1028A500A3E0FAA3E0F9120F51900159E0FBA3E070
:1028B500FAA3E0F9120F519001F0E0FBA3E0FAA3AF
:1028C500E0F9120F519001B5E0FBA3E0FAA3E0F99E
:1028D500120F51900172E0FBA3E0FAA3E0F9120F89
:0228E50051227E
:0A10A50047020100000000FF210CCB
:10210C009001F9EBF0A3EAF0A3E9F09001FCEDF0FB
:10211C009001FDE4F0A3E4F09001FFE4F0900200E4
:10212C00E4F09001FD74FFF0A374FFF09001FFE464
:10213C00F09001FCE0FF9001FFE0FEEEC39F400336
:10214C000221E59001FDE0FEA3E0FF9001F9E0FB28
:10215C00A3E0FAA3E0F99001FFE0FD8D8275830006
:10216C00120E6EFD7C00EE6CFEEF6DFF9001FDEE2D
:10217C00F0A3EFF0900200E4F0900200E0FFEFC358
:10218C009408504C9001FDE0FEA3E0FFEF30E021FD
:10219C009001FDE0FEA3E0FFEEC313FEEF13FFEE94
:1021AC0064A0FEEF6401FF9001FDEEF0A3EFF08060
:1021BC00179001FDE0FEA3E0FFEEC313FEEF13FF4B
:1021CC009001FDEEF0A3EFF0900200E004F080A986
:1021DC009001FFE004F002213D9001FDE0FEA3E040
:0121EC00FFF3
:0121ED0022CF
:102CAC00435243313620436865636B204552524F83
:102CBC0052A3A1A3A1005265676973742061646477
:102CCC0072657373206F7574206F662072616E6706
:102CDC0065A3A1A3A1307E390A004F6E6C792072D6
:102CEC006561642074776F20726567697374206FF7
:102CFC006E6365A3A1A3A10A005265676973742072
:102D0C0061646472657373206F7574206F662072D2
:0E2D1C00616E676532A3A1A3A1307E390A0063
:0610AF00042201FF15B848
:0B15B80090020FEBF0A3EAF0A3E9F0B3
:1015C30090020FE0FBA3E0FAA3E0F9900212EBF024
:1015D300A3EAF0A3E9F0900212E0FBA3E0FAA3E090
:1015E300F9758208758300120EFB120E55FF7822DF
:1015F300E6FEEF6E600302177C900212E0FBA3E0AD
:10160300FAA3E0F9758208758300120EFBC003C0CC
:1016130002C001900205E0FBA3E0FAA3E0F989828E
:101623008A83D001D002D0037D06120F55900201A8
:10163300EEF0A3EFF0900201E0FEA3E0FFEEFF7EE9
:1016430000900203EFF0900201E0FEA3E0FF90029E
:1016530004EFF0900212E0FBA3E0FAA3E0F9758235
:1016630008758300120EFB758206758300120E6ED9
:10167300FF900204E0FEEFB50627900212E0FBA301
:10168300E0FAA3E0F9758208758300120EFB7582F8
:1016930007758300120E6EFF900203E0FEEF6E608B
:1016A30051900212E0FBA3E0FAA3E0F975820875FA
:1016B3008300120EFB758206758300120E6EFF9077
:1016C3000203E0FEEF6E6003021757900212E0FB85
:1016D300A3E0FAA3E0F9758208758300120EFB7587
:1016E3008207758300120E6EFF900204E0FEEF6E18
:1016F3007062900212E0FBA3E0FAA3E0F97582089E
:10170300758300120EFB758201758300120E6EFF46
:10171300EFB4030F900212E0FBA3E0FAA3E0F91287
:10172300004622900212E0FBA3E0FAA3E0F97582DF
:1017330008758300120EFB758201758300120E6E0D
:10174300FFEFB40634900212E0FBA3E0FAA3E0F942
:101753001211CC2290007FE0FBA3E0FAA3E0F91280
:101763000F517BFF7A2C79AC1204EB900082E0FBE3
:09177300A3E0FAA3E0F9120F5102
:01177C00224A
:0B0046009001A7EBF0A3EAF0A3E9F0A3
:100051009001A7E0FBA3E0FAA3E0F99001AAEBF07D
:10006100A3EAF0A3E9F09001ADE4F0A3E4F090017C
:10007100AFE4F0A3E4F09001B17403F09001AAE0C1
:10008100FBA3E0FAA3E0F9758208758300120EFB69
:10009100758202758300120E6EFF7E009001ADE045
:1000A100FCA3E0FDEF2DFFEE3CFEEF7F00FE900193
:1000B100AAE0FBA3E0FAA3E0F975820875830012B8
:1000C1000EFB758203758300120E6EFD7C00EF2D11
:1000D100FFEE3CFE9001ADEEF0A3EFF09001AAE03F
:1000E100FBA3E0FAA3E0F9758208758300120EFB09
:1000F100758204758300120E6EFF7E009001AFE0E1
:10010100FCA3E0FDEF2DFFEE3CFEEF7F00FE900132
:10011100AAE0FBA3E0FAA3E0F97582087583001257
:100121000EFB758205758300120E6EFD7C00EF2DAE
:10013100FFEE3CFE9001AFEEF0A3EFF09001AFE0D7
:10014100FEA3E0FF9001ADE0FCA3E0FDED2FFFEC8D
:100151003EFED3EF940AEE94004003020415900191
:10016100AFE0FEA3E0FFD3EF9400EE940050030252
:1001710004159001AFE0FEA3E0FFC3EF9403EE94FA
:100181000040030204157822E6FF9001AAE0FBA3D8
:10019100E0FAA3E0F9758205758300120EFBEF12F8
:1001A1000E9B9001AAE0FBA3E0FAA3E0F97582059A
:1001B100758300120EFB7582017583007403120EA4
:1001C100AD9001AFE0FEA3E0FFEF25E0FF9001AAB3
:1001D100E0FBA3E0FAA3E0F9758205758300120E36
:1001E100FB758202758300EF120EAD9001B2E4F04F
:1001F1009001B2E0FF7E009001AFE0FCA3E0FDC3FF
:10020100EF9DEE9C40030203399001B2E0FF9001A3
:10021100B3EFF09001B2E0FF7E00EF2401FFEE3476
:1002210000FE9001B3E0FD7C00D3ED9FEE6480F809
:10023100EC64809840030203299001B2E0FF900131
:10024100B3E0FEEE6F706F9001B2E0FF7E009001AF
:10025100ADE0FCA3E0FDEF2DFFEE3CFEEF25E0FF5E
:10026100EE33FE74322FF58274013EF583E0FEA376
:10027100E0FFEEFF7E009001AAE0FBA3E0FAA3E01D
:10028100F9758205758300120EFBE92403F9EA343E
:1002910000FA9001B2E0FEEEFD7C00E92DF9EA3CA6
:1002A100FA9001B3E0FEEEFD7C00E92DF9EA3CFA9B
:1002B100EF120E9B80699001B2E0FF7E009001ADCC
:1002C100E0FCA3E0FDEF2DFFEE3CFEEF25E0FFEEAD
:1002D10033FE74322FF58274013EF583E0FEA3E014
:1002E100FF9001AAE0FBA3E0FAA3E0F9758205758E
:1002F1008300120EFBE92403F9EA3400FA9001B2FB
:10030100E0FEEEFD7C00E92DF9EA3CFA9001B3E054
:10031100FEEEFD7C00E92DF9EA3CFAEF120E9B900E
:1003210001B3E004F00202149001B1E02402F09064
:1003310001B2E004F00201F19001AAE0FBA3E0FAAE
:10034100A3E0F9758205758300120EFBC003C0029C
:10035100C0019001B1E0FD900205E0FBA3E0FAA32A
:10036100E0F989828A83D001D002D003120F55901F
:100371000201EEF0A3EFF0900201E0FEA3E0FF9096
:1003810001AAE0FBA3E0FAA3E0F9758205758300F9
:10039100120EFB9001B1E0FE04F08E82758300EF36
:1003A100120EAD900201E0FEA3E0FFEEFF7E009091
:1003B10001AAE0FBA3E0FAA3E0F9758205758300C9
:1003C100120EFB9001B1E0FE04F08E82758300EF06
:1003D100120EAD9001AAE0FBA3E0FAA3E0F9758249
:1003E10005758300120EFBC003C002C0019001B16C
:1003F100E0FD9001AAE0FBA3E0FAA3E0F975821108
:10040100758300120EFB89828A83D001D002D0034A
:10041100120F55229001AFE0FEA3E0FF9001ADE085
:10042100FCA3E0FDED2FFFEC3EFED3EF940AEE942A
:1004310000402690007FE0FBA3E0FAA3E0F9120F51
:10044100517BFF7A2C79C21204EB900082E0FBA36E
:10045100E0FAA3E0F9120F512290007FE0FBA3E044
:10046100FAA3E0F9120F517BFF7A2C79E61204EB23
:0E047100900082E0FBA3E0FAA3E0F9120F5125
:01047F00225A
:0B11CC009001D9EBF0A3EAF0A3E9F0DA
:1011D7009001D9E0FBA3E0FAA3E0F99001DCEBF082
:1011E700A3EAF0A3E9F09001DFE4F0A3E4F09001B3
:1011F700E1E4F0A3E4F09001E3E4F09001E3E0FF21
:10120700EFC39408504C9001DCE0FBA3E0FAA3E0A5
:10121700F9758208758300120EFB9001E3E0FF8FDA
:1012270082758300120E6EFF9001DCE0FBA3E0FAEB
:10123700A3E0F9758205758300120EFB9001E3E0C8
:10124700FE8E82758300EF120EAD9001E3E004F08D
:1012570080A99001DCE0FBA3E0FAA3E0F975820521
:10126700758300120EFBC003C002C0019001DCE0D1
:10127700FBA3E0FAA3E0F9758211758300120EFB58
:1012870089828A83D001D002D0037D08120F55903E
:1012970001DCE0FBA3E0FAA3E0F97582087583009F
:1012A700120EFB758202758300120E6EFF7E009090
:1012B70001DFE0FCA3E0FDEF2DFFEE3CFEEF7F003A
:1012C700FE9001DCE0FBA3E0FAA3E0F97582087564
:1012D7008300120EFB758203758300120E6EFD7C70
:1012E70000EF2DFFEE3CFE9001DFEEF0A3EFF09054
:1012F70001DCE0FBA3E0FAA3E0F97582087583003F
:10130700120EFB758204758300120E6EFF7E00902D
:1013170001DFE0FCA3E0FDEF2DFFEE3CFEEF7F00D9
:10132700FE9001DCE0FBA3E0FAA3E0F97582087503
:101337008300120EFB758205758300120E6EFD7C0D
:1013470000EF2DFFEE3CFE9001E1EEF0A3EFF090F1
:1013570001DFE0FEA3E0FFD3EF9409EE94005035E0
:101367009001DFE0FEA3E0FFC3EE94004027900169
:10137700E1E0FCA3E0FD9001DFE0FEA3E0FFEF2545
:10138700E0FFEE33FE74322FF58274013EF583ECF5
:10139700F0A3EDF02290007FE0FBA3E0FAA3E0F9D1
:1013A700120F517BFF7A2D79051204EB900082E032
:0A13B700FBA3E0FAA3E0F9120F51C6
:0113C1002209
:0910B500071700000000FF340FD2
:10340F00538E7F5389F0758A00758CEEC28DD28CE6
:01341F00228A
:03000B000228E7E1
:1028E700C0E0C0F0C083C082C0D075D000C000C0B7
:1028F70001C002C003C004C005C006C007781AE6BD
:10290700FFEFB4011F781706E6FFEFC3940A4031C3
:102917007817760090014FE0FBA3E0FAA3E0F912E5
:102927000F51801D781706E6FFEFC394C840127851
:1029370017760090014FE0FBA3E0FAA3E0F9120F2E
:1029470051781906E618700106900158E004F070F6
:1029570006900157E004F0D007D006D005D004D088
:1029670003D002D001D000D0D0D082D083D0F0D015
:02297700E0324C
:1033E8004E6F74206861766520382042797465A331
:0433F800A1A3A100EC
:1010BE00603200D8000000000000000000000000B8
:1010CE000000000000000000000000000000000012
:1010DE000000000000000000000000000000000002
:1010EE0000000000000060320085000000000000DB
:1010FE0000000000000000000000000000000000E2
:10110E0000000000000000000000000000000000D1
:10111E00000000000000000000000000602100B789
:10112E0000030000000100850100D8FF2A96FF2D64
:10113E002AFF3049FF2E1AFF254600FF3499FF344F
:01114E009A06
:102A9600759A50438E0453BAFE900065E0FFEF121C
:102AA6000F2B2AB8002AC0012AC8022AD003000028
:102AB6002AD875D7C075D6FD801E75D7E075D6FEA7
:102AC600801675D77075D6FF800E75D7E875D6FF58
:102AD600800675D7C075D6FD53AFFB438E10439A5B
:102AE600109000BFE0FBA3E0FAA3E0F9C003C00228
:102AF600C001900152E0FBA3E0FAA3E0F989828AC3
:102B060083D001D002D0037D32120F559000BAE473
:072B1600F09000BBE4F02287
:052D2A00900249EFF0EA
:102D2F0090024AE4F09000B9E0FFEF640160F69082
:102D3F0000B7E0FFEF6054900249E0FFEFA2D0E44C
:102D4F0033FF90024AE0FEEF2EFFEF33333354F898
:102D5F00FF90024AEFF09000B7E0FFEF120F2B2D1C
:102D6F0078012D8A0200002D9A90024AE0FFEF7041
:102D7F0005439A088015539AF7801090024AE0FF96
:102D8F00EF7005539AF78003439A089000B97401C6
:082D9F00F0900249E0FF8F9B58
:012DA7002209
:0B2E1A00900231EBF0A3EAF0A3E9F016
:102E2500900234E4F0900231E0FBA3E0FAA3E0F96C
:102E3500900234E0FF8F82758300120E6EFFEF6003
:102E450033900231E0FBA3E0FAA3E0F9900234E00D
:102E5500FF8F82758300120E6EFF9000C5E0FBA305
:102E6500E0FAA3E0F989828A83120F55900234E0D3
:0E2E750004F080B19000B9E0FFEF640160F658
:012E8300222C
:10304900900235EBF0A3EAF0A3E9F0900238EDF035
:10305900900238E0FF14F0EF6028900235E0FBA3FE
:10306900E475F001120EE5A9F0FA120E55FF900071
:10307900C5E0FBA3E0FAA3E0F989828A83120F5520
:0D30890080CE9000B9E0FFEF640160F622F8
:10254600D20F9000BAE0FFEF6401600302261190FB
:1025560000BFE0FBA3E0FAA3E0F9AE02AF01EF4E45
:102566006071781876000876009000BBE0FFEFC334
:10257600940850127818E6FE08E6FFC3EF9414EEAE
:10258600940040E5C20F300F257B017A0079B7C071
:1025960003C002C0017823860308E6FA08E6F98933
:1025A600828A83D001D002D003120F558025900075
:1025B6007FE0FBA3E0FAA3E0F9120F517BFF7A3329
:1025C60079E81204EB900082E0FBA3E0FAA3E0F9BD
:1025D600120F519000BFE0FBA3E0FAA3E0F9C0039D
:1025E600C002C0019000BBE0FD900152E0FBA3E0F9
:1025F600FAA3E0F989828A83D001D002D003120FB0
:0B260600559000BBE4F09000BAE4F037
:0126110022A6
:013499002210
:01349A00220F
:03004300021F1B7E
:101F1B00C0E0C083C082C0D075D000C000C001C07B
:071F2B0002C003C006C0075D
:101F3200E59A30E108539AFD9000B9E4F0E59A2061
:101F4200E003022003539AFE7827A69BE59A5404E5
:101F5200FFEF1313543FFFEF24FF920B7827E6FFA6
:101F6200EFA2D0920C9000BBE0FFEFC3943240038B
:101F7200021FFD9000B7E0FFEF120F2B1FDE001FC4
:101F82008B011FB50200001FFDA20BB3300C01B381
:101F920040697827E6FF9000BFE0FBA3E0FAA3E0E8
:101FA200F99000BBE0FE04F08E82758300EF120E02
:101FB200AD8048A20C300B01B340407827E6FF9079
:101FC20000BFE0FBA3E0FAA3E0F99000BBE0FE044F
:101FD200F08E82758300EF120EAD801F7827E6FF28
:101FE2009000BFE0FBA3E0FAA3E0F99000BBE0FEA3
:101FF20004F08E82758300EF120EAD9000BA740168
:01200200F0ED
:10200300D007D006D003D002D001D000D0D0D082E8
:05201300D083D0E03293
:1019250041540D0A005769466920496E697420744F
:10193500696D656F757421210A004F4B000D0A0012
:101945004578697420546F75436875616E2D2D2D2A
:101955002D0A002B00415445300D0A0041542B43FC
:10196500574D4F44455F4445463D310D0A004154AE
:101975002B43574155544F434F4E4E0D0A0041548A
:101985002B43574A41505F4445463D22B5CEB5CE1F
:10199500B5CE222C227A6E68786B68333039220DE9
:1019A5000A005749464920474F54204950002B2BE0
:1019B5002B0053746174653D2562642C4F4B5F4663
:1019C5006C61673D2562640A0041542B43494653C7
:1019D500520D0A003139322E3136380041542B432D
:1019E500495053544152543D22544350222C2231E4
:1019F50039322E3136382E3130312E313034222CD9
:101A0500383838380D0A00434F4E4E45435400418F
:101A1500542B4349504D4F44453D310D0A00415427
:101A25002B43495053454E440D0A0052756E6E695D
:101A35006E67210A0054696D654F7574210A00535C
:101A4500656E6420646174613D2573004E6F74207A
:101A5500415420436F6D6D616E6421213D25730AEC
:101A650000526563656976652054696D654F7574C7
:031A7500210A0043
:10114F00550156000000FF1BC0FF0AD3FF07E5FF44
:10115F00349BFF349CFF1E1546016BFF13C2FF200B
:05116F001841015500CC
:101BC000C283900146E0FBA3E0FAA3E0F989828A90
:101BD000837F647E00120F55D283D28278187600FC
:101BE000087600781A76019000BFE0FBA3E0FAA324
:101BF000E0F9C003C002C0019000BBE0FD900152BB
:101C0000E0FBA3E0FAA3E0F989828A83D001D00245
:101C1000D003120F559000BBE4F09000BAE4F07BC3
:101C2000FF7A197925C003C002C0019000CBE0FB08
:101C3000A3E0FAA3E0F989828A83D001D002D0031D
:101C4000120F55900146E0FBA3E0FAA3E0F9898268
:101C50008A837F647E00120F557818E6FE08E6FF3F
:101C6000D3EF94E8EE940340267BFF7A19792AC0DB
:101C700003C002C001900078E0FBA3E0FAA3E0F902
:101C800089828A83D001D002D003120F55804D90F3
:101C900000BFE0FBA3E0FAA3E0F9C003C002C0016B
:101CA0007BFF7A19793F90010DEBF0A3EAF0A3E9ED
:101CB000F0D001D002D0031226D2C003C002C0016E
:101CC0007B007A007900D082D083D0E06B7008E985
:101CD00065827003EA65837003021BE7900146E0AA
:101CE000FBA3E0FAA3E0F989828A837FE87E0312EE
:071CF0000F55781A7600225F
:0B177D00900198EBF0A3EAF0A3E9F064
:101788009001A07401F0900198E0FBA3E0FAA3E0B7
:10179800F99001A1EBF0A3EAF0A3E9F090019BE036
:1017A800FBA3E0FAA3E0F99001A4EBF0A3EAF0A30D
:1017B800E9F09000BFE0FBA3E0FAA3E0F9C003C0A2
:1017C80002C0019000BBE0FD900152E0FBA3E0FAEB
:1017D800A3E0F989828A83D001D002D003120F5581
:1017E8009000BBE4F09000BAE4F09001A1E0FBA304
:1017F800E0FAA3E0F9C003C002C0019000CBE0FB0F
:10180800A3E0FAA3E0F989828A83D001D002D00349
:10181800120F55781876000876009000BFE0FBA3F9
:10182800E0FAA3E0F9C003C002C0017BFF7A19798E
:101838004290010DEBF0A3EAF0A3E9F0D001D00249
:10184800D0031226D2C003C002C0017B007A0079FF
:1018580000D082D083D0E06B7008E965827003EA1B
:101868006583604F9000BFE0FBA3E0FAA3E0F9C0F6
:1018780003C002C00190019BE0FBA3E0FAA3E0F9DA
:1018880090010DEBF0A3EAF0A3E9F0D001D002D06B
:10189800031226D2C003C002C0017B007A0079007F
:1018A800D082D083D0E06B7008E965827003EA6566
:1018B80083702C90019EE0FEA3E0FF7818E6FC08F8
:1018C800E6FDD3ED9FEC9E5003021822900149E0FB
:1018D800FBA3E0FAA3E0F9120F519001A0E4F09005
:1018E80000BFE0FBA3E0FAA3E0F9C003C002C00117
:1018F8009000BBE0FD900152E0FBA3E0FAA3E0F901
:1019080089828A83D001D002D003120F559000BB80
:0C191800E4F09000BAE4F09001A0E0FFC1
:0119240022A0
:100AD30090020BE0FFEF64016003020D5E781A766B
:100AE30001900156E0FFEF64016003020B977BFF67
:100AF3007A197945C003C002C001900078E0FBA3D6
:100B0300E0FAA3E0F989828A83D001D002D00312EC
:100B13000F557BFF7A197958C003C002C0019000BA
:100B2300CBE0FBA3E0FAA3E0F989828A83D001D06A
:100B330002D003120F557BFF7A197958C003C00204
:100B4300C0019000CBE0FBA3E0FAA3E0F989828A1D
:100B530083D001D002D003120F557BFF7A19795845
:100B6300C003C002C0019000CBE0FBA3E0FAA3E006
:100B7300F989828A83D001D002D003120F559001E4
:100B830046E0FBA3E0FAA3E0F989828A837FE87E4B
:100B930003120F557BFF7A197925C003C002C001E8
:100BA3007BFF7A19793F90019BEBF0A3EAF0A3E96D
:100BB300F090019EE4F0A37414F0D001D002D003AE
:100BC30012177D7BFF7A19795AC003C002C0017BDB
:100BD300FF7A19793F90019BEBF0A3EAF0A3E9F0C8
:100BE30090019EE4F0A37414F0D001D002D003125C
:100BF300177D7BFF7A197961C003C002C0017BFFB7
:100C03007A19793F90019BEBF0A3EAF0A3E9F09006
:100C1300019EE4F0A37414F0D001D002D0031217A4
:100C23007D7BFF7A197973C003C002C0017BFF7A11
:100C330019793F90019BEBF0A3EAF0A3E9F090014F
:100C43009EE4F0A37414F0D001D002D00312177DF8
:100C53007BFF7A197983C003C002C0017BFF7A1935
:100C6300793F90019BEBF0A3EAF0A3E9F090019E9A
:100C7300E4F0A374C8F0D001D002D00312177D783A
:100C83001876000876007818E6FE08E6FFC3EF94AE
:100C9300A0EE948C4003020D4C9000BFE0FBA3E058
:100CA300FAA3E0F9C003C002C0017BFF7A1979A758
:100CB30090010DEBF0A3EAF0A3E9F0D001D002D04C
:100CC300031226D2C003C002C0017B007A00790060
:100CD300D082D083D0E06B7008E965827003EA6547
:100CE3008360A37BFF7A1979A7C003C002C0019078
:100CF3000078E0FBA3E0FAA3E0F989828A83D001BC
:100D0300D002D003120F55900146E0FBA3E0FAA3F3
:100D1300E0F989828A837FE87E03120F55900146AA
:100D2300E0FBA3E0FAA3E0F989828A837FE87E03EC
:100D3300120F55900146E0FBA3E0FAA3E0F9898284
:100D43008A837FE87E03120F55781A760090014C50
:0C0D5300E0FBA3E0FAA3E0F9120F51222C
:1007E50090024BE4F090024CE4F07BFF7A1979B368
:1007F500C003C002C0019000CBE0FBA3E0FAA3E078
:10080500F989828A83D001D002D003120F55900155
:1008150046E0FBA3E0FAA3E0F989828A837FE87EBC
:1008250003120F5578187600087600781A7601902D
:10083500024CE0FFEF64FF7003020AC690007FE000
:10084500FBA3E0FAA3E0F9120F517BFF7A1979B700
:1008550090024CE0FF90010DEFF090024BE0FF900D
:10086500010EEFF01204EB900082E0FBA3E0FAA387
:10087500E0F9120F5190024CE0FFEF120F2B089C8C
:100885000008EB01093502097F0309CF040A2A058F
:100895000A7906000008347BFF7A197925C003C060
:1008A50002C0017BFF7A19793F90019BEBF0A3EA27
:1008B500F0A3E9F090019EE4F0A37414F0D001D008
:1008C50002D00312177D90024BEFF090024BE0FF30
:1008D500EFB4010990024C7401F002083490024C07
:1008E50074FFF00208347BFF7A19795AC003C002FD
:1008F500C0017BFF7A19793F90019BEBF0A3EAF0E9
:10090500A3E9F090019EE4F0A37414F0D001D002A5
:10091500D00312177D90024BE0FFEFB4010990025E
:100925004C7402F002083490024C74FFF002083453
:100935007BFF7A197961C003C002C0017BFF7A1978
:10094500793F90019BEBF0A3EAF0A3E9F090019EBB
:10095500E4F0A37414F0D001D002D00312177D90F7
:10096500024BE0FFEFB4010990024C7403F002085A
:100975003490024C74FFF00208347BFF7A1979CE6B
:10098500C003C002C0017BFF7A1979D990019BEBA6
:10099500F0A3EAF0A3E9F090019E7403F0A374E8D4
:1009A500F0D001D002D00312177D90024BEFF090EA
:1009B500024BE0FFEFB4010990024C7404F0020809
:1009C5003490024C74FFF00208347BFF7A1979E108
:1009D500C003C002C0017BFF7A1A790C90019BEB22
:1009E500F0A3EAF0A3E9F090019E7403F0A374E884
:1009F500F0D001D002D00312177D90024BEFF0909A
:100A0500024BE0FFEFB4010F9001567401F0900224
:100A15004C7405F0020834900156E4F090024C74D1
:100A2500FFF00208347BFF7A1A7914C003C002C0B4
:100A3500017BFF7A19793F90019BEBF0A3EAF0A3C4
:100A4500E9F090019EE4F0A37414F0D001D002D037
:100A55000312177D90024BEFF090024BE0FFEFB4CD
:100A6500010990024C7406F002083490024C74FFA0
:100A7500F00208347BFF7A1A7923C003C002C00153
:100A85007BFF7A19793F90019BEBF0A3EAF0A3E98C
:100A9500F090019EE4F0A37414F0D001D002D003CD
:100AA50012177D90024BEFF090024BE0FFEF6401CF
:100AB500600302083490024C74FFF0020834020807
:0D0AC50034781A7600900157E4F0A3E4F0B5
:010AD2002201
:01349B00220E
:01349C00220D
:101E1500900156E0FFEF64016003021F1A7818E68F
:101E2500FE08E6FFD3EF9458EE94025003021F1A02
:101E35007BFF7A1A7930C003C002C0019000CBE065
:101E4500FBA3E0FAA3E0F989828A83D001D002D00E
:101E550003120F559000BAE0FFEFB401519000BF97
:101E6500E0FBA3E0FAA3E0F9C003C002C0017BFFD9
:101E75007A19793F90010DEBF0A3EAF0A3E9F0D0D0
:101E850001D002D0031226D2C003C002C0017B00DC
:101E95007A007900D082D083D0E06B7008E9658242
:101EA5007003EA65836007900155E4F080167818A1
:101EB500E6FE08E6FFD3EF9420EE940340969001EA
:101EC50055E004F0900155E0FFEFC39404400A90FB
:101ED5000156E4F0900155E4F09000BFE0FBA3E06B
:101EE500FAA3E0F9C003C002C001900152E0FBA3D0
:101EF500E0FAA3E0F989828A83D001D002D0037D7C
:101F050004120F559000BBE4F09000BAE4F0781885
:051F15007600087600D3
:011F1A0022A4
:1013C20090025F7401F0900067E0FFEF6401600338
:1013D2000215B77818760008760090006CE0FBA33F
:1013E200E0FAA3E0F9C003C002C0017BFF7A1979D9
:1013F2004290010DEBF0A3EAF0A3E9F0D001D00294
:10140200D0031226D2C003C002C0017B007A007949
:1014120000D082D083D0E06B7008E965827003EA65
:10142200658370397818E6FE08E6FFD3EF9414EE70
:10143200940040A690025FE4F07BFF7A1A793AC0EA
:1014420003C002C001900078E0FBA3E0FAA3E0F938
:1014520089828A83D001D002D003120F5590025F95
:10146200E0FFEF6401600302150F90006CE0FBA344
:10147200E0FAA3E0F9120E55FFEF64416003021592
:101482000F90006CE0FBA3E0FAA3E0F9758201750E
:101492008300120E6EFFEF6454707290007FE0FBC7
:1014A200A3E0FAA3E0F9120F517BFF7A1A7944C044
:1014B20003C002C00190006CE0FBA3E0FAA3E0F9D4
:1014C20090010DEBF0A3EAF0A3E9F0D001D002D035
:1014D200031204EB900082E0FBA3E0FAA3E0F9120E
:1014E2000F5190006CE0FBA3E0FAA3E0F9C003C047
:1014F20002C0019000CBE0FBA3E0FAA3E0F98982ED
:101502008A83D001D002D003120F55807090007FE1
:10151200E0FBA3E0FAA3E0F9120F517BFF7A1A79FC
:1015220051C003C002C00190006CE0FBA3E0FAA32B
:10153200E0F990010DEBF0A3EAF0A3E9F0D001D0BD
:1015420002D0031204EB900082E0FBA3E0FAA3E0D6
:10155200F9120F5190006CE0FBA3E0FAA3E0F9C08E
:1015620003C002C0019000CBE0FBA3E0FAA3E0F9C4
:1015720089828A83D001D002D003120F5590006C69
:10158200E0FBA3E0FAA3E0F9C003C002C0019000AF
:1015920068E0FD900152E0FBA3E0FAA3E0F9898242
:1015A2008A83D001D002D003120F55900068E4F074
:0515B200900067E4F069
:0115B7002211
:102018009000BAE0FFEF6401600302210B781876A4
:10202800000876009000BFE0FBA3E0FAA3E0F9C047
:1020380003C002C0017BFF7A19794290010DEBF0D1
:10204800A3EAF0A3E9F0D001D002D0031226D2C04F
:1020580003C002C0017B007A007900D082D083D00F
:10206800E06B7008E965827003EA6583703478185C
:10207800E6FE08E6FFD3EF9414EE940040A67BFF3B
:102088007A1A7966C003C002C001900078E0FBA309
:10209800E0FAA3E0F989828A83D001D002D0031242
:1020A8000F559000BFE0FBA3E0FAA3E0F9C003C01E
:1020B80002C001900078E0FBA3E0FAA3E0F989826E
:1020C8008A83D001D002D003120F559000BFE0FBE5
:1020D800A3E0FAA3E0F9C003C002C0019000BBE08E
:1020E800FD900152E0FBA3E0FAA3E0F989828A831C
:1020F800D001D002D003120F559000BBE4F090003D
:04210800BAE4F02223
:0A11740047020800000000FF2B1DD9
:102B1D0090024DE4F0A3E4F030B20A900209E4F023
:102B2D0090020BE4F0900208E0FFEFB4012990024F
:102B3D0008E4F0C2A820B21F900146E0FBA3E0FA22
:102B4D00A3E0F989828A837F0A7E00120F5520B295
:102B5D00069002097401F0900209E0FFEFB401251F
:102B6D0090020B7401F0781876000876007818E65C
:102B7D00FE08E6FFC3EF9458EE9402500830B2ED14
:102B8D0090020BE4F090020BE0FFEFB40105900210
:052B9D0009E4F0D2A8DC
:012BA2002210
:030003000233FCC9
:1033FC00C0E0C083C0829002087401F0D082D083F8
:03340C00D0E032DB
:0A3486003F065B4F666D7D077F6F08
:0D117E004A01EF8AFF2DA8FF30E1FF23A1F9
:052EEA0090024FEFF023
:102EEF00900250E4F0C2A6900146E0FBA3E0FAA3E3
:102EFF00E0F989828A837F017E00120F559002507C
:102F0F00E4F0900250E0FFEFC39408502BC2A5905D
:102F1F00024FE0FFEF30E004D2A48002C2A490027F
:102F2F004FE0FFEFC313FF90024FEFF000D2A50069
:082F3F00900250E004F080CA8A
:012F47002267
:102DA800900260E4F07F02122EEAD2A67F40122E33
:102DB800EAD2A67FC0122EEA900260E4F090026088
:102DC800E0FFEFC3940C500D7F00122EEA900260D2
:102DD800E004F080E8D2A69001EFE0FF122EEAD2DC
:102DE800A67F02122EEAD2A67F44122EEAD2A67F2E
:102DF800C0122EEA7FFF122EEAD2A67FC2122EEA56
:102E08007FFF122EEAD2A69001EFE0FF122EEAD23F
:012E1800A613
:012E19002296
:1030E100900251EFF0900252EDF0900251E0FFEFAB
:1030F100120F2B30FE013105020000310A7FC01290
:103101002EEA80057FC2122EEA900252E0FFEF9074
:10311100348693FF122EEAD2A69001EFE0FF122E21
:04312100EAD2A62226
:0523A100900253EFF073
:1023A600900254E4F0900254E4F0900253E0FF905F
:1023B6000254E0FEEEC39F400302247990020CE033
:1023C600FBA3E0FAA3E0F9120F5190020BE0FFEF36
:1023D600B401079001EF7480F022900209E0FFEF4C
:1023E6006401707090020BE0FFEF70689001EFE0FF
:1023F600FFEF120F2B241A80242188242889242FEA
:102406008A24368B243D8C24448D244B8E24528F73
:10241600000024799001EF7488F0229001EF74890E
:10242600F0229001EF748AF0229001EF748BF02273
:102436009001EF748CF0229001EF748DF0229001E0
:10244600EF748EF0229001EF748FF0229001EF74FA
:1024560088F02222900146E0FBA3E0FAA3E0F98986
:10246600828A837F017E00120F55900254E004F0A9
:032476000223B08E
:012479002240
:10118B004D01B414FF32C4FF2FA4FF2BA3FF2C2857
:1032C40053A2DF43A21075D80075D90C75E90075B7
:1032D400F90075DA4275F20053F2FD7F007E0012A8
:0D32E4002C289001B4EFF0122F48D2DE220A
:102FA4009001B4E0FFEF120F2B2FC3002FCB142F8F
:102FB400D3282FDB3C2FE3502FEB6400002FF2903B
:102FC40001B47414F0802D9001B47428F08025901D
:102FD40001B4743CF0801D9001B47450F0801590DD
:102FE40001B47464F0800D9001B4E4F080069001A3
:082FF400B47414F0122F4822FE
:102F48009001B4E0FFEF120F2B2F67002F6C142FA6
:102F580071282F763C2F7B502F806400002F8575B9
:102F6800FAFF801C75FACC801775FA99801275FAE9
:102F780066800D75FA33800875FA00800375FAFFCC
:102F88009001B4E0FD9001BBE0FBA3E0FAA3E0F9F7
:0C2F980089828A837F007E00120F552280
:102BA300900240EEF0A3EFF0900242EDF09001E5C9
:102BB300740AF09001E4E4F09001E5E0FF14F0EF13
:102BC3006062900240E0FEA3E0FF9001ECE0FBA313
:102BD300E0FAA3E0F989828A83120F55900240E05C
:102BE300FEA3E0FF900242E0FD9001E9E0FBA3E0D9
:102BF300FAA3E0F989828A83120F55900240E0FE1E
:102C0300A3E0FF9001E6E0FBA3E0FAA3E0F98982E9
:102C13008A83120F55900242E0FEEFB5069A9001A7
:052C2300E47401F02241
:082C2800900239EEF0A3EFF079
:102C300090023BE4F090023CE4F09001E5740AF06D
:102C40009001E5E0FF14F0EF6050900239E0FEA340
:102C5000E0FF9001E6E0FBA3E0FAA3E0F989828AB5
:102C600083120F5590023BEFF0900239E0FEA3E093
:102C7000FF9001E6E0FBA3E0FAA3E0F989828A83F2
:102C8000120F5590023CEFF090023CE0FF90023BA7
:102C9000E0FEEEB507AA800280A690023BE0FFEFBF
:0B2CA000B4FF037F002290023BE0FF26
:012CAB002206
:0E119B004B01E4000AFF3166FF31E5FF32939D
:1034200075C70075C50075C60075C3FF75C4FF225A
:08316600900243EEF0A3EFF02C
:10316E00900245E4F075C78375C501900243E0FEF9
:10317E00A3E0FF8FC4900243E0FEA3E0FFEEFF7ECC
:10318E00008FC375C65A75C6A500900245E5C2F0FC
:08319E00123420900245E0FF0D
:0131A6002206
:1031E500900246EEF0A3EFF0900248EDF075C7832C
:1031F50075C502900246E0FEA3E0FF8FC49002462B
:10320500E0FEA3E0FFEEFF7E008FC3900248E0FFE3
:0D3215008FC275C65A75C6A500123420225E
:10329300900255EEF0A3EFF075C78375C503900256
:1032A30055E0FEA3E0FF8FC4900255E0FEA3E0FFCC
:1032B300EEFF7E008FC375C65A75C6A50012342073
:0132C30022E8
:1011A90056017100FF0006FF3450FF346DFF2E8495
:0911B900FF3096FF3430FF344092
:0634900000000000002214
:05000600D2A3D2A222EA
:0F345000D2A2D2A3123490C2A2123490C2A322ED
:0D346D00C2A2D2A3123490D2A21234902237
:052E8400900257EFF081
:102E8900900258E4F0900258E0FFEFC394085031E3
:102E9900900258E0FF900257E0FEEEA80708800272
:102EA900C333D8FCFFEF30E704D2A28002C2A212DA
:102EB9003490D2A3123490C2A3900258E004F08057
:102EC900C4D2A2123490D2A312349030A207900136
:102ED90071E4F080069001717401F0C2A31234907C
:012EE90022C6
:10309600900259E4F0D2A290025AE4F090025AE06B
:1030A600FFEFC394085029C2A3123490D2A312345E
:1030B60090900259E0FFEF25E0FF900259EFF030C3
:1030C600A206900259E004F090025AE004F080CC87
:0A30D600C2A3123490900259E0FFEB
:0130E00022CD
:10343000C2A2123490D2A3123490C2A312349022AA
:10344000D2A2123490D2A3123490C2A3123490228A
:0911C200460215FF21EEFF1CF7A7
:1021EE0090021BEBF0A3EAF0A3E9F090021EEDF0D3
:1021FE0090021FE4F0900175E0FBA3E0FAA3E0F972
:10220E00120F5190017BE0FBA3E0FAA3E0F9898263
:10221E008A837FA0120F55900171E0FFEF70037F4C
:10222E00002290017BE0FBA3E0FAA3E0F989828A09
:10223E00837F00120F55900171E0FFEF70037F0056
:10224E002290021FE4F090021EE0FF90021FE0FEBB
:10225E00EEC39F503E90021BE0FBA3E0FAA3E0F911
:10226E00120E55FF90017BE0FBA3E0FAA3E0F98983
:10227E00828A83120F55900171E0FFEF70037F0089
:10228E002290021CE475F001120ECF90021FE004A2
:10229E00F080B3900178E0FBA3E0FAA3E0F9120F0F
:1022AE0051900146E0FBA3E0FAA3E0F989828A830C
:0922BE007F017E00120F557F0123
:0122C70022F4
:101CF700900220EBF0A3EAF0A3E9F0900223EDF0C5
:101D0700900224E4F0900175E0FBA3E0FAA3E0F968
:101D1700120F5190017BE0FBA3E0FAA3E0F989825F
:101D27008A837FA0120F55900171E0FFEF70037F48
:101D3700002290017BE0FBA3E0FAA3E0F989828A05
:101D4700837F00120F55900171E0FFEF70037F0052
:101D570022900175E0FBA3E0FAA3E0F9120F51907E
:101D6700017BE0FBA3E0FAA3E0F989828A837FA1E4
:101D7700120F55900171E0FFEF70037F0022900270
:101D870024E4F0900223E0FFEF14FF900224E0FE2A
:101D9700EEC39F503D90017EE0FBA3E0FAA3E0F97C
:101DA700120F51900220E0FBA3E0FAA3E0F9EF1233
:101DB7000E9B900181E0FBA3E0FAA3E0F9120F511B
:101DC700900221E475F001120ECF900224E004F096
:101DD70080B190017EE0FBA3E0FAA3E0F9120F5176
:101DE700900220E0FBA3E0FAA3E0F9EF120E9B902C
:101DF7000184E0FBA3E0FAA3E0F9120F5190017808
:0D1E0700E0FBA3E0FAA3E0F9120F517F0108
:011E140022AB
:03000000022A0AC7
:0C2A0A00787FE4F6D8FD758127022A5180
:100D5F00E709F608DFFA8046E709F208DFFA803E76
:100D6F0088828C83E709F0A3DFFA8032E309F60863
:100D7F00DFFA8078E309F208DFFA807088828C83CB
:100D8F00E309F0A3DFFA806489828A83E0A3F6087F
:100D9F00DFFA805889828A83E0A3F208DFFA804C59
:100DAF0080D280FA80C680D4806980F28033801030
:100DBF0080A680EA809A80A880DA80E280CA803399
:100DCF0089828A83ECFAE493A3C8C582C8CCC58311
:100DDF00CCF0A3C8C582C8CCC583CCDFE9DEE780E1
:100DEF000D89828A83E493A3F608DFF9ECFAA9F060
:100DFF00EDFB2289828A83ECFAE0A3C8C582C8CCB6
:100E0F00C583CCF0A3C8C582C8CCC583CCDFEADECE
:100E1F00E880DB89828A83E493A3F208DFF980CC30
:100E2F0088F0EF60010E4E60C388F0ED2402B40429
:100E3F000050B9F582EB2402B4040050AF232345D0
:060E4F008223900DAF7339
:100E5500BB010689828A83E0225002E722BBFE029B
:090E6500E32289828A83E49322CE
:100E6E00BB010CE58229F582E5833AF583E0225039
:100E7E0006E92582F8E622BBFE06E92582F8E22283
:0D0E8E00E58229F582E5833AF583E493229D
:100E9B00BB010689828A83F0225002F722BBFE0136
:020EAB00F32230
:100EAD00F8BB010DE58229F582E5833AF583E8F07B
:100EBD00225006E92582C8F622BBFE05E92582C827
:020ECD00F2220F
:100ECF00C5F0F8A3E028F0C5F0F8E58215827002AE
:060EDF001583E038F0224B
:100EE500A3F8E0C5F025F0F0E582158270021583C0
:060EF500E0C838F0E8221D
:100EFB00BB010DE58229F582E5833AF583020F8C60
:100F0B005007E92582F8020F83BBFE07E92582F81B
:100F1B00020FB5E58229F582E5833AF583020FBE10
:100F2B00D083D082F8E4937012740193700DA3A355
:100F3B0093F8740193F5828883E473740293686069
:060F4B00EFA3A3A380DF69
:060F51008A838982E4732B
:10048000E510240DF582E43401F583E00510229097
:10049000010A30070390010DE475F001120F950277
:1004A0000E552000E97F2ED2008018EF540F2490C3
:1004B000D43440D4FF30040BEF24BFB41A005003EF
:1004C0002461FFE511600215110514E514700205A1
:1004D0001330070E90010AE475F001120F95EF0238
:1004E0000E9B0233407403D2078003E4C207F51069
:1004F00090010A120FACE4F511F513F514E5116043
:10050000077F201204C380F57512FFC201C200C22A
:1005100002C203C205C206C20812048FFF700D306A
:1005200007057F001204D4AF14AE1322B4255FC2B6
:10053000D5C20412048FFF24D0B40A00501A75F0FB
:100540000A781130D50508B6FF0106C6A426F620A4
:10055000D5047002D20380D924CFB41A00EF50041E
:10056000C2E5D2040206D5D20180C6D20080C0D234
:100570000280BCD2D580BAD20580B47F201204C3D9
:100580002002077401B5110040F1120480FF12042B
:10059000C30204FDD208D2068095120480FB120427
:1005A00080FA120480F94A4B700679A67A077BFF1D
:1005B00020022EE511602A7E008E82758300120EC5
:1005C0006E60060EEE651270F0C2D5EBC0E0EAC0B8
:1005D000E0E9C0E0EE12071CD0E0F9D0E0FAD0E08C
:1005E000FB120E55FF60AAEBC0E0EAC0E0E9C0E0F4
:1005F0001204C3D0E02401F9D0E03400FAD0E0FBCB
:10060000E5120460DCD512D980877BFF7A07791860
:10061000D202809C791080027908C206C208800844
:10062000D2D5790A8004790AC2D5E512047002F5A0
:1006300012E4FAFDFEFF120480FC7B082001131275
:100640000480FD7B1030000A120480FE120480FF3B
:100650007B20EC3382D592D55013C3E43000069F43
:10066000FFE49EFEE42001039DFDE49CFCE4CBF846
:10067000C201EC700CCFCECDCCE824F8F870F3803A
:1006800017C3EF33FFEE33FEED33FDEC33FCEB33FA
:10069000FB994002FB0FD8E9EB300105F8D0E0C42C
:1006A00048B201C0E00AEC4D4E4F78207B0070C28A
:1006B000EAB5120040BCC0E012071ED0F0D0E02026
:1006C0000104C4C0E0C4B201C0F01204ACD0F0D543
:1006D000F0EB0204FD120F2B059A53061458056B1C
:1006E0004C05674206184F06204406204905804302
:0806F000062655060A46060A1B
:1006F80045060A4707C650056F2D05732E05962B2C
:1007080005772305942007AF2A052F480000058E9A
:100718003F3F3F00790AA2D5200314300509B910DC
:10072800020404B9080104A2D520060250010420DD
:1007380002689202B511005034C0E07F20300319DE
:100748007F30A20272067205500F120775C202C2EC
:1007580006C205C2087F30800F300503E9C0E012E9
:1007680004C3300503D0E0F9D0E0B511CC3005174B
:100778007F30B9100C1204C37F583004077F78808B
:1007880003B908031204C33002057F2D0204C37F96
:10079800202008F87F2B2006F322920280CF286EB3
:1007A800756C6C2900D2011204803001F8C20178FE
:1007B8001130D50108F602052F2D5043495812046F
:1007C800802403B405004001E49007C1931204B4E7
:0D07D800743A1204B4D20375110402061421
:1026D20090010AEBF0A3EAF0A3E9F0A3E0FBA3E088
:1026E200FAA3E0F9120E55700302277E90010AE068
:1026F200FBA3E0FAA3E0F9120E55700302278A90B9
:10270200010DE0F9A3E0FAA3E0A3C9F0A3EAF0A364
:10271200E9F090010AA3E0FAA3E0F9900113EBF0CB
:10272200A3EAF0A3E9F0900110E0FBA3E0FAA3E032
:10273200F9120E55FF6026900113E0FBA3E0FAA305
:10274200E0F9120E556F701590011175F001120E1D
:10275200CF900114E475F001120ECF80C9900110E0
:10276200E0FBA3E0FAA3E0F9120E557002800D908F
:10277200010BE475F001120ECF0226EE90010AE081
:0F278200FBA3E0FAA3E0F9227B007A00790022A2
:100F5700EF4E6012EF60010EEDBB010B89828A83B1
:100F6700F0A3DFFCDEFA2289F05007F709DFFCA9BE
:0C0F7700F022BBFEFCF309DFFCA9F02215
:102A1600021A78E493A3F8E493A34003F68001F244
:102A260008DFF48029E493A3F85407240CC8C333C1
:102A3600C4540F4420C8834004F456800146F6DF90
:102A4600E4800B0102040810204080900FCAE47E47
:102A5600019360BCA3FF543F30E509541FFEE49385
:102A6600A360010ECF54C025E060A840B8E493A34C
:102A7600FAE493A3F8E493A3C8C582C8CAC583CA77
:102A8600F0A3C8C582C8CAC583CADFE9DEE780BE2F
:0111CB000023
:090F8300E6FB08E6FA08E6F92293
:090F8C00E0FBA3E0FAA3E0F92266
:100F9500F8E0FBA3A3E0F925F0F0E58215827002E5
:070FA5001583E0FA38F02289
:090FAC00EBF0A3EAF0A3E9F02246
:090FB500E2FB08E2FA08E2F9226D
:0C0FBE00E493FB740193FA740293F9228F
:00000001FF
