:0B012300AA0CA90D120135E4FEFF221A
:07012E00D288D2A8D2AF2253
:0300030002013BBC
:03013B00B2B43229
:0500C7000314FF00928C
:0B0117000000007F0B7EBEDEFEDFFC60
:0101220022BA
:04009200AD07AC0604
:10009600E4FBFAC3EB9DEC6480F8EA648098500AAE
:0A00A6001201170BBB00010A80E9EC
:0100B000222D
:0E00CC000C08FF00DBFF00EFFF0103FF00B197
:1000DB0075B10475B21020B304D2B480F930B3F605
:0400EB00C2B480F229
:1000EF0075B10475B21420B204D2B480F930B2F6EF
:0400FF00C2B480F215
:1001030075B10475B21020B204D2B480F930B2F6DE
:04011300C2B480F200
:1000B10075B10475B210D2B320B304D2B480F93053
:0600C100B3F6C2B480F2A8
:03000000020006F5
:0C000600787FE4F6D8FD75811602004DED
:060135008A838982E47355
:10001200020123E493A3F8E493A34003F68001F2E0
:1000220008DFF48029E493A3F85407240CC8C333EF
:10003200C4540F4420C8834004F456800146F6DFBE
:10004200E4800B01020408102040809000C7E47E87
:10005200019360BCA3FF543F30E509541FFEE493B3
:10006200A360010ECF54C025E060A840B8E493A37A
:10007200FAE493A3F8E493A3C8C582C8CAC583CAA5
:10008200F0A3C8C582C8CAC583CADFE9DEE780BE5D
:0100DA000025
:00000001FF
