:0A2AA90052756E6E696E67210A0017
:03131000012600B3
:102498009001E9E4F09001A2E0FBA3E0FAA3E0F9DF
:1024A8001217537BFF7A2A79A9C003C002C0019092
:1024B8000078E0FBA3E0FAA3E0F989828A83D001DF
:1024C800D002D003121757900156E0FFEF701F900B
:1024D8000157E0FEA3E0FFD3EF94E8EE9403400E2B
:1024E80090015FE0FBA3E0FAA3E0F9121753900113
:1024F80068E0FBA3E0FAA3E0F91217539001C3E0E8
:10250800FBA3E0FAA3E0F912175390015CE0FBA3E8
:0A251800E0FAA3E0F912175380ADBA
:012522002296
:0C2A9D0057694669204572726F720A008A
:101313005401320000000000000000000000000043
:10132300000000000000004F0146FF289AFF298AB1
:09133300FF0006FF003FFF28DB6C
:10298A007BFF7A2A799DC003C002C001900078E0DB
:10299A00FBA3E0FAA3E0F989828A83D001D002D0AE
:0529AA00031217572283
:0400060043C72022AA
:03003F00B2B42236
:1028DB009001CCEBF0A3EAF0A3E9F09001CFEDF07F
:1028EB009001CFE0FF7E007D009001CCE0FBA3E0E8
:1028FB00FAA3E0F9121759900146E0FBA3E0FAA303
:0E290B00E0F989828A837F0A7E001217572224
:08289A009001D0EEF0A3EFF075
:1028A2009001D2E4F0A3E4F09001D0E0FEA3E0FFB7
:1028B2009001D2E0FCA3E0FDC3ED9FEE6480F8EC52
:1028C20064809850131229EA9001D3E004F0700654
:0828D2009001D2E004F080D077
:0128DA0022DB
:1029EA0000000075150B7516BE1516AF16EF70F9B7
:0729FA001515AF15EF70F297
:012A010022B2
:0F133C004C018DFF000EFF2A19FF2A2EFF2A02F7
:10000E0075B10475B21020B304D2B480F930B3F6D2
:05001E00C2B480F222D3
:102A190075B10475B21420B204D2B480F930B2F69B
:052A2900C2B480F2229E
:102A2E0075B10475B21020B204D2B480F930B2F68A
:052A3E00C2B480F22289
:102A020075B10475B210D2B320B304D2B480F930D8
:072A1200B3F6C2B480F2220A
:102A43004E6F74206861766520382042797465A3DF
:042A5300A1A3A1009A
:10134B0060320032000000000000000000000000CE
:10135B000000000000000000000000000000000082
:10136B000000000000000000000000000000000072
:10137B0000000000000060320000000000000000D0
:10138B000000000000000000000000000000000052
:10139B000000000000000000000000000000000042
:1013AB00000000000000000000000000602100644D
:1013BB000003000000010000010032FF20B6FF28EF
:1013CB0000FF237BFF2235FF1F1E01FF0026FF2995
:0113DB00D140
:1020B600900064E0FFEF12172D20C600000020CB31
:1020C60075985080037598D090007EE0FFEF121748
:1020D6002D20E40020E90120E402000020EF53A2B5
:1020E6003F800653A27F43A24075870053890F4362
:1020F6008E40538EFE900065E0FFEF12172D2114DF
:1021060000211C01212402212C0300002134758B9F
:10211600C0758DFD801E758BE0758DFE8016758BE6
:1021260070758DFF800E758BE8758DFF8006758B3B
:10213600C0758DFDC2ABD28ED29C90006CE0FBA325
:10214600E0FAA3E0F9C003C002C001900152E0FB2F
:10215600A3E0FAA3E0F989828A83D001D002D003F2
:102166007D32121757900067E4F0900068E4F02281
:052800009001EAEFF079
:10280500900066E0FFEF640160F6900064E0FFEF82
:1028150060289001EAE0FFEFA2D0920D900064E0FD
:10282500FFEF12172D283401283B020000283FA294
:102835000DB3929B8004A20D929B9000667401F0EB
:072845009001EAE0FF8F990A
:01284C002269
:0B2235009001E0EBF0A3EAF0A3E9F059
:10224000781E760008760090007EE0FFEFB4010E65
:1022500090007FE0FBA3E0FAA3E0F912175390018E
:10226000E0E0FBA3E0FAA3E0F9781EE6FE08E6FF53
:102270008F828E83121686FFEF60369001E0E0FBBE
:10228000A3E0FAA3E0F9781EE6FE08E6FF8F828E4F
:1022900083121686FF900072E0FBA3E0FAA3E0F938
:1022A00089828A83121757781F06E6187001068004
:1022B000AD900066E0FFEF640160F690007EE0FF05
:1022C000EFB40124900146E0FBA3E0FAA3E0F98912
:1022D000828A837F017E00121757900082E0FBA361
:0822E000E0FAA3E0F912175324
:0122E80022D3
:10237B009001D4EBF0A3EAF0A3E9F09001D7EDF0D4
:10238B0090007EE0FFEFB4010E90007FE0FBA3E036
:10239B00FAA3E0F91217539001D7E0FF14F0EF60A6
:1023AB00289001D4E0FBA3E475F0011216E7A9F025
:1023BB00FA12166DFF900072E0FBA3E0FAA3E0F9AE
:1023CB0089828A8312175780CE900066E0FFEF64F4
:1023DB000160F690007EE0FFEFB40124900146E02F
:1023EB00FBA3E0FAA3E0F989828A837F017E0012C6
:1023FB001757900082E0FBA3E0FAA3E0F912175302
:01240B0022AE
:1029AF009001EBEFF09001EBE0FF900072E0FBA3E2
:1029BF00E0FAA3E0F989828A831217579001EBE0BE
:0229CF00FF22E5
:10002600D2A0900146E0FBA3E0FAA3E0F989828A18
:09003600837F027E00121757229D
:1029D100900146E0FBA3E0FAA3E0F989828A837FB4
:0929E100027E00121757C2A02269
:101F1E00D20E900067E0FFEF64016003021FE990AC
:101F2E00006CE0FBA3E0FAA3E0F9AE02AF01EF4EC6
:101F3E00607178187600087600900068E0FFEFC3B5
:101F4E00940850127818E6FE08E6FFC3EF9414EEDC
:101F5E00940040E5C20E300E257B017A007964C0F4
:101F6E0003C002C0017823860308E6FA08E6F98961
:101F7E00828A83D001D002D0031217578025900099
:101F8E007FE0FBA3E0FAA3E0F91217537BFF7A2A56
:101F9E0079431204EB900082E0FBA3E0FAA3E0F990
:101FAE0012175390006CE0FBA3E0FAA3E0F9C00314
:101FBE00C002C001900068E0FD900152E0FBA3E07A
:101FCE00FAA3E0F989828A83D001D002D0031217D6
:0B1FDE0057900067E4F0900068E4F00A
:011FE90022D5
:03002300021E4575
:0B1E4500C0E0C083C082C0D075D00890
:101E5000309907C299900066E4F0209803021F159C
:101E6000C2989001ECE599F0A29A92099001ECE0F9
:101E7000FFEFA2D0920A900068E0FFEFC3943240D7
:101E800003021F0F900064E0FFEF12172D1EEF00FA
:101E90001E9A011EC50200001F0FA209B3300A01DD
:101EA000B3406C9001ECE0FF90006CE0FBA3E0FA23
:101EB000A3E0F9900068E0FE04F08E82758300EFE5
:101EC0001216C5804AA20A300901B340429001ECC3
:101ED000E0FF90006CE0FBA3E0FAA3E0F99000685B
:101EE000E0FE04F08E82758300EF1216C58020900C
:101EF00001ECE0FF90006CE0FBA3E0FAA3E0F990B6
:101F00000068E0FE04F08E82758300EF1216C59023
:051F100000677401F000
:091F1500D0D0D082D083D0E0329C
:0F13DC004C0199FF2919FF2A8FFF2954FF26A6DC
:1029190075930075940C75800075B14475B290C2B9
:10292900B575950075960153A0FE75C90075CAFF66
:10293900D2CCC2CD900146E0FBA3E0FAA3E0F9892D
:0B294900828A837F027E001217572253
:0E2A8F00D2A8D288D2A9D2AC43AF01D2AF22D6
:102954009001EDE4F09001EDE4F09001EDE0FFEF83
:10296400C3940A5020B2B4900146E0FBA3E0FAA35A
:10297400E0F989828A837F327E001217579001ED35
:05298400E004F080D525
:01298900222B
:1026A600900146E0FBA3E0FAA3E0F989828A837FE2
:1026B600647E00121757900199E0FBA3E0FAA3E0AD
:1026C600F912175390019FE0FBA3E0FAA3E0F91279
:1026D600175390019CE0FBA3E0FAA3E0F91217530D
:1026E600781B860308E6FA08E6F912175390006F7E
:1026F600E0FBA3E0FAA3E0F91217539000C2E0FB57
:10270600A3E0FAA3E0F9121753900159E0FBA3E006
:08271600FAA3E0F912175322A7
:0A13EB004701B800000000FF1D6379
:101D63009001B0EBF0A3EAF0A3E9F09001B3EDF03A
:101D73009001B4E4F0A3E4F09001B6E4F09001B76D
:101D8300E4F09001B474FFF0A374FFF09001B6E4A3
:101D9300F09001B3E0FF9001B6E0FEEEC39F400375
:101DA300021E3C9001B4E0FEA3E0FF9001B0E0FB13
:101DB300A3E0FAA3E0F99001B6E0FD8D82758300FC
:101DC300121686FD7C00EE6CFEEF6DFF9001B4EE03
:101DD300F0A3EFF09001B7E4F09001B7E0FFEFC399
:101DE3009408504C9001B4E0FEA3E0FFEF30E021F3
:101DF3009001B4E0FEA3E0FFEEC313FEEF13FFEE8A
:101E030064A0FEEF6401FF9001B4EEF0A3EFF08055
:101E1300179001B4E0FEA3E0FFEEC313FEEF13FF40
:101E23009001B4EEF0A3EFF09001B7E004F080A9C5
:101E33009001B6E004F0021D949001B4E0FEA3E02B
:011E4300FF9F
:011E4400227B
:1025AA00435243313620436865636B204552524F8C
:1025BA0052A3A1A3A1005265676973742061646480
:1025CA0072657373206F7574206F662072616E670F
:1025DA0065A3A1A3A1307E390A004F6E6C792072DF
:1025EA006561642074776F20726567697374206F00
:1025FA006E6365A3A1A3A10A00526567697374207B
:10260A0061646472657373206F7574206F662072DB
:0E261A00616E676532A3A1A3A1307E390A006C
:0613F500042201FF114B70
:0B114B009001C6EBF0A3EAF0A3E9F06E
:101156009001C6E0FBA3E0FAA3E0F99001C9EBF029
:10116600A3EAF0A3E9F09001C9E0FBA3E0FAA3E04B
:10117600F97582087583001216FD12166DFF782226
:10118600E6FEEF6E600302130F9001C9E0FBA3E0D9
:10119600FAA3E0F97582087583001216FDC003C034
:1011A60002C0019001BCE0FBA3E0FAA3E0F989824A
:1011B6008A83D001D002D0037D061217579001B85A
:1011C600EEF0A3EFF09001B8E0FEA3E0FFEEFF7EA5
:1011D600009001BAEFF09001B8E0FEA3E0FF9001A5
:1011E600BBEFF09001C9E0FBA3E0FAA3E0F975823A
:1011F600087583001216FD75820675830012168621
:10120600FF9001BBE0FEEFB506279001C9E0FBA306
:10121600E0FAA3E0F97582087583001216FD75825F
:1012260007758300121686FF9001BAE0FEEF6E6026
:10123600519001C9E0FBA3E0FAA3E0F975820875B5
:1012460083001216FD758206758300121686FF90BE
:1012560001BAE0FEEF6E60030212EA9001C9E0FBFC
:10126600A3E0FAA3E0F97582087583001216FD75EE
:101276008207758300121686FF9001BBE0FEEF6EB3
:1012860070629001C9E0FBA3E0FAA3E0F975820859
:101296007583001216FD758201758300121686FF8E
:1012A600EFB4030F9001C9E0FBA3E0FAA3E0F91243
:1012B6000046229001C9E0FBA3E0FAA3E0F975829B
:1012C600087583001216FD75820175830012168655
:1012D600FFEFB406349001C9E0FBA3E0FAA3E0F9FE
:1012E600120D5F2290007FE0FBA3E0FAA3E0F91263
:1012F60017537BFF7A2579AA1204EB900082E0FB54
:09130600A3E0FAA3E0F912175369
:01130F0022BB
:0B004600900180EBF0A3EAF0A3E9F0CA
:10005100900180E0FBA3E0FAA3E0F9900183EBF0CB
:10006100A3EAF0A3E9F0900186E4F0A3E4F09001A3
:1000710088E4F0A3E4F090018A7403F0900183E036
:10008100FBA3E0FAA3E0F97582087583001216FD5F
:10009100758202758300121686FF7E00900186E04C
:1000A100FCA3E0FDEF2DFFEE3CFEEF7F00FE900193
:1000B10083E0FBA3E0FAA3E0F975820875830012DF
:1000C10016FD758203758300121686FD7C00EF2DE7
:1000D100FFEE3CFE900186EEF0A3EFF0900183E08D
:1000E100FBA3E0FAA3E0F97582087583001216FDFF
:1000F100758204758300121686FF7E00900188E0E8
:10010100FCA3E0FDEF2DFFEE3CFEEF7F00FE900132
:1001110083E0FBA3E0FAA3E0F9758208758300127E
:1001210016FD758205758300121686FD7C00EF2D84
:10013100FFEE3CFE900188EEF0A3EFF0900188E025
:10014100FEA3E0FF900186E0FCA3E0FDED2FFFECB4
:100151003EFED3EF940AEE94004003020415900191
:1001610088E0FEA3E0FFD3EF9400EE940050030279
:100171000415900188E0FEA3E0FFC3EF9403EE9421
:100181000040030204157822E6FF900183E0FBA3FF
:10019100E0FAA3E0F97582057583001216FDEF12EE
:1001A10016B3900183E0FBA3E0FAA3E0F9758205A1
:1001B1007583001216FD7582017583007403121692
:1001C100C5900188E0FEA3E0FFEF25E0FF900183E9
:1001D100E0FBA3E0FAA3E0F975820575830012162E
:1001E100FD758202758300EF1216C590018BE4F054
:1001F10090018BE0FF7E00900188E0FCA3E0FDC34D
:10020100EF9DEE9C400302033990018BE0FF9001CA
:100211008CEFF090018BE0FF7E00EF2401FFEE34C4
:1002210000FE90018CE0FD7C00D3ED9FEE6480F830
:10023100EC648098400302032990018BE0FF900158
:100241008CE0FEEE6F706F90018BE0FF7E009001FD
:1002510086E0FCA3E0FDEF2DFFEE3CFEEF25E0FF85
:10026100EE33FE74322FF58274013EF583E0FEA376
:10027100E0FFEEFF7E00900183E0FBA3E0FAA3E044
:10028100F97582057583001216FDE92403F9EA3434
:1002910000FA90018BE0FEEEFD7C00E92DF9EA3CCD
:1002A100FA90018CE0FEEEFD7C00E92DF9EA3CFAC2
:1002B100EF1216B3806990018BE0FF7E00900186FA
:1002C100E0FCA3E0FDEF2DFFEE3CFEEF25E0FFEEAD
:1002D10033FE74322FF58274013EF583E0FEA3E014
:1002E100FF900183E0FBA3E0FAA3E0F975820575B5
:1002F10083001216FDE92403F9EA3400FA90018B18
:10030100E0FEEEFD7C00E92DF9EA3CFA90018CE07B
:10031100FEEEFD7C00E92DF9EA3CFAEF1216B390EE
:10032100018CE004F002021490018AE02402F090B2
:10033100018BE004F00201F1900183E0FBA3E0FAFC
:10034100A3E0F97582057583001216FDC003C00292
:10035100C00190018AE0FD9001BCE0FBA3E0FAA39B
:10036100E0F989828A83D001D002D0031217579015
:1003710001B8EEF0A3EFF09001B8E0FEA3E0FF902A
:100381000183E0FBA3E0FAA3E0F975820575830020
:100391001216FD90018AE0FE04F08E82758300EF53
:1003A1001216C59001B8E0FEA3E0FFEEFF7E0090BB
:1003B1000183E0FBA3E0FAA3E0F9758205758300F0
:1003C1001216FD90018AE0FE04F08E82758300EF23
:1003D1001216C5900183E0FBA3E0FAA3E0F9758250
:1003E100057583001216FDC003C002C00190018A89
:1003F100E0FD900183E0FBA3E0FAA3E0F97582112F
:100401007583001216FD89828A83D001D002D00340
:1004110012175722900188E0FEA3E0FF900186E0C9
:10042100FCA3E0FDED2FFFEC3EFED3EF940AEE942A
:1004310000402690007FE0FBA3E0FAA3E0F9121749
:10044100537BFF7A2579C01204EB900082E0FBA375
:10045100E0FAA3E0F91217532290007FE0FBA3E03A
:10046100FAA3E0F91217537BFF7A2579E41204EB22
:0E047100900082E0FBA3E0FAA3E0F91217531B
:01047F00225A
:0B0D5F009001A5EBF0A3EAF0A3E9F07F
:100D6A009001A5E0FBA3E0FAA3E0F99001A8EBF05B
:100D7A00A3EAF0A3E9F09001ABE4F0A3E4F0900158
:100D8A00ADE4F0A3E4F09001AFE4F09001AFE0FF2E
:100D9A00EFC39408504C9001A8E0FBA3E0FAA3E04B
:100DAA00F97582087583001216FD9001AFE0FF8F76
:100DBA0082758300121686FF9001A8E0FBA3E0FA71
:100DCA00A3E0F97582057583001216FD9001AFE064
:100DDA00FE8E82758300EF1216C59001AFE004F013
:100DEA0080A99001A8E0FBA3E0FAA3E0F9758205C7
:100DFA007583001216FDC003C002C0019001A8E06D
:100E0A00FBA3E0FAA3E0F97582117583001216FDBF
:100E1A0089828A83D001D002D0037D0812175790A5
:100E2A0001A8E0FBA3E0FAA3E0F975820875830044
:100E3A001216FD758202758300121686FF7E0090D7
:100E4A0001ABE0FCA3E0FDEF2DFFEE3CFEEF7F00DF
:100E5A00FE9001A8E0FBA3E0FAA3E0F97582087509
:100E6A0083001216FD758203758300121686FD7CB7
:100E7A0000EF2DFFEE3CFE9001ABEEF0A3EFF090F9
:100E8A0001A8E0FBA3E0FAA3E0F9758208758300E4
:100E9A001216FD758204758300121686FF7E009075
:100EAA0001ABE0FCA3E0FDEF2DFFEE3CFEEF7F007F
:100EBA00FE9001A8E0FBA3E0FAA3E0F975820875A9
:100ECA0083001216FD758205758300121686FD7C55
:100EDA0000EF2DFFEE3CFE9001ADEEF0A3EFF09097
:100EEA0001ABE0FEA3E0FFD3EF9409EE9400503586
:100EFA009001ABE0FEA3E0FFC3EE9400402790010F
:100F0A00ADE0FCA3E0FD9001ABE0FEA3E0FFEF251E
:100F1A00E0FFEE33FE74322FF58274013EF583EC66
:100F2A00F0A3EDF02290007FE0FBA3E0FAA3E0F942
:100F3A001217537BFF7A2679031204EB900082E0A2
:0A0F4A00FBA3E0FAA3E0F91217532D
:010F5400227A
:0913FB00071700000000FF2A7E24
:102A7E00538E7F5389F0758A00758CEEC28DD28C81
:012A8E002225
:03000B000222E9E5
:1022E900C0E0C0F0C083C082C0D075D000C000C0BB
:1022F90001C002C003C004C005C006C007781AE6C1
:10230900FFEFB4011F781706E6FFEFC3940A4031C7
:102319007817760090014FE0FBA3E0FAA3E0F912E9
:102329001753801D781706E6FFEFC394C84012784B
:1023390017760090014FE0FBA3E0FAA3E0F912172A
:1023490053781906E618700106900158E004F070F8
:1023590006900157E004F0D007D006D005D004D08C
:1023690003D002D001D000D0D0D082D083D0F0D019
:02237900E03250
:102A57004E6F74206861766520382042797465A3CB
:042A6700A1A3A10086
:10140400603200D80000000000000000000000006E
:1014140000000000000000000000000000000000C8
:1014240000000000000000000000000000000000B8
:101434000000000000006032008500000000000091
:101444000000000000000000000000000000000098
:101454000000000000000000000000000000000088
:10146400000000000000000000000000602100B740
:1014740000030000000100850100D8FF2523FF269A
:1014840028FF284DFF2796FF1FEA00FF000AFF00F0
:011494004215
:10252300759A50438E0453BAFE900065E0FFEF1294
:10253300172D254500254D01255502255D03000076
:10254300256575D7C075D6FD801E75D7E075D6FE97
:10255300801675D77075D6FF800E75D7E875D6FFD0
:10256300800675D7C075D6FD53AFFB438E10439AD3
:10257300109000BFE0FBA3E0FAA3E0F9C003C002A0
:10258300C001900152E0FBA3E0FAA3E0F989828A3B
:1025930083D001D002D0037D321217579000BAE4E2
:0725A300F09000BBE4F02200
:052628009001E3EFF05A
:10262D009001E4E4F09000B9E0FFEF640160F690F2
:10263D0000B7E0FFEF60549001E3E0FFEFA2D0E4BC
:10264D0033FF9001E4E0FEEF2EFFEF33333354F808
:10265D00FF9001E4EFF09000B7E0FFEF12172D2689
:10266D007601268802000026989001E4E0FFEF70C5
:10267D0005439A088015539AF780109001E4E0FF06
:10268D00EF7005539AF78003439A089000B97401CF
:08269D00F09001E3E0FF8F9BC8
:0126A5002212
:0B2796009001D8EBF0A3EAF0A3E9F0FB
:1027A1009001DBE4F09001D8E0FBA3E0FAA3E0F9AB
:1027B1009001DBE0FF8F82758300121686FFEF60C8
:1027C100339001D8E0FBA3E0FAA3E0F99001DBE04C
:1027D100FF8F82758300121686FF9000C5E0FBA370
:1027E100E0FAA3E0F989828A831217579001DBE0AE
:0E27F10004F080B19000B9E0FFEF640160F6E3
:0127FF0022B7
:10284D009001DCEBF0A3EAF0A3E9F09001DFEDF0ED
:10285D009001DFE0FF14F0EF60289001DCE0FBA3B6
:10286D00E475F0011216E7A9F0FA12166DFF90004B
:10287D00C5E0FBA3E0FAA3E0F989828A831217571A
:0D288D0080CE9000B9E0FFEF640160F622FC
:101FEA00D20F9000BAE0FFEF640160030220B590BF
:101FFA0000BFE0FBA3E0FAA3E0F9AE02AF01EF4EA7
:10200A006071781876000876009000BBE0FFEFC395
:10201A00940850127818E6FE08E6FFC3EF9414EE0F
:10202A00940040E5C20F300F257B017A0079B7C0D2
:10203A0003C002C0017823860308E6FA08E6F98994
:10204A00828A83D001D002D00312175780259000CC
:10205A007FE0FBA3E0FAA3E0F91217537BFF7A2A89
:10206A0079571204EB900082E0FBA3E0FAA3E0F9AF
:10207A001217539000BFE0FBA3E0FAA3E0F9C003F4
:10208A00C002C0019000BBE0FD900152E0FBA3E05A
:10209A00FAA3E0F989828A83D001D002D003121709
:0B20AA00579000BBE4F09000BAE4F097
:0120B5002208
:01000A0022D3
:01004200229B
:03004300021B722B
:101B7200C0E0C083C082C0D075D000C000C001C028
:071B820002C003C006C0070A
:101B8900E59A30E108539AFD9000B9E4F0E59A200E
:101B9900E003021C5A539AFE7827A69BE59A54043F
:101BA900FFEF1313543FFFEF24FF920B7827E6FF53
:101BB900EFA2D0920C9000BBE0FFEFC39432400338
:101BC900021C549000B7E0FFEF12172D1C35001BC3
:101BD900E2011C0C0200001C54A20BB3300C01B32F
:101BE90040697827E6FF9000BFE0FBA3E0FAA3E095
:101BF900F99000BBE0FE04F08E82758300EF1216A7
:101C0900C58048A20C300B01B340407827E6FF900D
:101C190000BFE0FBA3E0FAA3E0F99000BBE0FE04FB
:101C2900F08E82758300EF1216C5801F7827E6FFB4
:101C39009000BFE0FBA3E0FAA3E0F99000BBE0FE4F
:101C490004F08E82758300EF1216C59000BA7401F4
:011C5900F09A
:101C5A00D007D006D003D002D001D000D0D0D08295
:051C6A00D083D0E03240
:1017E20041540D0A005769466920496E6974207494
:1017F200696D656F757421210A004F4B000D0A0057
:101802004578697420546F75436875616E2D2D2D6E
:101812002D0A002B00415445300D0A0041542B4340
:10182200574D4F44455F4445463D310D0A004154F2
:101832002B43574155544F434F4E4E0D0A004154CE
:101842002B43574A41505F4445463D22B5CEB5CE63
:10185200B5CE222C227A6E68786B68333039220D2D
:101862000A005749464920474F54204950002B2B24
:101872002B0053746174653D2562642C4F4B5F46A7
:101882006C61673D2562640A0041542B434946530B
:10189200520D0A003139322E3136380041542B4371
:1018A200495053544152543D22544350222C223128
:1018B20039322E3136382E3130312E313034222C1D
:1018C200383838380D0A00434F4E4E4543540041D4
:1018D200542B4349504D4F44453D310D0A0041546C
:1018E2002B43495053454E440D0A0052756E6E69A2
:1018F2006E67210A0054696D654F7574210A0053A1
:10190200656E6420646174613D2573004E6F7420BE
:10191200415420436F6D6D616E6421213D25730A30
:1019220000526563656976652054696D654F75740B
:03193200210A0087
:10149500550156000000FF1935FF0AD3FF07E5FF88
:1014A5002AB3FF2AB4FF1A6C46016BFF0F55FF1CC8
:0514B5006F410155002C
:10193500C283900146E0FBA3E0FAA3E0F989828A1D
:10194500837F647E00121757D283D282781876007F
:10195500087600781A76019000BFE0FBA3E0FAA3B1
:10196500E0F9C003C002C0019000BBE0FD90015248
:10197500E0FBA3E0FAA3E0F989828A83D001D002D3
:10198500D0031217579000BBE4F09000BAE4F07B47
:10199500FF7A1779E2C003C002C0019000CBE0FBDB
:1019A500A3E0FAA3E0F989828A83D001D002D003AB
:1019B500121757900146E0FBA3E0FAA3E0F98982EC
:1019C5008A837F647E001217577818E6FE08E6FFC3
:1019D500D3EF94E8EE940340267BFF7A1779E7C0AE
:1019E50003C002C001900078E0FBA3E0FAA3E0F990
:1019F50089828A83D001D002D003121757804D9077
:101A050000BFE0FBA3E0FAA3E0F9C003C002C001F8
:101A15007BFF7A1779FC90010DEBF0A3EAF0A3E9BF
:101A2500F0D001D002D003122176C003C002C0015C
:101A35007B007A007900D082D083D0E06B7008E912
:101A450065827003EA6583700302195C900146E0C4
:101A5500FBA3E0FAA3E0F989828A837FE87E03127B
:071A65001757781A760022E2
:0B14C500900171EBF0A3EAF0A3E9F046
:1014D0009001797401F0900171E0FBA3E0FAA3E0C0
:1014E000F990017AEBF0A3EAF0A3E9F0900174E03F
:1014F000FBA3E0FAA3E0F990017DEBF0A3EAF0A3EF
:10150000E9F09000BFE0FBA3E0FAA3E0F9C003C05C
:1015100002C0019000BBE0FD900152E0FBA3E0FAA5
:10152000A3E0F989828A83D001D002D00312175731
:101530009000BBE4F09000BAE4F090017AE0FBA3E5
:10154000E0FAA3E0F9C003C002C0019000CBE0FBC9
:10155000A3E0FAA3E0F989828A83D001D002D00304
:10156000121757781876000876009000BFE0FBA3AA
:10157000E0FAA3E0F9C003C002C0017BFF7A17794B
:10158000FF90010DEBF0A3EAF0A3E9F0D001D00247
:10159000D003122176C003C002C0017B007A00791B
:1015A00000D082D083D0E06B7008E965827003EAD6
:1015B0006583604F9000BFE0FBA3E0FAA3E0F9C0B1
:1015C00003C002C001900174E0FBA3E0FAA3E0F9BC
:1015D00090010DEBF0A3EAF0A3E9F0D001D002D026
:1015E00003122176C003C002C0017B007A0079009B
:1015F000D082D083D0E06B7008E965827003EA6521
:1016000083702C900177E0FEA3E0FF7818E6FC08D9
:10161000E6FDD3ED9FEC9E500302156A900149E070
:10162000FBA3E0FAA3E0F9121753900179E4F090DC
:1016300000BFE0FBA3E0FAA3E0F9C003C002C001D1
:101640009000BBE0FD900152E0FBA3E0FAA3E0F9BB
:1016500089828A83D001D002D0031217579000BB31
:0C166000E4F09000BAE4F0900179E0FFA3
:01166C00225B
:100AD3009001C2E0FFEF64016003020D5E781A76B5
:100AE30001900156E0FFEF64016003020B977BFF67
:100AF3007A187902C003C002C001900078E0FBA31A
:100B0300E0FAA3E0F989828A83D001D002D00312EC
:100B130017577BFF7A187915C003C002C0019000F4
:100B2300CBE0FBA3E0FAA3E0F989828A83D001D06A
:100B330002D0031217577BFF7A187915C003C0023E
:100B4300C0019000CBE0FBA3E0FAA3E0F989828A1D
:100B530083D001D002D0031217577BFF7A1879157F
:100B6300C003C002C0019000CBE0FBA3E0FAA3E006
:100B7300F989828A83D001D002D0031217579001DA
:100B830046E0FBA3E0FAA3E0F989828A837FE87E4B
:100B9300031217577BFF7A1779E2C003C002C00123
:100BA3007BFF7A1779FC900174EBF0A3EAF0A3E9D9
:100BB300F0900177E4F0A37414F0D001D002D003D5
:100BC3001214C57BFF7A187917C003C002C0017BDA
:100BD300FF7A1779FC900174EBF0A3EAF0A3E9F034
:100BE300900177E4F0A37414F0D001D002D0031283
:100BF30014C57BFF7A18791EC003C002C0017BFFB6
:100C03007A1779FC900174EBF0A3EAF0A3E9F09072
:100C13000177E4F0A37414F0D001D002D0031214CE
:100C2300C57BFF7A187930C003C002C0017BFF7A0D
:100C33001779FC900174EBF0A3EAF0A3E9F09001BB
:100C430077E4F0A37414F0D001D002D0031214C5DA
:100C53007BFF7A187940C003C002C0017BFF7A177B
:100C630079FC900174EBF0A3EAF0A3E9F09001772B
:100C7300E4F0A374C8F0D001D002D0031214C578F5
:100C83001876000876007818E6FE08E6FFC3EF94AE
:100C9300A0EE948C4003020D4C9000BFE0FBA3E058
:100CA300FAA3E0F9C003C002C0017BFF7A1879649C
:100CB30090010DEBF0A3EAF0A3E9F0D001D002D04C
:100CC30003122176C003C002C0017B007A007900C1
:100CD300D082D083D0E06B7008E965827003EA6547
:100CE3008360A37BFF7A187964C003C002C00190BC
:100CF3000078E0FBA3E0FAA3E0F989828A83D001BC
:100D0300D002D003121757900146E0FBA3E0FAA3E9
:100D1300E0F989828A837FE87E03121757900146A0
:100D2300E0FBA3E0FAA3E0F989828A837FE87E03EC
:100D3300121757900146E0FBA3E0FAA3E0F989827A
:100D43008A837FE87E03121757781A760090014C46
:0C0D5300E0FBA3E0FAA3E0F91217532222
:1007E5009001E5E4F09001E6E4F07BFF7A1879707A
:1007F500C003C002C0019000CBE0FBA3E0FAA3E078
:10080500F989828A83D001D002D00312175790014B
:1008150046E0FBA3E0FAA3E0F989828A837FE87EBC
:100825000312175778187600087600781A76019023
:1008350001E6E0FFEF64FF7003020AC690007FE067
:10084500FBA3E0FAA3E0F91217537BFF7A1879743A
:100855009001E6E0FF90010DEFF09001E5E0FF90DB
:10086500010EEFF01204EB900082E0FBA3E0FAA387
:10087500E0F91217539001E6E0FFEF12172D089CDF
:100885000008EB01093502097F0309CF040A2A058F
:100895000A7906000008347BFF7A1779E2C003C0A5
:1008A50002C0017BFF7A1779FC900174EBF0A3EA93
:1008B500F0A3E9F0900177E4F0A37414F0D001D02F
:1008C50002D0031214C59001E5EFF09001E5E0FFB9
:1008D500EFB401099001E67401F00208349001E6D5
:1008E50074FFF00208347BFF7A187917C003C00241
:1008F500C0017BFF7A1779FC900174EBF0A3EAF055
:10090500A3E9F0900177E4F0A37414F0D001D002CC
:10091500D0031214C59001E5E0FFEFB40109900181
:10092500E67402F00208349001E674FFF002083420
:100935007BFF7A18791EC003C002C0017BFF7A17BE
:1009450079FC900174EBF0A3EAF0A3E9F09001774C
:10095500E4F0A37414F0D001D002D0031214C590B2
:1009650001E5E0FFEFB401099001E67403F0020828
:10097500349001E674FFF00208347BFF7A18798B16
:10098500C003C002C0017BFF7A187996900174EB11
:10099500F0A3EAF0A3E9F09001777403F0A374E8FB
:1009A500F0D001D002D0031214C59001E5EFF0900C
:1009B50001E5E0FFEFB401099001E67404F00208D7
:1009C500349001E674FFF00208347BFF7A18799EB3
:1009D500C003C002C0017BFF7A1879C9900174EB8E
:1009E500F0A3EAF0A3E9F09001777403F0A374E8AB
:1009F500F0D001D002D0031214C59001E5EFF090BC
:100A050001E5E0FFEFB4010F9001567401F090018C
:100A1500E67405F0020834900156E4F09001E6749E
:100A2500FFF00208347BFF7A1879D1C003C002C0F9
:100A3500017BFF7A1779FC900174EBF0A3EAF0A330
:100A4500E9F0900177E4F0A37414F0D001D002D05E
:100A5500031214C59001E5EFF09001E5E0FFEFB456
:100A650001099001E67406F00208349001E674FF6E
:100A7500F00208347BFF7A1879E0C003C002C00198
:100A85007BFF7A1779FC900174EBF0A3EAF0A3E9F8
:100A9500F0900177E4F0A37414F0D001D002D003F4
:100AA5001214C59001E5EFF09001E5E0FFEF640158
:100AB50060030208349001E674FFF002083402086E
:0D0AC50034781A7600900157E4F0A3E4F0B5
:010AD2002201
:012AB3002200
:012AB40022FF
:101A6C00900156E0FFEF64016003021B717818E6E9
:101A7C00FE08E6FFD3EF9458EE94025003021B715C
:101A8C007BFF7A1879EDC003C002C0019000CBE057
:101A9C00FBA3E0FAA3E0F989828A83D001D002D0BB
:101AAC00031217579000BAE0FFEFB401519000BF3A
:101ABC00E0FBA3E0FAA3E0F9C003C002C0017BFF86
:101ACC007A1779FC90010DEBF0A3EAF0A3E9F0D0C2
:101ADC0001D002D003122176C003C002C0017B00EA
:101AEC007A007900D082D083D0E06B7008E96582EF
:101AFC007003EA65836007900155E4F0801678184E
:101B0C00E6FE08E6FFD3EF9420EE94034096900196
:101B1C0055E004F0900155E0FFEFC39404400A90A7
:101B2C000156E4F0900155E4F09000BFE0FBA3E017
:101B3C00FAA3E0F9C003C002C001900152E0FBA37C
:101B4C00E0FAA3E0F989828A83D001D002D0037D28
:101B5C00041217579000BBE4F09000BAE4F0781828
:051B6C00760008760080
:011B71002251
:100F55009001EE7401F0900067E0FFEF640160031B
:100F650002114A7818760008760090006CE0FBA321
:100F7500E0FAA3E0F9C003C002C0017BFF7A17794C
:100F8500FF90010DEBF0A3EAF0A3E9F0D001D00248
:100F9500D003122176C003C002C0017B007A00791C
:100FA50000D082D083D0E06B7008E965827003EAD7
:100FB500658370397818E6FE08E6FFD3EF9414EEE2
:100FC500940040A69001EEE4F07BFF7A1879F7C013
:100FD50003C002C001900078E0FBA3E0FAA3E0F9AA
:100FE50089828A83D001D002D0031217579001EE6F
:100FF500E0FFEF640160030210A290006CE0FBA328
:10100500E0FAA3E0F912166DFFEF644160030210E8
:10101500A290006CE0FBA3E0FAA3E0F975820175EC
:101025008300121686FFEF6454707290007FE0FB18
:10103500A3E0FAA3E0F91217537BFF7A197901C0EF
:1010450003C002C00190006CE0FBA3E0FAA3E0F945
:1010550090010DEBF0A3EAF0A3E9F0D001D002D0A6
:10106500031204EB900082E0FBA3E0FAA3E0F9127F
:10107500175390006CE0FBA3E0FAA3E0F9C003C0AE
:1010850002C0019000CBE0FBA3E0FAA3E0F989825E
:101095008A83D001D002D003121757807090007F49
:1010A500E0FBA3E0FAA3E0F91217537BFF7A197965
:1010B5000EC003C002C00190006CE0FBA3E0FAA3E0
:1010C500E0F990010DEBF0A3EAF0A3E9F0D001D02F
:1010D50002D0031204EB900082E0FBA3E0FAA3E048
:1010E500F912175390006CE0FBA3E0FAA3E0F9C0F6
:1010F50003C002C0019000CBE0FBA3E0FAA3E0F936
:1011050089828A83D001D002D00312175790006CD0
:10111500E0FBA3E0FAA3E0F9C003C002C001900020
:1011250068E0FD900152E0FBA3E0FAA3E0F98982B3
:101135008A83D001D002D003121757900068E4F0DB
:05114500900067E4F0DA
:01114A002282
:101C6F009000BAE0FFEF64016003021D62781876FE
:101C7F00000876009000BFE0FBA3E0FAA3E0F9C0F4
:101C8F0003C002C0017BFF7A1779FF90010DEBF0C3
:101C9F00A3EAF0A3E9F0D001D002D003122176C05D
:101CAF0003C002C0017B007A007900D082D083D0BC
:101CBF00E06B7008E965827003EA65837034781809
:101CCF00E6FE08E6FFD3EF9414EE940040A67BFFE8
:101CDF007A197923C003C002C001900078E0FBA3FA
:101CEF00E0FAA3E0F989828A83D001D002D00312EF
:101CFF0017579000BFE0FBA3E0FAA3E0F9C003C0C1
:101D0F0002C001900078E0FBA3E0FAA3E0F989821A
:101D1F008A83D001D002D0031217579000BFE0FB87
:101D2F00A3E0FAA3E0F9C003C002C0019000BBE03A
:101D3F00FD900152E0FBA3E0FAA3E0F989828A83C8
:101D4F00D001D002D0031217579000BBE4F09000DF
:041D5F00BAE4F022D0
:0A14BA004701BF00000000FF271EDD
:10271E009001E7E4F0A3E4F030B20A9001C0E4F0D7
:10272E009001C2E4F09001BFE0FFEFB401299001E7
:10273E00BFE4F0C2A820B21F900146E0FBA3E0FA6E
:10274E00A3E0F989828A837F0A7E0012175720B28E
:10275E00069001C07401F09001C0E0FFEFB40125B6
:10276E009001C27401F0781876000876007818E6A9
:10277E00FE08E6FFC3EF9458EE9402500830B2ED17
:07278E009001C2E4F0D2A8A3
:012795002221
:03000300022A6B63
:102A6B00C0E0C083C0829001BF7401F0D082D083DC
:032A7B00D0E03276
:0300000002240CCB
:0C240C00787FE4F6D8FD75812702245388
:10166D00BB010689828A83E0225002E722BBFE027B
:09167D00E32289828A83E49322AE
:10168600BB010CE58229F582E5833AF583E0225019
:1016960006E92582F8E622BBFE06E92582F8E22263
:0D16A600E58229F582E5833AF583E493227D
:1016B300BB010689828A83F0225002F722BBFE0116
:0216C300F32210
:1016C500F8BB010DE58229F582E5833AF583E8F05B
:1016D500225006E92582C8F622BBFE05E92582C807
:0216E500F222EF
:1016E700A3F8E0C5F025F0F0E582158270021583B6
:0616F700E0C838F0E82213
:1016FD00BB010DE58229F582E5833AF5830217A436
:10170D005007E92582F802179BBBFE07E92582F8F1
:10171D000217CDE58229F582E5833AF5830217D6C6
:10172D00D083D082F8E4937012740193700DA3A34B
:10173D0093F8740193F5828883E47374029368605F
:06174D00EFA3A3A380DF5F
:061753008A838982E47321
:10048000E510240DF582E43401F583E00510229097
:10049000010A30070390010DE475F0011217AD0257
:1004A000166D2000E97F2ED2008018EF540F2490A3
:1004B000D43440D4FF30040BEF24BFB41A005003EF
:1004C0002461FFE511600215110514E514700205A1
:1004D0001330070E90010AE475F0011217ADEF0218
:1004E00016B30229AF7403D2078003E4C207F510E4
:1004F00090010A1217C4E4F511F513F514E5116023
:10050000077F201204C380F57512FFC201C200C22A
:1005100002C203C205C206C20812048FFF700D306A
:1005200007057F001204D4AF14AE1322B4255FC2B6
:10053000D5C20412048FFF24D0B40A00501A75F0FB
:100540000A781130D50508B6FF0106C6A426F620A4
:10055000D5047002D20380D924CFB41A00EF50041E
:10056000C2E5D2040206D5D20180C6D20080C0D234
:100570000280BCD2D580BAD20580B47F201204C3D9
:100580002002077401B5110040F1120480FF12042B
:10059000C30204FDD208D2068095120480FB120427
:1005A00080FA120480F94A4B700679A67A077BFF1D
:1005B00020022EE511602A7E008E827583001216BD
:1005C0008660060EEE651270F0C2D5EBC0E0EAC0A0
:1005D000E0E9C0E0EE12071CD0E0F9D0E0FAD0E08C
:1005E000FB12166DFF60AAEBC0E0EAC0E0E9C0E0D4
:1005F0001204C3D0E02401F9D0E03400FAD0E0FBCB
:10060000E5120460DCD512D980877BFF7A07791860
:10061000D202809C791080027908C206C208800844
:10062000D2D5790A8004790AC2D5E512047002F5A0
:1006300012E4FAFDFEFF120480FC7B082001131275
:100640000480FD7B1030000A120480FE120480FF3B
:100650007B20EC3382D592D55013C3E43000069F43
:10066000FFE49EFEE42001039DFDE49CFCE4CBF846
:10067000C201EC700CCFCECDCCE824F8F870F3803A
:1006800017C3EF33FFEE33FEED33FDEC33FCEB33FA
:10069000FB994002FB0FD8E9EB300105F8D0E0C42C
:1006A00048B201C0E00AEC4D4E4F78207B0070C28A
:1006B000EAB5120040BCC0E012071ED0F0D0E02026
:1006C0000104C4C0E0C4B201C0F01204ACD0F0D543
:1006D000F0EB0204FD12172D059A53061458056B12
:1006E0004C05674206184F06204406204905804302
:0806F000062655060A46060A1B
:1006F80045060A4707C650056F2D05732E05962B2C
:1007080005772305942007AF2A052F480000058E9A
:100718003F3F3F00790AA2D5200314300509B910DC
:10072800020404B9080104A2D520060250010420DD
:1007380002689202B511005034C0E07F20300319DE
:100748007F30A20272067205500F120775C202C2EC
:1007580006C205C2087F30800F300503E9C0E012E9
:1007680004C3300503D0E0F9D0E0B511CC3005174B
:100778007F30B9100C1204C37F583004077F78808B
:1007880003B908031204C33002057F2D0204C37F96
:10079800202008F87F2B2006F322920280CF286EB3
:1007A800756C6C2900D2011204803001F8C20178FE
:1007B8001130D50108F602052F2D5043495812046F
:1007C800802403B405004001E49007C1931204B4E7
:0D07D800743A1204B4D20375110402061421
:1021760090010AEBF0A3EAF0A3E9F0A3E0FBA3E0E9
:10218600FAA3E0F912166D700302222290010AE00A
:10219600FBA3E0FAA3E0F912166D700302222E905B
:1021A600010DE0F9A3E0FAA3E0A3C9F0A3EAF0A3C6
:1021B600E9F090010AA3E0FAA3E0F9900113EBF02D
:1021C600A3EAF0A3E9F0900110E0FBA3E0FAA3E094
:1021D600F912166DFF6026900113E0FBA3E0FAA347
:1021E600E0F912166D6F701590011175F001121756
:1021F60085900114E475F00112178580C9900110CD
:10220600E0FBA3E0FAA3E0F912166D7002800D90D0
:10221600010BE475F00112178502219290010AE084
:0F222600FBA3E0FAA3E0F9227B007A0079002203
:10175900EF4E6012EF60010EEDBB010B89828A83A7
:10176900F0A3DFFCDEFA2289F05007F709DFFCA9B4
:0C177900F022BBFEFCF309DFFCA9F0220B
:10241800022498E493A3F8E493A34003F68001F21E
:1024280008DFF48029E493A3F85407240CC8C333C5
:10243800C4540F4420C8834004F456800146F6DF94
:10244800E4800B0102040810204080901310E47E01
:10245800019360BCA3FF543F30E509541FFEE49389
:10246800A360010ECF54C025E060A840B8E493A350
:10247800FAE493A3F8E493A3C8C582C8CAC583CA7B
:10248800F0A3C8C582C8CAC583CADFE9DEE780BE33
:0114C4000027
:10178500C5F0F8A3E028F0C5F0F8E58215827002EF
:061795001583E038F0228C
:09179B00E6FB08E6FA08E6F92273
:0917A400E0FBA3E0FAA3E0F92246
:1017AD00F8E0FBA3A3E0F925F0F0E58215827002C5
:0717BD001583E0FA38F02269
:0917C400EBF0A3EAF0A3E9F02226
:0917CD00E2FB08E2FA08E2F9224D
:0C17D600E493FB740193FA740293F9226F
:00000001FF
