:0A44220052756E6E696E67210A0084
:031943000126007A
:10344400900295E4F09001DCE0FBA3E0FAA3E0F93C
:103454001207AE7BFF7A447922C003C002C00190F8
:103464000078E0FBA3E0FAA3E0F989828A83D00123
:10347400D002D0031207B2900224E0FBA3E0FAA327
:10348400E0F91207AE900220E0FCA3E0FDA3E0FE09
:10349400A3E0FF12039BEF75F00A84FD900210E095
:1034A400FBA3E0FAA3E0F989828A837F011207B2C1
:1034B400900220E0FCA3E0FDA3E0FEA3E0FF1203E2
:1034C4009BEF75F00A84ADF0900210E0FBA3E0FAE4
:1034D400A3E0F989828A837F021207B290014EE049
:1034E400FBA3E0FAA3E0F989828A837FF47E0112C8
:1034F40007B29001AAE0FBA3E0FAA3E0F91207AE39
:0335040002347B13
:0135070022A1
:0C440B0057694669204572726F720A0002
:1019460054013A0000000000000000000000000002
:10195600000000000000004F014EFF40CEFF425F36
:09196600FF003FFF4448FF41501F
:10425F007BFF7A44790BC003C002C001900078E065
:10426F00FBA3E0FAA3E0F989828A83D001D002D0C0
:05427F00031207B2224A
:04003F0043C7202271
:03444800B2B422E9
:1041500090025DEBF0A3EAF0A3E9F0900260EDF0CD
:10416000900260E0FF7E007D0090025DE0FBA3E036
:10417000FAA3E0F91207B490014EE0FBA3E0FAA322
:0E418000E0F989828A837F0A7E001207B2224C
:0840CE00900261EEF0A3EFF097
:1040D600900263E4F0A3E4F0900261E0FEA3E0FF47
:1040E600900263E0FCA3E0FDC3ED9FEE6480F8EC74
:1040F60064809850131242FA900264E004F070064D
:08410600900263E004F080D098
:01410E00228E
:1042FA0000000075150B7516BE1516AF16EF70F98E
:07430A001515AF15EF70F26D
:014311002289
:0F196F004C01C7FF000EFF4329FF433EFF431209
:10000E0075B10475B21020B304D2B480F930B3F6D2
:05001E00C2B480F222D3
:1043290075B10475B21420B204D2B480F930B2F672
:05433900C2B480F22275
:10433E0075B10475B21020B204D2B480F930B2F661
:05434E00C2B480F22260
:1043120075B10475B210D2B320B304D2B480F930AF
:07432200B3F6C2B480F222E1
:104353004E6F74206861766520382042797465A3B6
:04436300A1A3A10071
:10197E006032003200000000000000000000000095
:10198E000000000000000000000000000000000049
:10199E000000000000000000000000000000000039
:1019AE000000000000006032000000000000000097
:1019BE000000000000000000000000000000000019
:1019CE000000000000000000000000000000000009
:1019DE000000000000000000000000006021006414
:1019EE000003000000010000010032FF3508FF3F38
:1019FE0061FF388BFF3745FF32AC01FF0026FF42F7
:011A0E00C80F
:10350800900064E0FFEF1207883518000000351DB1
:1035180075985080037598D090007EE0FFEF1207F1
:1035280088353600353B013536020000354153A257
:103538003F800653A27F43A24075870053890F43FB
:103548008E40538EFE900065E0FFEF1207883566C7
:1035580000356E01357602357E0300003586758BA1
:10356800C0758DFD801E758BE0758DFE8016758B80
:1035780070758DFF800E758BE8758DFF8006758BD5
:10358800C0758DFDC2ABD28ED29C90006CE0FBA3BF
:10359800E0FAA3E0F9C003C002C00190015AE0FBC1
:1035A800A3E0FAA3E0F989828A83D001D002D0038C
:1035B8007D321207B2900067E4F0900068E4F022D0
:053F6100900296EFF054
:103F6600900066E0FFEF640160F6900064E0FFEF0A
:103F76006028900296E0FFEFA2D0920D900064E0D8
:103F8600FFEF1207883F95013F9C0200003FA0A269
:103F96000DB3929B8004A20D929B9000667401F073
:073FA600900296E0FF8F99E5
:013FAD0022F1
:0B374500900275EBF0A3EAF0A3E9F09E
:10375000781E760008760090007EE0FFEFB4010E40
:1037600090007FE0FBA3E0FAA3E0F91207AE90021D
:1037700075E0FBA3E0FAA3E0F9781EE6FE08E6FF99
:103780008F828E83120634FFEF6036900275E0FB65
:10379000A3E0FAA3E0F9781EE6FE08E6FF8F828E2A
:1037A00083120634FF900072E0FBA3E0FAA3E0F975
:1037B00089828A831207B2781F06E6187001068094
:1037C000AD900066E0FFEF640160F690007EE0FFE0
:1037D000EFB4012490014EE0FBA3E0FAA3E0F989E5
:1037E000828A837F017E001207B2900082E0FBA3F1
:0837F000E0FAA3E0F91207AEB4
:0137F80022AE
:10388B00900265EBF0A3EAF0A3E9F0900268EDF08B
:10389B0090007EE0FFEFB4010E90007FE0FBA3E011
:1038AB00FAA3E0F91207AE900268E0FF14F0EF60A4
:1038BB0028900265E0FBA3E475F0011206ABA9F0BA
:1038CB00FA12061BFF900072E0FBA3E0FAA3E0F9EB
:1038DB0089828A831207B280CE900066E0FFEF6484
:1038EB000160F690007EE0FFEFB4012490014EE002
:1038FB00FBA3E0FAA3E0F989828A837F017E0012A1
:10390B0007B2900082E0FBA3E0FAA3E0F91207AE46
:01391B002289
:10428400900297EFF0900297E0FF900072E0FBA39A
:10429400E0FAA3E0F989828A831207B2900297E0D8
:0242A400FF22F7
:10002600D2A090014EE0FBA3E0FAA3E0F989828A10
:09003600837F027E001207B22252
:1042C80090014EE0FBA3E0FAA3E0F989828A837F9C
:0942D800027E001207B2C2A0220E
:1032AC00D20E900067E0FFEF640160030233779069
:1032BC00006CE0FBA3E0FAA3E0F9AE02AF01EF4E25
:1032CC00607178187600087600900068E0FFEFC314
:1032DC00940850127818E6FE08E6FFC3EF9414EE3B
:1032EC00940040E5C20E300E257B017A007964C053
:1032FC0003C002C0017823860308E6FA08E6F989C0
:10330C00828A83D001D002D0031207B280259000AC
:10331C007FE0FBA3E0FAA3E0F91207AE7BFF7A4350
:10332C007953120872900082E0FBA3E0FAA3E0F953
:10333C001207AE90006CE0FBA3E0FAA3E0F9C00327
:10334C00C002C001900068E0FD90015AE0FBA3E0D0
:10335C00FAA3E0F989828A83D001D002D003120744
:0B336C00B2900067E4F0900068E4F00D
:013377002233
:030023000230FAAE
:0B30FA00C0E0C083C082C0D075D008C9
:10310500309907C299900066E4F02098030231CA0D
:10311500C298900298E599F0A29A9209900298E0D7
:10312500FFEFA2D0920A900068E0FFEFC39432400F
:10313500030231C4900064E0FFEF12078831A40058
:10314500314F01317A02000031C4A209B3300A01BE
:10315500B3406C900298E0FF90006CE0FBA3E0FAAE
:10316500A3E0F9900068E0FE04F08E82758300EF1D
:10317500120673804AA20A300901B34042900298B0
:10318500E0FF90006CE0FBA3E0FAA3E0F990006893
:10319500E0FE04F08E82758300EF120673802090A6
:1031A5000298E0FF90006CE0FBA3E0FAA3E0F99041
:1031B5000068E0FE04F08E82758300EF12067390BE
:0531C50000677401F039
:0931CA00D0D0D082D083D0E032D5
:0F1A0F004C01D3FF4046FF43F0FF41CBFF36872A
:1040460075930075940C75800075911075920853E0
:1040560090F775957C75967D53A0FE75B14475B243
:10406600B0C2B575C90075CAFFD2CCC2CD90014E9B
:10407600E0FBA3E0FAA3E0F989828A837F027E004F
:044086001207B22249
:0E43F000D2A8D288D2A9D2AC43AF01D2AF225C
:1041CB00900299E4F0900299E4F0900299E0FFEFED
:1041DB00C394055020B2B490014EE0FBA3E0FAA3C8
:1041EB00E0F989828A837F327E001207B2900299AE
:0541FB00E004F080D596
:01420000229B
:1036870090014EE0FBA3E0FAA3E0F989828A837FE9
:10369700647E001207B29001D3E0FBA3E0FAA3E037
:1036A700F91207AE9001D9E0FBA3E0FAA3E0F91203
:1036B70007AE9001D6E0FBA3E0FAA3E0F91207AE4C
:1036C700781B860308E6FA08E6F91207AE90006F42
:1036D700E0FBA3E0FAA3E0F91207AE9000C2E0FB1B
:1036E700A3E0FAA3E0F91207AE900161E0FBA3E0C3
:1036F700FAA3E0F91207AE90020DE0FBA3E0FAA3EC
:10370700E0F91207AE9001BBE0FBA3E0FAA3E0F9F2
:103717001207AE90017AE0FBA3E0FAA3E0F91207E3
:10372700AE9001F8E0FBA3E0FAA3E0F91207AE9030
:0E373700019EE0FBA3E0FAA3E0F91207AE2228
:0A1A1E0047023200000000FF2F3ED7
:102F3E0090022AEBF0A3EAF0A3E9F090022DEDF057
:102F4E0090022EE4F0A3E4F0900230E4F09002310F
:102F5E00E4F090022E74FFF0A374FFF0900230E4C0
:102F6E00F090022DE0FF900230E0FEEEC39F400392
:102F7E0002301790022EE0FEA3E0FF90022AE0FB43
:102F8E00A3E0FAA3E0F9900230E0FD8D8275830094
:102F9E00120634FD7C00EE6CFEEF6DFF90022EEEFD
:102FAE00F0A3EFF0900231E4F0900231E0FFEFC3B6
:102FBE009408504C90022EE0FEA3E0FFEF30E0218B
:102FCE0090022EE0FEA3E0FFEEC313FEEF13FFEE22
:102FDE0064A0FEEF6401FF90022EEEF0A3EFF080EE
:102FEE001790022EE0FEA3E0FFEEC313FEEF13FFD9
:102FFE0090022EEEF0A3EFF0900231E004F080A9E3
:10300E00900230E004F0022F6F90022EE0FEA3E05B
:01301E00FFB2
:01301F00228E
:103BBE00435243313620436865636B204552524F62
:103BCE0052A3A1A3A1005265676973742061646456
:103BDE0072657373206F7574206F662072616E67E5
:103BEE0065A3A1A3A1307E390A004F6E6C792072B5
:103BFE006561642074776F20726567697374206FD6
:103C0E006E6365A3A1A3A10A005265676973742050
:103C1E0061646472657373206F7574206F662072B1
:0E3C2E00616E676532A3A1A3A1307E390A0042
:061A2800042201FF2176FB
:0B217600900247EBF0A3EAF0A3E9F0B1
:10218100900247E0FBA3E0FAA3E0F990024AEBF0EA
:10219100A3EAF0A3E9F090024AE0FBA3E0FAA3E08E
:1021A100F975820875830012075812061BFF782201
:1021B100E6FEEF6E600302233A90024AE0FBA3E0E1
:1021C100FAA3E0F9758208758300120758C003C0AD
:1021D10002C001900236E0FBA3E0FAA3E0F9898294
:1021E1008A83D001D002D0037D061207B290023259
:1021F100EEF0A3EFF0900232E0FEA3E0FFEEFF7EEF
:1022010000900234EFF0900232E0FEA3E0FF900272
:1022110035EFF090024AE0FBA3E0FAA3E0F9758202
:1022210008758300120758758206758300120634FB
:10223100FF900235E0FEEFB5062790024AE0FBA3CE
:10224100E0FAA3E0F97582087583001207587582D8
:1022510007758300120634FF900234E0FEEF6E60D2
:102261005190024AE0FBA3E0FAA3E0F975820875F8
:102271008300120758758206758300120634FF9099
:102281000234E0FEEF6E600302231590024AE0FB88
:10229100A3E0FAA3E0F97582087583001207587567
:1022A1008207758300120634FF900235E0FEEF6E5F
:1022B100706290024AE0FBA3E0FAA3E0F97582089C
:1022C100758300120758758201758300120634FF69
:1022D100EFB4030F90024AE0FBA3E0FAA3E0F91286
:1022E1000C8A2290024AE0FBA3E0FAA3E0F975828E
:1022F1000875830012075875820175830012063430
:10230100FFEFB4063490024AE0FBA3E0FAA3E0F940
:10231100121D8A2290007FE0FBA3E0FAA3E0F912EC
:1023210007AE7BFF7A3B79BE120872900082E0FB18
:09233100A3E0FAA3E0F91207AEE3
:01233A002280
:0B0C8A009001ADEBF0A3EAF0A3E9F04D
:100C95009001ADE0FBA3E0FAA3E0F99001B0EBF021
:100CA500A3EAF0A3E9F09001B3E4F0A3E4F0900126
:100CB500B5E4F0A3E4F09001B77403F09001B0E05F
:100CC500FBA3E0FAA3E0F9758208758300120758C3
:100CD500758202758300120634FF7E009001B3E031
:100CE500FCA3E0FDEF2DFFEE3CFEEF7F00FE900143
:100CF500B0E0FBA3E0FAA3E0F97582087583001262
:100D05000758758203758300120634FD7C00EF2DAC
:100D1500FFEE3CFE9001B3EEF0A3EFF09001B0E0E2
:100D2500FBA3E0FAA3E0F975820875830012075862
:100D3500758204758300120634FF7E009001B5E0CC
:100D4500FCA3E0FDEF2DFFEE3CFEEF7F00FE9001E2
:100D5500B0E0FBA3E0FAA3E0F97582087583001201
:100D65000758758205758300120634FD7C00EF2D4A
:100D7500FFEE3CFE9001B5EEF0A3EFF09001B5E07B
:100D8500FEA3E0FF9001B3E0FCA3E0FDED2FFFEC37
:100D95003EFED3EF940AEE940040030210599001F1
:100DA500B5E0FEA3E0FFD3EF9400EE9400500302FC
:100DB50010599001B5E0FEA3E0FFC3EF9403EE9454
:100DC5000040030210597822E6FF9001B0E0FBA332
:100DD500E0FAA3E0F9758205758300120758EF1252
:100DE50006619001B0E0FBA3E0FAA3E0F975820586
:100DF5007583001207587582017583007403120606
:100E0500739001B5E0FEA3E0FFEF25E0FF9001B090
:100E1500E0FBA3E0FAA3E0F97582057583001207EC
:100E250058758202758300EF1206739001B8E4F0DD
:100E35009001B8E0FF7E009001B5E0FCA3E0FDC3A2
:100E4500EF9DEE9C4003020F7D9001B8E0FF9001FD
:100E5500B9EFF09001B8E0FF7E00EF2401FFEE341A
:100E650000FE9001B9E0FD7C00D3ED9FEE6480F8B3
:100E7500EC6480984003020F6D9001B8E0FF90018B
:100E8500B9E0FEEE6F706F9001B8E0FF7E00900153
:100E9500B3E0FCA3E0FDEF2DFFEE3CFEEF25E0FF08
:100EA500EE33FE743A2FF58274013EF583E0FEA31E
:100EB500E0FFEEFF7E009001B0E0FBA3E0FAA3E0C7
:100EC500F9758205758300120758E92403F9EA3498
:100ED50000FA9001B8E0FEEEFD7C00E92DF9EA3C50
:100EE500FA9001B9E0FEEEFD7C00E92DF9EA3CFA45
:100EF500EF12066180699001B8E0FF7E009001B3B2
:100F0500E0FCA3E0FDEF2DFFEE3CFEEF25E0FFEE5C
:100F150033FE743A2FF58274013EF583E0FEA3E0BB
:100F2500FF9001B0E0FBA3E0FAA3E0F97582057537
:100F35008300120758E92403F9EA3400FA9001B84E
:100F4500E0FEEEFD7C00E92DF9EA3CFA9001B9E0FE
:100F5500FEEEFD7C00E92DF9EA3CFAEF1206619000
:100F650001B9E004F0020E589001B7E02402F090B8
:100F750001B8E004F0020E359001B0E0FBA3E0FA01
:100F8500A3E0F9758205758300120758C003C002F6
:100F9500C0019001B7E0FD900236E0FBA3E0FAA3A3
:100FA500E0F989828A83D001D002D0031207B2907A
:100FB5000232EEF0A3EFF0900232E0FEA3E0FF90E4
:100FC50001B0E0FBA3E0FAA3E0F9758205758300A3
:100FD5001207589001B7E0FE04F08E82758300EF8A
:100FE500120673900232E0FEA3E0FFEEFF7E009052
:100FF50001B0E0FBA3E0FAA3E0F975820575830073
:101005001207589001B7E0FE04F08E82758300EF59
:101015001206739001B0E0FBA3E0FAA3E0F9758234
:1010250005758300120758C003C002C0019001B7BF
:10103500E0FD9001B0E0FBA3E0FAA3E0F9758211B1
:1010450075830012075889828A83D001D002D003A4
:101055001207B2229001B5E0FEA3E0FF9001B3E0D4
:10106500FCA3E0FDED2FFFEC3EFED3EF940AEE94DA
:1010750000402690007FE0FBA3E0FAA3E0F9120709
:10108500AE7BFF7A3B79D4120872900082E0FBA315
:10109500E0FAA3E0F91207AE2290007FE0FBA3E09F
:1010A500FAA3E0F91207AE7BFF7A3B79F8120872D2
:0E10B500900082E0FBA3E0FAA3E0F91207AE80
:0110C300220A
:0B1D8A009001EBEBF0A3EAF0A3E9F0FE
:101D95009001EBE0FBA3E0FAA3E0F99001EEEBF094
:101DA500A3EAF0A3E9F09001F1E4F0A3E4F09001D7
:101DB500F3E4F0A3E4F09001F5E4F09001F5E0FF21
:101DC500EFC39408504C9001EEE0FBA3E0FAA3E0CA
:101DD500F97582087583001207589001F5E0FF8FA9
:101DE50082758300120634FF9001EEE0FBA3E0FA52
:101DF500A3E0F97582057583001207589001F5E097
:101E0500FE8E82758300EF1206739001F5E004F0F3
:101E150080A99001EEE0FBA3E0FAA3E0F975820545
:101E2500758300120758C003C002C0019001EEE09F
:101E3500FBA3E0FAA3E0F975821175830012075838
:101E450089828A83D001D002D0037D081207B2901F
:101E550001EEE0FBA3E0FAA3E0F9758208758300C3
:101E6500120758758202758300120634FF7E0090B2
:101E750001F1E0FCA3E0FDEF2DFFEE3CFEEF7F005E
:101E8500FE9001EEE0FBA3E0FAA3E0F97582087588
:101E95008300120758758203758300120634FD7C92
:101EA50000EF2DFFEE3CFE9001F1EEF0A3EFF09078
:101EB50001EEE0FBA3E0FAA3E0F975820875830063
:101EC500120758758204758300120634FF7E009050
:101ED50001F1E0FCA3E0FDEF2DFFEE3CFEEF7F00FE
:101EE500FE9001EEE0FBA3E0FAA3E0F97582087528
:101EF5008300120758758205758300120634FD7C30
:101F050000EF2DFFEE3CFE9001F3EEF0A3EFF09015
:101F150001F1E0FEA3E0FFD3EF9409EE9400503504
:101F25009001F1E0FEA3E0FFC3EE9400402790018D
:101F3500F3E0FCA3E0FD9001F1E0FEA3E0FFEF2557
:101F4500E0FFEE33FE743A2FF58274013EF583EC23
:101F5500F0A3EDF02290007FE0FBA3E0FAA3E0F907
:101F65001207AE7BFF7A3C7917120872900082E067
:0A1F7500FBA3E0FAA3E0F91207AEA7
:011F7F00223F
:091A2E00071700000000FF43A0AF
:1043A000538E7F5389F0758A00758CEEC28DD28C46
:0143B00022EA
:03000B000237F9C0
:1037F900C0E0C0F0C083C082C0D075D000C000C096
:1038090001C002C003C004C005C006C007781AE69B
:10381900FFEFB4011F781706E6FFEFC3940A4031A2
:1038290078177600900157E0FBA3E0FAA3E0F912BC
:1038390007AE801D781706E6FFEFC394C8401278DB
:10384900177600900157E0FBA3E0FAA3E0F912070D
:10385900AE781906E618700106900160E004F07070
:103869000690015FE004F0D007D006D005D004D05F
:1038790003D002D001D000D0D0D082D083D0F0D0F4
:02388900E0322B
:104367004E6F74206861766520382042797465A3A2
:04437700A1A3A1005D
:101A3700603200D800000000000000000000000035
:101A4700000000000000000000000000000000008F
:101A5700000000000000000000000000000000007F
:101A67000000000000006032008500000000000058
:101A7700000000000000000000000000000000005F
:101A8700000000000000000000000000000000004F
:101A9700000000000000000000000000602100B707
:101AA70000030000000100850100D8FF39A8FF3CB2
:101AB7003CFF3FAEFF3D2CFF337800FF444EFF4411
:011AC7004FCF
:1039A800759A50438E0453BAFE900065E0FFEF12FB
:1039B800078839CA0039D20139DA0239E20300002E
:1039C80039EA75D7C075D6FD801E75D7E075D6FE65
:1039D800801675D77075D6FF800E75D7E875D6FF37
:1039E800800675D7C075D6FD53AFFB438E10439A3A
:1039F800109000BFE0FBA3E0FAA3E0F9C003C00207
:103A0800C00190015AE0FBA3E0FAA3E0F989828A99
:103A180083D001D002D0037D321207B29000BAE4FD
:073A2800F09000BBE4F02266
:053C3C00900281EFF091
:103C4100900282E4F09000B9E0FFEF640160F69029
:103C510000B7E0FFEF6054900281E0FFEFA2D0E4F3
:103C610033FF900282E0FEEF2EFFEF33333354F83F
:103C7100FF900282EFF09000B7E0FFEF1207883C5F
:103C81008A013C9C0200003CAC900282E0FFEF7094
:103C910005439A088015539AF78010900282E0FF3D
:103CA100EF7005539AF78003439A089000B97401A5
:083CB100F0900281E0FF8F9BFF
:013CB90022E8
:0B3D2C00900269EBF0A3EAF0A3E9F0BD
:103D370090026CE4F0900269E0FBA3E0FAA3E0F9DB
:103D470090026CE0FF8F82758300120634FFEF60EC
:103D570033900269E0FBA3E0FAA3E0F990026CE07C
:103D6700FF8F82758300120634FF9000C5E0FBA326
:103D7700E0FAA3E0F989828A831207B290026CE025
:0E3D870004F080B19000B9E0FFEF640160F637
:013D9500220B
:103FAE0090026DEBF0A3EAF0A3E9F0900270EDF051
:103FBE00900270E0FF14F0EF602890026DE0FBA31A
:103FCE00E475F0011206ABA9F0FA12061BFF900081
:103FDE00C5E0FBA3E0FAA3E0F989828A831207B257
:0D3FEE0080CE9000B9E0FFEF640160F62284
:10337800D20F9000BAE0FFEF64016003023443907B
:1033880000BFE0FBA3E0FAA3E0F9AE02AF01EF4E05
:103398006071781876000876009000BBE0FFEFC3F4
:1033A800940850127818E6FE08E6FFC3EF9414EE6E
:1033B800940040E5C20F300F257B017A0079B7C031
:1033C80003C002C0017823860308E6FA08E6F989F3
:1033D800828A83D001D002D0031207B280259000E0
:1033E8007FE0FBA3E0FAA3E0F91207AE7BFF7A4384
:1033F8007967120872900082E0FBA3E0FAA3E0F973
:103408001207AE9000BFE0FBA3E0FAA3E0F9C00307
:10341800C002C0019000BBE0FD90015AE0FBA3E0B0
:10342800FAA3E0F989828A83D001D002D003120777
:0B343800B29000BBE4F09000BAE4F09A
:013443002266
:01444E00224B
:01444F00224A
:03004300022D4D3E
:102D4D00C0E0C083C082C0D075D000C000C001C03B
:072D5D0002C003C006C0071D
:102D6400E59A30E108539AFD9000B9E4F0E59A2021
:102D7400E003022E35539AFE7827A69BE59A540465
:102D8400FFEF1313543FFFEF24FF920B7827E6FF66
:102D9400EFA2D0920C9000BBE0FFEFC3943240034B
:102DA400022E2F9000B7E0FFEF1207882E10002D9F
:102DB400BD012DE70200002E2FA20BB3300C01B38E
:102DC40040697827E6FF9000BFE0FBA3E0FAA3E0A8
:102DD400F99000BBE0FE04F08E82758300EF1206CA
:102DE400738048A20C300B01B340407827E6FF9073
:102DF40000BFE0FBA3E0FAA3E0F99000BBE0FE040F
:102E0400F08E82758300EF120673801F7827E6FF29
:102E14009000BFE0FBA3E0FAA3E0F99000BBE0FE62
:102E240004F08E82758300EF1206739000BA740169
:012E3400F0AD
:102E3500D007D006D003D002D001D000D0D0D082A8
:052E4500D083D0E03253
:10264D0041540D0A005769466920496E697420741A
:10265D00696D656F757421210A004F4B000D0A00DD
:10266D004578697420546F75436875616E2D2D2DF5
:10267D002D0A002B00415445300D0A0041542B43C7
:10268D00574D4F44455F4445463D310D0A00415479
:10269D002B43574155544F434F4E4E0D0A00415455
:1026AD002B43574A41505F4445463D22B5CEB5CEEA
:1026BD00B5CE222C227A6E68786B68333039220DB4
:1026CD000A005749464920474F54204950002B2BAB
:1026DD002B0053746174653D2562642C4F4B5F462E
:1026ED006C61673D2562640A0041542B4349465392
:1026FD00520D0A003139322E3136380041542B43F8
:10270D00495053544152543D22544350222C2231AE
:10271D0039322E3136382E3130312E313034222CA3
:10272D00383838380D0A00434F4E4E45435400415A
:10273D00542B4349504D4F44453D310D0A004154F2
:10274D002B43495053454E440D0A0052756E6E6928
:10275D006E67210A0054696D654F7574210A005327
:10276D00656E6420646174613D2573004E6F742045
:10277D00415420436F6D6D616E6421213D25730AB7
:10278D0000526563656976652054696D654F757492
:03279D00210A000E
:101AC80055015E000000FF27A0FF16B7FF13C9FFEE
:101AD8004450FF4451FF2C47460173FF1F80FF2EDF
:051AE8004A41015D0010
:1027A000C28390014EE0FBA3E0FAA3E0F989828A9C
:1027B000837F647E001207B2D283D28278187600BB
:1027C000087600781A76019000BFE0FBA3E0FAA338
:1027D000E0F9C003C002C0019000BBE0FD90015AC7
:1027E000E0FBA3E0FAA3E0F989828A83D001D0025A
:1027F000D0031207B29000BBE4F09000BAE4F07B83
:10280000FF7A26794DC003C002C0019000CBE0FBE7
:10281000A3E0FAA3E0F989828A83D001D002D00331
:102820001207B290014EE0FBA3E0FAA3E0F989821F
:102830008A837F647E001207B27818E6FE08E6FFFE
:10284000D3EF94E8EE940340267BFF7A267952C0BA
:1028500003C002C001900078E0FBA3E0FAA3E0F916
:1028600089828A83D001D002D0031207B2804D90B2
:1028700000BFE0FBA3E0FAA3E0F9C003C002C0017F
:102880007BFF7A26796790010DEBF0A3EAF0A3E9CC
:10289000F0D001D002D0031235C8C003C002C0017D
:1028A0007B007A007900D082D083D0E06B7008E999
:1028B00065827003EA658370030227C790014EE0CA
:1028C000FBA3E0FAA3E0F989828A837FE87E031202
:0728D00007B2781A7600221E
:0B233B0090018FEBF0A3EAF0A3E9F0A3
:102346009001977401F090018FE0FBA3E0FAA3E0FF
:10235600F9900198EBF0A3EAF0A3E9F0900192E07E
:10236600FBA3E0FAA3E0F990019BEBF0A3EAF0A34C
:10237600E9F09000BFE0FBA3E0FAA3E0F9C003C0D8
:1023860002C0019000BBE0FD90015AE0FBA3E0FA19
:10239600A3E0F989828A83D001D002D0031207B262
:1023A6009000BBE4F09000BAE4F0900198E0FBA343
:1023B600E0FAA3E0F9C003C002C0019000CBE0FB45
:1023C600A3E0FAA3E0F989828A83D001D002D00380
:1023D6001207B2781876000876009000BFE0FBA3DB
:1023E600E0FAA3E0F9C003C002C0017BFF7A2679B8
:1023F6006A90010DEBF0A3EAF0A3E9F0D001D00258
:10240600D0031235C8C003C002C0017B007A007930
:1024160000D082D083D0E06B7008E965827003EA51
:102426006583604F9000BFE0FBA3E0FAA3E0F9C02C
:1024360003C002C001900192E0FBA3E0FAA3E0F919
:1024460090010DEBF0A3EAF0A3E9F0D001D002D0A1
:10245600031235C8C003C002C0017B007A007900B0
:10246600D082D083D0E06B7008E965827003EA659C
:1024760083702C900195E0FEA3E0FF7818E6FC0837
:10248600E6FDD3ED9FEC9E50030223E0900151E060
:10249600FBA3E0FAA3E0F91207AE900197E4F090EF
:1024A60000BFE0FBA3E0FAA3E0F9C003C002C0014D
:1024B6009000BBE0FD90015AE0FBA3E0FAA3E0F92F
:1024C60089828A83D001D002D0031207B29000BB62
:0C24D600E4F09000BAE4F0900197E0FF01
:0124E20022D7
:1016B70090023CE0FFEF64016003021942781A765A
:1016C7000190015EE0FFEF6401600302177B7BFF7F
:1016D7007A26796DC003C002C001900078E0FBA3B1
:1016E700E0FAA3E0F989828A83D001D002D00312FD
:1016F70007B27BFF7A267980C003C002C001900041
:10170700CBE0FBA3E0FAA3E0F989828A83D001D07A
:1017170002D0031207B27BFF7A267980C003C0028A
:10172700C0019000CBE0FBA3E0FAA3E0F989828A2D
:1017370083D001D002D0031207B27BFF7A267980CB
:10174700C003C002C0019000CBE0FBA3E0FAA3E016
:10175700F989828A83D001D002D0031207B290019F
:101767004EE0FBA3E0FAA3E0F989828A837FE87E53
:10177700031207B27BFF7A26794DC003C002C0016E
:101787007BFF7A267967900192EBF0A3EAF0A3E951
:10179700F0900195E4F0A37414F0D001D002D003C7
:1017A70012233B7BFF7A267982C003C002C0017BEC
:1017B700FF7A267967900192EBF0A3EAF0A3E9F0AC
:1017C700900195E4F0A37414F0D001D002D0031275
:1017D700233B7BFF7A267989C003C002C0017BFFC8
:1017E7007A267967900192EBF0A3EAF0A3E9F090EB
:1017F7000195E4F0A37414F0D001D002D0031223B2
:101807003B7BFF7A26799BC003C002C0017BFF7A2E
:10181700267967900192EBF0A3EAF0A3E9F0900133
:1018270095E4F0A37414F0D001D002D00312233B47
:101837007BFF7A2679ABC003C002C0017BFF7A2603
:101847007967900192EBF0A3EAF0A3E9F090019594
:10185700E4F0A374C8F0D001D002D00312233B7880
:101867001876000876007818E6FE08E6FFC3EF94BE
:10187700A0EE948C40030219309000BFE0FBA3E078
:10188700FAA3E0F9C003C002C0017BFF7A2679CF33
:1018970090010DEBF0A3EAF0A3E9F0D001D002D05C
:1018A700031235C8C003C002C0017B007A0079006B
:1018B700D082D083D0E06B7008E965827003EA6557
:1018C7008360A37BFF7A2679CFC003C002C0019053
:1018D7000078E0FBA3E0FAA3E0F989828A83D001CC
:1018E700D002D0031207B290014EE0FBA3E0FAA3A7
:1018F700E0F989828A837FE87E031207B290014E5E
:10190700E0FBA3E0FAA3E0F989828A837FE87E03FC
:101917001207B290014EE0FBA3E0FAA3E0F9898237
:101927008A837FE87E031207B2781A760090015403
:0C193700E0FBA3E0FAA3E0F91207AE22E7
:1013C900900283E4F0900284E4F07BFF7A2679DBD3
:1013D900C003C002C0019000CBE0FBA3E0FAA3E088
:1013E900F989828A83D001D002D0031207B2900111
:1013F9004EE0FBA3E0FAA3E0F989828A837FE87EC5
:10140900031207B278187600087600781A760190E8
:101419000284E0FFEF64FF70030216AA90007FE0E8
:10142900FBA3E0FAA3E0F91207AE7BFF7A2679DF86
:10143900900284E0FF90010DEFF0900283E0FF90AD
:10144900010EEFF0120872900082E0FBA3E0FAA30C
:10145900E0F91207AE900284E0FFEF1207881480CA
:101469000014CF0115190215630315B304160E05EF
:10147900165D06000014187BFF7A26794DC003C05B
:1014890002C0017BFF7A267967900192EBF0A3EA0B
:10149900F0A3E9F0900195E4F0A37414F0D001D021
:1014A90002D00312233B900283EFF0900283E0FF06
:1014B900EFB401099002847401F0021418900284B7
:1014C90074FFF00214187BFF7A267982C003C002E8
:1014D900C0017BFF7A267967900192EBF0A3EAF0CD
:1014E900A3E9F0900195E4F0A37414F0D001D002BF
:1014F900D00312233B900283E0FFEFB4010990026D
:10150900847402F002141890028474FFF002141813
:101519007BFF7A267989C003C002C0017BFF7A2646
:101529007967900192EBF0A3EAF0A3E9F0900195B5
:10153900E4F0A37414F0D001D002D00312233B903D
:101549000283E0FFEFB401099002847403F00214EE
:101559001890028474FFF00214187BFF7A2679F63A
:10156900C003C002C0017BFF7A277901900192EB89
:10157900F0A3EAF0A3E9F09001957403F0A374E8ED
:10158900F0D001D002D00312233B900283EFF090F8
:101599000283E0FFEFB401099002847404F002149D
:1015A9001890028474FFF00214187BFF7A277909D6
:1015B900C003C002C0017BFF7A277934900192EB06
:1015C900F0A3EAF0A3E9F09001957403F0A374E89D
:1015D900F0D001D002D00312233B900283EFF090A8
:1015E9000283E0FFEFB4010F90015E7401F09002F5
:1015F900847405F002141890015EE4F0900284747A
:10160900FFF00214187BFF7A27793CC003C002C09F
:10161900017BFF7A267967900192EBF0A3EAF0A3A8
:10162900E9F0900195E4F0A37414F0D001D002D050
:101639000312233B900283EFF0900283E0FFEFB4A3
:1016490001099002847406F002141890028474FF50
:10165900F00214187BFF7A27794BC003C002C0013E
:101669007BFF7A267967900192EBF0A3EAF0A3E970
:10167900F0900195E4F0A37414F0D001D002D003E6
:1016890012233B900283EFF0900283E0FFEF6401A5
:10169900600302141890028474FFF00214180214F3
:0D16A90018781A760090015FE4F0A3E4F0D9
:0116B6002211
:014450002249
:014451002248
:102C470090015EE0FFEF64016003022D4C7818E607
:102C5700FE08E6FFD3EF9458EE94025003022D4C82
:102C67007BFF7A277958C003C002C0019000CBE0F0
:102C7700FBA3E0FAA3E0F989828A83D001D002D0CE
:102C8700031207B29000BAE0FFEFB401519000BF02
:102C9700E0FBA3E0FAA3E0F9C003C002C0017BFF99
:102CA7007A26796790010DEBF0A3EAF0A3E9F0D05B
:102CB70001D002D0031235C8C003C002C0017B0097
:102CC7007A007900D082D083D0E06B7008E9658202
:102CD7007003EA6583600790015DE4F08016781859
:102CE700E6FE08E6FFD3EF9420EE940340969001AA
:102CF7005DE004F090015DE0FFEFC39404400A90AB
:102D0700015EE4F090015DE4F09000BFE0FBA3E01A
:102D1700FAA3E0F9C003C002C00190015AE0FBA387
:102D2700E0FAA3E0F989828A83D001D002D0037D3B
:102D3700041207B29000BBE4F09000BAE4F07818F0
:052D4700760008760093
:012D4C002264
:101F800090029A7401F0900067E0FFEF6401600333
:101F90000221757818760008760090006CE0FBA3AB
:101FA000E0FAA3E0F9C003C002C0017BFF7A267902
:101FB0006A90010DEBF0A3EAF0A3E9F0D001D002A2
:101FC000D0031235C8C003C002C0017B007A00797B
:101FD00000D082D083D0E06B7008E965827003EA9C
:101FE000658370397818E6FE08E6FFD3EF9414EEA7
:101FF000940040A690029AE4F07BFF7A277962C0B1
:1020000003C002C001900078E0FBA3E0FAA3E0F96E
:1020100089828A83D001D002D0031207B290029A3B
:10202000E0FFEF640160030220CD90006CE0FBA3B1
:10203000E0FAA3E0F912061BFFEF644160030220FF
:10204000CD90006CE0FBA3E0FAA3E0F97582017586
:102050008300120634FFEF6454707290007FE0FB3F
:10206000A3E0FAA3E0F91207AE7BFF7A27796CC0F0
:1020700003C002C00190006CE0FBA3E0FAA3E0F90A
:1020800090010DEBF0A3EAF0A3E9F0D001D002D06B
:1020900003120872900082E0FBA3E0FAA3E0F912B9
:1020A00007AE90006CE0FBA3E0FAA3E0F9C003C028
:1020B00002C0019000CBE0FBA3E0FAA3E0F9898223
:1020C0008A83D001D002D0031207B2807090007FC3
:1020D000E0FBA3E0FAA3E0F91207AE7BFF7A2779D1
:1020E00079C003C002C00190006CE0FBA3E0FAA33A
:1020F000E0F990010DEBF0A3EAF0A3E9F0D001D0F4
:1021000002D003120872900082E0FBA3E0FAA3E081
:10211000F91207AE90006CE0FBA3E0FAA3E0F9C06F
:1021200003C002C0019000CBE0FBA3E0FAA3E0F9FA
:1021300089828A83D001D002D0031207B290006C4A
:10214000E0FBA3E0FAA3E0F9C003C002C0019000E5
:1021500068E0FD90015AE0FBA3E0FAA3E0F9898270
:102160008A83D001D002D0031207B2900068E4F055
:05217000900067E4F09F
:012175002247
:102E4A009000BAE0FFEF64016003022F3D78187624
:102E5A00000876009000BFE0FBA3E0FAA3E0F9C007
:102E6A0003C002C0017BFF7A26796A90010DEBF05C
:102E7A00A3EAF0A3E9F0D001D002D0031235C8C00A
:102E8A0003C002C0017B007A007900D082D083D0CF
:102E9A00E06B7008E965827003EA6583703478181C
:102EAA00E6FE08E6FFD3EF9414EE940040A67BFFFB
:102EBA007A27798EC003C002C001900078E0FBA394
:102ECA00E0FAA3E0F989828A83D001D002D0031202
:102EDA0007B29000BFE0FBA3E0FAA3E0F9C003C089
:102EEA0002C001900078E0FBA3E0FAA3E0F989822E
:102EFA008A83D001D002D0031207B29000BFE0FB50
:102F0A00A3E0FAA3E0F9C003C002C0019000BBE04D
:102F1A00FD90015AE0FBA3E0FAA3E0F989828A83D3
:102F2A00D001D002D0031207B29000BBE4F09000A7
:042F3A00BAE4F022E3
:0A1AED0047023900000000FF3A2F05
:103A2F00900285E4F0A3E4F030B20A90023AE4F099
:103A3F0090023CE4F0900239E0FFEFB401299002CC
:103A4F0039E4F0C2A820B21F90014EE0FBA3E0FAC8
:103A5F00A3E0F989828A837F0A7E001207B220B21F
:103A6F000690023A7401F090023AE0FFEFB401259C
:103A7F0090023C7401F0781876000876007818E60A
:103A8F00FE08E6FFC3EF9458EE9402500830B2EDF3
:103A9F0090023CE4F090023CE0FFEFB4010590028D
:053AAF003AE4F0D2A88A
:013AB40022EF
:0300030002437B3A
:10437B00C0E0C083C0829002397401F0D082D08338
:03438B00D0E0324D
:0A442C003F065B4F666D7D077F6F52
:0D1AF7004A020C8AFF3CBAFF408AFF31D33F
:053DFC00900287EFF0CA
:103E0100900288E4F0C2A690014EE0FBA3E0FAA381
:103E1100E0F989828A837F017E001207B2900288CD
:103E2100E4F0900288E0FFEFC39408502BC2A59004
:103E31000287E0FFEF30E004D2A48002C2A4900226
:103E410087E0FFEFC313FF900287EFF000D2A500D8
:083E5100900288E004F080CA31
:013E59002246
:103CBA0090029BE4F07F02123DFCD2A67F40123DA7
:103CCA00FCD2A67FC0123DFC90029BE4F090029BBE
:103CDA00E0FFEFC3940C500D7F00123DFC90029B55
:103CEA00E004F080E8D2A690020CE0FF123DFCD27C
:103CFA00A67F02123DFCD2A67F44123DFCD2A67FCB
:103D0A00C0123DFC7FFF123DFCD2A67FC2123DFCD1
:103D1A007FFF123DFCD2A690020CE0FF123DFCD2BE
:013D2A00A6F2
:013D2B002275
:10408A00900289EFF090028AEDF0900289E0FFEF4A
:10409A0012078840A70140AE02000040B37FC01259
:1040AA003DFC80057FC2123DFC90028AE0FFEF9042
:1040BA00442C93FF123DFCD2A690020CE0FF123D65
:0440CA00FCD2A6225C
:0531D30090028BEFF0FB
:1031D80090028CE4F090028CE4F090028BE0FF9077
:1031E800028CE0FEEEC39F40030232AB90023DE04A
:1031F800FBA3E0FAA3E0F91207AE90023CE0FFEF70
:10320800B4010790020C7480F02290023AE0FFEFBC
:103218006401707090023CE0FFEF706890020CE06F
:10322800FFEF120788324C80325388325A89326154
:103238008A32688B326F8C32768D327D8E32848FF3
:10324800000032AB90020C7488F02290020C748952
:10325800F02290020C748AF02290020C748BF022F7
:1032680090020C748CF02290020C748DF022900263
:103278000C748EF02290020C748FF02290020C7461
:1032880088F0222290014EE0FBA3E0FAA3E0F9893E
:10329800828A837F017E001207B290028CE004F0DC
:0332A8000231E20E
:0132AB002200
:101B04004D01BA14FF4232FF3EB6FF3AB5FF3B3AED
:1042320053A2DF43A21075D80075D90C75E9007539
:10424200F90075DA4275F20053F2FD7F007E00122A
:0D4252003B3A9001BAEFF0123E5AD2DE2244
:103EB6009001BAE0FFEF1207883ED5003EDD143EC2
:103EC600E5283EED3C3EF5503EFD6400003F049083
:103ED60001BA7414F0802D9001BA7428F0802590F0
:103EE60001BA743CF0801D9001BA7450F0801590B0
:103EF60001BA7464F0800D9001BAE4F08006900176
:083F0600BA7414F0123E5A22B5
:103E5A009001BAE0FFEF1207883E79003E7E143ED9
:103E6A0083283E883C3E8D503E926400003E977502
:103E7A00FAFF801C75FACC801775FA99801275FAC8
:103E8A0066800D75FA33800875FA00800375FAFFAB
:103E9A009001BAE0FD9001C1E0FBA3E0FAA3E0F9CA
:0C3EAA0089828A837F007E001207B2220A
:103AB500900278EEF0A3EFF090027AEDF09002021A
:103AC500740AF0900201E4F0900202E0FF14F0EFB6
:103AD5006062900278E0FEA3E0FF900209E0FBA39C
:103AE500E0FAA3E0F989828A831207B2900278E0AE
:103AF500FEA3E0FF90027AE0FD900206E0FBA3E062
:103B0500FAA3E0F989828A831207B2900278E0FE6F
:103B1500A3E0FF900203E0FBA3E0FAA3E0F98982AA
:103B25008A831207B290027AE0FEEFB5069A9002F8
:053B3500017401F02203
:083B3A00900271EEF0A3EFF020
:103B4200900273E4F0900274E4F0900202740AF0BE
:103B5200900202E0FF14F0EF6050900271E0FEA3C9
:103B6200E0FF900203E0FBA3E0FAA3E0F989828A76
:103B7200831207B2900273EFF0900271E0FEA3E0AD
:103B8200FF900203E0FBA3E0FAA3E0F989828A83B3
:103B92001207B2900274EFF0900274E0FF90027389
:103BA200E0FEEEB507AA800280A6900273E0FFEF66
:0B3BB200B4FF037F0022900273E0FFCD
:013BBD0022E5
:0E1B14004B01F60000FF42A6FF3F0EFF24E348
:1042A600759D10439720C2AD75BCC490014EE0FBCE
:1042B600A3E0FAA3E0F989828A837F027E001207CF
:0242C600B22222
:103F0E0090028DE4F0A3E4F075BD0075BE0053BCC5
:103F1E00EF43BC0800000000E5BC30E4FB53BCEFEF
:103F2E00AFBD7E0090028DEEF0A3EFF090028DE01B
:103F3E00FEA3E0FFEF7F00FEADBE7C00EF2DFFEE97
:103F4E003CFE90028DEEF0A3EFF090028DE0FEA30A
:023F5E00E0FF82
:013F6000223E
:1024E3009001DFE4F0A3E4F09001E1E4F0A3E4F071
:1024F3009001E9E4F09001E9E0FFEFC39410400399
:102503000226269001DFE4F0A3E4F09001FBE0FB58
:10251300A3E0FAA3E0F91207AE9001E5EEF0FEA303
:10252300EFF0FF9001E3EEF0A3EFF09001EAE4F0A7
:102533009001EAE0FFEFC3940840030225EE900107
:10254300FBE0FBA3E0FAA3E0F91207AE9001E7EE8C
:10255300F0A3EFF09001E3E0FEA3E0FF9001E7E0DA
:10256300FCA3E0FDC3ED9FEC9E50269001E3E0FE4B
:10257300A3E0FF9001E0E02FF09001DFE03EF09058
:1025830001E7E0FEA3E0FF9001E3EEF0A3EFF080AC
:10259300519001E5E0FEA3E0FF9001E7E0FCA3E03A
:1025A300FDD3ED9FEC9E40269001E5E0FEA3E0FF06
:1025B3009001E0E02FF09001DFE03EF09001E7E0D2
:1025C300FEA3E0FF9001E5EEF0A3EFF0801490018D
:1025D300E7E0FEA3E0FF9001E0E02FF09001DFE0F1
:1025E3003EF09001EAE004F00225339001DFE0FEC3
:1025F300A3E0FFEF7803CEC313CE13D8F9FF900106
:10260300DFEEF0A3EFF09001DFE0FEA3E0FF900127
:10261300E2E02FF09001E1E03EF09001E9E004F008
:102623000224F89001E1E0FEA3E0FFEEC4F854F0C9
:10263300C868FEEFC4540F48FF9001E1EEF0A3EF2A
:09264300F09001E1E0FEA3E0FFCC
:01264C00226B
:0E1B22004B0201000AFF410FFF418EFF4201FE
:1043B10075C70075C50075C60075C3FF75C4FF22BA
:08410F0090027BEEF0A3EFF03B
:1041170090027DE4F075C78375C50190027BE0FED0
:10412700A3E0FF8FC490027BE0FEA3E0FFEEFF7EDB
:10413700008FC375C65A75C6A50090027DE5C2F00B
:084147001243B190027DE0FF7C
:01414F00224D
:10418E0090027EEEF0A3EFF0900280EDF075C78303
:10419E0075C50290027EE0FEA3E0FF8FC490027E02
:1041AE00E0FEA3E0FFEEFF7E008FC3900280E0FFF3
:0D41BE008FC275C65A75C6A5001243B12206
:1042010090028FEEF0A3EFF075C78375C50390029E
:104211008FE0FEA3E0FF8FC490028FE0FEA3E0FFDA
:10422100EEFF7E008FC375C65A75C6A5001243B155
:01423100226A
:101B300056017900FF0006FF43E1FF43FEFF3D969B
:091B4000FF3FFBFF43C1FF43D14D
:064436000000000000225E
:05000600D2A3D2A222EA
:0F43E100D2A2D2A3124436C2A2124436C2A322E1
:0D43FE00C2A2D2A3124436D2A2124436222B
:053D9600900291EFF026
:103D9B00900292E4F0900292E0FFEFC3940850314E
:103DAB00900292E0FF900291E0FEEEA807088002DD
:103DBB00C333D8FCFFEF30E704D2A28002C2A212B9
:103DCB004436D2A3124436C2A3900292E004F08090
:103DDB00C4D2A2124436D2A312443630A2079001A9
:103DEB0079E4F080069001797401F0C2A312443695
:013DFB0022A5
:103FFB00900293E4F0D2A2900294E4F0900294E049
:10400B00FFEFC394085029C2A3124436D2A3124423
:10401B0036900293E0FFEF25E0FF900293EFF03034
:10402B00A206900293E004F0900294E004F080CC9E
:0A403B00C2A3124436900293E0FF86
:014045002258
:1043C100C2A2124436D2A3124436C2A312443622E8
:1043D100D2A2124436D2A3124436C2A312443622C8
:091B490046024DFF3020FF2B295C
:10302000900253EBF0A3EAF0A3E9F0900256EDF022
:10303000900257E4F090017DE0FBA3E0FAA3E0F9F1
:103040001207AE900183E0FBA3E0FAA3E0F98982C6
:103050008A837FA01207B2900179E0FFEF70037FAF
:103060000022900183E0FBA3E0FAA3E0F989828AC1
:10307000837F001207B2900179E0FFEF70037F00B9
:1030800022900257E4F0900256E0FF900257E0FED3
:10309000EEC39F503E900253E0FBA3E0FAA3E0F999
:1030A00012061BFF900183E0FBA3E0FAA3E0F9897D
:1030B000828A831207B2900179E0FFEF70037F00EC
:1030C00022900254E475F001120695900257E00434
:1030D000F080B3900180E0FBA3E0FAA3E0F91207CF
:1030E000AE90014EE0FBA3E0FAA3E0F989828A8367
:0930F0007F017E001207B27F018E
:0130F90022B4
:102B2900900258EBF0A3EAF0A3E9F090025BEDF014
:102B390090025CE4F090017DE0FBA3E0FAA3E0F9E8
:102B49001207AE900183E0FBA3E0FAA3E0F98982C2
:102B59008A837FA01207B2900179E0FFEF70037FAB
:102B69000022900183E0FBA3E0FAA3E0F989828ABD
:102B7900837F001207B2900179E0FFEF70037F00B5
:102B89002290017DE0FBA3E0FAA3E0F91207AE90E1
:102B99000183E0FBA3E0FAA3E0F989828A837FA19C
:102BA9001207B2900179E0FFEF70037F00229002D3
:102BB9005CE4F090025BE0FFEF14FF90025CE0FE42
:102BC900EEC39F503D900186E0FBA3E0FAA3E0F934
:102BD9001207AE900258E0FBA3E0FAA3E0F9EF1266
:102BE9000661900189E0FBA3E0FAA3E0F91207AEC0
:102BF900900259E475F00112069590025CE004F028
:102C090080B1900186E0FBA3E0FAA3E0F91207AED8
:102C1900900258E0FBA3E0FAA3E0F9EF12066190F5
:102C2900018CE0FBA3E0FAA3E0F91207AE90018062
:0D2C3900E0FBA3E0FAA3E0F91207AE7F0173
:012C4600226B
:101B720043616C635F526563656E745F54656D703B
:101B8200757261747572653D252E32660A00414494
:101B9200435F56616C75653D252E32660A006D699C
:101BA200643D2562750A0054656D704172726179F7
:101BB2005B2562755D5B305D3D2568750A00546585
:101BC2006D7041727261795B2562755D5B315D3D5D
:101BD2002568750A00436865636B5F526563656ECD
:101BE200745F54656D70757261747572653D252EF2
:101BF20032660A0003BE03C303BB03BD03B703BAC5
:101C020003B403B603B003B303AC03AF03A803AB3F
:101C120003A403A7039F03A3039A039E03950399B7
:101C220003900394038B038F0386038A0380038547
:101C3200037A037F03740379036E03730367036DEF
:101C4200036003660359035F03520358034B0351B6
:101C52000343034A033B03420333033A032B033296
:101C62000323032A031A032203110319030803108F
:101C720002FF030702F502FE02EC02F402E202EBAB
:101C820002D802E102CE02D702C402CD02B902C3D7
:101C920002AF02B802A402AE029902A3028E029817
:101CA2000280028F0277027F026C02760260026B70
:101CB2000255025F024A0254023E02490235023DC7
:101CC200022A0234021C02290211021B020502101E
:101CD20001FA020401F001F901E501EF01DB01E47F
:101CE20001D001DA01C501CF01BA01C401B001B9C5
:101CF20001A501AF019B01A40190019A0186018F08
:101D0200017C01850172017B01680171015F01673C
:101D12000156015E014C01550143014B013B014259
:101D22000132013A01290131012101280119012061
:101D320001110118010A01100102010900FA010151
:101D420000F300F900EC00F200E500EB00DF00E434
:101D520000D800DE00D200D700CC00D100C800CBF2
:101D620000C000C700BA00BF00B500B900B000B49F
:101D720000AA00AF00A500A900A100A4009C00A039
:081D82000097009B00930096FE
:0D1B52004A022000000000FF28D7FF10C449
:1028D70090021AE4F0A3E4F090021C12070700002C
:1028E70000001242E19001FEE0FBA3E0FAA3E0F949
:1028F7001207AE90021AEEF0A3EFF012444B9002CB
:102907001AE0FCA3E0FDE41203627B007AC0797F42
:1029170078441202477B337A337953784012013E69
:1029270090021C1206FB90021CE0F8A3E0F9A3E05A
:10293700FAA3E0FB7F337E337D537C401200497B53
:10294700007A40791C7846120247A804A905AA060E
:10295700AB0790021CE0FCA3E0FDA3E0FEA3E0FFB1
:102967001202479002161206FB7B007A40791C7808
:1029770046900216E0FCA3E0FDA3E0FEA3E0FF12F1
:102987000247122A347B2C7ABB7984783912013EAC
:102997007B0F7ACF795B783B12004DA804A905AA73
:1029A70006AB077F007E007D807C3F1202477B33AA
:1029B7007A53798878C312004D9002201206FB9053
:1029C700007FE0FBA3E0FAA3E0F91207AE7BFF7AF2
:1029D7001B7972900220E0FCA3E0FDA3E0FEA3E0D8
:1029E700FF90010D1206FB120872900082E0FBA314
:0829F700E0FAA3E0F91207AEBB
:0129FF0022B5
:1010C40090024012070700000000900244E4F090F0
:1010D40002457464F09002467432F01242E19001C9
:1010E400FEE0FBA3E0FAA3E0F91207AEAC06AD07FD
:1010F400E41203629002401206FB12444B90024534
:10110400E0FF900244E0FEEEC39F400302122A90E7
:101114000246E0FF75F004EFA424F6F582E5F0340E
:101124001BF583E493FC740193FDE41203629002C3
:1011340040E0F8A3E0F9A3E0FAA3E0FB1202E440E4
:1011440037900246E0FF75F004EFA424F8F582E539
:10115400F0341BF583E493FC740193FDE412036201
:10116400900240E0F8A3E0F9A3E0FAA3E0FB120246
:10117400E46002500302122A900246E0FF75F00474
:10118400EFA424F6F582E5F0341BF583E493FC74B4
:101194000193FDE4120362900240E0F8A3E0F9A396
:1011A400E0FAA3E0FB1202E4500F900246E0FFEFE6
:1011B40004FF900244EFF08041900246E0FF75F096
:1011C40004EFA424F8F582E5F0341BF583E493FCE2
:1011D400740193FDE4120362900240E0F8A3E0F985
:1011E400A3E0FAA3E0FB1202E4600F400D90024674
:1011F400E0FFEF14FF900245EFF0900244E0FF7E21
:1012040000900245E0FD7C00C3ED9FFFEC9EFEEEE6
:10121400C313FEEF13FF900244E0FEEF2EFF900293
:1012240046EFF0021101900246E0FF75F004EFA4CE
:1012340024F6F582E5F0341BF583E493FC74019302
:10124400FDE4120362A804A905AA06AB07900240B4
:10125400E0FCA3E0FDA3E0FEA3E0FF120049C0040C
:10126400C005C006C007900246E0FF75F004EFA475
:1012740024F6F582E5F0341BF583E493FE740193C0
:10128400FF900246E0FD75F004EDA424F8F582E534
:10129400F0341BF583E493FC740193FDC3ED9FFDCF
:1012A400EC9EFCE4120362A804A905AA06AB07D0CD
:1012B40007D006D005D004120247C004C005C006FA
:1012C400C007900246E0FCE4120367A804A905AA3B
:1012D40006AB07D007D006D005D00412004D7B0022
:1012E4007A0079F078C112004D9002201206FB902A
:1012F400007FE0FBA3E0FAA3E0F91207AE7BFF7ADC
:101304001B7990900240E0FCA3E0FDA3E0FEA3E083
:10131400FF90010D1206FB1208727BFF7A1B79A065
:10132400900246E0FF90010DEFF01208727BFF7A05
:101334001B79A9900246E0FF90010DEFF090024660
:10134400E0FF75F004EFA424F6F582E5F0341BF514
:1013540083E493FE740193FF90010EEEF0A3EFF08B
:101364001208727BFF7A1B79C0900246E0FF90015D
:101374000DEFF0900246E0FF75F004EFA424F8F5B9
:1013840082E5F0341BF583E493FE740193FF90012E
:101394000EEEF0A3EFF01208727BFF7A1B79D79060
:1013A4000220E0FCA3E0FDA3E0FEA3E0FF90010D1A
:1013B4001206FB120872900082E0FBA3E0FAA3E09D
:0413C400F91207AE65
:0113C8002202
:1042E100D29390014EE0FBA3E0FAA3E0F989828A20
:0942F100837F017E001207B22256
:03444B00C29322F7
:101B5F004F019EFF438EFF4417FF443CFF4440FF5D
:021B6F004444EC
:10438E0075C11F9001A4E0FBA3E0FAA3E0F91207A8
:02439E00AE224D
:0B441700E5C130E5037F01227F002299
:04443C0043C1202236
:0444400053C1DF2263
:0444440043C110223E
:10004600020407E86480F8E933E83360110460F0DD
:10005600ED33EC337009E8FCE9FDEAFEEBFF220420
:1000660060DED3EB9FEA9EE99DE8C2E78CF0C2F71B
:1000760095F0400CE8CCF8E9CDF9EACEFAEBCFFBE7
:100086001203D285D0F05804700320D5B3E804706B
:10009600075002B2D502041192D5EC0460F7E4CC05
:1000A600C0E0C398F8603B94186008400DD0E0FBB0
:1000B6000203E9E4FBFAC9FC8028E830E406E4C957
:1000C600FBE4CAFCE830E305E4C9CACBFCE8540704
:1000D6006010F8C3E913F9EA13FAEB13FBEC13FC0F
:1000E600D8F130F52FC3E49CFCEF9BFFEE9AFEEDB2
:1000F60099FDD0E0FBEF4E4D4C701222DB0302045B
:100106000EEC2CFCEF33FFEE33FEED33FDED30E766
:10011600EB0203E9EF2BFFEE3AFEED39FDD0E0FBF3
:1001260050130BBB0003020411ED13FDEE13FEEF9B
:0801360013FFEC13FC0203E9C6
:10013E00EC4D6011E8497017ED33EC3304600DE4BB
:10014E00FCFFFEFD22E933E8330470F802040712C7
:10015E0003D258046009E4CC2481500628500902C9
:10016E00041128400302040EC0E0EB4A7044B9802B
:10017E0006D0E0FB0203FDEF4E701CBD8008EBFFC6
:10018E00EAFEE9FD80EBE98DF0A4FEE5F002022720
:10019E00E9CDF9EAFEEBFFEF89F0A4FCE5F0CE899C
:1001AE00F0A42EFFE435F0CD89F0A42DFEE435F059
:1001BE008067EF4E7005BD80D780C3EF8BF0A4AC87
:1001CE00F0EE8BF0A42CFCE435F0F8EF8AF0A42CC2
:1001DE00E5F038FCE433CB8DF0A42CFCE5F03BF8D5
:1001EE00EE8AF0A42CFCE5F038F8E433CF89F0A4C5
:1001FE002CFCE5F038CF3400CE89F0A42FFFE5F0CB
:10020E003EFEE433C98DF0A42EFEE5F039CD8AF022
:10021E00A42FFFE5F03EFEE43DFD33D0E0FB50079A
:10022E000BBB000F020411EC2CFCEF33FFEE33FE80
:06023E00ED33FD0203E9AF
:10024400020411EC5D046005E8590470030204071C
:100254001203D2580460F6EC4860F2EC7004FDFE20
:10026400FF22C860DB2481C85009C398600250068D
:1002740002040E9850CAF582E9294B4A7005AB82F4
:100284000203FD75F0007C1A7880C3EF9BEE9AEDB3
:1002940099400DC3EF9BFFEE9AFEED99FDE842F005
:1002A400DC23ACF0D0E0FFD0E0FED0E0FDAB822058
:1002B400E7101BEB60BAEC2CFCEF33FFEE33FEEDE2
:1002C40033FD0203E9E803F830E705C0F075F000F8
:1002D400EF2FFFEE33FEED33FD40B830E7C280AAC6
:1002E40074F8CC6480CCC86480C8F58204604FC3C1
:1002F400EB9FF5F0EA9E42F0E99D42F0E89C45F060
:10030400603C501DE5825FFFE582D313CB5BCBF4E9
:100314002B5582FB50280ABA002409B90020088012
:100324001DE5825BFBE582D313CF5FCFF4C3132FAC
:100334005582FF50090EBE00050DBD00010CC3EB34
:100344009FF5F0EA9E42F0E99D42F0E89C45F0609A
:0903540007CC4820E701B3EC22BC
:10035D0075F020800E75F010800575F0087D007E1B
:10036D00007F003392D530D5031206C1EC33401017
:10037D00EF33FFEE33FEED33FDEC33FCD5F0ED2224
:0E038D00E5F0247EA2D513CC92E7CDCEFF2260
:10039B00EDD2E7CD33EC3392D524814006E4FFFE5A
:1003AB00FDFC22FCE4CFCECDCC24E0501174FF80B9
:1003BB00EDC3CC13CCCD13CDCE13CECF13CF047056
:0703CB00F030D5DE0206C18F
:10080700E510240DF582E43401F583E0051022900C
:10081700010A30070390010DE475F0011207380251
:10082700061B2000E97F2ED2008018EF540F24907A
:10083700D43440D4FF30040BEF24BFB41A00500364
:100847002461FFE511600215110514E51470020516
:100857001330070E90010AE475F001120738EF0212
:1008670006610242847403D2078003E4C207F510CD
:1008770090010A12074FE4F511F513F514E511601D
:10088700077F2012084A80F57512FFC201C200C215
:1008970002C203C205C206C208120816FF700D3055
:1008A70007057F0012085BAF14AE1322B4255FC2A1
:1008B700D5C204120816FF24D0B40A00501A75F0E6
:1008C7000A781130D50508B6FF0106C6A426F6201A
:1008D700D5047002D20380D924CFB41A00EF500494
:1008E700C2E5D204020B4DD20180C6D20080C0D22D
:1008F7000280BCD2D580BAD20580B47F2012084AC4
:100907002002077401B5110040F1120807FF120811
:100917004A020884D208D2068095120807FB1208FB
:1009270007FA120807F94A4B7006794B7A0C7BFFD6
:1009370020022EE511602A7E008E82758300120642
:100947003460060EEE651270F0C2D5EBC0E0EAC067
:10095700E0E9C0E0EE120BAED0E0F9D0E0FAD0E06B
:10096700FB12061BFF60AAEBC0E0EAC0E0E9C0E0AB
:1009770012084AD0E02401F9D0E03400FAD0E0FBB5
:10098700E5120460DCD512D98087D20280A2120B4F
:100997009060F7E51270010412041CA912600DE5BE
:1009A70012600914F512120C38EF60F3EA30E7020F
:1009B700F404C3995079EAF425120430E701E404FA
:1009C700F512800D120B9060C1EA05122512120470
:1009D7001CEA900139F030E701E4251204D512042E
:1009E70020050114120BAEE4C0E0120C3890013957
:1009F700E0601320E70714F0120832802204F0D0D9
:100A0700E014C0E07F00120832E5126007120829DF
:100A17001512800B300503120829D0E0020884D094
:100A2700E00480C4120B90609EE5120412041C902F
:100A37000139EAF0E5122005026001042404120BD3
:010A4700AE00
:100A480074FF04C0E0120C38120832E512200502C7
:100A58006003120829D0E0B512E87F4512083C90DF
:100A68000139E07F2B30E7047F2DF404C0E0120841
:100A78004AD0E075F00A84C0F0120833D0E01208BA
:100A880033020884791080027908C206C2088008F7
:100A9800D2D5790A8004790AC2D5E512047002F524
:100AA80012E4FAFDFEFF120807FC7B08200113126E
:100AB8000807FD7B1030000A120807FE120807FF1E
:100AC8007B20EC3382D592D55013C3E43000069FC7
:100AD800FFE49EFEE42001039DFDE49CFCE4CBF8CA
:100AE800C201EC700CCFCECDCCE824F8F870F380BE
:100AF80017C3EF33FFEE33FEED33FDEC33FCEB337E
:100B0800FB994002FB0FD8E9EB300105F8D0E0C4AF
:100B180048B201C0E00AEC4D4E4F78207B0070C20D
:100B2800EAB5120040BCC0E0120BB0D0F0D0E02013
:100B38000104C4C0E0C4B201C0F0120833D0F0D53B
:100B4800F0EB0208841207880921530A8C5808F22E
:100B58004C08EE420A904F0A98440A9849090743FC
:100B68000A9E5509CB460A2B450995470C6B500838
:100B7800F62D08FA2E091D2B08FE23091B200C54FC
:100B88002A08B64800000915E512B4FF03751206D5
:100B9800120807FC120807FD120807FE120807FFD3
:100BA800900132020459790AA2D5200314300509AC
:100BB800B910020404B9080104A2D52006025001A4
:100BC800042002689202B511005034C0E07F203042
:100BD80003197F30A20272067205500F120C07C269
:100BE80002C206C205C2087F30800F300503E9C083
:100BF800E012084A300503D0E0F9D0E0B511CC3056
:100C080005177F30B9100C12084A7F583004077F47
:100C1800788003B9080312084A3002057F2D0208BC
:100C28004A7F202008F87F2B2006F322920280CFEB
:100C38007F00B40700500B2432F582E43401F583B9
:100C4800E0FF22286E756C6C2900D201120807306B
:100C580001F8C201781130D50108F60208B62D5006
:100C68004349581208072403B405004001E4900CD6
:100C7800669312083B743A12083BD20375110402BA
:020C88000A8CD4
:102A00003E9248DA3ECCCCCD3F2AAAAB4000000033
:102A10003F8000003F9837F03FB504F33FD744FCB8
:102A20003E3172173EB172173F0515913EDE5BD9FC
:102A3000D2008002C200EDD2E7F8CD33EC3304704F
:102A40000BBD800592D502041102040740FBD3148C
:102A500060F2F5F07C3FEE7A00C39496C8948B4008
:102A6000230AC89469C8941A401A0AC89468C8947A
:102A70001F40110AC8945AC89425400805F07A00EE
:102A8000CDC2E7CDC0F090010A1206FBEA2323C0B5
:102A9000E02410F582E4342AF5831206EB12004D8F
:102AA000ECC0E0EDC0E0EEC0E0EFC0E01206CF9079
:102AB000010A1206DF120049D0E0FBD0E0FAD0E0B4
:102AC000F9D0E0B2E7F812024790010A1206FB9033
:102AD0002A00740312055E90010A1206DF12013EFD
:102AE000D0E0600F241CF582E4342AF5831206EB53
:102AF00012004D90010A1206FBD0E0C3947FFDE462
:102B00009400FC1203627B187A727931783F1201CB
:102B10003E90010A1206DF12004D30000B7BD97A7D
:092B20005B79DE783E12013E22D1
:1003D200E9D2E7C933E833F892D5EDD2E7CD33EC71
:0703E20033FC5002B2D522EA
:1003E900EC30E7100FBF000C0EBE00080DBD000475
:1003F9000BEB6014A2D5EB13FCED92E7FD2274FF21
:10040900FCFDFEFF22E480F8A2D574FF13FC7D8079
:03041900E480EF8D
:10041C00F920E73624F950037907E4F42402FBE5CC
:10042C0082158270021583DBF6E024FB501BE96019
:10043C0014E4F0E582158270021583E004F0B40A2E
:0D044C0008E4F0D9EE7401F00A22C2D522B6
:10045900ED33EC3392D5FA602AB4FF33EDC2E77B72
:10046900FF60067A04797EE4227A04798720D5042C
:100479007A047982224E614E002B494E46002D495D
:100489004E4600E47A08F0A3DAFC7B00740722C028
:1004990083C082ECC0E0EDC0E0EEC0E0EFC0E0EA6E
:1004A90075F010A4CAABF075F04DA42BFBE435F040
:1004B900FCEA2410FAEB34C5FBEC34D9FCEDC2E7B5
:1004C900FF75F056A4F42411C5F0F434C58FF0A4D7
:1004D9002AE5F03BE43CF020E7141205DBD0E0FF0D
:1004E900D0E0FED0E0FDD0E0FC1202478014F40415
:1004F9001205DBD0E0FFD0E0FED0E0FDD0E0FC1239
:10050900013ED082D083E0FAEDD2E7CD33EC33243B
:1005190082FBE4C3CF33CFCE33CECD33CD33DBF340
:100529007B0775F00A846004F0A31B0AE5F0F0A3C9
:100539008FF0740AA4FFACF08EF0740AA42CFEAC00
:10054900F050010C8DF0740AA42CFDE435F0F0A3F1
:05055900DBDE74072247
:10055E00C0E0EFFBEEFAEDF9ECF812013ED0E0F55B
:10056E00F0EFFBEEFAEDF9ECF81206CFA3A3A3A37E
:10057E00E8C0E0E9C0E0EAC0E0EBC0E0C0F0120184
:10058E003E1206EBA3A3A3A312004DD0F0D0E0FBC6
:0D059E00D0E0FAD0E0F9D0E0F8D5F0D4229A
:1005AB003F8000004120000042C80000447A000058
:1005BB00461C400047C35000497424004B189680DA
:1005CB004CBEBC205A0E1BCA6753C21C749DC5AED1
:1005DB00FB60065407601C2323120609EB5438609A
:1005EB00091205F512060412013EECF8EDF9EEFACC
:1005FB00EFCB22EB12060480F1543803241C900538
:10060B00ABFE93FC0EEE93FD0EEE930ECE93FF22FC
:0300000002391CA6
:0C391C00787FE4F6D8FD7581270239633E
:10061B00BB010689828A83E0225002E722BBFE02DD
:09062B00E32289828A83E4932210
:10063400BB010CE58229F582E5833AF583E022507B
:1006440006E92582F8E622BBFE06E92582F8E222C5
:0D065400E58229F582E5833AF583E49322DF
:10066100BB010689828A83F0225002F722BBFE0178
:02067100F32272
:10067300F8BB010DE58229F582E5833AF583E8F0BD
:10068300225006E92582C8F622BBFE05E92582C869
:02069300F22251
:10069500C5F0F8A3E028F0C5F0F8E58215827002F0
:0606A5001583E038F0228D
:1006AB00A3F8E0C5F025F0F0E58215827002158302
:0606BB00E0C838F0E8225F
:0E06C100C3E49FFFE49EFEE49DFDE49CFC224A
:1006CF00E493FC740193FD740293FE740393FF2271
:0C06DF00E0F8A3E0F9A3E0FAA3E0FB229E
:1006EB00E493F8740193F9740293FA740393FB2265
:0C06FB00ECF0A3EDF0A3EEF0A3EFF02272
:10070700A8828583F0D083D08212071E12071E129B
:10071700071E12071EE473E493A3C583C5F0C583C0
:10072700C8C582C8F0A3C583C5F0C583C8C582C83C
:01073700229F
:10073800F8E0FBA3A3E0F925F0F0E582158270024A
:070748001583E0FA38F022EE
:09074F00EBF0A3EAF0A3E9F022AB
:10075800BB010DE58229F582E5833AF5830207E9B5
:100768005007E92582F80207E0BBFE07E92582F871
:100778000207F2E58229F582E5833AF5830207FB51
:10078800D083D082F8E4937012740193700DA3A300
:1007980093F8740193F5828883E473740293686014
:0607A800EFA3A3A380DF14
:0607AE008A838982E473D6
:1035C80090010AEBF0A3EAF0A3E9F0A3E0FBA3E083
:1035D800FAA3E0F912061B700302367490010AE0A0
:1035E800FBA3E0FAA3E0F912061B700302368090F1
:1035F800010DE0F9A3E0FAA3E0A3C9F0A3EAF0A360
:10360800E9F090010AA3E0FAA3E0F9900113EBF0C6
:10361800A3EAF0A3E9F0900110E0FBA3E0FAA3E02D
:10362800F912061BFF6026900113E0FBA3E0FAA342
:10363800E0F912061B6F701590011175F001120662
:1036480095900114E475F00112069580C990011057
:10365800E0FBA3E0FAA3E0F912061B7002800D90CC
:10366800010BE475F0011206950235E490010AE0B9
:0F367800FBA3E0FAA3E0F9227B007A007900229D
:1007B400EF4E6012EF60010EEDBB010B89828A835C
:1007C400F0A3DFFCDEFA2289F05007F709DFFCA969
:0C07D400F022BBFEFCF309DFFCA9F022C0
:10392800023444E493A3F8E493A34003F68001F23D
:1039380008DFF48029E493A3F85407240CC8C333A0
:10394800C4540F4420C8834004F456800146F6DF6F
:10395800E4800B0102040810204080901943E47EA3
:10396800019360BCA3FF543F30E509541FFEE49364
:10397800A360010ECF54C025E060A840B8E493A32B
:10398800FAE493A3F8E493A3C8C582C8CAC583CA56
:10399800F0A3C8C582C8CAC583CADFE9DEE780BE0E
:011B71000073
:0907E000E6FB08E6FA08E6F9223E
:0907E900E0FBA3E0FAA3E0F92211
:0907F200E2FB08E2FA08E2F92238
:0C07FB00E493FB740193FA740293F9225A
:00000001FF
