:03096100011C0076
:100E6300AA64A9651206C2AA3AA93B1206C280F770
:03000300020006F2
:03000600B2B4325F
:10096400540000000000000000000000000000002F
:0F097400000000000000000666FF0DACFF0EB78C
:090EB700AF057E007D000206C8B3
:0B0EA0000000007F0B7EBEDEFEDFFCCA
:010EAB002224
:040DAC00AD07AC06DD
:100DB000E4FBFAC3EB9DEC6480F8EA648098500A87
:0A0DC000120EA00BBB00010A80E92F
:010DCA002206
:0E0983000C10FF000EFF0E16FF0E2AFF0E00D6
:10000E0075B10475B21020B304D2B480F930B3F6D2
:04001E00C2B480F2F6
:100E160075B10475B21420B204D2B480F930B2F6BA
:040E2600C2B480F2E0
:100E2A0075B10475B21020B204D2B480F930B2F6AA
:040E3A00C2B480F2CC
:100E000075B10475B210D2B320B304D2B480F930F6
:060E1000B3F6C2B480F24B
:100E3E004E6F74206861766520382042797465A300
:040E4E00A1A3A100BB
:100991000A7B000000000000000000000A71000056
:1009A10000000000000000002021220003000000E0
:1009B10000007100007BFF0BD8FF0D5DFF0C95FF60
:0C09C1000CE2FF0B6C01FF0E83FF0E73B5
:100BD800E522700575985080037598D0E53C14603F
:100BE8000C1460042402700B53A23F800653A27FAA
:100BF80043A240E4F58753890F438E40538EFEE5A8
:100C08002314600A14600F14601124038015758B77
:100C1800E0758DFE8013758B708003758BE8758D7C
:100C2800FF8006758BC0758DFDC2ABD28ED29C221B
:100D5D00E524640160FAE5226019EFA2D09202E564
:100D6D002224FE600A04700BA202B3929B8004A29F
:080D7D0002929B7524018F997D
:010D8500224B
:100CE2008B438A448945AA3EA93F1206C2AB43AA56
:100CF20044A94512061860190545E54570020544E8
:100D020014F9120618FF8532828531831206C680D5
:100D1200DCE524640160FA8568828567837F017E51
:0B0D2200001206C6AA41A9420206C248
:100C95008B438A4489458D46AA3EA93F1206C2AFB9
:100CA500461546EF601DAB430545E545AA44700270
:100CB500054414F9120618FF853282853183120620
:100CC500C680DCE524640160FA8568828567837FD8
:0D0CD500017E001206C6AA41A9420206C215
:0E0E92008F598532828531831206C6AF5922F0
:0F0E8300D2A08568828567837F027E000206C643
:100E73008568828567837F027E001206C6C2A02230
:100B6C00D202E52564017063E52C452B6047E4F562
:100B7C006DE526C394085009E56DC3941440F2C288
:100B8C000230021A7B007A007922C002788608E6CD
:100B9C00FA08E6F5828A83D0021206C68017AA3EAE
:100BAC00A93F1206C27BFF7A0E793E120088AA4139
:100BBC00A9421206C2AB2AAA2BA92C856B82856A84
:0B0BCC0083AD261206C6E4F526F525D1
:010BD70022FB
:03002300020AFDD1
:0B0AFD00C0E0C083C082C0D075D008EC
:100B0800309905C299752400309850C298AF99A2BF
:100B18009A9200EFA2D09201E526C3940A5039E5D3
:100B280022602224FE600E04702EA200B330010160
:100B3800B340258010A201300001B3401BA200E49D
:100B480033F51C8000AB2AAA2BA92CAE2605268ECD
:0B0B580082758300EF12067075250106
:090B6300D0D0D082D083D0E03262
:0E09CD000C5AFF0D86FF0EACFF0DCBFF0D2D5B
:100D860075B14475B290C2B5E4F59575960153A058
:100D9600FEF5C975CAFFD2CCC2CD85688285678348
:060DA6007F02FE0206C6FA
:0B0EAC00D2A8D288D2A9D2ACD2AF22CB
:100DCB00E4F543B2B48568828567837F647E001245
:0B0DDB0006C60543E543C3940A40E848
:010DE60022EA
:100D2D008568828567837F647E001206C6AA5BA9EB
:100D3D005C1206C2AA61A9621206C2AA5EA95F125E
:100D4D0006C2AA6FA9701206C2AA2EA92F0206C248
:0A09DB0047001F00000000FF0C3869
:080C38008B438A4489458D4677
:100C4000E4F547F548FD74FFF547F548EDC39546D3
:100C5000503EAB43AA44A9458D82758300120631EC
:100C60006248E4FCE54830E015E547C313FEE5487B
:100C700013FFEE64A0F547EF6401F548800BE547EC
:100C8000C313F547E54813F5480CBC08D70D80BCE5
:040C9000AE47AF4874
:010C9400223D
:100A7F00435243313620436865636B204552524FD2
:100A8F0052A3A1A3A10052656769737420616464C6
:100A9F0072657373206F7574206F662072616E6755
:100AAF0065A3A1A3A1307E390A004F6E6C79207225
:100ABF006561642074776F20726567697374206F46
:100ACF006E6365A3A1A3A10A0052656769737420C1
:100ADF0061646472657373206F7574206F66207222
:0E0AEF00616E676532A3A1A3A1307E390A00B3
:0609E500048501FF08700B
:10087000900014EBF0A3EAF0A3E9F0900008120650
:10088000921206187885666003020960900014E0F1
:10089000FBA3E0FAA3E0F9900008120692C00290D0
:1008A0000023A3E0FAA3E0F5828A83D0027D06123A
:1008B00006C690001FEEF0A3EFF090001FE090003E
:1008C00021F090001FA3E0FF900022F0900014E0C0
:1008D000FBA3E0FAA3E0F99000081206929000064C
:1008E000120631FEB5070E900007120631FF900088
:1008F00021E06F6015900021E06E704D90000712AE
:100900000631FF900022E06F703F90000112063127
:10091000B4030E900014E0FBA3E0FAA3E0F9020395
:1009200082900014E0FBA3E0FAA3E0F99000081223
:100930000692900001120631B40625900014E0FBE7
:10094000A3E0FAA3E0F9020751AA3EA93F1206C2AA
:100950007BFF7A0A797F120088AA41A9421206C257
:010960002274
:10038200900017EBF0A3EAF0A3E9F0E4A3F0A3F0E6
:10039200A3F0A3F0A37403F0900017E0FBA3E0FA2C
:1003A200A3E0F9900008120692900002120631248E
:1003B20000FFEFFE9000031206317C002400FFECE8
:1003C2003E90001AF0A3EFF09000041206312400D0
:1003D200FFEFFE9000051206312400FFEC3EFE9076
:1003E200001CF0A3EFF090001BE02FFF90001AE03A
:1003F2003EFED3EF940AEE940040030205D890002B
:100402001CE0FEA3E0FF9400EE940050030205D826
:10041200EF9403EE940040030205D87885E6FF903E
:100422000017E0FBA3E0FAA3E0F9900005120692A0
:10043200EF12065E900017E0FBA3E0FAA3E0F9904A
:100442000005120692900001740312067090001CBF
:10045200A3E025E0FF900017E0FBA3E0FAA3E0F998
:10046200900005120692900002EF120670E4F54326
:10047200D390001DE0954390001CE09400500302CD
:100482000520854344AF437E00EF2401FDEE33FC9B
:10049200D3E5449DEC6480F87480985075E544651A
:1004A2004390001B701CE02FFF90001AE03EFEEF0D
:1004B20025E0FFEE33FE74002FF58274003EF583D3
:1004C200801DE02543FF90001AE03400FEEF25E096
:1004D200FFEE33FE74002FF58274003EF583A3E035
:1004E200FF900017E0FBA3E0FAA3E0F990000512E9
:1004F2000692E92403F9E43AFAE5437C0029F9EC8F
:100502003AFAE54429F9EC3AFAEF12065E0544029A
:10051200048790001EE02402F0054302047290005A
:1005220017E0FBA3E0FAA3E0F9900005120692C0DF
:100532000290001EE0FD900023A3E0FAA3E0F58202
:100542008A83D0021206C690001FEEF0A3EFF0904D
:10055200001FE0FEA3E0FFFD900017E0FBA3E0FA1E
:10056200A3E0F990000512069290001EE0FC04F050
:100572008C82758300ED120670EEFF900017E0FB8F
:10058200A3E0FAA3E0F990000512069290001EE0A3
:10059200FE04F08E82758300EF120670900017E061
:1005A200FBA3E0FAA3E0F9900005120692C003C093
:1005B20002C00190001EE0FD900017E0FBA3E0FAEC
:1005C200A3E0F990001112069289828A83D001D0A9
:1005D20002D0030206C690001CE0FEA3E0FF9000DA
:1005E2001BE02FFF90001AE03EFED3EF940AEE9438
:1005F20000AA3EA93F400B1206C27BFF7A0A7995F8
:1006020080091206C27BFF7A0A79B9120088AA41D0
:05061200A9421206C21E
:0106170022C0
:10075100900017EBF0A3EAF0A3E9F0E4A3F0A3F013
:10076100A3F0A3F0FF900017E0FBA3E0FAA3E0F9E8
:100771009000081206928F82758300120631FE9056
:100781000017E0FBA3E0FAA3E0F99000051206923E
:100791008F82758300EE1206700FBF08C890001794
:1007A100E0FBA3E0FAA3E0F9900005120692C00372
:1007B100C002C001900017E0FBA3E0FAA3E0F990AA
:1007C100001112069289828A83D001D002D0037D62
:1007D100081206C6900017E0FBA3E0FAA3E0F99027
:1007E1000008120692900002120631FF90001BE0F1
:1007F1002FFFEFFE9000031206317C002400FFEC76
:100801003E90001AF0A3EFF09000041206312FFF82
:10081100EFFE9000051206312400FFEC3E90001C13
:10082100F0A3EFF090001AE0FEA3E0FFD39409EEED
:1008310094005023C3EE9400401DA3E0FCA3E0FD0F
:10084100EF25E0FFEE33FE74002FF58274003EF5D4
:1008510083ECF0A3EDF022AA3EA93F1206C27BFF72
:0E0861007A0A79D8120088AA41A9421206C26A
:01086F002266
:0709EB00056C0000FF0E5235
:100E5200538E7F5389F0E4F58A758CEEC28DD28C65
:010E6200226D
:03000B00020DE7FC
:100DE700C0E0C0D0056CE56CC394C84005756C00C5
:090DF700B2B4056DD0D0D0E03299
:030000000209F3FF
:0C09F300787FE4F6D8FD758188020A3A8E
:10061800BB010689828A83E0225002E722BBFE02E0
:09062800E32289828A83E4932213
:10063100BB010CE58229F582E5833AF583E022507E
:1006410006E92582F8E622BBFE06E92582F8E222C8
:0D065100E58229F582E5833AF583E49322E2
:10065E00BB010689828A83F0225002F722BBFE017B
:02066E00F32275
:10067000F8BB010DE58229F582E5833AF583E8F0C0
:10068000225006E92582C8F622BBFE05E92582C86C
:02069000F22254
:10069200BB010DE58229F582E5833AF58302070D58
:1006A2005007E92582F80206F4BBFE07E92582F825
:1006B200020716E58229F582E5833AF58302071FD0
:0606C2008A838982E473C3
:10002600E5542448F8E60554227845300A02784813
:10003600E475F0011206FD0206182003EB7F2ED2AE
:10004600038018EF540F2490D43440D4FF30070BAC
:10005600EF24BFB41A0050032461FFE55560021572
:10006600550558E55870020557300A0D7845E47570
:10007600F0011206FDEF02065E020E927403D20A2A
:100086008003E4C20AF5548B458A468947E4F55550
:10009600F557F558E55560077F2012006180F57524
:1000A60056FFC204C203C205C206C208C209C20B79
:1000B60012002FFF700D300A057F00120072AF5834
:1000C600AE5722B4255FC2D5C20712002FFF24D037
:1000D600B40A00501A75F00A785530D50508B6FFEF
:1000E6000106C6A426F620D5047002D20680D924BD
:1000F600CFB41A00EF5004C2E5D207020272D2044E
:1001060080C6D20380C0D20580BCD2D580BAD208C0
:1001160080B47F201200612005077401B5550040A8
:10012600F1120026FF12006102009AD20BD209805A
:1001360095120026FB120026FA120026F94A4B7089
:100146000679437A037BFF20052EE555602A7E005B
:100156008E8275830012063160060EEE655670F0CB
:10016600C2D5EBC0E0EAC0E0E9C0E0EE1202B9D0C9
:10017600E0F9D0E0FAD0E0FB120618FF60AAEBC067
:10018600E0EAC0E0E9C0E0120061D0E02401F9D065
:10019600E03400FAD0E0FBE5560460DCD556D980A1
:1001A600877BFF7A0279B5D205809C791080027927
:1001B60008C209C20B8008D2D5790A8004790AC21E
:1001C600D5E556047002F556E4FAFDFEFF12002648
:1001D600FC7B08200413120026FD7B1030030A1254
:1001E6000026FE120026FF7B20EC3382D592D550E6
:1001F60013C3E43003069FFFE49EFEE42004039D40
:10020600FDE49CFCE4CBF8C204EC700CCFCECDCC64
:10021600E824F8F870F38017C3EF33FFEE33FEEDF2
:1002260033FDEC33FCEB33FB994002FB0FD8E9EBD3
:10023600300405F8D0E0C448B204C0E00AEC4D4EE4
:100246004F78207B0070C2EAB5560040BCC0E01271
:1002560002BBD0F0D0E0200404C4C0E0C4B204C0A5
:10026600F012004AD0F0D5F0EB02009A12072B01EB
:10027600375301B15801084C01044201B54F01BD85
:0F0286004401BD49011D4301C35501A74601A70E
:100295004501A747036350010C2D01102E01332B97
:1002A500011423013120034C2A00CC480000012B06
:1002B5003F3F3F00790AA2D5200614300809B9103E
:1002C500020404B9080104A2D52009025001042042
:1002D50005689205B555005034C0E07F20300619F9
:1002E5007F30A20572097208500F120312C205C2AF
:1002F50009C208C20B7F30800F300803E9C0E01245
:100305000061300803D0E0F9D0E0B555CC300817CE
:100315007F30B9100C1200617F583007077F788055
:1003250003B908031200613005057F2D0200617FC6
:1003350020200BF87F2B2009F322920580CF286E11
:10034500756C6C2900D2041200263004F8C20478BA
:100355005530D50108F60200CC2D504349581200FE
:10036500262403B405004001E490035E9312005275
:0D037500743A120052D2067555040201B10F
:1006C800EF4E6012EF60010EEDBB010B89828A8349
:1006D800F0A3DFFCDEFA2289F05007F709DFFCA956
:0C06E800F022BBFEFCF309DFFCA9F022AD
:1009FF00020E63E493A3F8E493A34003F68001F29D
:100A0F0008DFF48029E493A3F85407240CC8C333F8
:100A1F00C4540F4420C8834004F456800146F6DFC7
:100A2F00E4800B0102040810204080900961E47EED
:100A3F00019360BCA3FF543F30E509541FFEE493BC
:100A4F00A360010ECF54C025E060A840B8E493A383
:100A5F00FAE493A3F8E493A3C8C582C8CAC583CAAE
:100A6F00F0A3C8C582C8CAC583CADFE9DEE780BE66
:0109F2000004
:0906F400E6FB08E6FA08E6F9222B
:1006FD00FAE6FB0808E6F925F0F618E6CA3AF622FE
:09070D00E0FBA3E0FAA3E0F922ED
:09071600E2FB08E2FA08E2F92214
:0C071F00E493FB740193FA740293F92236
:10072B00D083D082F8E4937012740193700DA3A35D
:10073B0093F8740193F5828883E473740293686071
:06074B00EFA3A3A380DF71
:00000001FF
