:1007650050726F6772616D2069732072756E6E6964
:100775006E672E0A005033343D3100BFAAB5C62539
:10078500730A005033343D3000B9D8B5C625730A15
:010795000063
:030688000153001B
:10046400AA51A9521203BDAA36A9371203BD7BFFB4
:100474007A077965120088AA39A93A1203BD750B67
:10048400FF750C07750D7AAB26AA27A9281205B1AA
:10049400E94A603BAA36A9371203BD85260B852796
:1004A4000C85280D7BFF7A077980120088AA39A968
:1004B4003A1203BDD2B4AB26AA27A92812080F7D8D
:1004C40000AB26AA27A9281203C3E4F52580AF753B
:1004D4000BFF750C07750D88AB26AA27A9281205F2
:1004E400B1E94A6099AA36A9371203BD85260B855E
:1004F400270C85280D7BFF7A07798E120088AA398C
:10050400A93A1203BDC2B4AB26AA27A92812080F20
:100514007D00AB26AA27A9281203C3E4F52502040B
:010524008254
:030003000208B040
:0308B000B2B432AD
:05068B00031DFF07BF85
:0B088D000000007F0B7EBEDEFEDFFCE3
:01089800223D
:0407BF00AD07AC06D0
:1007C300E4FBFAC3EB9DEC6480F8EA648098500A7A
:0A07D30012088D0BBB00010A80E93B
:0107DD0022F9
:0E0690000C3BFF0824FF0838FF084CFF07F959
:1008240075B10475B21020B304D2B480F930B3F6B4
:04083400C2B480F2D8
:1008380075B10475B21420B204D2B480F930B2F69E
:04084800C2B480F2C4
:10084C0075B10475B21020B204D2B480F930B2F68E
:04085C00C2B480F2B0
:1007F90075B10475B210D2B320B304D2B480F93004
:06080900B3F6C2B480F258
:10069E000A540000000000000000000019220300B0
:1006AE000000000054FF071FFF0899FF06D4FF004B
:0706BE0022FF0870FF086035
:10071F00759850E4F58753890F438E40538EFE53DF
:10072F00A27F43A240E52214600A14600F146011E7
:10073F0024038015758BE0758DFE8013758B70808B
:10074F0003758BE8758DFF8006758BC0758DFDC2A7
:06075F00ABD28ED29C22F9
:0C089900E523640160FA7523018F9922A9
:1006D4008B088A09890AAA36A9371203BDAB08AA6E
:1006E40009A90A1203826019050AE50A70020509BC
:1006F40014F9120382FF852E82852D831203C18093
:10070400DCE523640160FA851F82851E837F017EF8
:0B071400001203C1AA39A93A0203BD7C
:0E087F008F1C852E82852D831203C1AF1C2293
:0F087000D2A0851F82851E837F027E000203C1F6
:10086000851F82851E837F027E001203C1C2A022E3
:0100220022BB
:030023000206339F
:10063300C0E0C083C082C0D075D000C000C001C07C
:1006430002C003C007309905C29975230030982270
:10065300C298E525C3940A5014AB26AA27A928AF4C
:100663002505258F82758300E59912039B75240068
:100673000553D007D003D002D001D000D0D0D08210
:05068300D083D0E0323D
:0E06C5000C47FF07DEFF08A5FF0006FF0796A3
:1007DE0075B14475B290C2B5E4F59575960153A006
:0B07EE00FEF5C975CAFFD2CCC2CD22B7
:0B08A500D2A8D288D2A9D2ACD2AF22D8
:10000600E4F508B2B4851F82851E837F647E0012E4
:0B00160003C10508E508C3940A40E898
:0100210022BC
:10079600851F82851E837F647E001203C1AA48A935
:1007A600491203BDAA4EA94F1203BDAA4BA94C126A
:0907B60003BDAA2AA92B0203BD10
:03000000020525D1
:0C052500787FE4F6D8FD75815D02056C5E
:10038200BB010689828A83E0225002E722BBFE0279
:09039200E32289828A83E49322AC
:10039B00F8BB010DE58229F582E5833AF583E8F098
:1003AB00225006E92582C8F622BBFE05E92582C844
:0203BB00F2222C
:0603BD008A838982E473CB
:10002600E517240BF8E60517227808300702780B47
:10003600E475F00112042E0203822000EB7F2ED21B
:10004600008018EF540F2490D43440D4FF30040BB2
:10005600EF24BFB41A0050032461FFE518600215AF
:1000660018051BE51B7002051A30070D7808E475A4
:10007600F00112042EEF02041C02087F7403D2075B
:100086008003E4C207F5178B088A09890AE4F51884
:10009600F51AF51BE51860077F2012006180F575DB
:1000A60019FFC201C200C202C203C205C206C208CB
:1000B60012002FFF700D3007057F00120072AF1B74
:1000C600AE1A22B4255FC2D5C20412002FFF24D077
:1000D600B40A00501A75F00A781830D50508B6FF2C
:1000E6000106C6A426F620D5047002D20380D924C0
:1000F600CFB41A00EF5004C2E5D204020272D20154
:1001060080C6D20080C0D20280BCD2D580BAD205C9
:1001160080B47F201200612002077401B5180040E8
:10012600F1120026FF12006102009AD208D2068060
:1001360095120026FB120026FA120026F94A4B7089
:100146000679437A037BFF20022EE518602A7E009B
:100156008E827583001203EF60060EEE651970F04D
:10016600C2D5EBC0E0EAC0E0E9C0E0EE1202B9D0C9
:10017600E0F9D0E0FAD0E0FB120382FF60AAEBC000
:10018600E0EAC0E0E9C0E0120061D0E02401F9D065
:10019600E03400FAD0E0FBE5190460DCD519D9801B
:1001A600877BFF7A0279B5D202809C79108002792A
:1001B60008C206C2088008D2D5790A8004790AC224
:1001C600D5E519047002F519E4FAFDFEFF120026C2
:1001D600FC7B08200113120026FD7B1030000A125A
:1001E6000026FE120026FF7B20EC3382D592D550E6
:1001F60013C3E43000069FFFE49EFEE42001039D46
:10020600FDE49CFCE4CBF8C201EC700CCFCECDCC67
:10021600E824F8F870F38017C3EF33FFEE33FEEDF2
:1002260033FDEC33FCEB33FB994002FB0FD8E9EBD3
:10023600300105F8D0E0C448B201C0E00AEC4D4EEA
:100246004F78207B0070C2EAB5190040BCC0E012AE
:1002560002BBD0F0D0E0200104C4C0E0C4B201C0AB
:10026600F012004AD0F0D5F0EB02009A12043E01DB
:10027600375301B15801084C01044201B54F01BD85
:0F0286004401BD49011D4301C35501A74601A70E
:100295004501A747036350010C2D01102E01332B97
:1002A500011423013120034C2A00CC480000012B06
:1002B5003F3F3F00790AA2D5200314300509B91044
:1002C500020404B9080104A2D52006025001042045
:1002D50002689202B518005034C0E07F203003193F
:1002E5007F30A20272067205500F120312C202C2BB
:1002F50006C205C2087F30800F300503E9C0E01251
:100305000061300503D0E0F9D0E0B518CC30051711
:100315007F30B9100C1200617F583004077F788058
:1003250003B908031200613002057F2D0200617FC9
:10033500202008F87F2B2006F322920280CF286E1A
:10034500756C6C2900D2011200263001F8C20178C3
:100355001830D50108F60200CC2D5043495812003B
:10036500262403B405004001E490035E9312005275
:0D037500743A120052D2037518040201B14F
:10080F00E4FFFE120382600C0FEF70010E09E97016
:05081F00F20A80EF2247
:1005B1008B088A09890AAB0BAA0CA90D1203826068
:1005C10063AB08AA09A90A120382605F850B0E8535
:1005D1000C0F850D108B118A128913AB0EAA0FA96E
:1005E10010120382FF6023AB11AA12A91312038216
:1005F1006F7017042510F510E4350FF50F74012500
:1006010013F513E43512F51280D1AB0EAA0FA91020
:100611001203827002800D7401250AF50AE435097E
:10062100F509809DAB08AA09A90A227B007A007905
:020631000022A5
:1003C300EF4E6012EF60010EEDBB010B89828A8351
:1003D300F0A3DFFCDEFA2289F05007F709DFFCA95E
:0C03E300F022BBFEFCF309DFFCA9F022B5
:10053100020464E493A3F8E493A34003F68001F278
:1005410008DFF48029E493A3F85407240CC8C333CB
:10055100C4540F4420C8834004F456800146F6DF9A
:10056100E4800B0102040810204080900688E47E9C
:10057100019360BCA3FF543F30E509541FFEE4938F
:10058100A360010ECF54C025E060A840B8E493A356
:10059100FAE493A3F8E493A3C8C582C8CAC583CA81
:1005A100F0A3C8C582C8CAC583CADFE9DEE780BE39
:0106D3000026
:1003EF00BB010CE58229F582E5833AF583E02250C3
:1003FF0006E92582F8E622BBFE06E92582F8E2220D
:0D040F00E58229F582E5833AF583E4932226
:10041C00BB010689828A83F0225002F722BBFE01BF
:02042C00F322B9
:10042E00FAE6FB0808E6F925F0F618E6CA3AF622CF
:10043E00D083D082F8E4937012740193700DA3A34D
:10044E0093F8740193F5828883E473740293686061
:06045E00EFA3A3A380DF61
:00000001FF
