:0A2CCB0052756E6E696E67210A00F3
:03131000012600B3
:1023CF009001EDE4F09001EEE4F09001A2E0FBA3A8
:1023DF00E0FAA3E0F91217607BFF7A2C79CBC003E8
:1023EF00C002C001900078E0FBA3E0FAA3E0F989F6
:1023FF00828A83D001D002D0031217649001EDE4DA
:10240F00F09001EDE0FFEFC3940A50F09001EDE082
:10241F00FD9001B4E0FBA3E0FAA3E0F989828A837F
:10242F007F011217649001EEE4F09001EEE0FFEFF0
:10243F00C3940A50359001EEE0FD9001B4E0FBA388
:10244F00E0FAA3E0F989828A837F02121764900170
:10245F00B7E0FBA3E0FAA3E0F989828A837F0A122F
:10246F0017649001EEE004F080C09001EDE004F0FD
:02247F00808F4C
:012481002238
:0C2CBF0057694669204572726F720A0066
:101313005401320000000000000000000000000043
:10132300000000000000004F0146FF2ABCFF2BAC69
:09133300FF0006FF003FFF2AFD48
:102BAC007BFF7A2C79BFC003C002C001900078E093
:102BBC00FBA3E0FAA3E0F989828A83D001D002D08A
:052BCC00031217642252
:0400060043C72022AA
:03003F00B2B42236
:102AFD009001D6EBF0A3EAF0A3E9F09001D9EDF047
:102B0D009001D9E0FF7E007D009001D6E0FBA3E0AF
:102B1D00FAA3E0F9121766900146E0FBA3E0FAA3D1
:0E2B2D00E0F989828A837F0A7E0012176422F3
:082ABC009001DAEEF0A3EFF047
:102AC4009001DCE4F0A3E4F09001DAE0FEA3E0FF7F
:102AD4009001DCE0FCA3E0FDC3ED9FEE6480F8EC24
:102AE4006480985013122C0C9001DDE004F0700601
:082AF4009001DCE004F080D049
:012AFC0022B7
:102C0C0000000075150B7516BE1516AF16EF70F992
:072C1C001515AF15EF70F272
:012C2300228E
:0F133C004C018DFF000EFF2C3BFF2C50FF2C248B
:10000E0075B10475B21020B304D2B480F930B3F6D2
:05001E00C2B480F222D3
:102C3B0075B10475B21420B204D2B480F930B2F677
:052C4B00C2B480F2227A
:102C500075B10475B21020B204D2B480F930B2F666
:052C6000C2B480F22265
:102C240075B10475B210D2B320B304D2B480F930B4
:072C3400B3F6C2B480F222E6
:102C65004E6F74206861766520382042797465A3BB
:042C7500A1A3A10076
:10134B0060320032000000000000000000000000CE
:10135B000000000000000000000000000000000082
:10136B000000000000000000000000000000000072
:10137B0000000000000060320000000000000000D0
:10138B000000000000000000000000000000000052
:10139B000000000000000000000000000000000042
:1013AB00000000000000000000000000602100644D
:1013BB000003000000010000010032FF219CFF2907
:1013CB00DEFF2514FF231BFF200401FF0026FF2B4C
:0113DB00F31E
:10219C00900064E0FFEF12173A21AC00000021B16F
:1021AC0075985080037598D090007EE0FFEF121761
:1021BC003A21CA0021CF0121CA02000021D553A225
:1021CC003F800653A27F43A24075870053890F437B
:1021DC008E40538EFE900065E0FFEF12173A21FA05
:1021EC0000220201220A022212030000221A758B1D
:1021FC00C0758DFD801E758BE0758DFE8016758B00
:10220C0070758DFF800E758BE8758DFF8006758B54
:10221C00C0758DFDC2ABD28ED29C90006CE0FBA33E
:10222C00E0FAA3E0F9C003C002C001900152E0FB48
:10223C00A3E0FAA3E0F989828A83D001D002D0030B
:10224C007D32121764900067E4F0900068E4F0228D
:0529DE009001FBEFF089
:1029E300900066E0FFEF640160F6900064E0FFEFA3
:1029F30060289001FBE0FFEFA2D0920D900064E00D
:102A0300FFEF12173A2A12012A190200002A1DA207
:102A13000DB3929B8004A20D929B9000667401F00B
:072A23009001FBE0FF8F9919
:012A2A002289
:0B231B009001EAEBF0A3EAF0A3E9F068
:10232600781E760008760090007EE0FFEFB4010E7E
:1023360090007FE0FBA3E0FAA3E0F912176090019A
:10234600EAE0FBA3E0FAA3E0F9781EE6FE08E6FF62
:102356008F828E83121693FFEF60369001EAE0FBC0
:10236600A3E0FAA3E0F9781EE6FE08E6FF8F828E68
:1023760083121693FF900072E0FBA3E0FAA3E0F944
:1023860089828A83121764781F06E6187001068010
:10239600AD900066E0FFEF640160F690007EE0FF1E
:1023A600EFB40124900146E0FBA3E0FAA3E0F9892B
:1023B600828A837F017E00121764900082E0FBA36D
:0823C600E0FAA3E0F912176030
:0123CE0022EC
:102514009001DEEBF0A3EAF0A3E9F09001E1EDF025
:1025240090007EE0FFEFB4010E90007FE0FBA3E09B
:10253400FAA3E0F91217609001E1E0FF14F0EF60F4
:10254400289001DEE0FBA3E475F0011216F4A9F073
:10255400FA12167AFF900072E0FBA3E0FAA3E0F906
:1025640089828A8312176480CE900066E0FFEF644C
:102574000160F690007EE0FFEFB40124900146E094
:10258400FBA3E0FAA3E0F989828A837F017E00122B
:102594001764900082E0FBA3E0FAA3E0F91217604D
:0125A4002214
:102BD1009001FCEFF09001FCE0FF900072E0FBA39C
:102BE100E0FAA3E0F989828A831217649001FCE07C
:022BF100FF22C1
:10002600D2A0900146E0FBA3E0FAA3E0F989828A18
:09003600837F027E001217642290
:102BF300900146E0FBA3E0FAA3E0F989828A837F90
:092C0300027E00121764C2A02237
:10200400D20E900067E0FFEF640160030220CF90DE
:10201400006CE0FBA3E0FAA3E0F9AE02AF01EF4EDF
:10202400607178187600087600900068E0FFEFC3CE
:10203400940850127818E6FE08E6FFC3EF9414EEF5
:10204400940040E5C20E300E257B017A007964C00D
:1020540003C002C0017823860308E6FA08E6F9897A
:10206400828A83D001D002D00312176480259000A5
:102074007FE0FBA3E0FAA3E0F91217607BFF7A2C60
:1020840079651204EB900082E0FBA3E0FAA3E0F987
:1020940012176090006CE0FBA3E0FAA3E0F9C00320
:1020A400C002C001900068E0FD900152E0FBA3E093
:1020B400FAA3E0F989828A83D001D002D0031217EF
:0B20C40064900067E4F0900068E4F016
:0120CF0022EE
:03002300021E5268
:0B1E5200C0E0C083C082C0D075D00883
:101E5D00309907C299900066E4F0209803021F2282
:101E6D00C2989001FDE599F0A29A92099001FDE0CA
:101E7D00FFEFA2D0920A900068E0FFEFC3943240CA
:101E8D0003021F1C900064E0FFEF12173A1EFC00C6
:101E9D001EA7011ED20200001F1CA209B3300A01A9
:101EAD00B3406C9001FDE0FF90006CE0FBA3E0FA05
:101EBD00A3E0F9900068E0FE04F08E82758300EFD8
:101ECD001216D2804AA20A300901B340429001FD98
:101EDD00E0FF90006CE0FBA3E0FAA3E0F99000684E
:101EED00E0FE04F08E82758300EF1216D2802090F2
:101EFD0001FDE0FF90006CE0FBA3E0FAA3E0F99098
:101F0D000068E0FE04F08E82758300EF1216D29009
:051F1D0000677401F0F3
:091F2200D0D0D082D083D0E0328F
:0F13DC004C0199FF2B3BFF2CB1FF2B76FF28AC68
:102B3B0075930075940C75800075B14475B290C295
:102B4B00B575957075967153A0FE75C90075CAFF62
:102B5B00D2CCC2CD900146E0FBA3E0FAA3E0F98909
:0B2B6B00828A837F027E001217642222
:0E2CB100D2A8D288D2A9D2AC43AF01D2AF22B2
:102B76009001FEE4F09001FEE4F09001FEE0FFEF2C
:102B8600C394055020B2B4900146E0FBA3E0FAA33B
:102B9600E0F989828A837F327E001217649001FEF3
:052BA600E004F080D501
:012BAB002207
:1028AC00900146E0FBA3E0FAA3E0F989828A837FDA
:1028BC00647E00121764900199E0FBA3E0FAA3E098
:1028CC00F912176090019FE0FBA3E0FAA3E0F91264
:1028DC00176090019CE0FBA3E0FAA3E0F9121760EB
:1028EC00781B860308E6FA08E6F912176090006F69
:1028FC00E0FBA3E0FAA3E0F91217609001B1E0FB52
:0A290C00A3E0FAA3E0F9121760221D
:0A13EB004701C200000000FF1D7062
:101D70009001BAEBF0A3EAF0A3E9F09001BDEDF019
:101D80009001BEE4F0A3E4F09001C0E4F09001C142
:101D9000E4F09001BE74FFF0A374FFF09001C0E482
:101DA000F09001BDE0FF9001C0E0FEEEC39F400354
:101DB000021E499001BEE0FEA3E0FF9001BAE0FBE5
:101DC000A3E0FAA3E0F99001C0E0FD8D82758300E5
:101DD000121693FD7C00EE6CFEEF6DFF9001BEEEDF
:101DE000F0A3EFF09001C1E4F09001C1E0FFEFC378
:101DF0009408504C9001BEE0FEA3E0FFEF30E021DC
:101E00009001BEE0FEA3E0FFEEC313FEEF13FFEE72
:101E100064A0FEEF6401FF9001BEEEF0A3EFF0803E
:101E2000179001BEE0FEA3E0FFEEC313FEEF13FF29
:101E30009001BEEEF0A3EFF09001C1E004F080A9A4
:101E40009001C0E004F0021DA19001BEE0FEA3E0FD
:011E5000FF92
:011E5100226E
:10273E00435243313620436865636B204552524FF6
:10274E0052A3A1A3A10052656769737420616464EA
:10275E0072657373206F7574206F662072616E6779
:10276E0065A3A1A3A1307E390A004F6E6C79207249
:10277E006561642074776F20726567697374206F6A
:10278E006E6365A3A1A3A10A0052656769737420E5
:10279E0061646472657373206F7574206F66207246
:0E27AE00616E676532A3A1A3A1307E390A00D7
:0613F500042201FF114B70
:0B114B009001D0EBF0A3EAF0A3E9F064
:101156009001D0E0FBA3E0FAA3E0F99001D3EBF015
:10116600A3EAF0A3E9F09001D3E0FBA3E0FAA3E041
:10117600F975820875830012170A12167AFF78220B
:10118600E6FEEF6E600302130F9001D3E0FBA3E0CF
:10119600FAA3E0F975820875830012170AC003C026
:1011A60002C0019001C6E0FBA3E0FAA3E0F9898240
:1011B6008A83D001D002D0037D061217649001C243
:1011C600EEF0A3EFF09001C2E0FEA3E0FFEEFF7E9B
:1011D600009001C4EFF09001C2E0FEA3E0FF900191
:1011E600C5EFF09001D3E0FBA3E0FAA3E0F9758226
:1011F6000875830012170A75820675830012169306
:10120600FF9001C5E0FEEFB506279001D3E0FBA3F2
:10121600E0FAA3E0F975820875830012170A758251
:1012260007758300121693FF9001C4E0FEEF6E600F
:10123600519001D3E0FBA3E0FAA3E0F975820875AB
:10124600830012170A758206758300121693FF90A3
:1012560001C4E0FEEF6E60030212EA9001D3E0FBE8
:10126600A3E0FAA3E0F975820875830012170A75E0
:101276008207758300121693FF9001C5E0FEEF6E9C
:1012860070629001D3E0FBA3E0FAA3E0F97582084F
:1012960075830012170A758201758300121693FF73
:1012A600EFB4030F9001D3E0FBA3E0FAA3E0F91239
:1012B6000046229001D3E0FBA3E0FAA3E0F9758291
:1012C6000875830012170A7582017583001216933A
:1012D600FFEFB406349001D3E0FBA3E0FAA3E0F9F4
:1012E600120D5F2290007FE0FBA3E0FAA3E0F91263
:1012F60017607BFF7A27793E1204EB900082E0FBB1
:09130600A3E0FAA3E0F91217605C
:01130F0022BB
:0B004600900180EBF0A3EAF0A3E9F0CA
:10005100900180E0FBA3E0FAA3E0F9900183EBF0CB
:10006100A3EAF0A3E9F0900186E4F0A3E4F09001A3
:1000710088E4F0A3E4F090018A7403F0900183E036
:10008100FBA3E0FAA3E0F975820875830012170A51
:10009100758202758300121693FF7E00900186E03F
:1000A100FCA3E0FDEF2DFFEE3CFEEF7F00FE900193
:1000B10083E0FBA3E0FAA3E0F975820875830012DF
:1000C100170A758203758300121693FD7C00EF2DCC
:1000D100FFEE3CFE900186EEF0A3EFF0900183E08D
:1000E100FBA3E0FAA3E0F975820875830012170AF1
:1000F100758204758300121693FF7E00900188E0DB
:10010100FCA3E0FDEF2DFFEE3CFEEF7F00FE900132
:1001110083E0FBA3E0FAA3E0F9758208758300127E
:10012100170A758205758300121693FD7C00EF2D69
:10013100FFEE3CFE900188EEF0A3EFF0900188E025
:10014100FEA3E0FF900186E0FCA3E0FDED2FFFECB4
:100151003EFED3EF940AEE94004003020415900191
:1001610088E0FEA3E0FFD3EF9400EE940050030279
:100171000415900188E0FEA3E0FFC3EF9403EE9421
:100181000040030204157822E6FF900183E0FBA3FF
:10019100E0FAA3E0F975820575830012170AEF12E0
:1001A10016C0900183E0FBA3E0FAA3E0F975820594
:1001B10075830012170A7582017583007403121684
:1001C100D2900188E0FEA3E0FFEF25E0FF900183DC
:1001D100E0FBA3E0FAA3E0F975820575830012172D
:1001E1000A758202758300EF1216D290018BE4F03A
:1001F10090018BE0FF7E00900188E0FCA3E0FDC34D
:10020100EF9DEE9C400302033990018BE0FF9001CA
:100211008CEFF090018BE0FF7E00EF2401FFEE34C4
:1002210000FE90018CE0FD7C00D3ED9FEE6480F830
:10023100EC648098400302032990018BE0FF900158
:100241008CE0FEEE6F706F90018BE0FF7E009001FD
:1002510086E0FCA3E0FDEF2DFFEE3CFEEF25E0FF85
:10026100EE33FE74322FF58274013EF583E0FEA376
:10027100E0FFEEFF7E00900183E0FBA3E0FAA3E044
:10028100F975820575830012170AE92403F9EA3426
:1002910000FA90018BE0FEEEFD7C00E92DF9EA3CCD
:1002A100FA90018CE0FEEEFD7C00E92DF9EA3CFAC2
:1002B100EF1216C0806990018BE0FF7E00900186ED
:1002C100E0FCA3E0FDEF2DFFEE3CFEEF25E0FFEEAD
:1002D10033FE74322FF58274013EF583E0FEA3E014
:1002E100FF900183E0FBA3E0FAA3E0F975820575B5
:1002F100830012170AE92403F9EA3400FA90018B0A
:10030100E0FEEEFD7C00E92DF9EA3CFA90018CE07B
:10031100FEEEFD7C00E92DF9EA3CFAEF1216C090E1
:10032100018CE004F002021490018AE02402F090B2
:10033100018BE004F00201F1900183E0FBA3E0FAFC
:10034100A3E0F975820575830012170AC003C00284
:10035100C00190018AE0FD9001C6E0FBA3E0FAA391
:10036100E0F989828A83D001D002D0031217649008
:1003710001C2EEF0A3EFF09001C2E0FEA3E0FF9016
:100381000183E0FBA3E0FAA3E0F975820575830020
:1003910012170A90018AE0FE04F08E82758300EF45
:1003A1001216D29001C2E0FEA3E0FFEEFF7E0090A4
:1003B1000183E0FBA3E0FAA3E0F9758205758300F0
:1003C10012170A90018AE0FE04F08E82758300EF15
:1003D1001216D2900183E0FBA3E0FAA3E0F9758243
:1003E1000575830012170AC003C002C00190018A7B
:1003F100E0FD900183E0FBA3E0FAA3E0F97582112F
:1004010075830012170A89828A83D001D002D00332
:1004110012176422900188E0FEA3E0FF900186E0BC
:10042100FCA3E0FDED2FFFEC3EFED3EF940AEE942A
:1004310000402690007FE0FBA3E0FAA3E0F9121749
:10044100607BFF7A2779541204EB900082E0FBA3D2
:10045100E0FAA3E0F91217602290007FE0FBA3E02D
:10046100FAA3E0F91217607BFF7A2779781204EB7F
:0E047100900082E0FBA3E0FAA3E0F91217600E
:01047F00225A
:0B0D5F009001A5EBF0A3EAF0A3E9F07F
:100D6A009001A5E0FBA3E0FAA3E0F99001A8EBF05B
:100D7A00A3EAF0A3E9F09001ABE4F0A3E4F0900158
:100D8A00ADE4F0A3E4F09001AFE4F09001AFE0FF2E
:100D9A00EFC39408504C9001A8E0FBA3E0FAA3E04B
:100DAA00F975820875830012170A9001AFE0FF8F68
:100DBA0082758300121693FF9001A8E0FBA3E0FA64
:100DCA00A3E0F975820575830012170A9001AFE056
:100DDA00FE8E82758300EF1216D29001AFE004F006
:100DEA0080A99001A8E0FBA3E0FAA3E0F9758205C7
:100DFA0075830012170AC003C002C0019001A8E05F
:100E0A00FBA3E0FAA3E0F975821175830012170AB1
:100E1A0089828A83D001D002D0037D081217649098
:100E2A0001A8E0FBA3E0FAA3E0F975820875830044
:100E3A0012170A758202758300121693FF7E0090BC
:100E4A0001ABE0FCA3E0FDEF2DFFEE3CFEEF7F00DF
:100E5A00FE9001A8E0FBA3E0FAA3E0F97582087509
:100E6A00830012170A758203758300121693FD7C9C
:100E7A0000EF2DFFEE3CFE9001ABEEF0A3EFF090F9
:100E8A0001A8E0FBA3E0FAA3E0F9758208758300E4
:100E9A0012170A758204758300121693FF7E00905A
:100EAA0001ABE0FCA3E0FDEF2DFFEE3CFEEF7F007F
:100EBA00FE9001A8E0FBA3E0FAA3E0F975820875A9
:100ECA00830012170A758205758300121693FD7C3A
:100EDA0000EF2DFFEE3CFE9001ADEEF0A3EFF09097
:100EEA0001ABE0FEA3E0FFD3EF9409EE9400503586
:100EFA009001ABE0FEA3E0FFC3EE9400402790010F
:100F0A00ADE0FCA3E0FD9001ABE0FEA3E0FFEF251E
:100F1A00E0FFEE33FE74322FF58274013EF583EC66
:100F2A00F0A3EDF02290007FE0FBA3E0FAA3E0F942
:100F3A001217607BFF7A2779971204EB900082E000
:0A0F4A00FBA3E0FAA3E0F912176020
:010F5400227A
:0913FB00071700000000FF2CA000
:102CA000538E7F5389F0758A00758CEEC28DD28C5D
:012CB0002201
:03000B000224824A
:10248200C0E0C0F0C083C082C0D075D000C000C020
:1024920001C002C003C004C005C006C007781AE626
:1024A200FFEFB4011F781706E6FFEFC3940A40312D
:1024B2007817760090014FE0FBA3E0FAA3E0F9124F
:1024C2001760801D781706E6FFEFC394C8401278A4
:1024D20017760090014FE0FBA3E0FAA3E0F9121790
:1024E20060781906E618700106900158E004F07051
:1024F20006900157E004F0D007D006D005D004D0F2
:1025020003D002D001D000D0D0D082D083D0F0D07E
:02251200E032B5
:102C79004E6F74206861766520382042797465A3A7
:042C8900A1A3A10062
:10140400603200D80000000000000000000000006E
:1014140000000000000000000000000000000000C8
:1014240000000000000000000000000000000000B8
:101434000000000000006032008500000000000091
:101444000000000000000000000000000000000098
:101454000000000000000000000000000000000088
:10146400000000000000000000000000602100B740
:1014740000030000000100850100D8FF2631FF278A
:10148400BCFF2A2BFF2916FF20D000FF000AFF0013
:011494004215
:10263100759A50438E0453BAFE900065E0FFEF1285
:10264100173A265300265B01266302266B0300001E
:10265100267375D7C075D6FD801E75D7E075D6FE79
:10266100801675D77075D6FF800E75D7E875D6FFC1
:10267100800675D7C075D6FD53AFFB438E10439AC4
:10268100109000BFE0FBA3E0FAA3E0F9C003C00291
:10269100C001900152E0FBA3E0FAA3E0F989828A2C
:1026A10083D001D002D0037D321217649000BAE4C6
:0726B100F09000BBE4F022F1
:0527BC009001EFEFF0B9
:1027C1009001F0E4F09000B9E0FFEF640160F69051
:1027D10000B7E0FFEF60549001EFE0FFEFA2D0E41B
:1027E10033FF9001F0E0FEEF2EFFEF33333354F867
:1027F100FF9001F0EFF09000B7E0FFEF12173A28D9
:102801000A01281C020000282C9001F0E0FFEF7063
:1028110005439A088015539AF780109001F0E0FF64
:10282100EF7005539AF78003439A089000B9740139
:08283100F09001EFE0FF8F9B26
:01283900227C
:0B2916009001E2EBF0A3EAF0A3E9F06F
:102921009001E5E4F09001E2E0FBA3E0FAA3E0F915
:102931009001E5E0FF8F82758300121693FFEF602F
:10294100339001E2E0FBA3E0FAA3E0F99001E5E0B6
:10295100FF8F82758300121693FF9000C5E0FBA3E1
:10296100E0FAA3E0F989828A831217649001E5E015
:0E29710004F080B19000B9E0FFEF640160F661
:01297F002235
:102A2B009001E6EBF0A3EAF0A3E9F09001E9EDF0F9
:102A3B009001E9E0FF14F0EF60289001E6E0FBA3C2
:102A4B00E475F0011216F4A9F0FA12167AFF900051
:102A5B00C5E0FBA3E0FAA3E0F989828A831217642D
:0D2A6B0080CE9000B9E0FFEF640160F6221C
:1020D000D20F9000BAE0FFEF6401600302219B90F1
:1020E00000BFE0FBA3E0FAA3E0F9AE02AF01EF4EC0
:1020F0006071781876000876009000BBE0FFEFC3AF
:10210000940850127818E6FE08E6FFC3EF9414EE28
:10211000940040E5C20F300F257B017A0079B7C0EB
:1021200003C002C0017823860308E6FA08E6F989AD
:10213000828A83D001D002D00312176480259000D8
:102140007FE0FBA3E0FAA3E0F91217607BFF7A2C93
:1021500079791204EB900082E0FBA3E0FAA3E0F9A6
:102160001217609000BFE0FBA3E0FAA3E0F9C00300
:10217000C002C0019000BBE0FD900152E0FBA3E073
:10218000FAA3E0F989828A83D001D002D003121722
:0B219000649000BBE4F09000BAE4F0A3
:01219B002221
:01000A0022D3
:01004200229B
:03004300021B7F1E
:101B7F00C0E0C083C082C0D075D000C000C001C01B
:071B8F0002C003C006C007FD
:101B9600E59A30E108539AFD9000B9E4F0E59A2001
:101BA600E003021C67539AFE7827A69BE59A540425
:101BB600FFEF1313543FFFEF24FF920B7827E6FF46
:101BC600EFA2D0920C9000BBE0FFEFC3943240032B
:101BD600021C619000B7E0FFEF12173A1C42001B8F
:101BE600EF011C190200001C61A20BB3300C01B3FB
:101BF60040697827E6FF9000BFE0FBA3E0FAA3E088
:101C0600F99000BBE0FE04F08E82758300EF121699
:101C1600D28048A20C300B01B340407827E6FF90F3
:101C260000BFE0FBA3E0FAA3E0F99000BBE0FE04EE
:101C3600F08E82758300EF1216D2801F7827E6FF9A
:101C46009000BFE0FBA3E0FAA3E0F99000BBE0FE42
:101C560004F08E82758300EF1216D29000BA7401DA
:011C6600F08D
:101C6700D007D006D003D002D001D000D0D0D08288
:051C7700D083D0E03233
:1017EF0041540D0A005769466920496E6974207487
:1017FF00696D656F757421210A004F4B000D0A004A
:10180F004578697420546F75436875616E2D2D2D61
:10181F002D0A002B00415445300D0A0041542B4333
:10182F00574D4F44455F4445463D310D0A004154E5
:10183F002B43574155544F434F4E4E0D0A004154C1
:10184F002B43574A41505F4445463D22B5CEB5CE56
:10185F00B5CE222C227A6E68786B68333039220D20
:10186F000A005749464920474F54204950002B2B17
:10187F002B0053746174653D2562642C4F4B5F469A
:10188F006C61673D2562640A0041542B43494653FE
:10189F00520D0A003139322E3136380041542B4364
:1018AF00495053544152543D22544350222C22311B
:1018BF0039322E3136382E3130312E313034222C10
:1018CF00383838380D0A00434F4E4E4543540041C7
:1018DF00542B4349504D4F44453D310D0A0041545F
:1018EF002B43495053454E440D0A0052756E6E6995
:1018FF006E67210A0054696D654F7574210A005394
:10190F00656E6420646174613D2573004E6F7420B1
:10191F00415420436F6D6D616E6421213D25730A23
:10192F0000526563656976652054696D654F7574FE
:03193F00210A007A
:10149500550156000000FF1942FF0AD3FF07E5FF7B
:1014A5002CDFFF2CE0FF1A7946016BFF0F55FF1C5F
:0514B5007C410155001F
:10194200C283900146E0FBA3E0FAA3E0F989828A10
:10195200837F647E00121764D283D2827818760065
:10196200087600781A76019000BFE0FBA3E0FAA3A4
:10197200E0F9C003C002C0019000BBE0FD9001523B
:10198200E0FBA3E0FAA3E0F989828A83D001D002C6
:10199200D0031217649000BBE4F09000BAE4F07B2D
:1019A200FF7A1779EFC003C002C0019000CBE0FBC1
:1019B200A3E0FAA3E0F989828A83D001D002D0039E
:1019C200121764900146E0FBA3E0FAA3E0F98982D2
:1019D2008A837F647E001217647818E6FE08E6FFA9
:1019E200D3EF94E8EE940340267BFF7A1779F4C094
:1019F20003C002C001900078E0FBA3E0FAA3E0F983
:101A020089828A83D001D002D003121764804D905C
:101A120000BFE0FBA3E0FAA3E0F9C003C002C001EB
:101A22007BFF7A18790990010DEBF0A3EAF0A3E9A4
:101A3200F0D001D002D00312225CC003C002C00168
:101A42007B007A007900D082D083D0E06B7008E905
:101A520065827003EA65837003021969900146E0AA
:101A6200FBA3E0FAA3E0F989828A837FE87E03126E
:071A72001764781A760022C8
:0B14D200900171EBF0A3EAF0A3E9F039
:1014DD009001797401F0900171E0FBA3E0FAA3E0B3
:1014ED00F990017AEBF0A3EAF0A3E9F0900174E032
:1014FD00FBA3E0FAA3E0F990017DEBF0A3EAF0A3E2
:10150D00E9F09000BFE0FBA3E0FAA3E0F9C003C04F
:10151D0002C0019000BBE0FD900152E0FBA3E0FA98
:10152D00A3E0F989828A83D001D002D00312176417
:10153D009000BBE4F09000BAE4F090017AE0FBA3D8
:10154D00E0FAA3E0F9C003C002C0019000CBE0FBBC
:10155D00A3E0FAA3E0F989828A83D001D002D003F7
:10156D00121764781876000876009000BFE0FBA390
:10157D00E0FAA3E0F9C003C002C0017BFF7A18793D
:10158D000C90010DEBF0A3EAF0A3E9F0D001D0022D
:10159D00D00312225CC003C002C0017B007A007927
:1015AD0000D082D083D0E06B7008E965827003EAC9
:1015BD006583604F9000BFE0FBA3E0FAA3E0F9C0A4
:1015CD0003C002C001900174E0FBA3E0FAA3E0F9AF
:1015DD0090010DEBF0A3EAF0A3E9F0D001D002D019
:1015ED000312225CC003C002C0017B007A007900A7
:1015FD00D082D083D0E06B7008E965827003EA6514
:10160D0083702C900177E0FEA3E0FF7818E6FC08CC
:10161D00E6FDD3ED9FEC9E5003021577900149E056
:10162D00FBA3E0FAA3E0F9121760900179E4F090C2
:10163D0000BFE0FBA3E0FAA3E0F9C003C002C001C4
:10164D009000BBE0FD900152E0FBA3E0FAA3E0F9AE
:10165D0089828A83D001D002D0031217649000BB17
:0C166D00E4F09000BAE4F0900179E0FF96
:01167900224E
:100AD3009001CCE0FFEF64016003020D5E781A76AB
:100AE30001900156E0FFEF64016003020B977BFF67
:100AF3007A18790FC003C002C001900078E0FBA30D
:100B0300E0FAA3E0F989828A83D001D002D00312EC
:100B130017647BFF7A187922C003C002C0019000DA
:100B2300CBE0FBA3E0FAA3E0F989828A83D001D06A
:100B330002D0031217647BFF7A187922C003C00224
:100B4300C0019000CBE0FBA3E0FAA3E0F989828A1D
:100B530083D001D002D0031217647BFF7A18792265
:100B6300C003C002C0019000CBE0FBA3E0FAA3E006
:100B7300F989828A83D001D002D0031217649001CD
:100B830046E0FBA3E0FAA3E0F989828A837FE87E4B
:100B9300031217647BFF7A1779EFC003C002C00109
:100BA3007BFF7A187909900174EBF0A3EAF0A3E9CB
:100BB300F0900177E4F0A37414F0D001D002D003D5
:100BC3001214D27BFF7A187924C003C002C0017BC0
:100BD300FF7A187909900174EBF0A3EAF0A3E9F026
:100BE300900177E4F0A37414F0D001D002D0031283
:100BF30014D27BFF7A18792BC003C002C0017BFF9C
:100C03007A187909900174EBF0A3EAF0A3E9F09064
:100C13000177E4F0A37414F0D001D002D0031214CE
:100C2300D27BFF7A18793DC003C002C0017BFF7AF3
:100C3300187909900174EBF0A3EAF0A3E9F09001AD
:100C430077E4F0A37414F0D001D002D0031214D2CD
:100C53007BFF7A18794DC003C002C0017BFF7A186D
:100C63007909900174EBF0A3EAF0A3E9F09001771E
:100C7300E4F0A374C8F0D001D002D0031214D278E8
:100C83001876000876007818E6FE08E6FFC3EF94AE
:100C9300A0EE948C4003020D4C9000BFE0FBA3E058
:100CA300FAA3E0F9C003C002C0017BFF7A1879718F
:100CB30090010DEBF0A3EAF0A3E9F0D001D002D04C
:100CC3000312225CC003C002C0017B007A007900DA
:100CD300D082D083D0E06B7008E965827003EA6547
:100CE3008360A37BFF7A187971C003C002C00190AF
:100CF3000078E0FBA3E0FAA3E0F989828A83D001BC
:100D0300D002D003121764900146E0FBA3E0FAA3DC
:100D1300E0F989828A837FE87E0312176490014693
:100D2300E0FBA3E0FAA3E0F989828A837FE87E03EC
:100D3300121764900146E0FBA3E0FAA3E0F989826D
:100D43008A837FE87E03121764781A760090014C39
:0C0D5300E0FBA3E0FAA3E0F91217602215
:1007E5009001F1E4F09001F2E4F07BFF7A18797D55
:1007F500C003C002C0019000CBE0FBA3E0FAA3E078
:10080500F989828A83D001D002D00312176490013E
:1008150046E0FBA3E0FAA3E0F989828A837FE87EBC
:100825000312176478187600087600781A76019016
:1008350001F2E0FFEF64FF7003020AC690007FE05B
:10084500FBA3E0FAA3E0F91217607BFF7A18798120
:100855009001F2E0FF90010DEFF09001F1E0FF90C3
:10086500010EEFF01204EB900082E0FBA3E0FAA387
:10087500E0F91217609001F2E0FFEF12173A089CB9
:100885000008EB01093502097F0309CF040A2A058F
:100895000A7906000008347BFF7A1779EFC003C098
:1008A50002C0017BFF7A187909900174EBF0A3EA85
:1008B500F0A3E9F0900177E4F0A37414F0D001D02F
:1008C50002D0031214D29001F1EFF09001F1E0FF94
:1008D500EFB401099001F27401F00208349001F2BD
:1008E50074FFF00208347BFF7A187924C003C00234
:1008F500C0017BFF7A187909900174EBF0A3EAF047
:10090500A3E9F0900177E4F0A37414F0D001D002CC
:10091500D0031214D29001F1E0FFEFB40109900168
:10092500F27402F00208349001F274FFF002083408
:100935007BFF7A18792BC003C002C0017BFF7A18B0
:100945007909900174EBF0A3EAF0A3E9F09001773F
:10095500E4F0A37414F0D001D002D0031214D290A5
:1009650001F1E0FFEFB401099001F27403F0020810
:10097500349001F274FFF00208347BFF7A187998FD
:10098500C003C002C0017BFF7A1879A3900174EB04
:10099500F0A3EAF0A3E9F09001777403F0A374E8FB
:1009A500F0D001D002D0031214D29001F1EFF090F3
:1009B50001F1E0FFEFB401099001F27404F00208BF
:1009C500349001F274FFF00208347BFF7A1879AB9A
:1009D500C003C002C0017BFF7A1879D6900174EB81
:1009E500F0A3EAF0A3E9F09001777403F0A374E8AB
:1009F500F0D001D002D0031214D29001F1EFF090A3
:100A050001F1E0FFEFB4010F9001567401F0900180
:100A1500F27405F0020834900156E4F09001F27486
:100A2500FFF00208347BFF7A1879DEC003C002C0EC
:100A3500017BFF7A187909900174EBF0A3EAF0A322
:100A4500E9F0900177E4F0A37414F0D001D002D05E
:100A5500031214D29001F1EFF09001F1E0FFEFB431
:100A650001099001F27406F00208349001F274FF56
:100A7500F00208347BFF7A1879EDC003C002C0018B
:100A85007BFF7A187909900174EBF0A3EAF0A3E9EA
:100A9500F0900177E4F0A37414F0D001D002D003F4
:100AA5001214D29001F1EFF09001F1E0FFEF640133
:100AB50060030208349001F274FFF0020834020862
:0D0AC50034781A7600900157E4F0A3E4F0B5
:010AD2002201
:012CDF0022D2
:012CE00022D1
:101A7900900156E0FFEF64016003021B7E7818E6CF
:101A8900FE08E6FFD3EF9458EE94025003021B7E42
:101A99007BFF7A1879FAC003C002C0019000CBE03D
:101AA900FBA3E0FAA3E0F989828A83D001D002D0AE
:101AB900031217649000BAE0FFEFB401519000BF20
:101AC900E0FBA3E0FAA3E0F9C003C002C0017BFF79
:101AD9007A18790990010DEBF0A3EAF0A3E9F0D0A7
:101AE90001D002D00312225CC003C002C0017B00F6
:101AF9007A007900D082D083D0E06B7008E96582E2
:101B09007003EA65836007900155E4F08016781840
:101B1900E6FE08E6FFD3EF9420EE94034096900189
:101B290055E004F0900155E0FFEFC39404400A909A
:101B39000156E4F0900155E4F09000BFE0FBA3E00A
:101B4900FAA3E0F9C003C002C001900152E0FBA36F
:101B5900E0FAA3E0F989828A83D001D002D0037D1B
:101B6900041217649000BBE4F09000BAE4F078180E
:051B7900760008760073
:011B7E002244
:100F55009001FF7401F0900067E0FFEF640160030A
:100F650002114A7818760008760090006CE0FBA321
:100F7500E0FAA3E0F9C003C002C0017BFF7A18794B
:100F85000C90010DEBF0A3EAF0A3E9F0D001D0023B
:100F9500D00312225CC003C002C0017B007A007935
:100FA50000D082D083D0E06B7008E965827003EAD7
:100FB500658370397818E6FE08E6FFD3EF9414EEE2
:100FC500940040A69001FFE4F07BFF7A197904C0F4
:100FD50003C002C001900078E0FBA3E0FAA3E0F9AA
:100FE50089828A83D001D002D0031217649001FF51
:100FF500E0FFEF640160030210A290006CE0FBA328
:10100500E0FAA3E0F912167AFFEF644160030210DB
:10101500A290006CE0FBA3E0FAA3E0F975820175EC
:101025008300121693FFEF6454707290007FE0FB0B
:10103500A3E0FAA3E0F91217607BFF7A19790EC0D5
:1010450003C002C00190006CE0FBA3E0FAA3E0F945
:1010550090010DEBF0A3EAF0A3E9F0D001D002D0A6
:10106500031204EB900082E0FBA3E0FAA3E0F9127F
:10107500176090006CE0FBA3E0FAA3E0F9C003C0A1
:1010850002C0019000CBE0FBA3E0FAA3E0F989825E
:101095008A83D001D002D003121764807090007F3C
:1010A500E0FBA3E0FAA3E0F91217607BFF7A197958
:1010B5001BC003C002C00190006CE0FBA3E0FAA3D3
:1010C500E0F990010DEBF0A3EAF0A3E9F0D001D02F
:1010D50002D0031204EB900082E0FBA3E0FAA3E048
:1010E500F912176090006CE0FBA3E0FAA3E0F9C0E9
:1010F50003C002C0019000CBE0FBA3E0FAA3E0F936
:1011050089828A83D001D002D00312176490006CC3
:10111500E0FBA3E0FAA3E0F9C003C002C001900020
:1011250068E0FD900152E0FBA3E0FAA3E0F98982B3
:101135008A83D001D002D003121764900068E4F0CE
:05114500900067E4F0DA
:01114A002282
:101C7C009000BAE0FFEF64016003021D6F781876E4
:101C8C00000876009000BFE0FBA3E0FAA3E0F9C0E7
:101C9C0003C002C0017BFF7A18790C90010DEBF0A8
:101CAC00A3EAF0A3E9F0D001D002D00312225CC069
:101CBC0003C002C0017B007A007900D082D083D0AF
:101CCC00E06B7008E965827003EA658370347818FC
:101CDC00E6FE08E6FFD3EF9414EE940040A67BFFDB
:101CEC007A197930C003C002C001900078E0FBA3E0
:101CFC00E0FAA3E0F989828A83D001D002D00312E2
:101D0C0017649000BFE0FBA3E0FAA3E0F9C003C0A6
:101D1C0002C001900078E0FBA3E0FAA3E0F989820D
:101D2C008A83D001D002D0031217649000BFE0FB6D
:101D3C00A3E0FAA3E0F9C003C002C0019000BBE02D
:101D4C00FD900152E0FBA3E0FAA3E0F989828A83BB
:101D5C00D001D002D0031217649000BBE4F09000C5
:041D6C00BAE4F022C3
:0A14BA004701C900000000FF26B83A
:1026B8009001F3E4F0A3E4F030B20A9001CAE4F028
:1026C8009001CCE4F09001C9E0FFEFB4012990013A
:1026D800C9E4F0C2A820B21F900146E0FBA3E0FACB
:1026E800A3E0F989828A837F0A7E0012176420B2E8
:1026F800069001CA7401F09001CAE0FFEFB4012509
:102708009001CC7401F0781876000876007818E605
:10271800FE08E6FFC3EF9458EE9402500830B2ED7D
:102728009001CCE4F09001CCE0FFEFB401059001FA
:05273800CAE4F0D2A884
:01273D002279
:03000300022C8D3F
:102C8D00C0E0C083C0829001C97401F0D082D083AE
:032C9D00D0E03252
:0A2CD5003F065B4F666D7D077F6FC1
:0D14C4004A01B08AFF283AFF2A78FF1F2B4B
:052980009001F5EFF0ED
:102985009001F6E4F0C2A6900146E0FBA3E0FAA3AD
:10299500E0F989828A837F017E001217649001F62F
:1029A500E4F09001F6E0FFEFC39408502BC2A59028
:1029B50001F5E0FFEF30E004D2A48002C2A490014B
:1029C500F5E0FFEFC313FF9001F5EFF000D2A5008E
:0829D5009001F6E004F080CA55
:0129DD0022D7
:10283A00900200E4F07F02122980D2A67F4012297A
:10284A0080D2A67FC0122980900200E4F090020094
:10285A00E0FFEFC3940C500D7F0012298090020014
:10286A00E004F080E8D2A69001B0E0FF122980D2FD
:10287A00A67F02122980D2A67F44122980D2A67F7F
:10288A00C01229807FFF122980D2A67FC212298016
:10289A007FFF122980D2A69001B0E0FF122980D2D0
:0128AA00A687
:0128AB00220A
:102A78009001F7EFF09001F8EDF09001F7E0FFEF2B
:102A880012173A2A95012A9C0200002AA17FC01237
:102A9800298080057FC21229809001F8E0FFEF901D
:102AA8002CD593FF122980D2A69001B0E0FF1229FD
:042AB80080D2A62200
:051F2B009001F9EFF048
:101F30009001FAE4F09001FAE4F09001F9E0FF90EA
:101F400001FAE0FEEEC39F40030220039001CDE0C2
:101F5000FBA3E0FAA3E0F91217609001CCE0FFEFD9
:101F6000B401079001B07480F0229001CAE0FFEF45
:101F7000640170709001CCE0FFEF70689001B0E0F8
:101F8000FFEF12173A1FA4801FAB881FB2891FB939
:101F90008A1FC08B1FC78C1FCE8D1FD58E1FDC8F55
:101FA000000020039001B07488F0229001B0748981
:101FB000F0229001B0748AF0229001B0748BF0226C
:101FC0009001B0748CF0229001B0748DF0229001D9
:101FD000B0748EF0229001B0748FF0229001B07432
:101FE00088F02222900146E0FBA3E0FAA3E0F98901
:101FF000828A837F017E001217649001FAE004F068
:03200000021F3A82
:0120030022BA
:030000000225A531
:0C25A500787FE4F6D8FD7581270225EC54
:10167A00BB010689828A83E0225002E722BBFE026E
:09168A00E32289828A83E49322A1
:10169300BB010CE58229F582E5833AF583E022500C
:1016A30006E92582F8E622BBFE06E92582F8E22256
:0D16B300E58229F582E5833AF583E4932270
:1016C000BB010689828A83F0225002F722BBFE0109
:0216D000F32203
:1016D200F8BB010DE58229F582E5833AF583E8F04E
:1016E200225006E92582C8F622BBFE05E92582C8FA
:0216F200F222E2
:1016F400A3F8E0C5F025F0F0E582158270021583A9
:06170400E0C838F0E82205
:10170A00BB010DE58229F582E5833AF5830217B11B
:10171A005007E92582F80217A8BBFE07E92582F8D7
:10172A000217DAE58229F582E5833AF5830217E39F
:10173A00D083D082F8E4937012740193700DA3A33E
:10174A0093F8740193F5828883E473740293686052
:06175A00EFA3A3A380DF52
:061760008A838982E47314
:10048000E510240DF582E43401F583E00510229097
:10049000010A30070390010DE475F0011217BA024A
:1004A000167A2000E97F2ED2008018EF540F249096
:1004B000D43440D4FF30040BEF24BFB41A005003EF
:1004C0002461FFE511600215110514E514700205A1
:1004D0001330070E90010AE475F0011217BAEF020B
:1004E00016C0022BD17403D2078003E4C207F510B3
:1004F00090010A1217D1E4F511F513F514E5116016
:10050000077F201204C380F57512FFC201C200C22A
:1005100002C203C205C206C20812048FFF700D306A
:1005200007057F001204D4AF14AE1322B4255FC2B6
:10053000D5C20412048FFF24D0B40A00501A75F0FB
:100540000A781130D50508B6FF0106C6A426F620A4
:10055000D5047002D20380D924CFB41A00EF50041E
:10056000C2E5D2040206D5D20180C6D20080C0D234
:100570000280BCD2D580BAD20580B47F201204C3D9
:100580002002077401B5110040F1120480FF12042B
:10059000C30204FDD208D2068095120480FB120427
:1005A00080FA120480F94A4B700679A67A077BFF1D
:1005B00020022EE511602A7E008E827583001216BD
:1005C0009360060EEE651270F0C2D5EBC0E0EAC093
:1005D000E0E9C0E0EE12071CD0E0F9D0E0FAD0E08C
:1005E000FB12167AFF60AAEBC0E0EAC0E0E9C0E0C7
:1005F0001204C3D0E02401F9D0E03400FAD0E0FBCB
:10060000E5120460DCD512D980877BFF7A07791860
:10061000D202809C791080027908C206C208800844
:10062000D2D5790A8004790AC2D5E512047002F5A0
:1006300012E4FAFDFEFF120480FC7B082001131275
:100640000480FD7B1030000A120480FE120480FF3B
:100650007B20EC3382D592D55013C3E43000069F43
:10066000FFE49EFEE42001039DFDE49CFCE4CBF846
:10067000C201EC700CCFCECDCCE824F8F870F3803A
:1006800017C3EF33FFEE33FEED33FDEC33FCEB33FA
:10069000FB994002FB0FD8E9EB300105F8D0E0C42C
:1006A00048B201C0E00AEC4D4E4F78207B0070C28A
:1006B000EAB5120040BCC0E012071ED0F0D0E02026
:1006C0000104C4C0E0C4B201C0F01204ACD0F0D543
:1006D000F0EB0204FD12173A059A53061458056B05
:1006E0004C05674206184F06204406204905804302
:0806F000062655060A46060A1B
:1006F80045060A4707C650056F2D05732E05962B2C
:1007080005772305942007AF2A052F480000058E9A
:100718003F3F3F00790AA2D5200314300509B910DC
:10072800020404B9080104A2D520060250010420DD
:1007380002689202B511005034C0E07F20300319DE
:100748007F30A20272067205500F120775C202C2EC
:1007580006C205C2087F30800F300503E9C0E012E9
:1007680004C3300503D0E0F9D0E0B511CC3005174B
:100778007F30B9100C1204C37F583004077F78808B
:1007880003B908031204C33002057F2D0204C37F96
:10079800202008F87F2B2006F322920280CF286EB3
:1007A800756C6C2900D2011204803001F8C20178FE
:1007B8001130D50108F602052F2D5043495812046F
:1007C800802403B405004001E49007C1931204B4E7
:0D07D800743A1204B4D20375110402061421
:10225C0090010AEBF0A3EAF0A3E9F0A3E0FBA3E002
:10226C00FAA3E0F912167A700302230890010AE02F
:10227C00FBA3E0FAA3E0F912167A70030223149080
:10228C00010DE0F9A3E0FAA3E0A3C9F0A3EAF0A3DF
:10229C00E9F090010AA3E0FAA3E0F9900113EBF046
:1022AC00A3EAF0A3E9F0900110E0FBA3E0FAA3E0AD
:1022BC00F912167AFF6026900113E0FBA3E0FAA353
:1022CC00E0F912167A6F701590011175F001121762
:1022DC0092900114E475F00112179280C9900110CC
:1022EC00E0FBA3E0FAA3E0F912167A7002800D90DD
:1022FC00010BE475F00112179202227890010AE0AA
:0F230C00FBA3E0FAA3E0F9227B007A007900221C
:10176600EF4E6012EF60010EEDBB010B89828A839A
:10177600F0A3DFFCDEFA2289F05007F709DFFCA9A7
:0C178600F022BBFEFCF309DFFCA9F022FE
:1025B1000223CFE493A3F8E493A34003F68001F24E
:1025C10008DFF48029E493A3F85407240CC8C3332B
:1025D100C4540F4420C8834004F456800146F6DFFA
:1025E100E4800B0102040810204080901310E47E67
:1025F100019360BCA3FF543F30E509541FFEE493EF
:10260100A360010ECF54C025E060A840B8E493A3B5
:10261100FAE493A3F8E493A3C8C582C8CAC583CAE0
:10262100F0A3C8C582C8CAC583CADFE9DEE780BE98
:0114D100001A
:10179200C5F0F8A3E028F0C5F0F8E58215827002E2
:0617A2001583E038F0227F
:0917A800E6FB08E6FA08E6F92266
:0917B100E0FBA3E0FAA3E0F92239
:1017BA00F8E0FBA3A3E0F925F0F0E58215827002B8
:0717CA001583E0FA38F0225C
:0917D100EBF0A3EAF0A3E9F02219
:0917DA00E2FB08E2FA08E2F92240
:0C17E300E493FB740193FA740293F92262
:00000001FF
