:0A44820052756E6E696E67210A0024
:03160700012600B9
:103EE4009002D9E4F0900220E0FBA3E0FAA3E0F909
:103EF4001207777BFF7A447982C003C002C0019025
:103F0400012FE0FBA3E0FAA3E0F989828A83D001C0
:103F1400D002D00312077B9001FAE0FBA3E0FAA3DE
:103F2400E0F91207779001ECE0FBA3E0FAA3E0F9D3
:053F340012077780E296
:013F39002265
:0C446B0057694669204572726F720A00A2
:10160A0054016C000000000000000000000000000F
:10161A00000000000000004F0180FF40FAFF42BFB7
:09162A00FF003FFF44A8FF417CD2
:1042BF007BFF7A44796BC003C002C00190012FE0ED
:1042CF00FBA3E0FAA3E0F989828A83D001D002D060
:0542DF000312077B2221
:04003F0043C7202271
:0344A800B2B42289
:10417C009002A1EBF0A3EAF0A3E9F09002A4EDF019
:10418C009002A4E0FF7E007D009002A1E0FBA3E082
:10419C00FAA3E0F912077D900180E0FBA3E0FAA3FB
:0E41AC00E0F989828A837F0A7E0012077B2257
:0840FA009002A5EEF0A3EFF027
:104102009002A7E4F0A3E4F09002A5E0FEA3E0FF92
:104112009002A7E0FCA3E0FDC3ED9FEE6480F8EC03
:10412200648098501312435A9002A8E004F070067B
:084132009002A7E004F080D028
:01413A002262
:10435A0000000075150B7516BE1516AF16EF70F92D
:07436A001515AF15EF70F20D
:014371002229
:0F1633004C020BFF000EFF4389FF439EFF4372E3
:10000E0075B10475B21020B304D2B480F930B3F6D2
:05001E00C2B480F222D3
:1043890075B10475B21420B204D2B480F930B2F612
:05439900C2B480F22215
:10439E0075B10475B21020B204D2B480F930B2F601
:0543AE00C2B480F22200
:1043720075B10475B210D2B320B304D2B480F9304F
:07438200B3F6C2B480F22281
:1043B3004E6F74206861766520382042797465A356
:0443C300A1A3A10011
:10164200603200E90000000000000000000000001D
:101652000000000000000000000000000000000088
:101662000000000000000000000000000000000078
:10167200000000000000603200B70000000000001F
:101682000000000000000000000000000000000058
:101692000000000000000000000000000000000048
:1016A2000000000000000000000000006021011B9B
:1016B20000030000000100B70100E9FF34B4FF3F5E
:1016C2008DFF3861FF37ADFF331C01FF0026FF435A
:0116D20028EF
:1034B40090011BE0FFEF12075134C400000034C92F
:1034C40075985080037598D0900135E0FFEF12078E
:1034D4005134E20034E70134E202000034ED53A237
:1034E4003F800653A27F43A24075870053890F4350
:1034F4008E40538EFE90011CE0FFEF1207513512EF
:1035040000351A01352202352A0300003532758B45
:10351400C0758DFD801E758BE0758DFE8016758BD4
:1035240070758DFF800E758BE8758DFF8006758B29
:10353400C0758DFDC2ABD28ED29C900123E0FBA35B
:10354400E0FAA3E0F9C003C002C00190018CE0FBE3
:10355400A3E0FAA3E0F989828A83D001D002D003E0
:103564007D3212077B90011EE4F090011FE4F022EB
:053F8D009002DAEFF0E4
:103F920090011DE0FFEF640160F690011BE0FFEF6E
:103FA20060289002DAE0FFEFA2D0920D90011BE0B0
:103FB200FFEF1207513FC1013FC80200003FCCA2F0
:103FC2000DB3929B8004A20D929B90011D7401F08F
:073FD2009002DAE0FF8F9975
:013FD90022C5
:0B37AD009002B9EBF0A3EAF0A3E9F0F2
:1037B800781E7600087600900135E0FFEFB4010E20
:1037C800900136E0FBA3E0FAA3E0F9120777900234
:1037D800B9E0FBA3E0FAA3E0F9781EE6FE08E6FFED
:1037E8008F828E831205FDFFEF60369002B9E0FBF1
:1037F800A3E0FAA3E0F9781EE6FE08E6FF8F828EC2
:10380800831205FDFF900129E0FBA3E0FAA3E0F98C
:1038180089828A8312077B781F06E6187001068062
:10382800AD90011DE0FFEF640160F6900135E0FF07
:10383800EFB40124900180E0FBA3E0FAA3E0F9894A
:10384800828A837F017E0012077B900139E0FBA307
:08385800E0FAA3E0F912077782
:013860002245
:103861009002A9EBF0A3EAF0A3E9F09002ACEDF02D
:10387100900135E0FFEFB4010E900136E0FBA3E0CB
:10388100FAA3E0F91207779002ACE0FF14F0EF60C1
:10389100289002A9E0FBA3E475F001120674A9F0D7
:1038A100FA1205E4FF900129E0FBA3E0FAA3E0F995
:1038B10089828A8312077B80CE90011DE0FFEF642D
:1038C1000160F6900135E0FFEFB40124900180E042
:1038D100FBA3E0FAA3E0F989828A837F017E0012CB
:1038E100077B900139E0FBA3E0FAA3E0F912077727
:0138F10022B4
:1042E4009002DBEFF09002DBE0FF900129E0FBA3FA
:1042F400E0FAA3E0F989828A8312077B9002DBE06B
:02430400FF2296
:10002600D2A0900180E0FBA3E0FAA3E0F989828ADE
:09003600837F027E0012077B2289
:10432800900180E0FBA3E0FAA3E0F989828A837F09
:09433800027E0012077BC2A022E4
:10331C00D20E90011EE0FFEF640160030233E790D0
:10332C000123E0FBA3E0FAA3E0F9AE02AF01EF4EFC
:10333C0060717818760008760090011FE0FFEFC3EB
:10334C00940850127818E6FE08E6FFC3EF9414EECA
:10335C00940040E5C20E300E257B017A01791BC02A
:10336C0003C002C0017823860308E6FA08E6F9894F
:10337C00828A83D001D002D00312077B8025900172
:10338C0036E0FBA3E0FAA3E0F91207777BFF7A4360
:10339C0079B312083B900139E0FBA3E0FAA3E0F902
:1033AC00120777900123E0FBA3E0FAA3E0F9C00336
:1033BC00C002C00190011FE0FD90018CE0FBA3E076
:1033CC00FAA3E0F989828A83D001D002D0031207D4
:0B33DC007B90011EE4F090011FE4F064
:0133E70022C3
:0300230002316A3D
:0B316A00C0E0C083C082C0D075D00858
:10317500309907C29990011DE4F020980302323A74
:10318500C2989002DCE599F0A29A92099002DCE0DF
:10319500FFEFA2D0920A90011FE0FFEFC3943240E7
:1031A5000302323490011BE0FFEF12075132140085
:1031B50031BF0131EA0200003234A209B3300A01FD
:1031C500B3406C9002DCE0FF900123E0FBA3E0FA42
:1031D500A3E0F990011FE0FE04F08E82758300EFF5
:1031E50012063C804AA20A300901B340429002DC33
:1031F500E0FF900123E0FBA3E0FAA3E0F990011FB3
:10320500E0FE04F08E82758300EF12063C8020906C
:1032150002DCE0FF900123E0FBA3E0FAA3E0F990D4
:10322500011FE0FE04F08E82758300EF12063C90CC
:05323500011E7401F010
:09323A00D0D0D082D083D0E03264
:0F16D3004C0217FF4072FF4450FF41F7FF3633C0
:1040720075930075940C75800075911075920853B4
:1040820090F775957C75967D53A0FE75B14475B217
:10409200B0C2B575C90075CAFFD2CCC2CD9001803D
:1040A200E0FBA3E0FAA3E0F989828A837F027E0023
:0440B20012077B2254
:0E445000D2A8D288D2A9D2AC43AF01D2AF22FB
:1041F7009002DDE4F09002DDE4F09002DDE0FFEFF5
:10420700C394055020B2B4900180E0FBA3E0FAA369
:10421700E0F989828A837F327E0012077B9002DD74
:05422700E004F080D569
:01422C00226F
:10363300900180E0FBA3E0FAA3E0F989828A837F0B
:10364300647E0012077B900217E0FBA3E0FAA3E07D
:10365300F912077790021DE0FBA3E0FAA3E0F91249
:10366300077790021AE0FBA3E0FAA3E0F9120777C9
:10367300781B860308E6FA08E6F912077790012615
:10368300E0FBA3E0FAA3E0F912077790003DE0FB2B
:10369300A3E0FAA3E0F9120777900193E0FBA3E01C
:1036A300FAA3E0F9120777900251E0FBA3E0FAA333
:1036B300E0F91207779001C2E0FBA3E0FAA3E0F977
:1036C3001207779001ACE0FBA3E0FAA3E0F912073D
:1036D3007790023CE0FBA3E0FAA3E0F912077790AE
:0E36E30001E0E0FBA3E0FAA3E0F91207772272
:0A16E20047027600000000FF2FAE63
:102FAE0090026EEBF0A3EAF0A3E9F0900271EDF05F
:102FBE00900272E4F0A3E4F0900274E4F0900275D3
:102FCE00E4F090027274FFF0A374FFF0900274E4C8
:102FDE00F0900271E0FF900274E0FEEEC39F40039A
:102FEE00023087900272E0FEA3E0FF90026EE0FBDB
:102FFE00A3E0FAA3E0F9900274E0FD8D82758300E0
:10300E001205FDFD7C00EE6CFEEF6DFF900272EE80
:10301E00F0A3EFF0900275E4F0900275E0FFEFC3BD
:10302E009408504C900272E0FEA3E0FFEF30E021D6
:10303E00900272E0FEA3E0FFEEC313FEEF13FFEE6D
:10304E0064A0FEEF6401FF900272EEF0A3EFF08039
:10305E0017900272E0FEA3E0FFEEC313FEEF13FF24
:10306E00900272EEF0A3EFF0900275E004F080A9EA
:10307E00900274E004F0022FDF900272E0FEA3E0F3
:01308E00FF42
:01308F00221E
:103B9400435243313620436865636B204552524F8C
:103BA40052A3A1A3A1005265676973742061646480
:103BB40072657373206F7574206F662072616E670F
:103BC40065A3A1A3A1307E390A004F6E6C792072DF
:103BD4006561642074776F20726567697374206F00
:103BE4006E6365A3A1A3A10A00526567697374207B
:103BF40061646472657373206F7574206F662072DC
:0E3C0400616E676532A3A1A3A1307E390A006C
:0616EC00042201FF208B27
:0B208B0090028BEBF0A3EAF0A3E9F059
:1020960090028BE0FBA3E0FAA3E0F990028EEBF04E
:1020A600A3EAF0A3E9F090028EE0FBA3E0FAA3E036
:1020B600F97582087583001207211205E4FF78225C
:1020C600E6FEEF6E600302224F90028EE0FBA3E075
:1020D600FAA3E0F9758208758300120721C003C0D0
:1020E60002C00190027AE0FBA3E0FAA3E0F989823C
:1020F6008A83D001D002D0037D0612077B90027638
:10210600EEF0A3EFF0900276E0FEA3E0FFEEFF7E96
:1021160000900278EFF0900276E0FEA3E0FF9002D6
:1021260079EFF090028EE0FBA3E0FAA3E0F9758266
:10213600087583001207217582067583001205FD56
:10214600FF900279E0FEEFB5062790028EE0FBA332
:10215600E0FAA3E0F97582087583001207217582FB
:10216600077583001205FDFF900278E0FEEF6E60B2
:102176005190028EE0FBA3E0FAA3E0F975820875A0
:1021860083001207217582067583001205FDFF90F4
:102196000278E0FEEF6E600302222A90028EE0FBD8
:1021A600A3E0FAA3E0F9758208758300120721758A
:1021B60082077583001205FDFF900279E0FEEF6E3F
:1021C600706290028EE0FBA3E0FAA3E0F975820844
:1021D6007583001207217582017583001205FDFFC4
:1021E600EFB4030F90028EE0FBA3E0FAA3E0F9122E
:1021F6000C532290028EE0FBA3E0FAA3E0F975826D
:10220600087583001207217582017583001205FD8A
:10221600FFEFB4063490028EE0FBA3E0FAA3E0F9E8
:10222600121AB322900136E0FBA3E0FAA3E0F912FA
:1022360007777BFF7A3B799412083B900139E0FBE4
:09224600A3E0FAA3E0F912077706
:01224F00226C
:0B0C53009001FEEBF0A3EAF0A3E9F033
:100C5E009001FEE0FBA3E0FAA3E0F9900201EBF0B5
:100C6E00A3EAF0A3E9F0900204E4F0A3E4F090020A
:100C7E0006E4F0A3E4F09002087403F0900201E0A1
:100C8E00FBA3E0FAA3E0F975820875830012072131
:100C9E007582027583001205FDFF7E00900204E04E
:100CAE00FCA3E0FDEF2DFFEE3CFEEF7F00FE900279
:100CBE0001E0FBA3E0FAA3E0F97582087583001248
:100CCE0007217582037583001205FDFD7C00EF2D53
:100CDE00FFEE3CFE900204EEF0A3EFF0900201E076
:100CEE00FBA3E0FAA3E0F9758208758300120721D1
:100CFE007582047583001205FDFF7E00900206E0EA
:100D0E00FCA3E0FDEF2DFFEE3CFEEF7F00FE900218
:100D1E0001E0FBA3E0FAA3E0F975820875830012E7
:100D2E0007217582057583001205FDFD7C00EF2DF0
:100D3E00FFEE3CFE900206EEF0A3EFF0900206E00E
:100D4E00FEA3E0FF900204E0FCA3E0FDED2FFFEC1C
:100D5E003EFED3EF940AEE9400400302102290025E
:100D6E0006E0FEA3E0FFD3EF9400EE9400500302E2
:100D7E001022900206E0FEA3E0FFC3EF9403EE9470
:100D8E000040030210227822E6FF900201E0FBA34E
:100D9E00E0FAA3E0F9758205758300120721EF12C0
:100DAE00062A900201E0FBA3E0FAA3E0F9758205A2
:100DBE007583001207217582017583007403120674
:100DCE003C900206E0FEA3E0FFEF25E0FF9002015B
:100DDE00E0FBA3E0FAA3E0F9758205758300120724
:100DEE0021758202758300EF12063C900209E4F031
:100DFE00900209E0FF7E00900206E0FCA3E0FDC336
:100E0E00EF9DEE9C4003020F46900209E0FF900218
:100E1E000AEFF0900209E0FF7E00EF2401FFEE34AE
:100E2E0000FE90020AE0FD7C00D3ED9FEE6480F898
:100E3E00EC6480984003020F36900209E0FF9002A6
:100E4E000AE0FEEE6F706F900209E0FF7E009002E6
:100E5E0004E0FCA3E0FDEF2DFFEE3CFEEF25E0FFEE
:100E6E00EE33FE746C2FF58274013EF583E0FEA323
:100E7E00E0FFEEFF7E00900201E0FBA3E0FAA3E0AC
:100E8E00F9758205758300120721E92403F9EA3406
:100E9E0000FA900209E0FEEEFD7C00E92DF9EA3C35
:100EAE00FA90020AE0FEEEFD7C00E92DF9EA3CFA2A
:100EBE00EF12062A8069900209E0FF7E009002047C
:100ECE00E0FCA3E0FDEF2DFFEE3CFEEF25E0FFEE94
:100EDE0033FE746C2FF58274013EF583E0FEA3E0C1
:100EEE00FF900201E0FBA3E0FAA3E0F9758205751D
:100EFE008300120721E92403F9EA3400FA9002096B
:100F0E00E0FEEEFD7C00E92DF9EA3CFA90020AE0E3
:100F1E00FEEEFD7C00E92DF9EA3CFAEF12062A906E
:100F2E00020AE004F0020E21900208E02402F09082
:100F3E000209E004F0020DFE900201E0FBA3E0FACC
:100F4E00A3E0F9758205758300120721C003C00264
:100F5E00C001900208E0FD90027AE0FBA3E0FAA344
:100F6E00E0F989828A83D001D002D00312077B90E8
:100F7E000276EEF0A3EFF0900276E0FEA3E0FF9093
:100F8E000201E0FBA3E0FAA3E0F975820575830088
:100F9E00120721900208E0FE04F08E82758300EFA6
:100FAE0012063C900276E0FEA3E0FFEEFF7E00907C
:100FBE000201E0FBA3E0FAA3E0F975820575830058
:100FCE00120721900208E0FE04F08E82758300EF76
:100FDE0012063C900201E0FBA3E0FAA3E0F9758251
:100FEE0005758300120721C003C002C001900208DC
:100FFE00E0FD900201E0FBA3E0FAA3E0F975821197
:10100E0075830012072189828A83D001D002D00312
:10101E0012077B22900206E0FEA3E0FF900204E09E
:10102E00FCA3E0FDED2FFFEC3EFED3EF940AEE9411
:10103E00004026900136E0FBA3E0FAA3E0F9120788
:10104E00777BFF7A3B79AA12083B900139E0FBA32C
:10105E00E0FAA3E0F912077722900136E0FBA3E055
:10106E00FAA3E0F91207777BFF7A3B79CE12083BA1
:0E107E00900139E0FBA3E0FAA3E0F912077736
:01108C002241
:0B1AB30090022FEBF0A3EAF0A3E9F093
:101ABE0090022FE0FBA3E0FAA3E0F9900232EBF0E4
:101ACE00A3EAF0A3E9F0900235E4F0A3E4F090026B
:101ADE0037E4F0A3E4F0900239E4F0900239E0FF2D
:101AEE00EFC39408504C900232E0FBA3E0FAA3E05F
:101AFE00F9758208758300120721900239E0FF8F75
:101B0E00827583001205FDFF900232E0FBA3E0FA1E
:101B1E00A3E0F9758205758300120721900239E062
:101B2E00FE8E82758300EF12063C900239E004F0BF
:101B3E0080A9900232E0FBA3E0FAA3E0F9758205DA
:101B4E00758300120721C003C002C001900232E06B
:101B5E00FBA3E0FAA3E0F975821175830012072149
:101B6E0089828A83D001D002D0037D0812077B9030
:101B7E000232E0FBA3E0FAA3E0F975820875830058
:101B8E001207217582027583001205FDFF7E0090FB
:101B9E000235E0FCA3E0FDEF2DFFEE3CFEEF7F00F3
:101BAE00FE900232E0FBA3E0FAA3E0F9758208751D
:101BBE0083001207217582037583001205FDFD7CDB
:101BCE0000EF2DFFEE3CFE900235EEF0A3EFF0900D
:101BDE000232E0FBA3E0FAA3E0F9758208758300F8
:101BEE001207217582047583001205FDFF7E009099
:101BFE000235E0FCA3E0FDEF2DFFEE3CFEEF7F0093
:101C0E00FE900232E0FBA3E0FAA3E0F975820875BC
:101C1E0083001207217582057583001205FDFD7C78
:101C2E0000EF2DFFEE3CFE900237EEF0A3EFF090AA
:101C3E000235E0FEA3E0FFD3EF9409EE9400503599
:101C4E00900235E0FEA3E0FFC3EE94004027900221
:101C5E0037E0FCA3E0FD900235E0FEA3E0FFEF25A8
:101C6E00E0FFEE33FE746C2FF58274013EF583ECCB
:101C7E00F0A3EDF022900136E0FBA3E0FAA3E0F929
:101C8E001207777BFF7A3B79ED12083B900139E022
:0A1C9E00FBA3E0FAA3E0F9120777B8
:011CA8002219
:0916F200071700000000FF44008E
:10440000538E7F5389F0758A00758CEEC28DD28CE5
:014410002289
:03000B000236F1C9
:1036F100C0E0C0F0C083C082C0D075D000C000C09F
:1037010001C002C003C004C005C006C007781AE6A4
:10371100FFEFB4011F781706E6FFEFC3940A4031AB
:1037210078177600900189E0FBA3E0FAA3E0F91293
:103731000777801D781706E6FFEFC394C84012781B
:10374100177600900189E0FBA3E0FAA3E0F91207E4
:1037510077781906E618700106900192E004F0707E
:1037610006900191E004F09001F1E004F070069000
:1037710001F0E004F09001F3E004F070069001F232
:10378100E004F09001F5E004F070069001F4E0042B
:10379100F0D007D006D005D004D003D002D001D09C
:0C37A10000D0D0D082D083D0F0D0E03235
:1043C7004E6F74206861766520382042797465A342
:0443D700A1A3A100FD
:1016FB0060640053000000000000000000000000C8
:10170B0000000000000000000000000000000000CE
:10171B0000000000000000000000000000000000BE
:10172B0000000000000000000000000000000000AE
:10173B00000000000000000000000000000000009E
:10174B00000000000000000000000000000000008E
:10175B0000000000000000006032000000000000EC
:10176B00000000000000000000000000000000006E
:10177B00000000000000000000000000000000005E
:10178B0000000000000000000000000000006021CD
:10179B0000320003000000010000010053FF397EFE
:1017AB00FF3C12FF3FDAFF3D02FF33E800FF44AE80
:0317BB00FF44AF39
:10397E00759A50438E0453BAFE90011CE0FFEF126D
:10398E00075139A00039A80139B00239B803000037
:10399E0039C075D7C075D6FD801E75D7E075D6FEB9
:1039AE00801675D77075D6FF800E75D7E875D6FF61
:1039BE00800675D7C075D6FD53AFFB438E10439A64
:1039CE001090003AE0FBA3E0FAA3E0F9C003C002B6
:1039DE00C00190018CE0FBA3E0FAA3E0F989828A92
:1039EE0083D001D002D0037D6412077B900035E4B2
:0739FE00F0900036E4F02216
:053C12009002C5EFF077
:103C17009002C6E4F0900034E0FFEF640160F69094
:103C27000032E0FFEF60549002C5E0FFEFA2D0E45E
:103C370033FF9002C6E0FEEF2EFFEF33333354F825
:103C4700FF9002C6EFF0900032E0FFEF1207513C01
:103C570060013C720200003C829002C6E0FFEF70F8
:103C670005439A088015539AF780109002C6E0FF23
:103C7700EF7005539AF78003439A08900034740154
:083C8700F09002C5E0FF8F9BE5
:013C8F002212
:0B3D02009002ADEBF0A3EAF0A3E9F0A3
:103D0D009002B0E4F09002ADE0FBA3E0FAA3E0F97D
:103D1D009002B0E0FF8F827583001205FDFFEF600A
:103D2D00339002ADE0FBA3E0FAA3E0F99002B0E01E
:103D3D00FF8F827583001205FDFF900040E0FBA30D
:103D4D00E0FAA3E0F989828A8312077B9002B0E042
:0E3D5D0004F080B1900034E0FFEF640160F6E6
:013D6B002235
:103FDA009002B1EBF0A3EAF0A3E9F09002B4EDF09D
:103FEA009002B4E0FF14F0EF60289002B1E0FBA366
:103FFA00E475F001120674A9F0FA1205E4FF9000C4
:10400A0040E0FBA3E0FAA3E0F989828A8312077BE6
:0D401A0080CE900034E0FFEF640160F622DC
:1033E800D20F900035E0FFEF640160030234B39020
:1033F800003AE0FBA3E0FAA3E0F9AE02AF01EF4E1A
:10340800607178187600087600900036E0FFEFC308
:10341800940850127818E6FE08E6FFC3EF9414EEFD
:10342800940040E5C20F300F257B017A007932C045
:1034380003C002C0017823860308E6FA08E6F98982
:10344800828A83D001D002D00312077B80259001A5
:1034580036E0FBA3E0FAA3E0F91207777BFF7A4393
:1034680079C712083B900139E0FBA3E0FAA3E0F921
:1034780012077790003AE0FBA3E0FAA3E0F9C00353
:10348800C002C001900036E0FD90018CE0FBA3E093
:10349800FAA3E0F989828A83D001D002D003120707
:0B34A8007B900036E4F0900035E4F06B
:0134B30022F6
:0144AE0022EB
:0144AF0022EA
:03004300022CCDBF
:102CCD00C0E0C083C082C0D075D000C000C001C0BC
:072CDD0002C003C006C0079E
:102CE400E59A30E108539AFD900034E4F0E59A2027
:102CF400E003022DB5539AFE7827A69BE59A540467
:102D0400FFEF1313543FFFEF24FF920B7827E6FFE6
:102D1400EFA2D0920C900036E0FFEFC3946440031E
:102D2400022DAF900032E0FFEF1207512D90002DDD
:102D34003D012D670200002DAFA20BB3300C01B38F
:102D440040697827E6FF90003AE0FBA3E0FAA3E0AD
:102D5400F9900036E0FE04F08E82758300EF1206CF
:102D64003C8048A20C300B01B340407827E6FF902A
:102D7400003AE0FBA3E0FAA3E0F9900036E0FE0499
:102D8400F08E82758300EF12063C801F7827E6FFE1
:102D940090003AE0FBA3E0FAA3E0F9900036E0FEED
:102DA40004F08E82758300EF12063C9000357401A6
:012DB400F02E
:102DB500D007D006D003D002D001D000D0D0D08229
:052DC500D083D0E032D4
:1026F60041540D0A005769466920496E6974207471
:10270600696D656F757421210A004F4B000D0A0033
:102716004578697420546F75436875616E2D2D2D4B
:102726002D0A002B00415445300D0A0041542B431D
:10273600574D4F44455F4445463D310D0A004154CF
:102746002B43574155544F434F4E4E0D0A004154AB
:102756002B43574A41505F4445463D22B5CEB5CE40
:10276600B5CE222C227A6E68786B68333039220D0A
:102776000A005749464920474F54204950002B2B01
:102786002B0053746174653D2562642C4F4B5F4684
:102796006C61673D2562640A0041542B43494653E8
:1027A600520D0A003139322E3136380041542B434E
:1027B600495053544152543D22544350222C223105
:1027C60039322E3136382E3130312E313036222CF8
:1027D600393939380D0A00434F4E4E4543540041AE
:1027E600542B4349504D4F44453D310D0A00415449
:1027F6002B43495053454E440D0A0052756E6E697F
:102806006E67210A0054696D654F7574210A00537D
:10281600656E6420646174613D2573004E6F74209B
:10282600415420436F6D6D616E6421213D25730A0D
:1028360000526563656976652054696D654F7574E8
:03284600210A0064
:1017BE00550190000000FF2849FF137BFF108DFF9D
:1017CE0044B0FF44B1FF2BC74601A5FF1CA9FF2D56
:0517DE00CA41018F006B
:10284900C283900180E0FBA3E0FAA3E0F989828AC0
:10285900837F647E0012077BD283D2827818760048
:10286900087600781A760190003AE0FBA3E0FAA313
:10287900E0F9C003C002C001900036E0FD90018C70
:10288900E0FBA3E0FAA3E0F989828A83D001D002B0
:10289900D00312077B900036E4F0900035E4F07B1A
:1028A900FF7A2679F6C003C002C001900046E0FB1A
:1028B900A3E0FAA3E0F989828A83D001D002D00388
:1028C90012077B900180E0FBA3E0FAA3E0F989827B
:1028D9008A837F647E0012077B7818E6FE08E6FF8C
:1028E900D3EF94E8EE940340267BFF7A2679FBC068
:1028F90003C002C00190012FE0FBA3E0FAA3E0F9B5
:1029090089828A83D001D002D00312077B804D903F
:10291900003AE0FBA3E0FAA3E0F9C003C002C0015A
:102929007BFF7A27791090013FEBF0A3EAF0A3E946
:10293900F0D001D002D003123574C003C002C00127
:102949007B007A007900D082D083D0E06B7008E9EF
:1029590065827003EA65837003022870900180E044
:10296900FBA3E0FAA3E0F989828A837FE87E031258
:07297900077B781A760022AB
:0B2250009001D1EBF0A3EAF0A3E9F04D
:10225B009001D97401F09001D1E0FBA3E0FAA3E067
:10226B00F99001DAEBF0A3EAF0A3E9F09001D4E0E6
:10227B00FBA3E0FAA3E0F99001DDEBF0A3EAF0A3F6
:10228B00E9F090003AE0FBA3E0FAA3E0F9C003C049
:10229B0002C001900036E0FD90018CE0FBA3E0FA58
:1022AB00A3E0F989828A83D001D002D00312077B85
:1022BB00900036E4F0900035E4F09001DAE0FBA3F7
:1022CB00E0FAA3E0F9C003C002C001900046E0FBB6
:1022DB00A3E0FAA3E0F989828A83D001D002D0036C
:1022EB0012077B7818760008760090003AE0FBA383
:1022FB00E0FAA3E0F9C003C002C0017BFF7A2779A3
:10230B001390013FEBF0A3EAF0A3E9F0D001D00268
:10231B00D003123574C003C002C0017B007A007970
:10232B0000D082D083D0E06B7008E965827003EA3D
:10233B006583604F90003AE0FBA3E0FAA3E0F9C09D
:10234B0003C002C0019001D4E0FBA3E0FAA3E0F9C3
:10235B0090013FEBF0A3EAF0A3E9F0D001D002D05B
:10236B0003123574C003C002C0017B007A007900F0
:10237B00D082D083D0E06B7008E965827003EA6588
:10238B0083702C9001D7E0FEA3E0FF7818E6FC08E1
:10239B00E6FDD3ED9FEC9E50030222F5900183E006
:1023AB00FBA3E0FAA3E0F91207779001D9E4F090D0
:1023BB00003AE0FBA3E0FAA3E0F9C003C002C001BE
:1023CB00900036E0FD90018CE0FBA3E0FAA3E0F96E
:1023DB0089828A83D001D002D00312077B9000360A
:0C23EB00E4F0900035E4F09001D9E0FF30
:0123F70022C3
:10137B00900280E0FFEF64016003021606781A7694
:10138B0001900190E0FFEF6401600302143F7BFFCB
:10139B007A277916C003C002C00190012FE0FBA38E
:1013AB00E0FAA3E0F989828A83D001D002D003123C
:1013BB00077B7BFF7A277929C003C002C00190000D
:1013CB0046E0FBA3E0FAA3E0F989828A83D001D03F
:1013DB0002D00312077B7BFF7A277929C003C00257
:1013EB00C001900046E0FBA3E0FAA3E0F989828AF2
:1013FB0083D001D002D00312077B7BFF7A27792998
:10140B00C003C002C001900046E0FBA3E0FAA3E0DA
:10141B00F989828A83D001D002D00312077B900115
:10142B0080E0FBA3E0FAA3E0F989828A837FE87E60
:10143B000312077B7BFF7A2679F6C003C002C0013B
:10144B007BFF7A2779109001D4EBF0A3EAF0A3E9A4
:10145B00F09001D7E4F0A37414F0D001D002D003C4
:10146B001222507BFF7A27792BC003C002C0017B6D
:10147B00FF7A2779109001D4EBF0A3EAF0A3E9F0FF
:10148B009001D7E4F0A37414F0D001D002D0031272
:10149B0022507BFF7A277932C003C002C0017BFF49
:1014AB007A2779109001D4EBF0A3EAF0A3E9F0903E
:1014BB0001D7E4F0A37414F0D001D002D0031222B0
:1014CB00507BFF7A277944C003C002C0017BFF7AAF
:1014DB002779109001D4EBF0A3EAF0A3E9F0900187
:1014EB00D7E4F0A37414F0D001D002D00312225031
:1014FB007BFF7A277954C003C002C0017BFF7A2798
:10150B0079109001D4EBF0A3EAF0A3E9F09001D7A6
:10151B00E4F0A374C8F0D001D002D00312225078AB
:10152B001876000876007818E6FE08E6FFC3EF94FD
:10153B00A0EE948C40030215F490003AE0FBA3E07C
:10154B00FAA3E0F9C003C002C0017BFF7A277978C8
:10155B0090013FEBF0A3EAF0A3E9F0D001D002D069
:10156B0003123574C003C002C0017B007A007900FE
:10157B00D082D083D0E06B7008E965827003EA6596
:10158B008360A37BFF7A277978C003C002C00190E8
:10159B00012FE0FBA3E0FAA3E0F989828A83D00153
:1015AB00D002D00312077B900180E0FBA3E0FAA3EB
:1015BB00E0F989828A837FE87E0312077B900180A2
:1015CB00E0FBA3E0FAA3E0F989828A837FE87E033C
:1015DB0012077B900180E0FBA3E0FAA3E0F989827C
:1015EB008A837FE87E0312077B781A760090018648
:0C15FB00E0FBA3E0FAA3E0F9120777225E
:10108D009002C7E4F09002C8E4F07BFF7A277984E0
:10109D00C003C002C001900046E0FBA3E0FAA3E04C
:1010AD00F989828A83D001D002D00312077B900187
:1010BD0080E0FBA3E0FAA3E0F989828A837FE87ED2
:1010CD000312077B78187600087600781A7601905F
:1010DD0002C8E0FFEF64FF700302136E900136E06B
:1010ED00FBA3E0FAA3E0F91207777BFF7A27798853
:1010FD009002C8E0FF90013FEFF09002C7E0FF9033
:10110D000140EFF012083B900139E0FBA3E0FAA398
:10111D00E0F91207779002C8E0FFEF120751114472
:10112D000011930111DD0212270312770412D2056B
:10113D00132106000010DC7BFF7A2679F6C003C070
:10114D0002C0017BFF7A2779109001D4EBF0A3EA5E
:10115D00F0A3E9F09001D7E4F0A37414F0D001D01E
:10116D0002D0031222509002C7EFF09002C7E0FFA9
:10117D00EFB401099002C87401F00210DC9002C8AE
:10118D0074FFF00210DC7BFF7A27792BC003C002BD
:10119D00C0017BFF7A2779109001D4EBF0A3EAF020
:1011AD00A3E9F09001D7E4F0A37414F0D001D002BC
:1011BD00D0031222509002C7E0FFEFB40109900254
:1011CD00C87402F00210DC9002C874FFF00210DC4B
:1011DD007BFF7A277932C003C002C0017BFF7A27DB
:1011ED0079109001D4EBF0A3EAF0A3E9F09001D7C8
:1011FD00E4F0A37414F0D001D002D0031222509069
:10120D0002C7E0FFEFB401099002C87403F00210A9
:10121D00DC9002C874FFF00210DC7BFF7A27799F07
:10122D00C003C002C0017BFF7A2779AA9001D4EBDD
:10123D00F0A3EAF0A3E9F09001D77403F0A374E8EA
:10124D00F0D001D002D0031222509002C7EFF090DF
:10125D0002C7E0FFEFB401099002C87404F0021058
:10126D00DC9002C874FFF00210DC7BFF7A2779B2A4
:10127D00C003C002C0017BFF7A2779DD9001D4EB5A
:10128D00F0A3EAF0A3E9F09001D77403F0A374E89A
:10129D00F0D001D002D0031222509002C7EFF0908F
:1012AD0002C7E0FFEFB4010F9001907401F09002BE
:1012BD00C87405F00210DC900190E4F09002C8743F
:1012CD00FFF00210DC7BFF7A2779E5C003C002C076
:1012DD00017BFF7A2779109001D4EBF0A3EAF0A3FC
:1012ED00E9F09001D7E4F0A37414F0D001D002D04E
:1012FD00031222509002C7EFF09002C7E0FFEFB447
:10130D0001099002C87406F00210DC9002C874FF47
:10131D00F00210DC7BFF7A2779F4C003C002C00114
:10132D007BFF7A2779109001D4EBF0A3EAF0A3E9C3
:10133D00F09001D7E4F0A37414F0D001D002D003E3
:10134D001222509002C7EFF09002C7E0FFEF640148
:10135D0060030210DC9002C874FFF00210DC021072
:0D136D00DC781A7600900191E4F0A3E4F022
:01137A002250
:0144B00022E9
:0144B10022E8
:102BC700900190E0FFEF64016003022CCC7818E6D7
:102BD700FE08E6FFD3EF9458EE94025003022CCC84
:102BE7007BFF7A287901C003C002C001900046E04C
:102BF700FBA3E0FAA3E0F989828A83D001D002D04F
:102C07000312077B900035E0FFEFB4015190003AC3
:102C1700E0FBA3E0FAA3E0F9C003C002C0017BFF19
:102C27007A27791090013FEBF0A3EAF0A3E9F0D0FF
:102C370001D002D003123574C003C002C0017B006B
:102C47007A007900D082D083D0E06B7008E9658282
:102C57007003EA6583600790018FE4F080167818A7
:102C6700E6FE08E6FFD3EF9420EE9403409690012A
:102C77008FE004F090018FE0FFEFC39404400A90C7
:102C87000190E4F090018FE4F090003AE0FBA3E0BC
:102C9700FAA3E0F9C003C002C00190018CE0FBA3D6
:102CA700E0FAA3E0F989828A83D001D002D0037DBC
:102CB7000412077B900036E4F0900035E4F07818B2
:052CC700760008760014
:012CCC0022E5
:101CA9009002DE7401F090011EE0FFEF6401600311
:101CB900021E9E78187600087600900123E0FBA3A7
:101CC900E0FAA3E0F9C003C002C0017BFF7A2779DB
:101CD9001390013FEBF0A3EAF0A3E9F0D001D002A1
:101CE900D003123574C003C002C0017B007A0079A9
:101CF90000D082D083D0E06B7008E965827003EA76
:101D0900658370397818E6FE08E6FFD3EF9428EE6C
:101D1900940040A69002DEE4F07BFF7A28790BC09C
:101D290003C002C00190012FE0FBA3E0FAA3E0F990
:101D390089828A83D001D002D00312077B9002DE08
:101D4900E0FFEF64016003021DF6900123E0FBA3AD
:101D5900E0FAA3E0F91205E4FFEF64416003021D14
:101D6900F6900123E0FBA3E0FAA3E0F9758201757F
:101D790083001205FDFFEF64547072900136E0FB99
:101D8900A3E0FAA3E0F91207777BFF7A287915C057
:101D990003C002C001900123E0FBA3E0FAA3E0F92C
:101DA90090013FEBF0A3EAF0A3E9F0D001D002D013
:101DB9000312083B900139E0FBA3E0FAA3E0F91212
:101DC9000777900123E0FBA3E0FAA3E0F9C003C081
:101DD90002C001900046E0FBA3E0FAA3E0F9898282
:101DE9008A83D001D002D00312077B80709001361C
:101DF900E0FBA3E0FAA3E0F91207777BFF7A2879E1
:101E090022C003C002C001900123E0FBA3E0FAA3B2
:101E1900E0F990013FEBF0A3EAF0A3E9F0D001D09B
:101E290002D00312083B900139E0FBA3E0FAA3E0DA
:101E3900F9120777900123E0FBA3E0FAA3E0F9C0C8
:101E490003C002C001900046E0FBA3E0FAA3E0F959
:101E590089828A83D001D002D00312077B900123A3
:101E6900E0FBA3E0FAA3E0F9C003C002C0019001BE
:101E79001FE0FD90018CE0FBA3E0FAA3E0F9898261
:101E89008A83D001D002D00312077B90011FE4F0AE
:051E990090011EE4F0C1
:011E9E002221
:102DCA00900035E0FFEF64016003022EBD781876AB
:102DDA000008760090003AE0FBA3E0FAA3E0F9C00D
:102DEA0003C002C0017BFF7A27791390013FEBF001
:102DFA00A3EAF0A3E9F0D001D002D003123574C0DF
:102E0A0003C002C0017B007A007900D082D083D04F
:102E1A00E06B7008E965827003EA6583703478189C
:102E2A00E6FE08E6FFD3EF9428EE940040A67BFF67
:102E3A007A287937C003C002C00190012FE0FBA3B2
:102E4A00E0FAA3E0F989828A83D001D002D0031282
:102E5A00077B90003AE0FBA3E0FAA3E0F9C003C0C5
:102E6A0002C00190012FE0FBA3E0FAA3E0F98982F6
:102E7A008A83D001D002D00312077B90003AE0FB8C
:102E8A00A3E0FAA3E0F9C003C002C001900036E053
:102E9A00FD90018CE0FBA3E0FAA3E0F989828A8322
:102EAA00D001D002D00312077B900036E4F09000E4
:042EBA0035E4F022E9
:0A17E30047027D00000000FF3A05F8
:103A05009002C9E4F0A3E4F030B20A90027EE4F03B
:103A1500900280E4F090027DE0FFEFB4012990026E
:103A25007DE4F0C2A820B21F900180E0FBA3E0FA7C
:103A3500A3E0F989828A837F0A7E0012077B20B280
:103A45000690027E7401F090027EE0FFEFB401253E
:103A55009002807401F0781876000876007818E6F0
:103A6500FE08E6FFC3EF9458EE9402500830B2ED1D
:103A7500900280E4F0900280E0FFEFB4010590022F
:053A85007EE4F0D2A870
:013A8A002219
:030003000243DBDA
:1043DB00C0E0C083C08290027D7401F0D082D08394
:0343EB00D0E032ED
:0A448C003F065B4F666D7D077F6FF2
:0D17ED004A02508AFF3C90FF40B6FF324395
:053DD2009002CBEFF0B0
:103DD7009002CCE4F0C2A6900180E0FBA3E0FAA336
:103DE700E0F989828A837F017E0012077B9002CCEB
:103DF700E4F09002CCE0FFEFC39408502BC2A590EB
:103E070002CBE0FFEF30E004D2A48002C2A490020C
:103E1700CBE0FFEFC313FF9002CBEFF000D2A5007A
:083E27009002CCE004F080CA17
:013E2F002270
:103C90009002DFE4F07F02123DD2D2A67F40123DB7
:103CA000D2D2A67FC0123DD29002DFE4F09002DFB4
:103CB000E0FFEFC3940C500D7F00123DD29002DF65
:103CC000E004F080E8D2A6900250E0FF123DD2D28C
:103CD000A67F02123DD2D2A67F44123DD2D2A67F49
:103CE000C0123DD27FFF123DD2D2A67FC2123DD27A
:103CF0007FFF123DD2D2A6900250E0FF123DD2D2F9
:013D0000A61C
:013D0100229F
:1040B6009002CDEFF09002CEEDF09002CDE0FFEF52
:1040C60012075140D30140DA02000040DF7FC012E0
:1040D6003DD280057FC2123DD29002CEE0FFEF9026
:1040E600448C93FF123DD2D2A6900250E0FF123DBF
:0440F600D2D2A6225A
:053243009002CFEFF046
:103248009002D0E4F09002D0E4F09002CFE0FF903A
:1032580002D0E0FEEEC39F400302331B900281E0E0
:10326800FBA3E0FAA3E0F9120777900280E0FFEFF2
:10327800B401079002507480F02290027EE0FFEFC4
:1032880064017070900280E0FFEF7068900250E077
:10329800FFEF12075132BC8032C38832CA8932D15B
:1032A8008A32D88B32DF8C32E68D32ED8E32F48F53
:1032B8000000331B9002507488F0229002507489E9
:1032C800F022900250748AF022900250748BF022FF
:1032D800900250748CF022900250748DF02290026B
:1032E80050748EF022900250748FF0229002507425
:1032F80088F02222900180E0FBA3E0FAA3E0F9899C
:10330800828A837F017E0012077B9002D0E004F05E
:033318000232522C
:01331B00228F
:1017FA005001C114FF4292FF3E8CFF3E30FF3A8BEC
:03180A00FF3B1091
:1042920053A2DF43A21075D80075D90C75E90075D9
:1042A200F90075DA4275F20053F2FD7F007E0012CA
:0D42B2003B109001C1EFF0123E30D2DE2231
:103E8C009001C1E0FFEF1207513EAB003EB3143E70
:103E9C00BB283EC33C3ECB503ED36400003EDA9080
:103EAC0001C17414F0802D9001C17428F08025900C
:103EBC0001C1743CF0801D9001C17450F0801590CC
:103ECC0001C17464F0800D9001C1E4F08006900192
:083EDC00C17414F0123E302203
:103E30009001C1E0FFEF1207513E4F003E54143E87
:103E400059283E5E3C3E63503E686400003E6D75FE
:103E5000FAFF801C75FACC801775FA99801275FAF2
:103E600066800D75FA33800875FA00800375FAFFD5
:103E70009001C1E0FD9001CBE0FBA3E0FAA3E0F9E3
:0C3E800089828A837F007E0012077B226B
:103A8B009002BCEEF0A3EFF09002BEEDF090024678
:103A9B00740AF0900245E4F0900246E0FF14F0EF58
:103AAB0060629002BCE0FEA3E0FF90024DE0FBA33E
:103ABB00E0FAA3E0F989828A8312077B9002BCE0CB
:103ACB00FEA3E0FF9002BEE0FD90024AE0FBA3E004
:103ADB00FAA3E0F989828A8312077B9002BCE0FE8D
:103AEB00A3E0FF900247E0FBA3E0FAA3E0F9898291
:103AFB008A8312077B9002BEE0FEEFB5069A900216
:053B0B00457401F022E9
:083B10009002B5EEF0A3EFF006
:103B18009002B7E4F09002B8E4F0900246740AF01C
:103B2800900246E0FF14F0EF60509002B5E0FEA36B
:103B3800E0FF900247E0FBA3E0FAA3E0F989828A5C
:103B48008312077B9002B7EFF09002B5E0FEA3E086
:103B5800FF900247E0FBA3E0FAA3E0F989828A8399
:103B680012077B9002B8EFF09002B8E0FF9002B71E
:103B7800E0FEEEB507AA800280A69002B7E0FFEF4C
:0B3B8800B4FF037F00229002B7E0FFB3
:013B9300220F
:0E180D004B023A0000FF4306FF3F3AFF258CD6
:10430600759D10439720C2AD75BCC4900180E0FB3B
:10431600A3E0FAA3E0F989828A837F027E0012076E
:024326007B22F8
:103F3A009002D1E4F0A3E4F075BD0075BE0053BC55
:103F4A00EF43BC0800000000E5BC30E4FB53BCEFC3
:103F5A00AFBD7E009002D1EEF0A3EFF09002D1E067
:103F6A00FEA3E0FFEF7F00FEADBE7C00EF2DFFEE6B
:103F7A003CFE9002D1EEF0A3EFF09002D1E0FEA356
:023F8A00E0FF56
:013F8C002212
:10258C00900223E4F0A3E4F0900225E4F0A3E4F03D
:10259C0090022DE4F090022DE0FFEFC39410400365
:1025AC000226CF900223E4F0A3E4F090023FE0FB7C
:1025BC00A3E0FAA3E0F9120777900229EEF0FEA34C
:1025CC00EFF0FF900227EEF0A3EFF090022EE4F074
:1025DC0090022EE0FFEFC39408400302269790026E
:1025EC003FE0FBA3E0FAA3E0F912077790022BEE91
:1025FC00F0A3EFF0900227E0FEA3E0FF90022BE0A7
:10260C00FCA3E0FDC3ED9FEC9E5026900227E0FE5C
:10261C00A3E0FF900224E02FF0900223E03EF09024
:10262C00022BE0FEA3E0FF900227EEF0A3EFF08078
:10263C0051900229E0FEA3E0FF90022BE0FCA3E006
:10264C00FDD3ED9FEC9E4026900229E0FEA3E0FF17
:10265C00900224E02FF0900223E03EF090022BE059
:10266C00FEA3E0FF900229EEF0A3EFF0801490029D
:10267C002BE0FEA3E0FF900224E02FF0900223E079
:10268C003EF090022EE004F00225DC900223E0FEE6
:10269C00A3E0FFEF7803CEC313CE13D8F9FF90025B
:1026AC0023EEF0A3EFF0900223E0FEA3E0FF9002F4
:1026BC0026E02FF0900225E03EF090022DE004F091
:1026CC000225A1900225E0FEA3E0FFEEC4F854F031
:1026DC00C868FEEFC4540F48FF900225EEF0A3EF3C
:0926EC00F0900225E0FEA3E0FFDE
:0126F50022C2
:0E181B004B0245000AFF413BFF41BAFF42610C
:1044110075C70075C50075C60075C3FF75C4FF2259
:08413B009002BFEEF0A3EFF0CB
:104143009002C1E4F075C78375C5019002BFE0FE1C
:10415300A3E0FF8FC49002BFE0FEA3E0FFEEFF7E6B
:10416300008FC375C65A75C6A5009002C1E5C2F09B
:084173001244119002C1E0FFAB
:01417B002221
:1041BA009002C2EEF0A3EFF09002C4EDF075C7834F
:1041CA0075C5029002C2E0FEA3E0FF8FC49002C24E
:1041DA00E0FEA3E0FFEEFF7E008FC39002C4E0FF83
:0D41EA008FC275C65A75C6A5001244112279
:104261009002D3EEF0A3EFF075C78375C5039002FA
:10427100D3E0FEA3E0FF8FC49002D3E0FEA3E0FFF2
:10428100EEFF7E008FC375C65A75C6A50012441194
:01429100220A
:101829005601AB00FF0006FF4441FF445EFF3D6CDB
:09183900FF4027FF4421FF443168
:06449600000000000022FE
:05000600D2A3D2A222EA
:0F444100D2A2D2A3124496C2A2124496C2A322C0
:0D445E00C2A2D2A3124496D2A2124496220A
:053D6C009002D5EFF00C
:103D71009002D6E4F09002D6E0FFEFC394085031F0
:103D81009002D6E0FF9002D5E0FEEEA8070880027F
:103D9100C333D8FCFFEF30E704D2A28002C2A212E3
:103DA1004496D2A3124496C2A39002D6E004F080B6
:103DB100C4D2A2124496D2A312449630A207900113
:103DC100ABE4F080069001AB7401F0C2A3124496FB
:013DD10022CF
:104027009002D7E4F0D2A29002D8E4F09002D8E050
:10403700FFEFC394085029C2A3124496D2A3124497
:10404700969002D7E0FFEF25E0FF9002D7EFF03020
:10405700A2069002D7E004F09002D8E004F080CCEA
:0A406700C2A31244969002D7E0FFB6
:01407100222C
:10442100C2A2124496D2A3124496C2A31244962267
:10443100D2A2124496D2A3124496C2A31244962247
:09184200460291FF3090FF2AA933
:10309000900297EBF0A3EAF0A3E9F090029AEDF02A
:1030A00090029BE4F09001AFE0FBA3E0FAA3E0F90B
:1030B0001207779001B5E0FBA3E0FAA3E0F989825B
:1030C0008A837FA012077B9001ABE0FFEF70037F44
:1030D00000229001B5E0FBA3E0FAA3E0F989828A1F
:1030E000837F0012077B9001ABE0FFEF70037F004E
:1030F0002290029BE4F090029AE0FF90029BE0FE97
:10310000EEC39F503E900297E0FBA3E0FAA3E0F9E4
:103110001205E4FF9001B5E0FBA3E0FAA3E0F98912
:10312000828A8312077B9001ABE0FFEF70037F0080
:1031300022900298E475F00112065E90029BE00472
:10314000F080B39001B2E0FBA3E0FAA3E0F912072C
:1031500077900180E0FBA3E0FAA3E0F989828A83FB
:093160007F017E0012077B7F0154
:013169002243
:102AA90090029CEBF0A3EAF0A3E9F090029FEDF00D
:102AB9009002A0E4F09001AFE0FBA3E0FAA3E0F9F3
:102AC9001207779001B5E0FBA3E0FAA3E0F9898248
:102AD9008A837FA012077B9001ABE0FFEF70037F31
:102AE90000229001B5E0FBA3E0FAA3E0F989828A0C
:102AF900837F0012077B9001ABE0FFEF70037F003B
:102B0900229001AFE0FBA3E0FAA3E0F91207779066
:102B190001B5E0FBA3E0FAA3E0F989828A837FA1EA
:102B290012077B9001ABE0FFEF70037F0022900258
:102B3900A0E4F090029FE0FFEF14FF9002A0E0FEF6
:102B4900EEC39F503D9001B8E0FBA3E0FAA3E0F982
:102B590012077790029CE0FBA3E0FAA3E0F9EF12D9
:102B6900062A9001BBE0FBA3E0FAA3E0F91207777C
:102B790090029DE475F00112065E9002A0E004F057
:102B890080B19001B8E0FBA3E0FAA3E0F91207775E
:102B990090029CE0FBA3E0FAA3E0F9EF12062A9069
:102BA90001BEE0FBA3E0FAA3E0F91207779001B2B6
:0D2BB900E0FBA3E0FAA3E0F91207777F012B
:012BC60022EC
:1023F80003BE03C303BB03BD03B703BA03B403B6E9
:1024080003B003B303AC03AF03A803AB03A403A750
:10241800039F03A3039A039E0395039903900394D0
:10242800038B038F0386038A03800385037A037F64
:1024380003740379036E03730367036D0360036614
:102448000359035F03520358034B03510343034AE1
:10245800033B03420333033A032B03320323032AC8
:10246800031A0322031103190308031002FF0307C9
:1024780002F502FE02EC02F402E202EB02D802E1EB
:1024880002CE02D702C402CD02B902C302AF02B81B
:1024980002A402AE029902A3028E02980280028F61
:1024A8000277027F026C02760260026B0255025FBD
:1024B800024A0254023E02490235023D022A02340F
:1024C800021C02290211021B0205021001FA020471
:1024D80001F001F901E501EF01DB01E401D001DAC6
:1024E80001C501CF01BA01C401B001B901A501AF0D
:1024F800019B01A40190019A0186018F017C01854D
:102508000172017B01680171015F01670156015E7B
:10251800014C01550143014B013B01420132013A93
:102528000129013101210128011901200111011896
:10253800010A01100102010900FA010100F300F982
:1025480000EC00F200E500EB00DF00E400D800DE5C
:1025580000D200D700CC00D100C800CB00C000C713
:1025680000BA00BF00B500B900B000B400AA00AFBF
:1025780000A500A900A100A4009C00A00097009B52
:042588000093009626
:0D184B004A026400000000FF2EBEFF18835B
:102EBE0090025EE4F0A3E4F09002601206D00000EF
:102ECE000000124341900242E0FBA3E0FAA3E0F9B6
:102EDE0012077790025EEEF0A3EFF01244AB900271
:102EEE005EE0FCA3E0FDE41203627B007AC0797F12
:102EFE0078441202477B337A337953784012013E7D
:102F0E009002601206C4900260E0F8A3E0F9A3E01C
:102F1E00FAA3E0FB7F337E337D537C401200497B66
:102F2E00007A40791C7846120247A804A905AA0621
:102F3E00AB07900260E0FCA3E0FDA3E0FEA3E0FF80
:102F4E0012024790025A1206C47B007A40791C780E
:102F5E004690025AE0FCA3E0FDA3E0FEA3E0FF12C0
:102F6E0002471229B47B2C7ABB7984783912013E40
:102F7E007B0F7ACF795B783B12004DA804A905AA86
:102F8E0006AB077F007E007D807C3F1202477B33BD
:0F2F9E007A53798878C312004D9002641206C4EA
:012FAD002201
:101883009002841206D000000000900288E4F090D9
:1018930002897464F090028A7432F0124341900218
:1018A30042E0FBA3E0FAA3E0F9120777AC06AD0729
:1018B300E41203629002841206C41244AB900289BC
:1018C300E0FF900288E0FEEEC39F40030219E99017
:1018D300028AE0FF75F004EFA424F8F582E5F03402
:1018E30023F583E493FC740193FDE41203629002F5
:1018F30084E0F8A3E0F9A3E0FAA3E0FB1202E440DA
:101903003790028AE0FF75F004EFA424FAF582E52C
:10191300F03423F583E493FC740193FDE412036232
:10192300900284E0F8A3E0F9A3E0FAA3E0FB12023B
:10193300E4600250030219E990028AE0FF75F004A3
:10194300EFA424F8F582E5F03423F583E493FC74E3
:101953000193FDE4120362900284E0F8A3E0F9A38B
:10196300E0FAA3E0FB1202E4500F90028AE0FFEFDB
:1019730004FF900288EFF0804190028AE0FF75F047
:1019830004EFA424FAF582E5F03423F583E493FC11
:10199300740193FDE4120362900284E0F8A3E0F97A
:1019A300A3E0FAA3E0FB1202E4600F400D90028A69
:1019B300E0FFEF14FF900289EFF0900288E0FF7ED2
:1019C30000900289E0FD7C00C3ED9FFFEC9EFEEEDC
:1019D300C313FEEF13FF900288E0FEEF2EFF900289
:1019E3008AEFF00218C090028AE0FF75F004EFA4BA
:1019F30024F8F582E5F03423F583E493FC74019332
:101A0300FDE4120362A804A905AA06AB07900284A9
:101A1300E0FCA3E0FDA3E0FEA3E0FF120049C00445
:101A2300C005C006C00790028AE0FF75F004EFA46A
:101A330024F8F582E5F03423F583E493FE740193EF
:101A4300FF90028AE0FD75F004EDA424FAF582E527
:101A5300F03423F583E493FC740193FDC3ED9FFD00
:101A6300EC9EFCE4120362A804A905AA06AB07D006
:101A730007D006D005D004120247C004C005C00633
:101A8300C00790028AE0FCE4120367A804A905AA30
:101A930006AB07D007D006D005D00412004D7B005B
:0F1AA3007A0079F078C112004D9002641206C4E7
:011AB2002211
:10434100D293900180E0FBA3E0FAA3E0F989828A8D
:09435100837F017E0012077B222C
:0344AB00C2932297
:101858004F01E0FF43EEFF4477FF449CFF44A0FFA5
:0218680044A496
:1043EE0075C11F9001E6E0FBA3E0FAA3E0F9120706
:0243FE00772224
:0B447700E5C130E5037F01227F002239
:04449C0043C12022D6
:0444A00053C1DF2203
:0444A40043C11022DE
:10422D005354415F4D616368696E652E75635354D8
:10423D00415F4D616368696E655F5363616E5F5485
:10424D00696D65723D2568750A0044657465637412
:04425D0021210A0011
:10186A004101FD004701F600000000FF1E9F4701ED
:08187A00EF0100000000000076
:101E9F00900136E0FBA3E0FAA3E0F91207777BFF8E
:101EAF007A42792D9001F0E0FEA3E0FF90013FEE22
:101EBF00F0A3EFF012083B900139E0FBA3E0FAA387
:101ECF00E0F91207779001F0E0FEA3E0FFC3EF9473
:101EDF0002EE940050030220107BFF7A427957C024
:101EEF0003C002C00190012FE0FBA3E0FAA3E0F9C9
:101EFF0089828A83D001D002D00312077B9001EF31
:101F0F00E0FFEF1207511F25011F66021F83031FFA
:101F1F00FF040000200A30B3359001FDE0FFEF64AD
:101F2F000160030220109001F2E0FEA3E0FFC3EF77
:101F3F009428EE940050030220109001F67401F0E3
:101F4F009001F77401F09001FDE4F0022010900170
:101F5F00EF7402F002201020B3119001EF7403F020
:101F6F009001F4E4F0A3E4F00220109001EF74016B
:101F7F00F002201020B33F9001F9E0FFEF60030261
:101F8F0020109001F4E0FEA3E0FFC3EF9490EE94D5
:101F9F0001406E9001EF7404F09001F67401F0901F
:101FAF0001F97401F09001FDE0FFEF6401705290B0
:101FBF0001FDE4F0804B9001EF7404F09001F9E023
:101FCF00FFEF703D9001FDE0FFEFB401139001F6BC
:101FDF007401F09001F87401F09001FDE4F080219C
:101FEF009001FD7401F09001F2E4F0A3E4F0801190
:101FFF0030B30E9001EF7401F080069001EF740181
:10200F00F09001F6E0FFEF640170689001F6E4F0E4
:10201F009001F7E0FFEFB401109001C5E0FBA3E0E2
:10202F00FAA3E0F9120777803B9001F8E0FFEFB4D5
:10203F0001159001C1E4F09001C8E0FBA3E0FAA301
:10204F00E0F9120777801D9001F9E0FFEFB401145A
:10205F009001C17464F09001C8E0FBA3E0FAA3E023
:10206F00F91207779001F7E4F09001F8E4F090018E
:0C207F00F9E4F09001F0E4F0A3E4F0229A
:100046000203D0E86480F8E933E83360110460F015
:10005600ED33EC337009E8FCE9FDEAFEEBFF220420
:1000660060DED3EB9FEA9EE99DE8C2E78CF0C2F71B
:1000760095F0400CE8CCF8E9CDF9EACEFAEBCFFBE7
:1000860012039B85D0F05804700320D5B3E80470A2
:10009600075002B2D50203DA92D5EC0460F7E4CC3D
:1000A600C0E0C398F8603B94186008400DD0E0FBB0
:1000B6000203B2E4FBFAC9FC8028E830E406E4C98E
:1000C600FBE4CAFCE830E305E4C9CACBFCE8540704
:1000D6006010F8C3E913F9EA13FAEB13FBEC13FC0F
:1000E600D8F130F52FC3E49CFCEF9BFFEE9AFEEDB2
:1000F60099FDD0E0FBEF4E4D4C701222DB0302035C
:10010600D7EC2CFCEF33FFEE33FEED33FDED30E79D
:10011600EB0203B2EF2BFFEE3AFEED39FDD0E0FB2A
:1001260050130BBB00030203DAED13FDEE13FEEFD3
:0801360013FFEC13FC0203B2FD
:10013E00EC4D6011E8497017ED33EC3304600DE4BB
:10014E00FCFFFEFD22E933E8330470F80203D012FF
:10015E00039B58046009E4CC248150062850090200
:10016E0003DA2840030203D7C0E0EB4A7044B9809B
:10017E0006D0E0FB0203C6EF4E701CBD8008EBFFFD
:10018E00EAFEE9FD80EBE98DF0A4FEE5F002022720
:10019E00E9CDF9EAFEEBFFEF89F0A4FCE5F0CE899C
:1001AE00F0A42EFFE435F0CD89F0A42DFEE435F059
:1001BE008067EF4E7005BD80D780C3EF8BF0A4AC87
:1001CE00F0EE8BF0A42CFCE435F0F8EF8AF0A42CC2
:1001DE00E5F038FCE433CB8DF0A42CFCE5F03BF8D5
:1001EE00EE8AF0A42CFCE5F038F8E433CF89F0A4C5
:1001FE002CFCE5F038CF3400CE89F0A42FFFE5F0CB
:10020E003EFEE433C98DF0A42EFEE5F039CD8AF022
:10021E00A42FFFE5F03EFEE43DFD33D0E0FB50079A
:10022E000BBB000F0203DAEC2CFCEF33FFEE33FEB8
:06023E00ED33FD0203B2E6
:100244000203DAEC5D046005E8590470030203D08C
:1002540012039B580460F6EC4860F2EC7004FDFE57
:10026400FF22C860DB2481C85009C398600250068D
:100274000203D79850CAF582E9294B4A7005AB822C
:100284000203C675F0007C1A7880C3EF9BEE9AEDEA
:1002940099400DC3EF9BFFEE9AFEED99FDE842F005
:1002A400DC23ACF0D0E0FFD0E0FED0E0FDAB822058
:1002B400E7101BEB60BAEC2CFCEF33FFEE33FEEDE2
:1002C40033FD0203B2E803F830E705C0F075F0002F
:1002D400EF2FFFEE33FEED33FD40B830E7C280AAC6
:1002E40074F8CC6480CCC86480C8F58204604FC3C1
:1002F400EB9FF5F0EA9E42F0E99D42F0E89C45F060
:10030400603C501DE5825FFFE582D313CB5BCBF4E9
:100314002B5582FB50280ABA002409B90020088012
:100324001DE5825BFBE582D313CF5FCFF4C3132FAC
:100334005582FF50090EBE00050DBD00010CC3EB34
:100344009FF5F0EA9E42F0E99D42F0E89C45F0609A
:0903540007CC4820E701B3EC22BC
:10035D0075F020800E75F010800575F0087D007E1B
:10036D00007F003392D530D50312068AEC3340104E
:10037D00EF33FFEE33FEED33FDEC33FCD5F0ED2224
:0E038D00E5F0247EA2D513CC92E7CDCEFF2260
:1007D000E510243FF582E43401F583E00510229012
:1007E000013C30070390013FE475F001120701025C
:1007F00005E42000E97F2ED2008018EF540F2490EA
:10080000D43440D4FF30040BEF24BFB41A0050039B
:100810002461FFE511600215110514E5147002054D
:100820001330070E90013CE475F001120701EF024E
:10083000062A0242E47403D2078003E4C207F510DB
:1008400090013C120718E4F511F513F514E5116059
:10085000077F2012081380F57512FFC201C200C283
:1008600002C203C205C206C2081207DFFF700D30C4
:1008700007057F00120824AF14AE1322B4255FC20F
:10088000D5C2041207DFFF24D0B40A00501A75F055
:100890000A781130D50508B6FF0106C6A426F62051
:1008A000D5047002D20380D924CFB41A00EF5004CB
:1008B000C2E5D204020B16D20180C6D20080C0D29B
:1008C0000280BCD2D580BAD20580B47F2012081332
:1008D0002002077401B5110040F11207D0FF120881
:1008E0001302084DD208D20680951207D0FB1207DA
:1008F000D0FA1207D0F94A4B700679147A0C7BFFB4
:1009000020022EE511602A7E008E8275830012057A
:10091000FD60060EEE651270F0C2D5EBC0E0EAC0D5
:10092000E0E9C0E0EE120B77D0E0F9D0E0FAD0E0D9
:10093000FB1205E4FF60AAEBC0E0EAC0E0E9C0E01A
:10094000120813D0E02401F9D0E03400FAD0E0FB23
:10095000E5120460DCD512D98087D20280A2120B86
:100960005960F7E5127001041203E5A912600DE564
:1009700012600914F512120C01EF60F3EA30E7027D
:10098000F404C3995079EAF425120430E701E40431
:10099000F512800D120B5960C1EA051225121203DF
:1009A000E5EA90016BF030E701E4251204D512046A
:1009B00020050114120B77E4C0E0120C0190016BCA
:1009C000E0601320E70714F01207FB802204F0D048
:1009D000E014C0E07F001207FBE51260071207F287
:1009E0001512800B3005031207F2D0E002084DD03B
:1009F000E00480C4120B59609EE512041203E590D6
:100A0000016BEAF0E5122005026001042404120BD8
:010A1000776E
:100A110074FF04C0E0120C011207FBE5122005026D
:100A210060031207F2D0E0B512E87F451208059085
:100A3100016BE07F2B30E7047F2DF404C0E0120846
:100A410013D0E075F00A84C0F01207FCD0E0120761
:100A5100FC02084D791080027908C206C20880089C
:100A6100D2D5790A8004790AC2D5E512047002F55B
:100A710012E4FAFDFEFF1207D0FC7B0820011312DD
:100A810007D0FD7B1030000A1207D0FE1207D0FFFD
:100A91007B20EC3382D592D55013C3E43000069FFE
:100AA100FFE49EFEE42001039DFDE49CFCE4CBF801
:100AB100C201EC700CCFCECDCCE824F8F870F380F5
:100AC10017C3EF33FFEE33FEED33FDEC33FCEB33B5
:100AD100FB994002FB0FD8E9EB300105F8D0E0C4E7
:100AE10048B201C0E00AEC4D4E4F78207B0070C245
:100AF100EAB5120040BCC0E0120B79D0F0D0E02082
:100B01000104C4C0E0C4B201C0F01207FCD0F0D5AA
:100B1100F0EB02084D12075108EA530A555808BB79
:100B21004C08B7420A594F0A61440A614908D04347
:100B31000A675509944609F445095E470C34500883
:100B4100BF2D08C32E08E62B08C72308E4200C1D7F
:100B51002A087F48000008DEE512B4FF037512067B
:100B61001207D0FC1207D0FD1207D0FE1207D0FFEA
:100B7100900164020422790AA2D5200314300509E8
:100B8100B910020404B9080104A2D52006025001DB
:100B9100042002689202B511005034C0E07F203079
:100BA10003197F30A20272067205500F120BD0C2D8
:100BB10002C206C205C2087F30800F300503E9C0BA
:100BC100E0120813300503D0E0F9D0E0B511CC30C4
:100BD10005177F30B9100C1208137F583004077FB6
:100BE100788003B908031208133002057F2D02082B
:100BF100137F202008F87F2B2006F322920280CF5A
:100C01007F00B40700500B2464F582E43401F583BE
:100C1100E0FF22286E756C6C2900D2011207D030DA
:100C210001F8C201781130D50108F602087F2D5074
:100C31004349581207D02403B405004001E4900C45
:100C41002F93120804743A120804D2037511040296
:020C51000A5542
:102980003E9248DA3ECCCCCD3F2AAAAB40000000B4
:102990003F8000003F9837F03FB504F33FD744FC39
:1029A0003E3172173EB172173F0515913EDE5BD97D
:1029B000D2008002C200EDD2E7F8CD33EC330470D0
:1029C0000BBD800592D50203DA0203D040FBD3147D
:1029D00060F2F5F07C3FEE7A00C39496C8948B4089
:1029E000230AC89469C8941A401A0AC89468C894FB
:1029F0001F40110AC8945AC89425400805F07A006F
:102A0000CDC2E7CDC0F090013C1206C4EA2323C03A
:102A1000E02490F582E43429F5831206B412004DC7
:102A2000ECC0E0EDC0E0EEC0E0EFC0E01206989030
:102A3000013C1206A8120049D0E0FBD0E0FAD0E039
:102A4000F9D0E0B2E7F812024790013C1206C490B8
:102A50002980740312052790013C1206A812013E3A
:102A6000D0E0600F249CF582E43429F5831206B48B
:102A700012004D90013C1206C4D0E0C3947FFDE4E7
:102A80009400FC1203627B187A727931783F12014C
:102A90003E90013C1206A812004D30000B7BD97A03
:092AA0005B79DE783E12013E2252
:10039B00E9D2E7C933E833F892D5EDD2E7CD33ECA8
:0703AB0033FC5002B2D52221
:1003B200EC30E7100FBF000C0EBE00080DBD0004AC
:1003C2000BEB6014A2D5EB13FCED92E7FD2274FF58
:1003D200FCFDFEFF22E480F8A2D574FF13FC7D80B1
:0303E200E480EFC5
:1003E500F920E73624F950037907E4F42402FBE504
:1003F50082158270021583DBF6E024FB501BE96051
:1004050014E4F0E582158270021583E004F0B40A65
:0D04150008E4F0D9EE7401F00A22C2D522ED
:10042200ED33EC3392D5FA602AB4FF33EDC2E77BA9
:10043200FF60067A047947E4227A04795020D504D1
:100442007A04794B224E614E002B494E46002D49CB
:100452004E4600E47A08F0A3DAFC7B00740722C05F
:1004620083C082ECC0E0EDC0E0EEC0E0EFC0E0EAA5
:1004720075F010A4CAABF075F04DA42BFBE435F077
:10048200FCEA2410FAEB34C5FBEC34D9FCEDC2E7EC
:10049200FF75F056A4F42411C5F0F434C58FF0A40E
:1004A2002AE5F03BE43CF020E7141205A4D0E0FF7B
:1004B200D0E0FED0E0FDD0E0FC1202478014F4044C
:1004C2001205A4D0E0FFD0E0FED0E0FDD0E0FC12A7
:1004D200013ED082D083E0FAEDD2E7CD33EC332473
:1004E20082FBE4C3CF33CFCE33CECD33CD33DBF378
:1004F2007B0775F00A846004F0A31B0AE5F0F0A301
:100502008FF0740AA4FFACF08EF0740AA42CFEAC37
:10051200F050010C8DF0740AA42CFDE435F0F0A328
:05052200DBDE7407227E
:10052700C0E0EFFBEEFAEDF9ECF812013ED0E0F592
:10053700F0EFFBEEFAEDF9ECF8120698A3A3A3A3EC
:10054700E8C0E0E9C0E0EAC0E0EBC0E0C0F01201BB
:100557003E1206B4A3A3A3A312004DD0F0D0E0FB34
:0D056700D0E0FAD0E0F9D0E0F8D5F0D422D1
:100574003F8000004120000042C80000447A00008F
:10058400461C400047C35000497424004B18968011
:100594004CBEBC205A0E1BCA6753C21C749DC5AE08
:1005A400FB60065407601C23231205D2EB54386009
:1005B400091205BE1205CD12013EECF8EDF9EEFA72
:1005C400EFCB22EB1205CD80F1543803241C9005A7
:1005D40074FE93FC0EEE93FD0EEE930ECE93FF226B
:030000000238F2D1
:0C38F200787FE4F6D8FD75812702393993
:1005E400BB010689828A83E0225002E722BBFE0215
:0905F400E32289828A83E4932248
:1005FD00BB010CE58229F582E5833AF583E02250B3
:10060D0006E92582F8E622BBFE06E92582F8E222FC
:0D061D00E58229F582E5833AF583E4932216
:10062A00BB010689828A83F0225002F722BBFE01AF
:02063A00F322A9
:10063C00F8BB010DE58229F582E5833AF583E8F0F4
:10064C00225006E92582C8F622BBFE05E92582C8A0
:02065C00F22288
:10065E00C5F0F8A3E028F0C5F0F8E5821582700227
:06066E001583E038F022C4
:10067400A3F8E0C5F025F0F0E58215827002158339
:06068400E0C838F0E82296
:0E068A00C3E49FFFE49EFEE49DFDE49CFC2281
:10069800E493FC740193FD740293FE740393FF22A8
:0C06A800E0F8A3E0F9A3E0FAA3E0FB22D5
:1006B400E493F8740193F9740293FA740393FB229C
:0C06C400ECF0A3EDF0A3EEF0A3EFF022A9
:1006D000A8828583F0D083D0821206E71206E71243
:1006E00006E71206E7E473E493A3C583C5F0C58368
:1006F000C8C582C8F0A3C583C5F0C583C8C582C874
:0107000022D6
:10070100F8E0FBA3A3E0F925F0F0E5821582700281
:070711001583E0FA38F02225
:09071800EBF0A3EAF0A3E9F022E2
:10072100BB010DE58229F582E5833AF5830207B223
:100731005007E92582F80207A9BBFE07E92582F8DF
:100741000207BBE58229F582E5833AF5830207C4F6
:10075100D083D082F8E4937012740193700DA3A337
:1007610093F8740193F5828883E47374029368604B
:06077100EFA3A3A380DF4B
:060777008A838982E4730D
:1035740090013CEBF0A3EAF0A3E9F0A3E0FBA3E0A5
:10358400FAA3E0F91205E4700302362090013CE04E
:10359400FBA3E0FAA3E0F91205E4700302362C90D1
:1035A400013FE0F9A3E0FAA3E0A3C9F0A3EAF0A382
:1035B400E9F090013CA3E0FAA3E0F9900145EBF0B7
:1035C400A3EAF0A3E9F0900142E0FBA3E0FAA3E050
:1035D400F91205E4FF6026900145E0FBA3E0FAA39D
:1035E400E0F91205E46F701590014375F0011206BD
:1035F4005E900146E475F00112065E80C9900142B6
:10360400E0FBA3E0FAA3E0F91205E47002800D9058
:10361400013DE475F00112065E02359090013CE034
:0F362400FBA3E0FAA3E0F9227B007A00790022F1
:10077D00EF4E6012EF60010EEDBB010B89828A8393
:10078D00F0A3DFFCDEFA2289F05007F709DFFCA9A0
:0C079D00F022BBFEFCF309DFFCA9F022F7
:1038FE00023EE4E493A3F8E493A34003F68001F2BE
:10390E0008DFF48029E493A3F85407240CC8C333CA
:10391E00C4540F4420C8834004F456800146F6DF99
:10392E00E4800B0102040810204080901607E47E0C
:10393E00019360BCA3FF543F30E509541FFEE4938E
:10394E00A360010ECF54C025E060A840B8E493A355
:10395E00FAE493A3F8E493A3C8C582C8CAC583CA80
:10396E00F0A3C8C582C8CAC583CADFE9DEE780BE38
:011882000065
:0907A900E6FB08E6FA08E6F92275
:0907B200E0FBA3E0FAA3E0F92248
:0907BB00E2FB08E2FA08E2F9226F
:0C07C400E493FB740193FA740293F92291
:00000001FF
