:102B300052756E6E696E67210A0076616C75656507
:102B40003D2568750A005772697465205375636383
:102B500065737366756C2C6461743D2562750A003B
:102B60005772697465204572726F722C6461743D8E
:102B70002562750A006461743D2562750A0052651C
:102B80006164204572726F7221526561645F4941D0
:102B9000505F50617261313D2562752C52656164F0
:102BA0005F4941505F50617261313D2562750A0095
:03114B000126007A
:101A970090020BE4F090020CE4F0A3E4F09001AFA5
:101AA700E0FBA3E0FAA3E0F912177E7BFF7A2B791C
:101AB70030C003C002C001900078E0FBA3E0FAA3A6
:101AC700E0F989828A83D001D002D003121782906D
:101AD70001C5E0FBA3E0FAA3E0F989828A837F00CE
:101AE7007E001217829001C2E0FBA3E0FAA3E0F99F
:101AF70089828A837DAF7F007E001217829001C2A0
:101B0700E0FBA3E0FAA3E0F989828A837DBF7F0126
:101B17007E001217829001BFE0FBA3E0FAA3E0F971
:101B270089828A837F017E001217827E0090020CD1
:101B3700EEF0A3EFF09001BFE0FBA3E0FAA3E0F91A
:101B470089828A837F007E00121782EFFD7C0090D6
:101B5700020CE0FEA3E0FFEF7F00FEEF2DFFEE3C5F
:101B6700FE90020CEEF0A3EFF090007FE0FBA3E005
:101B7700FAA3E0F912177E7BFF7A2B793A90020CD1
:101B8700E0FEA3E0FF90010DEEF0A3EFF01204EBEF
:101B9700900082E0FBA3E0FAA3E0F912177E900120
:101BA70046E0FBA3E0FAA3E0F989828A837FE87E17
:071BB70003121782021AEC71
:011BBE002204
:101EB6009001BE740AF09001BDE4F09001BEE0FF0F
:101EC60014F0EF7003021F5C9001C5E0FBA3E0FA7B
:101ED600A3E0F989828A837F007E0012178290012F
:101EE600C2E0FBA3E0FAA3E0F989828A837DFE7F44
:101EF600007E001217829001BFE0FBA3E0FAA3E088
:101F0600F989828A837F007E00121782EFB4FEABC6
:101F160090007FE0FBA3E0FAA3E0F912177E9001A0
:101F2600BFE0FBA3E0FAA3E0F989828A837F007E03
:101F36000012178290010DEFF07BFF7A2B79461283
:101F460004EB900082E0FBA3E0FAA3E0F912177E0F
:101F56009001BD7401F09001BDE0FFEF704090006C
:101F66007FE0FBA3E0FAA3E0F912177E9001BFE041
:101F7600FBA3E0FAA3E0F989828A837F007E001240
:101F8600178290010DEFF07BFF7A2B79601204EB3C
:0F1F9600900082E0FBA3E0FAA3E0F912177E228D
:082239009001EEEEF0A3EFF0BE
:102241009001F0E4F09001EEE0FEA3E0FF9001BF09
:10225100E0FBA3E0FAA3E0F989828A831217829056
:1022610001F1EFF09001EEE0FEA3E0FF9001BFE08D
:10227100FBA3E0FAA3E0F989828A83121782900115
:10228100F2EFF09001F2E0FF9001F1E0FEEEB50710
:102291003B9001F1E0FF9001F0EFF090007FE0FB57
:1022A100A3E0FAA3E0F912177E7BFF7A2B797590F0
:1022B10001F0E0FF90010DEFF01204EB900082E0DD
:1022C100FBA3E0FAA3E0F912177E803990007FE0CA
:1022D100FBA3E0FAA3E0F912177E7BFF7A2B797E4C
:1022E1009001F1E0FF90010DEFF09001F2E0FF901D
:1022F100010EEFF01204EB900082E0FBA3E0FAA3E1
:0A230100E0F912177E9001F0E0FFF2
:01230B0022AF
:0C32670057694669204572726F720A00B8
:10114E00540132000000000000000000000000000A
:10115E00000000000000004F0146FF2F78FF3144D1
:09116E00FF0006FF003FFF2FFA0D
:103144007BFF7A327967C003C002C001900078E047
:10315400FBA3E0FAA3E0F989828A83D001D002D0EC
:05316400031217822296
:0400060043C72022AA
:03003F00B2B42236
:102FFA009001F3EBF0A3EAF0A3E9F09001F6EDF00B
:10300A009001F6E0FF7E007D009001F3E0FBA3E073
:10301A00FAA3E0F9121784900146E0FBA3E0FAA3B1
:0E302A00E0F989828A837F0A7E0012178222D3
:082F78009001F7EEF0A3EFF069
:102F80009001F9E4F0A3E4F09001F7E0FEA3E0FF84
:102F90009001F9E0FCA3E0FDC3ED9FEE6480F8EC46
:102FA00064809850131231A49001FAE004F0700686
:082FB0009001F9E004F080D06B
:012FB80022F6
:1031A40000000075150B7516BE1516AF16EF70F9F5
:0731B4001515AF15EF70F2D5
:0131BB0022F1
:0F1177004C019AFF000EFF31D3FF31E8FF31BC6E
:10000E0075B10475B21020B304D2B480F930B3F6D2
:05001E00C2B480F222D3
:1031D30075B10475B21420B204D2B480F930B2F6DA
:0531E300C2B480F222DD
:1031E80075B10475B21020B204D2B480F930B2F6C9
:0531F800C2B480F222C8
:1031BC0075B10475B210D2B320B304D2B480F93017
:0731CC00B3F6C2B480F22249
:1031FD004E6F74206861766520382042797465A31E
:04320D00A1A3A100D8
:101186006032003200000000000000000000000095
:101196000000000000000000000000000000000049
:1011A6000000000000000000000000000000000039
:1011B6000000000000006032000000000000000097
:1011C6000000000000000000000000000000000019
:1011D6000000000000000000000000000000000009
:1011E6000000000000000000000000006021006414
:1011F6000003000000010000010032FF24A4FF2EBE
:101206009AFF27FDFF2623FF230C01FF0026FF314F
:011216008B4C
:1024A400900064E0FFEF12175824B400000024B930
:1024B40075985080037598D090007EE0FFEF121756
:1024C4005824D20024D70124D202000024DD53A2D0
:1024D4003F800653A27F43A24075870053890F4370
:1024E4008E40538EFE900065E0FFEF1217582502D0
:1024F40000250A01251202251A0300002522758BE6
:10250400C0758DFD801E758BE0758DFE8016758BF4
:1025140070758DFF800E758BE8758DFF8006758B49
:10252400C0758DFDC2ABD28ED29C90006CE0FBA333
:10253400E0FAA3E0F9C003C002C001900152E0FB3D
:10254400A3E0FAA3E0F989828A83D001D002D00300
:102554007D32121782900067E4F0900068E4F02264
:052E9A00900228EFF09A
:102E9F00900066E0FFEF640160F6900064E0FFEFE2
:102EAF006028900228E0FFEFA2D0920D900064E01E
:102EBF00FFEF1217582ECE012ED50200002ED9A2E9
:102ECF000DB3929B8004A20D929B9000667401F04B
:072EDF00900228E0FF8F992B
:012EE60022C9
:0B26230090020EEBF0A3EAF0A3E9F038
:10262E00781E760008760090007EE0FFEFB4010E73
:10263E0090007FE0FBA3E0FAA3E0F912177E900270
:10264E000EE0FBA3E0FAA3E0F9781EE6FE08E6FF33
:10265E008F828E831216B1FFEF603690020EE0FB72
:10266E00A3E0FAA3E0F9781EE6FE08E6FF8F828E5D
:10267E00831216B1FF900072E0FBA3E0FAA3E0F91B
:10268E0089828A83121782781F06E61870010680E7
:10269E00AD900066E0FFEF640160F690007EE0FF13
:1026AE00EFB40124900146E0FBA3E0FAA3E0F98920
:1026BE00828A837F017E00121782900082E0FBA344
:0826CE00E0FAA3E0F912177E07
:0126D60022E1
:1027FD009001FBEBF0A3EAF0A3E9F09001FEEDF000
:10280D0090007EE0FFEFB4010E90007FE0FBA3E0AF
:10281D00FAA3E0F912177E9001FEE0FF14F0EF60CD
:10282D00289001FBE0FBA3E475F001121712A9F04B
:10283D00FA121698FF900072E0FBA3E0FAA3E0F9FC
:10284D0089828A8312178280CE900066E0FFEF6442
:10285D000160F690007EE0FFEFB40124900146E0A8
:10286D00FBA3E0FAA3E0F989828A837F017E00123F
:10287D001782900082E0FBA3E0FAA3E0F912177E25
:01288D002228
:10316900900229EFF0900229E0FF900072E0FBA3A2
:10317900E0FAA3E0F989828A83121782900229E092
:02318900FF2223
:10002600D2A0900146E0FBA3E0FAA3E0F989828A18
:09003600837F027E001217822272
:10318B00900146E0FBA3E0FAA3E0F989828A837FF2
:09319B00027E00121782C2A0227C
:10230C00D20E900067E0FFEF640160030223D790C8
:10231C00006CE0FBA3E0FAA3E0F9AE02AF01EF4ED4
:10232C00607178187600087600900068E0FFEFC3C3
:10233C00940850127818E6FE08E6FFC3EF9414EEEA
:10234C00940040E5C20E300E257B017A007964C002
:10235C0003C002C0017823860308E6FA08E6F9896F
:10236C00828A83D001D002D003121782802590007C
:10237C007FE0FBA3E0FAA3E0F912177E7BFF7A3132
:10238C0079FD1204EB900082E0FBA3E0FAA3E0F9E4
:10239C0012177E90006CE0FBA3E0FAA3E0F9C003F7
:1023AC00C002C001900068E0FD900152E0FBA3E088
:1023BC00FAA3E0F989828A83D001D002D0031217E4
:0B23CC0082900067E4F0900068E4F0ED
:0123D70022E3
:0300230002208731
:0B208700C0E0C083C082C0D075D0084C
:10209200309907C299900066E4F020980302215714
:1020A200C29890022AE599F0A29A920990022AE037
:1020B200FFEFA2D0920A900068E0FFEFC394324093
:1020C20003022151900064E0FFEF12175821310002
:1020D20020DC0121070200002151A209B3300A01CC
:1020E200B3406C90022AE0FF90006CE0FBA3E0FAA0
:1020F200A3E0F9900068E0FE04F08E82758300EFA1
:102102001216F0804AA20A300901B3404290022A14
:10211200E0FF90006CE0FBA3E0FAA3E0F990006816
:10212200E0FE04F08E82758300EF1216F08020909C
:10213200022AE0FF90006CE0FBA3E0FAA3E0F99032
:102142000068E0FE04F08E82758300EF1216F090B4
:0521520000677401F0BC
:09215700D0D0D082D083D0E03258
:0F1217004C01A6FF3075FF3259FF30B0FF26D7CC
:1030750075930075940C75800075B14475B2B0C236
:10308500B575957075967153A0FE75C90075CAFF23
:10309500D2CCC2CD900146E0FBA3E0FAA3E0F989CA
:0B30A500828A837F027E0012178222C5
:0E325900D2A8D288D2A9D2AC43AF01D2AF2204
:1030B00090022BE4F090022BE4F090022BE0FFEF63
:1030C000C394055020B2B4900146E0FBA3E0FAA3FC
:1030D000E0F989828A837F327E0012178290022B68
:0530E000E004F080D5C2
:0130E50022C8
:1026D700900146E0FBA3E0FAA3E0F989828A837FB1
:1026E700647E001217829001A6E0FBA3E0FAA3E044
:1026F700F912177E9001ACE0FBA3E0FAA3E0F91210
:10270700177E9001A9E0FBA3E0FAA3E0F912177E78
:10271700781B860308E6FA08E6F912177E90006F21
:10272700E0FBA3E0FAA3E0F912177E9000C2E0FBFA
:10273700A3E0FAA3E0F912177E900159E0FBA3E0AA
:10274700FAA3E0F912177E9001C9E0FBA3E0FAA310
:10275700E0F912177E90018EE0FBA3E0FAA3E0F9FF
:0427670012177E22A5
:0A1226004701DA00000000FF1FA5D9
:101FA5009001D2EBF0A3EAF0A3E9F09001D5EDF0B2
:101FB5009001D6E4F0A3E4F09001D8E4F09001D9C3
:101FC500E4F09001D674FFF0A374FFF09001D8E41B
:101FD500F09001D5E0FF9001D8E0FEEEC39F4003ED
:101FE50002207E9001D6E0FEA3E0FF9001D2E0FB47
:101FF500A3E0FAA3E0F99001D8E0FD8D8275830096
:102005001216B1FD7C00EE6CFEEF6DFF9001D6EE71
:10201500F0A3EFF09001D9E4F09001D9E0FFEFC310
:102025009408504C9001D6E0FEA3E0FFEF30E0218C
:102035009001D6E0FEA3E0FFEEC313FEEF13FFEE23
:1020450064A0FEEF6401FF9001D6EEF0A3EFF080EF
:10205500179001D6E0FEA3E0FFEEC313FEEF13FFDA
:102065009001D6EEF0A3EFF09001D9E004F080A93D
:102075009001D8E004F0021FD69001D6E0FEA3E05F
:01208500FF5B
:012086002237
:102BB000435243313620436865636B204552524F80
:102BC00052A3A1A3A1005265676973742061646474
:102BD00072657373206F7574206F662072616E6703
:102BE00065A3A1A3A1307E390A004F6E6C792072D3
:102BF0006561642074776F20726567697374206FF4
:102C00006E6365A3A1A3A10A00526567697374206E
:102C100061646472657373206F7574206F662072CF
:0E2C2000616E676532A3A1A3A1307E390A0060
:06123000042201FF132B54
:0B132B009001E8EBF0A3EAF0A3E9F06A
:101336009001E8E0FBA3E0FAA3E0F99001EBEBF003
:10134600A3EAF0A3E9F09001EBE0FBA3E0FAA3E047
:10135600F9758208758300121728121698FF7822ED
:10136600E6FEEF6E60030214EF9001EBE0FBA3E0F4
:10137600FAA3E0F9758208758300121728C003C026
:1013860002C0019001DEE0FBA3E0FAA3E0F9898246
:101396008A83D001D002D0037D061217829001DA2B
:1013A600EEF0A3EFF09001DAE0FEA3E0FFEEFF7EA1
:1013B600009001DCEFF09001DAE0FEA3E0FF90017F
:1013C600DDEFF09001EBE0FBA3E0FAA3E0F9758214
:1013D600087583001217287582067583001216B1E8
:1013E600FF9001DDE0FEEFB506279001EBE0FBA3E1
:1013F600E0FAA3E0F9758208758300121728758252
:10140600077583001216B1FF9001DCE0FEEF6E60F7
:10141600519001EBE0FBA3E0FAA3E0F975820875B1
:1014260083001217287582067583001216B1FF9085
:1014360001DCE0FEEF6E60030214CA9001EBE0FBF4
:10144600A3E0FAA3E0F975820875830012172875E0
:1014560082077583001216B1FF9001DDE0FEEF6E84
:1014660070629001EBE0FBA3E0FAA3E0F975820855
:101476007583001217287582017583001216B1FF55
:10148600EFB4030F9001EBE0FBA3E0FAA3E0F9123F
:101496000046229001EBE0FBA3E0FAA3E0F9758297
:1014A600087583001217287582017583001216B11C
:1014B600FFEFB406349001EBE0FBA3E0FAA3E0F9FA
:1014C600120D5F2290007FE0FBA3E0FAA3E0F91281
:1014D600177E7BFF7A2B79B01204EB900082E0FB3B
:0914E600A3E0FAA3E0F912177E5D
:0114EF0022DA
:0B004600900180EBF0A3EAF0A3E9F0CA
:10005100900180E0FBA3E0FAA3E0F9900183EBF0CB
:10006100A3EAF0A3E9F0900186E4F0A3E4F09001A3
:1000710088E4F0A3E4F090018A7403F0900183E036
:10008100FBA3E0FAA3E0F975820875830012172833
:100091007582027583001216B1FF7E00900186E021
:1000A100FCA3E0FDEF2DFFEE3CFEEF7F00FE900193
:1000B10083E0FBA3E0FAA3E0F975820875830012DF
:1000C10017287582037583001216B1FD7C00EF2D90
:1000D100FFEE3CFE900186EEF0A3EFF0900183E08D
:1000E100FBA3E0FAA3E0F9758208758300121728D3
:1000F1007582047583001216B1FF7E00900188E0BD
:10010100FCA3E0FDEF2DFFEE3CFEEF7F00FE900132
:1001110083E0FBA3E0FAA3E0F9758208758300127E
:1001210017287582057583001216B1FD7C00EF2D2D
:10013100FFEE3CFE900188EEF0A3EFF0900188E025
:10014100FEA3E0FF900186E0FCA3E0FDED2FFFECB4
:100151003EFED3EF940AEE94004003020415900191
:1001610088E0FEA3E0FFD3EF9400EE940050030279
:100171000415900188E0FEA3E0FFC3EF9403EE9421
:100181000040030204157822E6FF900183E0FBA3FF
:10019100E0FAA3E0F9758205758300121728EF12C2
:1001A10016DE900183E0FBA3E0FAA3E0F975820576
:1001B1007583001217287582017583007403121666
:1001C100F0900188E0FEA3E0FFEF25E0FF900183BE
:1001D100E0FBA3E0FAA3E0F975820575830012172D
:1001E10028758202758300EF1216F090018BE4F0FE
:1001F10090018BE0FF7E00900188E0FCA3E0FDC34D
:10020100EF9DEE9C400302033990018BE0FF9001CA
:100211008CEFF090018BE0FF7E00EF2401FFEE34C4
:1002210000FE90018CE0FD7C00D3ED9FEE6480F830
:10023100EC648098400302032990018BE0FF900158
:100241008CE0FEEE6F706F90018BE0FF7E009001FD
:1002510086E0FCA3E0FDEF2DFFEE3CFEEF25E0FF85
:10026100EE33FE74322FF58274013EF583E0FEA376
:10027100E0FFEEFF7E00900183E0FBA3E0FAA3E044
:10028100F9758205758300121728E92403F9EA3408
:1002910000FA90018BE0FEEEFD7C00E92DF9EA3CCD
:1002A100FA90018CE0FEEEFD7C00E92DF9EA3CFAC2
:1002B100EF1216DE806990018BE0FF7E00900186CF
:1002C100E0FCA3E0FDEF2DFFEE3CFEEF25E0FFEEAD
:1002D10033FE74322FF58274013EF583E0FEA3E014
:1002E100FF900183E0FBA3E0FAA3E0F975820575B5
:1002F1008300121728E92403F9EA3400FA90018BEC
:10030100E0FEEEFD7C00E92DF9EA3CFA90018CE07B
:10031100FEEEFD7C00E92DF9EA3CFAEF1216DE90C3
:10032100018CE004F002021490018AE02402F090B2
:10033100018BE004F00201F1900183E0FBA3E0FAFC
:10034100A3E0F9758205758300121728C003C00266
:10035100C00190018AE0FD9001DEE0FBA3E0FAA379
:10036100E0F989828A83D001D002D00312178290EA
:1003710001DAEEF0A3EFF09001DAE0FEA3E0FF90E6
:100381000183E0FBA3E0FAA3E0F975820575830020
:1003910012172890018AE0FE04F08E82758300EF27
:1003A1001216F09001DAE0FEA3E0FFEEFF7E00906E
:1003B1000183E0FBA3E0FAA3E0F9758205758300F0
:1003C10012172890018AE0FE04F08E82758300EFF7
:1003D1001216F0900183E0FBA3E0FAA3E0F9758225
:1003E10005758300121728C003C002C00190018A5D
:1003F100E0FD900183E0FBA3E0FAA3E0F97582112F
:1004010075830012172889828A83D001D002D00314
:1004110012178222900188E0FEA3E0FF900186E09E
:10042100FCA3E0FDED2FFFEC3EFED3EF940AEE942A
:1004310000402690007FE0FBA3E0FAA3E0F9121749
:100441007E7BFF7A2B79C61204EB900082E0FBA33E
:10045100E0FAA3E0F912177E2290007FE0FBA3E00F
:10046100FAA3E0F912177E7BFF7A2B79EA1204EBEB
:0E047100900082E0FBA3E0FAA3E0F912177EF0
:01047F00225A
:0B0D5F009001B2EBF0A3EAF0A3E9F072
:100D6A009001B2E0FBA3E0FAA3E0F99001B5EBF041
:100D7A00A3EAF0A3E9F09001B8E4F0A3E4F090014B
:100D8A00BAE4F0A3E4F09001BCE4F09001BCE0FF07
:100D9A00EFC39408504C9001B5E0FBA3E0FAA3E03E
:100DAA00F97582087583001217289001BCE0FF8F3D
:100DBA00827583001216B1FF9001B5E0FBA3E0FA39
:100DCA00A3E0F97582057583001217289001BCE02B
:100DDA00FE8E82758300EF1216F09001BCE004F0DB
:100DEA0080A99001B5E0FBA3E0FAA3E0F9758205BA
:100DFA00758300121728C003C002C0019001B5E034
:100E0A00FBA3E0FAA3E0F975821175830012172893
:100E1A0089828A83D001D002D0037D08121782907A
:100E2A0001B5E0FBA3E0FAA3E0F975820875830037
:100E3A001217287582027583001216B1FF7E009080
:100E4A0001B8E0FCA3E0FDEF2DFFEE3CFEEF7F00D2
:100E5A00FE9001B5E0FBA3E0FAA3E0F975820875FC
:100E6A0083001217287582037583001216B1FD7C60
:100E7A0000EF2DFFEE3CFE9001B8EEF0A3EFF090EC
:100E8A0001B5E0FBA3E0FAA3E0F9758208758300D7
:100E9A001217287582047583001216B1FF7E00901E
:100EAA0001B8E0FCA3E0FDEF2DFFEE3CFEEF7F0072
:100EBA00FE9001B5E0FBA3E0FAA3E0F9758208759C
:100ECA0083001217287582057583001216B1FD7CFE
:100EDA0000EF2DFFEE3CFE9001BAEEF0A3EFF0908A
:100EEA0001B8E0FEA3E0FFD3EF9409EE9400503579
:100EFA009001B8E0FEA3E0FFC3EE94004027900102
:100F0A00BAE0FCA3E0FD9001B8E0FEA3E0FFEF2504
:100F1A00E0FFEE33FE74322FF58274013EF583EC66
:100F2A00F0A3EDF02290007FE0FBA3E0FAA3E0F942
:100F3A0012177E7BFF7A2C79091204EB900082E06B
:0A0F4A00FBA3E0FAA3E0F912177E02
:010F5400227A
:09123600071700000000FF323828
:10323800538E7F5389F0758A00758CEEC28DD28CBF
:013248002263
:03000B0002276B5E
:10276B00C0E0C0F0C083C082C0D075D000C000C034
:10277B0001C002C003C004C005C006C007781AE63A
:10278B00FFEFB4011F781706E6FFEFC3940A403141
:10279B007817760090014FE0FBA3E0FAA3E0F91263
:1027AB00177E801D781706E6FFEFC394C84012789A
:1027BB0017760090014FE0FBA3E0FAA3E0F91217A4
:1027CB007E781906E618700106900158E004F07047
:1027DB0006900157E004F0D007D006D005D004D006
:1027EB0003D002D001D000D0D0D082D083D0F0D093
:0227FB00E032CA
:103211004E6F74206861766520382042797465A309
:04322100A1A3A100C4
:10123F00603200D800000000000000000000000035
:10124F00000000000000000000000000000000008F
:10125F00000000000000000000000000000000007F
:10126F000000000000006032008500000000000058
:10127F00000000000000000000000000000000005F
:10128F00000000000000000000000000000000004F
:10129F00000000000000000000000000602100B707
:1012AF0000030000000100850100D8FF291AFF2C60
:1012BF002EFF2EE7FF2D1EFF23D800FF000AFF0091
:0112CF0042DC
:10291A00759A50438E0453BAFE900065E0FFEF1299
:10292A001758293C00294401294C02295403000064
:10293A00295C75D7C075D6FD801E75D7E075D6FEA1
:10294A00801675D77075D6FF800E75D7E875D6FFD5
:10295A00800675D7C075D6FD53AFFB438E10439AD8
:10296A00109000BFE0FBA3E0FAA3E0F9C003C002A5
:10297A00C001900152E0FBA3E0FAA3E0F989828A40
:10298A0083D001D002D0037D321217829000BAE4BC
:07299A00F09000BBE4F02205
:052C2E0090021AEFF016
:102C330090021BE4F09000B9E0FFEF640160F690AE
:102C430000B7E0FFEF605490021AE0FFEFA2D0E478
:102C530033FF90021BE0FEEF2EFFEF33333354F8C4
:102C6300FF90021BEFF09000B7E0FFEF1217582C14
:102C73007C012C8E0200002C9E90021BE0FFEF7063
:102C830005439A088015539AF7801090021BE0FFC2
:102C9300EF7005539AF78003439A089000B97401C3
:082CA300F090021AE0FF8F9B84
:012CAB002206
:0B2D1E009001FFEBF0A3EAF0A3E9F046
:102D2900900202E4F09001FFE0FBA3E0FAA3E0F9CE
:102D3900900202E0FF8F827583001216B1FFEF60E7
:102D4900339001FFE0FBA3E0FAA3E0F9900202E06F
:102D5900FF8F827583001216B1FF9000C5E0FBA3B7
:102D6900E0FAA3E0F989828A83121782900202E0CD
:0E2D790004F080B19000B9E0FFEF640160F655
:012D87002229
:102EE700900203EBF0A3EAF0A3E9F0900206EDF0FD
:102EF700900206E0FF14F0EF6028900203E0FBA3C6
:102F0700E475F001121712A9F0FA121698FF900053
:102F1700C5E0FBA3E0FAA3E0F989828A831217824E
:0D2F270080CE9000B9E0FFEF640160F6225B
:1023D800D20F9000BAE0FFEF640160030224A390DB
:1023E80000BFE0FBA3E0FAA3E0F9AE02AF01EF4EB5
:1023F8006071781876000876009000BBE0FFEFC3A4
:10240800940850127818E6FE08E6FFC3EF9414EE1D
:10241800940040E5C20F300F257B017A0079B7C0E0
:1024280003C002C0017823860308E6FA08E6F989A2
:10243800828A83D001D002D00312178280259000AF
:102448007FE0FBA3E0FAA3E0F912177E7BFF7A3264
:1024580079111204EB900082E0FBA3E0FAA3E0F903
:1024680012177E9000BFE0FBA3E0FAA3E0F9C003D7
:10247800C002C0019000BBE0FD900152E0FBA3E068
:10248800FAA3E0F989828A83D001D002D003121717
:0B249800829000BBE4F09000BAE4F07A
:0124A3002216
:01000A0022D3
:01004200229B
:03004300021CC5D7
:101CC500C0E0C083C082C0D075D000C000C001C0D4
:071CD50002C003C006C007B6
:101CDC00E59A30E108539AFD9000B9E4F0E59A20BA
:101CEC00E003021DAD539AFE7827A69BE59A540497
:101CFC00FFEF1313543FFFEF24FF920B7827E6FFFF
:101D0C00EFA2D0920C9000BBE0FFEFC394324003E3
:101D1C00021DA79000B7E0FFEF1217581D88001D99
:101D2C0035011D5F0200001DA7A20BB3300C01B3DF
:101D3C0040697827E6FF9000BFE0FBA3E0FAA3E040
:101D4C00F99000BBE0FE04F08E82758300EF121652
:101D5C00F08048A20C300B01B340407827E6FF908E
:101D6C0000BFE0FBA3E0FAA3E0F99000BBE0FE04A7
:101D7C00F08E82758300EF1216F0801F7827E6FF35
:101D8C009000BFE0FBA3E0FAA3E0F99000BBE0FEFB
:101D9C0004F08E82758300EF1216F09000BA740175
:011DAC00F046
:101DAD00D007D006D003D002D001D000D0D0D08241
:051DBD00D083D0E032EC
:10180D0041540D0A005769466920496E6974207468
:10181D00696D656F757421210A004F4B000D0A002B
:10182D004578697420546F75436875616E2D2D2D43
:10183D002D0A002B00415445300D0A0041542B4315
:10184D00574D4F44455F4445463D310D0A004154C7
:10185D002B43574155544F434F4E4E0D0A004154A3
:10186D002B43574A41505F4445463D22B5CEB5CE38
:10187D00B5CE222C227A6E68786B68333039220D02
:10188D000A005749464920474F54204950002B2BF9
:10189D002B0053746174653D2562642C4F4B5F467C
:1018AD006C61673D2562640A0041542B43494653E0
:1018BD00520D0A003139322E3136380041542B4346
:1018CD00495053544152543D22544350222C2231FD
:1018DD0039322E3136382E3130312E313034222CF2
:1018ED00383838380D0A00434F4E4E4543540041A9
:1018FD00542B4349504D4F44453D310D0A00415441
:10190D002B43495053454E440D0A0052756E6E6976
:10191D006E67210A0054696D654F7574210A005375
:10192D00656E6420646174613D2573004E6F742093
:10193D00415420436F6D6D616E6421213D25730A05
:10194D0000526563656976652054696D654F7574E0
:03195D00210A005C
:1012D000550156000000FF1960FF0AD3FF07E5FF24
:1012E000327DFF327EFF1BBF46016BFF0F55FF1D96
:0512F000C241015500A0
:10196000C283900146E0FBA3E0FAA3E0F989828AF2
:10197000837F647E00121782D283D2827818760029
:10198000087600781A76019000BFE0FBA3E0FAA386
:10199000E0F9C003C002C0019000BBE0FD9001521D
:1019A000E0FBA3E0FAA3E0F989828A83D001D002A8
:1019B000D0031217829000BBE4F09000BAE4F07BF1
:1019C000FF7A18790DC003C002C0019000CBE0FB84
:1019D000A3E0FAA3E0F989828A83D001D002D00380
:1019E000121782900146E0FBA3E0FAA3E0F9898296
:1019F0008A837F647E001217827818E6FE08E6FF6D
:101A0000D3EF94E8EE940340267BFF7A187912C056
:101A100003C002C001900078E0FBA3E0FAA3E0F964
:101A200089828A83D001D002D003121782804D9020
:101A300000BFE0FBA3E0FAA3E0F9C003C002C001CD
:101A40007BFF7A18792790010DEBF0A3EAF0A3E968
:101A5000F0D001D002D003122564C003C002C0013F
:101A60007B007A007900D082D083D0E06B7008E9E7
:101A700065827003EA65837003021987900146E06E
:101A8000FBA3E0FAA3E0F989828A837FE87E031250
:071A90001782781A7600228C
:0B14F000900171EBF0A3EAF0A3E9F01B
:1014FB009001797401F0900171E0FBA3E0FAA3E095
:10150B00F990017AEBF0A3EAF0A3E9F0900174E013
:10151B00FBA3E0FAA3E0F990017DEBF0A3EAF0A3C3
:10152B00E9F09000BFE0FBA3E0FAA3E0F9C003C031
:10153B0002C0019000BBE0FD900152E0FBA3E0FA7A
:10154B00A3E0F989828A83D001D002D003121782DB
:10155B009000BBE4F09000BAE4F090017AE0FBA3BA
:10156B00E0FAA3E0F9C003C002C0019000CBE0FB9E
:10157B00A3E0FAA3E0F989828A83D001D002D003D9
:10158B00121782781876000876009000BFE0FBA354
:10159B00E0FAA3E0F9C003C002C0017BFF7A18791F
:1015AB002A90010DEBF0A3EAF0A3E9F0D001D002F1
:1015BB00D003122564C003C002C0017B007A0079FE
:1015CB0000D082D083D0E06B7008E965827003EAAB
:1015DB006583604F9000BFE0FBA3E0FAA3E0F9C086
:1015EB0003C002C001900174E0FBA3E0FAA3E0F991
:1015FB0090010DEBF0A3EAF0A3E9F0D001D002D0FB
:10160B0003122564C003C002C0017B007A0079007D
:10161B00D082D083D0E06B7008E965827003EA65F5
:10162B0083702C900177E0FEA3E0FF7818E6FC08AE
:10163B00E6FDD3ED9FEC9E5003021595900149E01A
:10164B00FBA3E0FAA3E0F912177E900179E4F09086
:10165B0000BFE0FBA3E0FAA3E0F9C003C002C001A6
:10166B009000BBE0FD900152E0FBA3E0FAA3E0F990
:10167B0089828A83D001D002D0031217829000BBDB
:0C168B00E4F09000BAE4F0900179E0FF78
:011697002230
:100AD3009001E4E0FFEF64016003020D5E781A7693
:100AE30001900156E0FFEF64016003020B977BFF67
:100AF3007A18792DC003C002C001900078E0FBA3EF
:100B0300E0FAA3E0F989828A83D001D002D00312EC
:100B130017827BFF7A187940C003C002C00190009E
:100B2300CBE0FBA3E0FAA3E0F989828A83D001D06A
:100B330002D0031217827BFF7A187940C003C002E8
:100B4300C0019000CBE0FBA3E0FAA3E0F989828A1D
:100B530083D001D002D0031217827BFF7A18794029
:100B6300C003C002C0019000CBE0FBA3E0FAA3E006
:100B7300F989828A83D001D002D0031217829001AF
:100B830046E0FBA3E0FAA3E0F989828A837FE87E4B
:100B9300031217827BFF7A18790DC003C002C001CC
:100BA3007BFF7A187927900174EBF0A3EAF0A3E9AD
:100BB300F0900177E4F0A37414F0D001D002D003D5
:100BC3001214F07BFF7A187942C003C002C0017B84
:100BD300FF7A187927900174EBF0A3EAF0A3E9F008
:100BE300900177E4F0A37414F0D001D002D0031283
:100BF30014F07BFF7A187949C003C002C0017BFF60
:100C03007A187927900174EBF0A3EAF0A3E9F09046
:100C13000177E4F0A37414F0D001D002D0031214CE
:100C2300F07BFF7A18795BC003C002C0017BFF7AB7
:100C3300187927900174EBF0A3EAF0A3E9F090018F
:100C430077E4F0A37414F0D001D002D0031214F0AF
:100C53007BFF7A18796BC003C002C0017BFF7A184F
:100C63007927900174EBF0A3EAF0A3E9F090017700
:100C7300E4F0A374C8F0D001D002D0031214F078CA
:100C83001876000876007818E6FE08E6FFC3EF94AE
:100C9300A0EE948C4003020D4C9000BFE0FBA3E058
:100CA300FAA3E0F9C003C002C0017BFF7A18798F71
:100CB30090010DEBF0A3EAF0A3E9F0D001D002D04C
:100CC30003122564C003C002C0017B007A007900CF
:100CD300D082D083D0E06B7008E965827003EA6547
:100CE3008360A37BFF7A18798FC003C002C0019091
:100CF3000078E0FBA3E0FAA3E0F989828A83D001BC
:100D0300D002D003121782900146E0FBA3E0FAA3BE
:100D1300E0F989828A837FE87E0312178290014675
:100D2300E0FBA3E0FAA3E0F989828A837FE87E03EC
:100D3300121782900146E0FBA3E0FAA3E0F989824F
:100D43008A837FE87E03121782781A760090014C1B
:0C0D5300E0FBA3E0FAA3E0F912177E22F7
:1007E50090021CE4F090021DE4F07BFF7A18799BDF
:1007F500C003C002C0019000CBE0FBA3E0FAA3E078
:10080500F989828A83D001D002D003121782900120
:1008150046E0FBA3E0FAA3E0F989828A837FE87EBC
:100825000312178278187600087600781A760190F8
:10083500021DE0FFEF64FF7003020AC690007FE02F
:10084500FBA3E0FAA3E0F912177E7BFF7A18799FE4
:1008550090021DE0FF90010DEFF090021CE0FF906B
:10086500010EEFF01204EB900082E0FBA3E0FAA387
:10087500E0F912177E90021DE0FFEF121758089C51
:100885000008EB01093502097F0309CF040A2A058F
:100895000A7906000008347BFF7A18790DC003C079
:1008A50002C0017BFF7A187927900174EBF0A3EA67
:1008B500F0A3E9F0900177E4F0A37414F0D001D02F
:1008C50002D0031214F090021CEFF090021CE0FF1E
:1008D500EFB4010990021D7401F002083490021D65
:1008E50074FFF00208347BFF7A187942C003C00216
:1008F500C0017BFF7A187927900174EBF0A3EAF029
:10090500A3E9F0900177E4F0A37414F0D001D002CC
:10091500D0031214F090021CE0FFEFB4010990021D
:100925001D7402F002083490021D74FFF0020834B1
:100935007BFF7A187949C003C002C0017BFF7A1892
:100945007927900174EBF0A3EAF0A3E9F090017721
:10095500E4F0A37414F0D001D002D0031214F09087
:10096500021CE0FFEFB4010990021D7403F00208B8
:100975003490021D74FFF00208347BFF7A1879B6B3
:10098500C003C002C0017BFF7A1879C1900174EBE6
:10099500F0A3EAF0A3E9F09001777403F0A374E8FB
:1009A500F0D001D002D0031214F090021CEFF090A9
:1009B500021CE0FFEFB4010990021D7404F0020867
:1009C5003490021D74FFF00208347BFF7A1879C950
:1009D500C003C002C0017BFF7A1879F4900174EB63
:1009E500F0A3EAF0A3E9F09001777403F0A374E8AB
:1009F500F0D001D002D0031214F090021CEFF09059
:100A0500021CE0FFEFB4010F9001567401F0900253
:100A15001D7405F0020834900156E4F090021D742F
:100A2500FFF00208347BFF7A1879FCC003C002C0CE
:100A3500017BFF7A187927900174EBF0A3EAF0A304
:100A4500E9F0900177E4F0A37414F0D001D002D05E
:100A5500031214F090021CEFF090021CE0FFEFB4BB
:100A6500010990021D7406F002083490021D74FFFE
:100A7500F00208347BFF7A19790BC003C002C0016C
:100A85007BFF7A187927900174EBF0A3EAF0A3E9CC
:100A9500F0900177E4F0A37414F0D001D002D003F4
:100AA5001214F090021CEFF090021CE0FFEF6401BD
:100AB500600302083490021D74FFF0020834020836
:0D0AC50034781A7600900157E4F0A3E4F0B5
:010AD2002201
:01327D00222E
:01327E00222D
:101BBF00900156E0FFEF64016003021CC47818E641
:101BCF00FE08E6FFD3EF9458EE94025003021CC4B4
:101BDF007BFF7A197918C003C002C0019000CBE0D7
:101BEF00FBA3E0FAA3E0F989828A83D001D002D067
:101BFF00031217829000BAE0FFEFB401519000BFBB
:101C0F00E0FBA3E0FAA3E0F9C003C002C0017BFF31
:101C1F007A18792790010DEBF0A3EAF0A3E9F0D041
:101C2F0001D002D003122564C003C002C0017B00A3
:101C3F007A007900D082D083D0E06B7008E965829A
:101C4F007003EA65836007900155E4F080167818F9
:101C5F00E6FE08E6FFD3EF9420EE94034096900142
:101C6F0055E004F0900155E0FFEFC39404400A9053
:101C7F000156E4F0900155E4F09000BFE0FBA3E0C3
:101C8F00FAA3E0F9C003C002C001900152E0FBA328
:101C9F00E0FAA3E0F989828A83D001D002D0037DD4
:101CAF00041217829000BBE4F09000BAE4F07818A9
:051CBF0076000876002C
:011CC40022FD
:100F550090022C7401F0900067E0FFEF64016003DC
:100F650002114A7818760008760090006CE0FBA321
:100F7500E0FAA3E0F9C003C002C0017BFF7A18794B
:100F85002A90010DEBF0A3EAF0A3E9F0D001D0021D
:100F9500D003122564C003C002C0017B007A00792A
:100FA50000D082D083D0E06B7008E965827003EAD7
:100FB500658370397818E6FE08E6FFD3EF9414EEE2
:100FC500940040A690022CE4F07BFF7A197922C0A8
:100FD50003C002C001900078E0FBA3E0FAA3E0F9AA
:100FE50089828A83D001D002D00312178290022C05
:100FF500E0FFEF640160030210A290006CE0FBA328
:10100500E0FAA3E0F9121698FFEF644160030210BD
:10101500A290006CE0FBA3E0FAA3E0F975820175EC
:1010250083001216B1FFEF6454707290007FE0FBED
:10103500A3E0FAA3E0F912177E7BFF7A19792CC099
:1010450003C002C00190006CE0FBA3E0FAA3E0F945
:1010550090010DEBF0A3EAF0A3E9F0D001D002D0A6
:10106500031204EB900082E0FBA3E0FAA3E0F9127F
:10107500177E90006CE0FBA3E0FAA3E0F9C003C083
:1010850002C0019000CBE0FBA3E0FAA3E0F989825E
:101095008A83D001D002D003121782807090007F1E
:1010A500E0FBA3E0FAA3E0F912177E7BFF7A19793A
:1010B50039C003C002C00190006CE0FBA3E0FAA3B5
:1010C500E0F990010DEBF0A3EAF0A3E9F0D001D02F
:1010D50002D0031204EB900082E0FBA3E0FAA3E048
:1010E500F912177E90006CE0FBA3E0FAA3E0F9C0CB
:1010F50003C002C0019000CBE0FBA3E0FAA3E0F936
:1011050089828A83D001D002D00312178290006CA5
:10111500E0FBA3E0FAA3E0F9C003C002C001900020
:1011250068E0FD900152E0FBA3E0FAA3E0F98982B3
:101135008A83D001D002D003121782900068E4F0B0
:05114500900067E4F0DA
:01114A002282
:101DC2009000BAE0FFEF64016003021EB578187656
:101DD200000876009000BFE0FBA3E0FAA3E0F9C0A0
:101DE20003C002C0017BFF7A18792A90010DEBF043
:101DF200A3EAF0A3E9F0D001D002D003122564C017
:101E020003C002C0017B007A007900D082D083D067
:101E1200E06B7008E965827003EA658370347818B4
:101E2200E6FE08E6FFD3EF9414EE940040A67BFF93
:101E32007A19794EC003C002C001900078E0FBA37A
:101E4200E0FAA3E0F989828A83D001D002D003129A
:101E520017829000BFE0FBA3E0FAA3E0F9C003C041
:101E620002C001900078E0FBA3E0FAA3E0F98982C6
:101E72008A83D001D002D0031217829000BFE0FB08
:101E8200A3E0FAA3E0F9C003C002C0019000BBE0E6
:101E9200FD900152E0FBA3E0FAA3E0F989828A8374
:101EA200D001D002D0031217829000BBE4F0900060
:041EB200BAE4F0227C
:0A12F5004701E100000000FF29A1FD
:1029A10090021EE4F0A3E4F030B20A9001E2E4F0F8
:1029B1009001E4E4F09001E1E0FFEFB4012990011E
:1029C100E1E4F0C2A820B21F900146E0FBA3E0FAC7
:1029D100A3E0F989828A837F0A7E0012178220B2DE
:1029E100069001E27401F09001E2E0FFEFB40125ED
:1029F1009001E47401F0781876000876007818E602
:102A0100FE08E6FFC3EF9458EE9402500830B2ED91
:102A11009001E4E4F09001E4E0FFEFB401059001DE
:052A2100E2E4F0D2A880
:012A2600228D
:03000300023225A1
:10322500C0E0C083C0829001E17401F0D082D083F8
:03323500D0E032B4
:0A3273003F065B4F666D7D077F6F1D
:0D12FF004A01C88AFF2CACFF2F34FF21608C
:052D8800900220EFF0B5
:102D8D00900221E4F0C2A6900146E0FBA3E0FAA375
:102D9D00E0F989828A837F017E00121782900221D9
:102DAD00E4F0900221E0FFEFC39408502BC2A590F0
:102DBD000220E0FFEF30E004D2A48002C2A4900212
:102DCD0020E0FFEFC313FF900220EFF000D2A5002B
:082DDD00900221E004F080CA1D
:012DE50022CB
:102CAC0090022DE4F07F02122D88D2A67F40122DC7
:102CBC0088D2A67FC0122D8890022DE4F090022DB0
:102CCC00E0FFEFC3940C500D7F00122D8890022D65
:102CDC00E004F080E8D2A69001C8E0FF122D88D263
:102CEC00A67F02122D88D2A67F44122D88D2A67FF1
:102CFC00C0122D887FFF122D88D2A67FC2122D887C
:102D0C007FFF122D88D2A69001C8E0FF122D88D229
:012D1C00A610
:012D1D002293
:102F3400900222EFF0900223EDF0900222E0FFEFE6
:102F44001217582F51012F580200002F5D7FC01215
:102F54002D8880057FC2122D88900223E0FFEF9018
:102F6400327393FF122D88D2A69001C8E0FF122D70
:042F740088D2A62237
:05216000900224EFF0E5
:10216500900225E4F0900225E4F0900224E0FF902F
:102175000225E0FEEEC39F40030222389001E5E010
:10218500FBA3E0FAA3E0F912177E9001E4E0FFEF6C
:10219500B401079001C87480F0229001E2E0FFEFDE
:1021A500640170709001E4E0FFEF70689001C8E091
:1021B500FFEF12175821D98021E08821E78921EE08
:1021C5008A21F58B21FC8C22038D220A8E22118F08
:1021D500000022389001C87488F0229001C87489E3
:1021E500F0229001C8748AF0229001C8748BF02205
:1021F5009001C8748CF0229001C8748DF022900172
:10220500C8748EF0229001C8748FF0229001C874B2
:1022150088F02222900146E0FBA3E0FAA3E0F989C9
:10222500828A837F017E00121782900225E004F0E6
:0322350002216F14
:012238002283
:10130C004D018D14FF3117FF2E42FF2A27FF2AAC07
:1031170053A2DF43A21075D80075D90C75E9007565
:10312700F90075DA4275F20053F2FD7F007E001256
:0D3137002AAC90018DEFF0122DE6D2DE22C1
:102E420090018DE0FFEF1217582E61002E69142EAB
:102E520071282E793C2E81502E896400002E90908C
:102E6200018D7414F0802D90018D7428F0802590CE
:102E7200018D743CF0801D90018D7450F08015908E
:102E8200018D7464F0800D90018DE4F08006900154
:082E92008D7414F0122DE622EC
:102DE60090018DE0FFEF1217582E05002E0A142EC3
:102DF6000F282E143C2E19502E1E6400002E23750B
:102E0600FAFF801C75FACC801775FA99801275FA4C
:102E160066800D75FA33800875FA00800375FAFF2F
:102E260090018DE0FD900194E0FBA3E0FAA3E0F9A8
:0C2E360089828A837F007E0012178222AE
:102A2700900211EEF0A3EFF0900213EDF09001BECB
:102A3700740AF09001BDE4F09001BEE0FF14F0EFDE
:102A47006062900211E0FEA3E0FF9001C5E0FBA3E6
:102A5700E0FAA3E0F989828A83121782900211E0D3
:102A6700FEA3E0FF900213E0FD9001C2E0FBA3E0AC
:102A7700FAA3E0F989828A83121782900211E0FE95
:102A8700A3E0FF9001BFE0FBA3E0FAA3E0F989828E
:102A97008A83121782900213E0FEEFB5069A90011F
:052AA700BD7401F022E6
:082AAC00900207EEF0A3EFF029
:102AB400900209E4F090020AE4F09001BE740AF076
:102AC4009001BEE0FF14F0EF6050900207E0FEA317
:102AD400E0FF9001BFE0FBA3E0FAA3E0F989828A5A
:102AE40083121782900209EFF0900207E0FEA3E040
:102AF400FF9001BFE0FBA3E0FAA3E0F989828A8397
:102B040012178290020AEFF090020AE0FF90020985
:102B1400E0FEEEB507AA800280A6900209E0FFEF6E
:0B2B2400B4FF037F0022900209E0FFD5
:012B2F002283
:0E131C004B01BD000AFF2FB9FF3038FF30E64D
:1032490075C70075C50075C60075C3FF75C4FF2233
:082FB900900214EEF0A3EFF00A
:102FC100900216E4F075C78375C501900214E0FE06
:102FD100A3E0FF8FC4900214E0FEA3E0FFEEFF7EAA
:102FE100008FC375C65A75C6A500900216E5C2F0DA
:082FF100123249900216E0FFC4
:012FF90022B5
:10303800900217EEF0A3EFF0900219EDF075C78338
:1030480075C502900217E0FEA3E0FF8FC490021737
:10305800E0FEA3E0FFEEFF7E008FC3900219E0FFC1
:0D3068008FC275C65A75C6A50012324922E6
:1030E600900226EEF0A3EFF075C78375C503900234
:1030F60026E0FEA3E0FF8FC4900226E0FEA3E0FFD9
:10310600EEFF7E008FC375C65A75C6A500123249FA
:013116002296
:0300000002288E45
:0C288E00787FE4F6D8FD7581270228D57C
:10169800BB010689828A83E0225002E722BBFE0250
:0916A800E32289828A83E4932283
:1016B100BB010CE58229F582E5833AF583E02250EE
:1016C10006E92582F8E622BBFE06E92582F8E22238
:0D16D100E58229F582E5833AF583E4932252
:1016DE00BB010689828A83F0225002F722BBFE01EB
:0216EE00F322E5
:1016F000F8BB010DE58229F582E5833AF583E8F030
:10170000225006E92582C8F622BBFE05E92582C8DB
:02171000F222C3
:10171200A3F8E0C5F025F0F0E5821582700215838A
:06172200E0C838F0E822E7
:10172800BB010DE58229F582E5833AF5830217CFDF
:101738005007E92582F80217C6BBFE07E92582F89B
:101748000217F8E58229F582E5833AF58302180144
:10175800D083D082F8E4937012740193700DA3A320
:1017680093F8740193F5828883E473740293686034
:06177800EFA3A3A380DF34
:06177E008A838982E473F6
:10048000E510240DF582E43401F583E00510229097
:10049000010A30070390010DE475F0011217D8022C
:1004A00016982000E97F2ED2008018EF540F249078
:1004B000D43440D4FF30040BEF24BFB41A005003EF
:1004C0002461FFE511600215110514E514700205A1
:1004D0001330070E90010AE475F0011217D8EF02ED
:1004E00016DE0231697403D2078003E4C207F510F7
:1004F00090010A1217EFE4F511F513F514E51160F8
:10050000077F201204C380F57512FFC201C200C22A
:1005100002C203C205C206C20812048FFF700D306A
:1005200007057F001204D4AF14AE1322B4255FC2B6
:10053000D5C20412048FFF24D0B40A00501A75F0FB
:100540000A781130D50508B6FF0106C6A426F620A4
:10055000D5047002D20380D924CFB41A00EF50041E
:10056000C2E5D2040206D5D20180C6D20080C0D234
:100570000280BCD2D580BAD20580B47F201204C3D9
:100580002002077401B5110040F1120480FF12042B
:10059000C30204FDD208D2068095120480FB120427
:1005A00080FA120480F94A4B700679A67A077BFF1D
:1005B00020022EE511602A7E008E827583001216BD
:1005C000B160060EEE651270F0C2D5EBC0E0EAC075
:1005D000E0E9C0E0EE12071CD0E0F9D0E0FAD0E08C
:1005E000FB121698FF60AAEBC0E0EAC0E0E9C0E0A9
:1005F0001204C3D0E02401F9D0E03400FAD0E0FBCB
:10060000E5120460DCD512D980877BFF7A07791860
:10061000D202809C791080027908C206C208800844
:10062000D2D5790A8004790AC2D5E512047002F5A0
:1006300012E4FAFDFEFF120480FC7B082001131275
:100640000480FD7B1030000A120480FE120480FF3B
:100650007B20EC3382D592D55013C3E43000069F43
:10066000FFE49EFEE42001039DFDE49CFCE4CBF846
:10067000C201EC700CCFCECDCCE824F8F870F3803A
:1006800017C3EF33FFEE33FEED33FDEC33FCEB33FA
:10069000FB994002FB0FD8E9EB300105F8D0E0C42C
:1006A00048B201C0E00AEC4D4E4F78207B0070C28A
:1006B000EAB5120040BCC0E012071ED0F0D0E02026
:1006C0000104C4C0E0C4B201C0F01204ACD0F0D543
:1006D000F0EB0204FD121758059A53061458056BE7
:1006E0004C05674206184F06204406204905804302
:0806F000062655060A46060A1B
:1006F80045060A4707C650056F2D05732E05962B2C
:1007080005772305942007AF2A052F480000058E9A
:100718003F3F3F00790AA2D5200314300509B910DC
:10072800020404B9080104A2D520060250010420DD
:1007380002689202B511005034C0E07F20300319DE
:100748007F30A20272067205500F120775C202C2EC
:1007580006C205C2087F30800F300503E9C0E012E9
:1007680004C3300503D0E0F9D0E0B511CC3005174B
:100778007F30B9100C1204C37F583004077F78808B
:1007880003B908031204C33002057F2D0204C37F96
:10079800202008F87F2B2006F322920280CF286EB3
:1007A800756C6C2900D2011204803001F8C20178FE
:1007B8001130D50108F602052F2D5043495812046F
:1007C800802403B405004001E49007C1931204B4E7
:0D07D800743A1204B4D20375110402061421
:1025640090010AEBF0A3EAF0A3E9F0A3E0FBA3E0F7
:10257400FAA3E0F9121698700302261090010AE0FB
:10258400FBA3E0FAA3E0F9121698700302261C904C
:10259400010DE0F9A3E0FAA3E0A3C9F0A3EAF0A3D4
:1025A400E9F090010AA3E0FAA3E0F9900113EBF03B
:1025B400A3EAF0A3E9F0900110E0FBA3E0FAA3E0A2
:1025C400F9121698FF6026900113E0FBA3E0FAA32A
:1025D400E0F91216986F701590011175F001121739
:1025E400B0900114E475F0011217B080C990011085
:1025F400E0FBA3E0FAA3E0F91216987002800D90B4
:10260400010BE475F0011217B002258090010AE075
:0F261400FBA3E0FAA3E0F9227B007A0079002211
:10178400EF4E6012EF60010EEDBB010B89828A837C
:10179400F0A3DFFCDEFA2289F05007F709DFFCA989
:0C17A400F022BBFEFCF309DFFCA9F022E0
:10289A00021A97E493A3F8E493A34003F68001F2A3
:1028AA0008DFF48029E493A3F85407240CC8C3333F
:1028BA00C4540F4420C8834004F456800146F6DF0E
:1028CA00E4800B010204081020408090114BE47E42
:1028DA00019360BCA3FF543F30E509541FFEE49303
:1028EA00A360010ECF54C025E060A840B8E493A3CA
:1028FA00FAE493A3F8E493A3C8C582C8CAC583CAF5
:10290A00F0A3C8C582C8CAC583CADFE9DEE780BEAC
:01132A0000C2
:1017B000C5F0F8A3E028F0C5F0F8E58215827002C4
:0617C0001583E038F02261
:0917C600E6FB08E6FA08E6F92248
:0917CF00E0FBA3E0FAA3E0F9221B
:1017D800F8E0FBA3A3E0F925F0F0E582158270029A
:0717E8001583E0FA38F0223E
:0917EF00EBF0A3EAF0A3E9F022FB
:0917F800E2FB08E2FA08E2F92222
:0C180100E493FB740193FA740293F92243
:00000001FF
